{
  "contractName": "KaliLinux",
  "abi": [
    {
      "inputs": [],
      "stateMutability": "nonpayable",
      "type": "constructor"
    },
    {
      "anonymous": false,
      "inputs": [
        {
          "indexed": true,
          "internalType": "address",
          "name": "owner",
          "type": "address"
        },
        {
          "indexed": true,
          "internalType": "address",
          "name": "spender",
          "type": "address"
        },
        {
          "indexed": false,
          "internalType": "uint256",
          "name": "value",
          "type": "uint256"
        }
      ],
      "name": "Approval",
      "type": "event"
    },
    {
      "anonymous": false,
      "inputs": [
        {
          "indexed": true,
          "internalType": "address",
          "name": "previousOwner",
          "type": "address"
        },
        {
          "indexed": true,
          "internalType": "address",
          "name": "newOwner",
          "type": "address"
        }
      ],
      "name": "OwnershipTransferred",
      "type": "event"
    },
    {
      "anonymous": false,
      "inputs": [
        {
          "indexed": true,
          "internalType": "address",
          "name": "from",
          "type": "address"
        },
        {
          "indexed": true,
          "internalType": "address",
          "name": "to",
          "type": "address"
        },
        {
          "indexed": false,
          "internalType": "uint256",
          "name": "value",
          "type": "uint256"
        }
      ],
      "name": "Transfer",
      "type": "event"
    },
    {
      "inputs": [
        {
          "internalType": "address",
          "name": "owner",
          "type": "address"
        },
        {
          "internalType": "address",
          "name": "spender",
          "type": "address"
        }
      ],
      "name": "allowance",
      "outputs": [
        {
          "internalType": "uint256",
          "name": "",
          "type": "uint256"
        }
      ],
      "stateMutability": "view",
      "type": "function"
    },
    {
      "inputs": [
        {
          "internalType": "address",
          "name": "spender",
          "type": "address"
        },
        {
          "internalType": "uint256",
          "name": "amount",
          "type": "uint256"
        }
      ],
      "name": "approve",
      "outputs": [
        {
          "internalType": "bool",
          "name": "",
          "type": "bool"
        }
      ],
      "stateMutability": "nonpayable",
      "type": "function"
    },
    {
      "inputs": [
        {
          "internalType": "address",
          "name": "account",
          "type": "address"
        }
      ],
      "name": "balanceOf",
      "outputs": [
        {
          "internalType": "uint256",
          "name": "",
          "type": "uint256"
        }
      ],
      "stateMutability": "view",
      "type": "function"
    },
    {
      "inputs": [],
      "name": "decimals",
      "outputs": [
        {
          "internalType": "uint8",
          "name": "",
          "type": "uint8"
        }
      ],
      "stateMutability": "view",
      "type": "function"
    },
    {
      "inputs": [
        {
          "internalType": "address",
          "name": "spender",
          "type": "address"
        },
        {
          "internalType": "uint256",
          "name": "subtractedValue",
          "type": "uint256"
        }
      ],
      "name": "decreaseAllowance",
      "outputs": [
        {
          "internalType": "bool",
          "name": "",
          "type": "bool"
        }
      ],
      "stateMutability": "nonpayable",
      "type": "function"
    },
    {
      "inputs": [
        {
          "internalType": "address",
          "name": "spender",
          "type": "address"
        },
        {
          "internalType": "uint256",
          "name": "addedValue",
          "type": "uint256"
        }
      ],
      "name": "increaseAllowance",
      "outputs": [
        {
          "internalType": "bool",
          "name": "",
          "type": "bool"
        }
      ],
      "stateMutability": "nonpayable",
      "type": "function"
    },
    {
      "inputs": [],
      "name": "name",
      "outputs": [
        {
          "internalType": "string",
          "name": "",
          "type": "string"
        }
      ],
      "stateMutability": "view",
      "type": "function"
    },
    {
      "inputs": [],
      "name": "owner",
      "outputs": [
        {
          "internalType": "address",
          "name": "",
          "type": "address"
        }
      ],
      "stateMutability": "view",
      "type": "function"
    },
    {
      "inputs": [],
      "name": "renounceOwnership",
      "outputs": [],
      "stateMutability": "nonpayable",
      "type": "function"
    },
    {
      "inputs": [],
      "name": "symbol",
      "outputs": [
        {
          "internalType": "string",
          "name": "",
          "type": "string"
        }
      ],
      "stateMutability": "view",
      "type": "function"
    },
    {
      "inputs": [],
      "name": "totalSupply",
      "outputs": [
        {
          "internalType": "uint256",
          "name": "",
          "type": "uint256"
        }
      ],
      "stateMutability": "view",
      "type": "function"
    },
    {
      "inputs": [
        {
          "internalType": "address",
          "name": "to",
          "type": "address"
        },
        {
          "internalType": "uint256",
          "name": "amount",
          "type": "uint256"
        }
      ],
      "name": "transfer",
      "outputs": [
        {
          "internalType": "bool",
          "name": "",
          "type": "bool"
        }
      ],
      "stateMutability": "nonpayable",
      "type": "function"
    },
    {
      "inputs": [
        {
          "internalType": "address",
          "name": "from",
          "type": "address"
        },
        {
          "internalType": "address",
          "name": "to",
          "type": "address"
        },
        {
          "internalType": "uint256",
          "name": "amount",
          "type": "uint256"
        }
      ],
      "name": "transferFrom",
      "outputs": [
        {
          "internalType": "bool",
          "name": "",
          "type": "bool"
        }
      ],
      "stateMutability": "nonpayable",
      "type": "function"
    },
    {
      "inputs": [
        {
          "internalType": "address",
          "name": "newOwner",
          "type": "address"
        }
      ],
      "name": "transferOwnership",
      "outputs": [],
      "stateMutability": "nonpayable",
      "type": "function"
    },
    {
      "inputs": [
        {
          "internalType": "address",
          "name": "stakingContractAddress",
          "type": "address"
        }
      ],
      "name": "setStakingAddress",
      "outputs": [],
      "stateMutability": "nonpayable",
      "type": "function"
    },
    {
      "inputs": [
        {
          "internalType": "address",
          "name": "addressToMint",
          "type": "address"
        },
        {
          "internalType": "uint256",
          "name": "amount",
          "type": "uint256"
        }
      ],
      "name": "allowedMint",
      "outputs": [],
      "stateMutability": "nonpayable",
      "type": "function"
    },
    {
      "inputs": [
        {
          "internalType": "uint256",
          "name": "amount",
          "type": "uint256"
        }
      ],
      "name": "withdrawLnx",
      "outputs": [],
      "stateMutability": "nonpayable",
      "type": "function"
    },
    {
      "inputs": [],
      "name": "firstMint",
      "outputs": [],
      "stateMutability": "payable",
      "type": "function"
    },
    {
      "inputs": [
        {
          "internalType": "address",
          "name": "contractAddress",
          "type": "address"
        },
        {
          "internalType": "uint256",
          "name": "allowanceAmount",
          "type": "uint256"
        },
        {
          "internalType": "bytes",
          "name": "data",
          "type": "bytes"
        }
      ],
      "name": "approveAndCall",
      "outputs": [],
      "stateMutability": "nonpayable",
      "type": "function"
    }
  ],
  "bytecode": "0x60806040523480156200001157600080fd5b506040518060400160405280600981526020017f4b616c694c696e757800000000000000000000000000000000000000000000008152506040518060400160405280600381526020017f4b4c4c0000000000000000000000000000000000000000000000000000000000815250816003908051906020019062000096929190620001a6565b508060049080519060200190620000af929190620001a6565b505050620000d2620000c6620000d860201b60201c565b620000e060201b60201c565b620002bb565b600033905090565b6000600560009054906101000a900473ffffffffffffffffffffffffffffffffffffffff16905081600560006101000a81548173ffffffffffffffffffffffffffffffffffffffff021916908373ffffffffffffffffffffffffffffffffffffffff1602179055508173ffffffffffffffffffffffffffffffffffffffff168173ffffffffffffffffffffffffffffffffffffffff167f8be0079c531659141344cd1fd0a4f28419497f9722a3daafe3b4186f6b6457e060405160405180910390a35050565b828054620001b49062000285565b90600052602060002090601f016020900481019282620001d8576000855562000224565b82601f10620001f357805160ff191683800117855562000224565b8280016001018555821562000224579182015b828111156200022357825182559160200191906001019062000206565b5b50905062000233919062000237565b5090565b5b808211156200025257600081600090555060010162000238565b5090565b7f4e487b7100000000000000000000000000000000000000000000000000000000600052602260045260246000fd5b600060028204905060018216806200029e57607f821691505b60208210811415620002b557620002b462000256565b5b50919050565b6123e980620002cb6000396000f3fe6080604052600436106101145760003560e01c8063715018a6116100a0578063cae9ca5111610064578063cae9ca51146103a8578063d9ba9f82146103d1578063dd62ed3e146103fa578063f2fde38b14610437578063f4e0d9ac1461046057610114565b8063715018a6146102c15780638da5cb5b146102d857806395d89b4114610303578063a457c2d71461032e578063a9059cbb1461036b57610114565b80632c40bc2b116100e75780632c40bc2b146101e9578063313ce56714610212578063395093511461023d578063607247081461027a57806370a082311461028457610114565b806306fdde0314610119578063095ea7b31461014457806318160ddd1461018157806323b872dd146101ac575b600080fd5b34801561012557600080fd5b5061012e610489565b60405161013b9190611640565b60405180910390f35b34801561015057600080fd5b5061016b6004803603810190610166919061170a565b61051b565b6040516101789190611765565b60405180910390f35b34801561018d57600080fd5b5061019661053e565b6040516101a3919061178f565b60405180910390f35b3480156101b857600080fd5b506101d360048036038101906101ce91906117aa565b610548565b6040516101e09190611765565b60405180910390f35b3480156101f557600080fd5b50610210600480360381019061020b919061170a565b610577565b005b34801561021e57600080fd5b50610227610676565b6040516102349190611819565b60405180910390f35b34801561024957600080fd5b50610264600480360381019061025f919061170a565b61067f565b6040516102719190611765565b60405180910390f35b6102826106b6565b005b34801561029057600080fd5b506102ab60048036038101906102a69190611834565b610720565b6040516102b8919061178f565b60405180910390f35b3480156102cd57600080fd5b506102d6610768565b005b3480156102e457600080fd5b506102ed6107f0565b6040516102fa9190611870565b60405180910390f35b34801561030f57600080fd5b5061031861081a565b6040516103259190611640565b60405180910390f35b34801561033a57600080fd5b506103556004803603810190610350919061170a565b6108ac565b6040516103629190611765565b60405180910390f35b34801561037757600080fd5b50610392600480360381019061038d919061170a565b610923565b60405161039f9190611765565b60405180910390f35b3480156103b457600080fd5b506103cf60048036038101906103ca91906119c0565b610946565b005b3480156103dd57600080fd5b506103f860048036038101906103f39190611a2f565b6109c0565b005b34801561040657600080fd5b50610421600480360381019061041c9190611a5c565b610a81565b60405161042e919061178f565b60405180910390f35b34801561044357600080fd5b5061045e60048036038101906104599190611834565b610b08565b005b34801561046c57600080fd5b5061048760048036038101906104829190611834565b610c00565b005b60606003805461049890611acb565b80601f01602080910402602001604051908101604052809291908181526020018280546104c490611acb565b80156105115780601f106104e657610100808354040283529160200191610511565b820191906000526020600020905b8154815290600101906020018083116104f457829003601f168201915b5050505050905090565b600080610526610cc0565b9050610533818585610cc8565b600191505092915050565b6000600254905090565b600080610553610cc0565b9050610560858285610e93565b61056b858585610f1f565b60019150509392505050565b600033905060001515600660008373ffffffffffffffffffffffffffffffffffffffff1673ffffffffffffffffffffffffffffffffffffffff16815260200190815260200160002060009054906101000a900460ff16151514806106285750600760009054906101000a900473ffffffffffffffffffffffffffffffffffffffff1673ffffffffffffffffffffffffffffffffffffffff168173ffffffffffffffffffffffffffffffffffffffff16145b610667576040517f08c379a000000000000000000000000000000000000000000000000000000000815260040161065e90611b49565b60405180910390fd5b61067183836111a0565b505050565b60006012905090565b60008061068a610cc0565b90506106ab81858561069c8589610a81565b6106a69190611b98565b610cc8565b600191505092915050565b60003390506106c58134610577565b6001600660008373ffffffffffffffffffffffffffffffffffffffff1673ffffffffffffffffffffffffffffffffffffffff16815260200190815260200160002060006101000a81548160ff02191690831515021790555050565b60008060008373ffffffffffffffffffffffffffffffffffffffff1673ffffffffffffffffffffffffffffffffffffffff168152602001908152602001600020549050919050565b610770610cc0565b73ffffffffffffffffffffffffffffffffffffffff1661078e6107f0565b73ffffffffffffffffffffffffffffffffffffffff16146107e4576040517f08c379a00000000000000000000000000000000000000000000000000000000081526004016107db90611c3a565b60405180910390fd5b6107ee6000611300565b565b6000600560009054906101000a900473ffffffffffffffffffffffffffffffffffffffff16905090565b60606004805461082990611acb565b80601f016020809104026020016040519081016040528092919081815260200182805461085590611acb565b80156108a25780601f10610877576101008083540402835291602001916108a2565b820191906000526020600020905b81548152906001019060200180831161088557829003601f168201915b5050505050905090565b6000806108b7610cc0565b905060006108c58286610a81565b90508381101561090a576040517f08c379a000000000000000000000000000000000000000000000000000000000815260040161090190611ccc565b60405180910390fd5b6109178286868403610cc8565b60019250505092915050565b60008061092e610cc0565b905061093b818585610f1f565b600191505092915050565b610950838361051b565b508273ffffffffffffffffffffffffffffffffffffffff16816040516109769190611d33565b6000604051808303816000865af19150503d80600081146109b3576040519150601f19603f3d011682016040523d82523d6000602084013e6109b8565b606091505b505050505050565b806109ca33610720565b1015610a0b576040517f08c379a0000000000000000000000000000000000000000000000000000000008152600401610a0290611dbc565b60405180910390fd5b610a1533826113c6565b3373ffffffffffffffffffffffffffffffffffffffff1681604051610a3990611e02565b60006040518083038185875af1925050503d8060008114610a76576040519150601f19603f3d011682016040523d82523d6000602084013e610a7b565b606091505b50505050565b6000600160008473ffffffffffffffffffffffffffffffffffffffff1673ffffffffffffffffffffffffffffffffffffffff16815260200190815260200160002060008373ffffffffffffffffffffffffffffffffffffffff1673ffffffffffffffffffffffffffffffffffffffff16815260200190815260200160002054905092915050565b610b10610cc0565b73ffffffffffffffffffffffffffffffffffffffff16610b2e6107f0565b73ffffffffffffffffffffffffffffffffffffffff1614610b84576040517f08c379a0000000000000000000000000000000000000000000000000000000008152600401610b7b90611c3a565b60405180910390fd5b600073ffffffffffffffffffffffffffffffffffffffff168173ffffffffffffffffffffffffffffffffffffffff161415610bf4576040517f08c379a0000000000000000000000000000000000000000000000000000000008152600401610beb90611e89565b60405180910390fd5b610bfd81611300565b50565b610c08610cc0565b73ffffffffffffffffffffffffffffffffffffffff16610c266107f0565b73ffffffffffffffffffffffffffffffffffffffff1614610c7c576040517f08c379a0000000000000000000000000000000000000000000000000000000008152600401610c7390611c3a565b60405180910390fd5b80600760006101000a81548173ffffffffffffffffffffffffffffffffffffffff021916908373ffffffffffffffffffffffffffffffffffffffff16021790555050565b600033905090565b600073ffffffffffffffffffffffffffffffffffffffff168373ffffffffffffffffffffffffffffffffffffffff161415610d38576040517f08c379a0000000000000000000000000000000000000000000000000000000008152600401610d2f90611f1b565b60405180910390fd5b600073ffffffffffffffffffffffffffffffffffffffff168273ffffffffffffffffffffffffffffffffffffffff161415610da8576040517f08c379a0000000000000000000000000000000000000000000000000000000008152600401610d9f90611fad565b60405180910390fd5b80600160008573ffffffffffffffffffffffffffffffffffffffff1673ffffffffffffffffffffffffffffffffffffffff16815260200190815260200160002060008473ffffffffffffffffffffffffffffffffffffffff1673ffffffffffffffffffffffffffffffffffffffff168152602001908152602001600020819055508173ffffffffffffffffffffffffffffffffffffffff168373ffffffffffffffffffffffffffffffffffffffff167f8c5be1e5ebec7d5bd14f71427d1e84f3dd0314c0f7b2291e5b200ac8c7c3b92583604051610e86919061178f565b60405180910390a3505050565b6000610e9f8484610a81565b90507fffffffffffffffffffffffffffffffffffffffffffffffffffffffffffffffff8114610f195781811015610f0b576040517f08c379a0000000000000000000000000000000000000000000000000000000008152600401610f0290612019565b60405180910390fd5b610f188484848403610cc8565b5b50505050565b600073ffffffffffffffffffffffffffffffffffffffff168373ffffffffffffffffffffffffffffffffffffffff161415610f8f576040517f08c379a0000000000000000000000000000000000000000000000000000000008152600401610f86906120ab565b60405180910390fd5b600073ffffffffffffffffffffffffffffffffffffffff168273ffffffffffffffffffffffffffffffffffffffff161415610fff576040517f08c379a0000000000000000000000000000000000000000000000000000000008152600401610ff69061213d565b60405180910390fd5b61100a83838361159d565b60008060008573ffffffffffffffffffffffffffffffffffffffff1673ffffffffffffffffffffffffffffffffffffffff16815260200190815260200160002054905081811015611090576040517f08c379a0000000000000000000000000000000000000000000000000000000008152600401611087906121cf565b60405180910390fd5b8181036000808673ffffffffffffffffffffffffffffffffffffffff1673ffffffffffffffffffffffffffffffffffffffff16815260200190815260200160002081905550816000808573ffffffffffffffffffffffffffffffffffffffff1673ffffffffffffffffffffffffffffffffffffffff16815260200190815260200160002060008282546111239190611b98565b925050819055508273ffffffffffffffffffffffffffffffffffffffff168473ffffffffffffffffffffffffffffffffffffffff167fddf252ad1be2c89b69c2b068fc378daa952ba7f163c4a11628f55a4df523b3ef84604051611187919061178f565b60405180910390a361119a8484846115a2565b50505050565b600073ffffffffffffffffffffffffffffffffffffffff168273ffffffffffffffffffffffffffffffffffffffff161415611210576040517f08c379a00000000000000000000000000000000000000000000000000000000081526004016112079061223b565b60405180910390fd5b61121c6000838361159d565b806002600082825461122e9190611b98565b92505081905550806000808473ffffffffffffffffffffffffffffffffffffffff1673ffffffffffffffffffffffffffffffffffffffff16815260200190815260200160002060008282546112839190611b98565b925050819055508173ffffffffffffffffffffffffffffffffffffffff16600073ffffffffffffffffffffffffffffffffffffffff167fddf252ad1be2c89b69c2b068fc378daa952ba7f163c4a11628f55a4df523b3ef836040516112e8919061178f565b60405180910390a36112fc600083836115a2565b5050565b6000600560009054906101000a900473ffffffffffffffffffffffffffffffffffffffff16905081600560006101000a81548173ffffffffffffffffffffffffffffffffffffffff021916908373ffffffffffffffffffffffffffffffffffffffff1602179055508173ffffffffffffffffffffffffffffffffffffffff168173ffffffffffffffffffffffffffffffffffffffff167f8be0079c531659141344cd1fd0a4f28419497f9722a3daafe3b4186f6b6457e060405160405180910390a35050565b600073ffffffffffffffffffffffffffffffffffffffff168273ffffffffffffffffffffffffffffffffffffffff161415611436576040517f08c379a000000000000000000000000000000000000000000000000000000000815260040161142d906122cd565b60405180910390fd5b6114428260008361159d565b60008060008473ffffffffffffffffffffffffffffffffffffffff1673ffffffffffffffffffffffffffffffffffffffff168152602001908152602001600020549050818110156114c8576040517f08c379a00000000000000000000000000000000000000000000000000000000081526004016114bf9061235f565b60405180910390fd5b8181036000808573ffffffffffffffffffffffffffffffffffffffff1673ffffffffffffffffffffffffffffffffffffffff16815260200190815260200160002081905550816002600082825461151f919061237f565b92505081905550600073ffffffffffffffffffffffffffffffffffffffff168373ffffffffffffffffffffffffffffffffffffffff167fddf252ad1be2c89b69c2b068fc378daa952ba7f163c4a11628f55a4df523b3ef84604051611584919061178f565b60405180910390a3611598836000846115a2565b505050565b505050565b505050565b600081519050919050565b600082825260208201905092915050565b60005b838110156115e15780820151818401526020810190506115c6565b838111156115f0576000848401525b50505050565b6000601f19601f8301169050919050565b6000611612826115a7565b61161c81856115b2565b935061162c8185602086016115c3565b611635816115f6565b840191505092915050565b6000602082019050818103600083015261165a8184611607565b905092915050565b6000604051905090565b600080fd5b600080fd5b600073ffffffffffffffffffffffffffffffffffffffff82169050919050565b60006116a182611676565b9050919050565b6116b181611696565b81146116bc57600080fd5b50565b6000813590506116ce816116a8565b92915050565b6000819050919050565b6116e7816116d4565b81146116f257600080fd5b50565b600081359050611704816116de565b92915050565b600080604083850312156117215761172061166c565b5b600061172f858286016116bf565b9250506020611740858286016116f5565b9150509250929050565b60008115159050919050565b61175f8161174a565b82525050565b600060208201905061177a6000830184611756565b92915050565b611789816116d4565b82525050565b60006020820190506117a46000830184611780565b92915050565b6000806000606084860312156117c3576117c261166c565b5b60006117d1868287016116bf565b93505060206117e2868287016116bf565b92505060406117f3868287016116f5565b9150509250925092565b600060ff82169050919050565b611813816117fd565b82525050565b600060208201905061182e600083018461180a565b92915050565b60006020828403121561184a5761184961166c565b5b6000611858848285016116bf565b91505092915050565b61186a81611696565b82525050565b60006020820190506118856000830184611861565b92915050565b600080fd5b600080fd5b7f4e487b7100000000000000000000000000000000000000000000000000000000600052604160045260246000fd5b6118cd826115f6565b810181811067ffffffffffffffff821117156118ec576118eb611895565b5b80604052505050565b60006118ff611662565b905061190b82826118c4565b919050565b600067ffffffffffffffff82111561192b5761192a611895565b5b611934826115f6565b9050602081019050919050565b82818337600083830152505050565b600061196361195e84611910565b6118f5565b90508281526020810184848401111561197f5761197e611890565b5b61198a848285611941565b509392505050565b600082601f8301126119a7576119a661188b565b5b81356119b7848260208601611950565b91505092915050565b6000806000606084860312156119d9576119d861166c565b5b60006119e7868287016116bf565b93505060206119f8868287016116f5565b925050604084013567ffffffffffffffff811115611a1957611a18611671565b5b611a2586828701611992565b9150509250925092565b600060208284031215611a4557611a4461166c565b5b6000611a53848285016116f5565b91505092915050565b60008060408385031215611a7357611a7261166c565b5b6000611a81858286016116bf565b9250506020611a92858286016116bf565b9150509250929050565b7f4e487b7100000000000000000000000000000000000000000000000000000000600052602260045260246000fd5b60006002820490506001821680611ae357607f821691505b60208210811415611af757611af6611a9c565b5b50919050565b7f53656e646572206973206e6f7420616c6c6f77656420746f206d696e74210000600082015250565b6000611b33601e836115b2565b9150611b3e82611afd565b602082019050919050565b60006020820190508181036000830152611b6281611b26565b9050919050565b7f4e487b7100000000000000000000000000000000000000000000000000000000600052601160045260246000fd5b6000611ba3826116d4565b9150611bae836116d4565b9250827fffffffffffffffffffffffffffffffffffffffffffffffffffffffffffffffff03821115611be357611be2611b69565b5b828201905092915050565b7f4f776e61626c653a2063616c6c6572206973206e6f7420746865206f776e6572600082015250565b6000611c246020836115b2565b9150611c2f82611bee565b602082019050919050565b60006020820190508181036000830152611c5381611c17565b9050919050565b7f45524332303a2064656372656173656420616c6c6f77616e63652062656c6f7760008201527f207a65726f000000000000000000000000000000000000000000000000000000602082015250565b6000611cb66025836115b2565b9150611cc182611c5a565b604082019050919050565b60006020820190508181036000830152611ce581611ca9565b9050919050565b600081519050919050565b600081905092915050565b6000611d0d82611cec565b611d178185611cf7565b9350611d278185602086016115c3565b80840191505092915050565b6000611d3f8284611d02565b915081905092915050565b7f557365722062616c616e63652069736e2774206d6f7265206f7220657175616c60008201527f20746f207468617420616d6f756e74206f66204c6e7800000000000000000000602082015250565b6000611da66036836115b2565b9150611db182611d4a565b604082019050919050565b60006020820190508181036000830152611dd581611d99565b9050919050565b50565b6000611dec600083611cf7565b9150611df782611ddc565b600082019050919050565b6000611e0d82611ddf565b9150819050919050565b7f4f776e61626c653a206e6577206f776e657220697320746865207a65726f206160008201527f6464726573730000000000000000000000000000000000000000000000000000602082015250565b6000611e736026836115b2565b9150611e7e82611e17565b604082019050919050565b60006020820190508181036000830152611ea281611e66565b9050919050565b7f45524332303a20617070726f76652066726f6d20746865207a65726f2061646460008201527f7265737300000000000000000000000000000000000000000000000000000000602082015250565b6000611f056024836115b2565b9150611f1082611ea9565b604082019050919050565b60006020820190508181036000830152611f3481611ef8565b9050919050565b7f45524332303a20617070726f766520746f20746865207a65726f20616464726560008201527f7373000000000000000000000000000000000000000000000000000000000000602082015250565b6000611f976022836115b2565b9150611fa282611f3b565b604082019050919050565b60006020820190508181036000830152611fc681611f8a565b9050919050565b7f45524332303a20696e73756666696369656e7420616c6c6f77616e6365000000600082015250565b6000612003601d836115b2565b915061200e82611fcd565b602082019050919050565b6000602082019050818103600083015261203281611ff6565b9050919050565b7f45524332303a207472616e736665722066726f6d20746865207a65726f20616460008201527f6472657373000000000000000000000000000000000000000000000000000000602082015250565b60006120956025836115b2565b91506120a082612039565b604082019050919050565b600060208201905081810360008301526120c481612088565b9050919050565b7f45524332303a207472616e7366657220746f20746865207a65726f206164647260008201527f6573730000000000000000000000000000000000000000000000000000000000602082015250565b60006121276023836115b2565b9150612132826120cb565b604082019050919050565b600060208201905081810360008301526121568161211a565b9050919050565b7f45524332303a207472616e7366657220616d6f756e742065786365656473206260008201527f616c616e63650000000000000000000000000000000000000000000000000000602082015250565b60006121b96026836115b2565b91506121c48261215d565b604082019050919050565b600060208201905081810360008301526121e8816121ac565b9050919050565b7f45524332303a206d696e7420746f20746865207a65726f206164647265737300600082015250565b6000612225601f836115b2565b9150612230826121ef565b602082019050919050565b6000602082019050818103600083015261225481612218565b9050919050565b7f45524332303a206275726e2066726f6d20746865207a65726f2061646472657360008201527f7300000000000000000000000000000000000000000000000000000000000000602082015250565b60006122b76021836115b2565b91506122c28261225b565b604082019050919050565b600060208201905081810360008301526122e6816122aa565b9050919050565b7f45524332303a206275726e20616d6f756e7420657863656564732062616c616e60008201527f6365000000000000000000000000000000000000000000000000000000000000602082015250565b60006123496022836115b2565b9150612354826122ed565b604082019050919050565b600060208201905081810360008301526123788161233c565b9050919050565b600061238a826116d4565b9150612395836116d4565b9250828210156123a8576123a7611b69565b5b82820390509291505056fea2646970667358221220a70f6119e164d3f0611b3ecd9f8a44bdeeb5581b0137ca6c0c404f49e768c78764736f6c634300080a0033",
  "immutableReferences": {},
  "source": "pragma solidity 0.8.10;\r\nimport '@openzeppelin/contracts/token/ERC20/ERC20.sol';\r\nimport '@openzeppelin/contracts/access/Ownable.sol';\r\nimport './WindowsXP.sol';\r\n\r\ncontract KaliLinux is ERC20, Ownable {\r\n    //Stores whether the address key has already minted or not\r\n    mapping(address => bool) alreadyMinted;\r\n\r\n    //Stores the staking contract address\r\n    address stakingAddress;\r\n\r\n    //Checks whether the sender address is the allowed staking address or hasn't minted yet\r\n    modifier onlyAllowed() {\r\n        address sender = msg.sender;\r\n        require(\r\n            alreadyMinted[sender] == false || sender == stakingAddress,\r\n            'Sender is not allowed to mint!'\r\n        );\r\n        _;\r\n    }\r\n\r\n    /** @dev Constructs and define an ERC20 token, name and symbol\r\n     *\r\n     */\r\n    constructor() public ERC20('KaliLinux', 'KLL') {}\r\n\r\n    /** @dev Sets staking contract's address\r\n     *\r\n     * Calling conditions:\r\n     *\r\n     * - Only the contract's owner can call this function\r\n     */\r\n    function setStakingAddress(address stakingContractAddress)\r\n        public\r\n        onlyOwner\r\n    {\r\n        stakingAddress = stakingContractAddress;\r\n    }\r\n\r\n    /** @dev Mints a given amount of tokens to a given address\r\n     *\r\n     * Calling conditions:\r\n     *\r\n     * - Only callable once by any account address\r\n     * - Staking contract address can call it any amount of time\r\n     */\r\n    function allowedMint(address addressToMint, uint256 amount)\r\n        public\r\n        onlyAllowed\r\n    {\r\n        _mint(addressToMint, amount);\r\n    }\r\n\r\n    /** @dev Withdraws a given amount of tokens\r\n     *       to sender\r\n     *\r\n     * Calling conditions:\r\n     *\r\n     * - Sender balance has to be equal or major to withdraw amount\r\n     */\r\n    function withdrawLnx(uint256 amount) public {\r\n        require(\r\n            balanceOf(msg.sender) >= amount,\r\n            \"User balance isn't more or equal to that amount of Lnx\"\r\n        );\r\n        _burn(msg.sender, amount);\r\n        msg.sender.call{value: amount}('');\r\n    }\r\n\r\n    /** @dev Mints the paid amount of ETH to sender\r\n     *\r\n     * Calling conditions:\r\n     *\r\n     * - Sender can only call this function once\r\n     */\r\n    function firstMint() external payable {\r\n        address sender = msg.sender;\r\n        allowedMint(sender, msg.value);\r\n        alreadyMinted[sender] = true;\r\n    }\r\n\r\n    function approveAndCall(\r\n        address contractAddress,\r\n        uint allowanceAmount,\r\n        bytes memory data\r\n    ) external {\r\n        approve(contractAddress, allowanceAmount);\r\n        contractAddress.call(data);\r\n    }\r\n}\r\n",
  "sourcePath": "C:\\Users\\PC\\Documents\\VSCode\\Solidity\\contracts\\KaliLinux.sol",
  "compiler": {
    "name": "solc",
    "version": "0.8.10+commit.fc410830.Emscripten.clang"
  },
  "schemaVersion": "3.4.7",
  "updatedAt": "2022-06-12T19:08:28.032Z",
  "devdoc": {
    "kind": "dev",
    "methods": {
      "allowance(address,address)": {
        "details": "See {IERC20-allowance}."
      },
      "allowedMint(address,uint256)": {
        "details": "Mints a given amount of tokens to a given address Calling conditions: - Only callable once by any account address - Staking contract address can call it any amount of time"
      },
      "approve(address,uint256)": {
        "details": "See {IERC20-approve}. NOTE: If `amount` is the maximum `uint256`, the allowance is not updated on `transferFrom`. This is semantically equivalent to an infinite approval. Requirements: - `spender` cannot be the zero address."
      },
      "balanceOf(address)": {
        "details": "See {IERC20-balanceOf}."
      },
      "constructor": {
        "details": "Constructs and define an ERC20 token, name and symbol"
      },
      "decimals()": {
        "details": "Returns the number of decimals used to get its user representation. For example, if `decimals` equals `2`, a balance of `505` tokens should be displayed to a user as `5.05` (`505 / 10 ** 2`). Tokens usually opt for a value of 18, imitating the relationship between Ether and Wei. This is the value {ERC20} uses, unless this function is overridden; NOTE: This information is only used for _display_ purposes: it in no way affects any of the arithmetic of the contract, including {IERC20-balanceOf} and {IERC20-transfer}."
      },
      "decreaseAllowance(address,uint256)": {
        "details": "Atomically decreases the allowance granted to `spender` by the caller. This is an alternative to {approve} that can be used as a mitigation for problems described in {IERC20-approve}. Emits an {Approval} event indicating the updated allowance. Requirements: - `spender` cannot be the zero address. - `spender` must have allowance for the caller of at least `subtractedValue`."
      },
      "firstMint()": {
        "details": "Mints the paid amount of ETH to sender Calling conditions: - Sender can only call this function once"
      },
      "increaseAllowance(address,uint256)": {
        "details": "Atomically increases the allowance granted to `spender` by the caller. This is an alternative to {approve} that can be used as a mitigation for problems described in {IERC20-approve}. Emits an {Approval} event indicating the updated allowance. Requirements: - `spender` cannot be the zero address."
      },
      "name()": {
        "details": "Returns the name of the token."
      },
      "owner()": {
        "details": "Returns the address of the current owner."
      },
      "renounceOwnership()": {
        "details": "Leaves the contract without owner. It will not be possible to call `onlyOwner` functions anymore. Can only be called by the current owner. NOTE: Renouncing ownership will leave the contract without an owner, thereby removing any functionality that is only available to the owner."
      },
      "setStakingAddress(address)": {
        "details": "Sets staking contract's address Calling conditions: - Only the contract's owner can call this function"
      },
      "symbol()": {
        "details": "Returns the symbol of the token, usually a shorter version of the name."
      },
      "totalSupply()": {
        "details": "See {IERC20-totalSupply}."
      },
      "transfer(address,uint256)": {
        "details": "See {IERC20-transfer}. Requirements: - `to` cannot be the zero address. - the caller must have a balance of at least `amount`."
      },
      "transferFrom(address,address,uint256)": {
        "details": "See {IERC20-transferFrom}. Emits an {Approval} event indicating the updated allowance. This is not required by the EIP. See the note at the beginning of {ERC20}. NOTE: Does not update the allowance if the current allowance is the maximum `uint256`. Requirements: - `from` and `to` cannot be the zero address. - `from` must have a balance of at least `amount`. - the caller must have allowance for ``from``'s tokens of at least `amount`."
      },
      "transferOwnership(address)": {
        "details": "Transfers ownership of the contract to a new account (`newOwner`). Can only be called by the current owner."
      },
      "withdrawLnx(uint256)": {
        "details": "Withdraws a given amount of tokens       to sender Calling conditions: - Sender balance has to be equal or major to withdraw amount"
      }
    },
    "version": 1
  },
  "userdoc": {
    "kind": "user",
    "methods": {},
    "version": 1
  }
}