{
  "contractName": "Linux",
  "abi": [
    {
      "inputs": [],
      "stateMutability": "nonpayable",
      "type": "constructor"
    },
    {
      "anonymous": false,
      "inputs": [
        {
          "indexed": true,
          "internalType": "address",
          "name": "owner",
          "type": "address"
        },
        {
          "indexed": true,
          "internalType": "address",
          "name": "spender",
          "type": "address"
        },
        {
          "indexed": false,
          "internalType": "uint256",
          "name": "value",
          "type": "uint256"
        }
      ],
      "name": "Approval",
      "type": "event"
    },
    {
      "anonymous": false,
      "inputs": [
        {
          "indexed": true,
          "internalType": "address",
          "name": "from",
          "type": "address"
        },
        {
          "indexed": true,
          "internalType": "address",
          "name": "to",
          "type": "address"
        },
        {
          "indexed": false,
          "internalType": "uint256",
          "name": "value",
          "type": "uint256"
        }
      ],
      "name": "Transfer",
      "type": "event"
    },
    {
      "inputs": [
        {
          "internalType": "address",
          "name": "owner",
          "type": "address"
        },
        {
          "internalType": "address",
          "name": "spender",
          "type": "address"
        }
      ],
      "name": "allowance",
      "outputs": [
        {
          "internalType": "uint256",
          "name": "",
          "type": "uint256"
        }
      ],
      "stateMutability": "view",
      "type": "function",
      "constant": true
    },
    {
      "inputs": [
        {
          "internalType": "address",
          "name": "spender",
          "type": "address"
        },
        {
          "internalType": "uint256",
          "name": "amount",
          "type": "uint256"
        }
      ],
      "name": "approve",
      "outputs": [
        {
          "internalType": "bool",
          "name": "",
          "type": "bool"
        }
      ],
      "stateMutability": "nonpayable",
      "type": "function"
    },
    {
      "inputs": [
        {
          "internalType": "address",
          "name": "account",
          "type": "address"
        }
      ],
      "name": "balanceOf",
      "outputs": [
        {
          "internalType": "uint256",
          "name": "",
          "type": "uint256"
        }
      ],
      "stateMutability": "view",
      "type": "function",
      "constant": true
    },
    {
      "inputs": [],
      "name": "decimals",
      "outputs": [
        {
          "internalType": "uint8",
          "name": "",
          "type": "uint8"
        }
      ],
      "stateMutability": "view",
      "type": "function",
      "constant": true
    },
    {
      "inputs": [
        {
          "internalType": "address",
          "name": "spender",
          "type": "address"
        },
        {
          "internalType": "uint256",
          "name": "subtractedValue",
          "type": "uint256"
        }
      ],
      "name": "decreaseAllowance",
      "outputs": [
        {
          "internalType": "bool",
          "name": "",
          "type": "bool"
        }
      ],
      "stateMutability": "nonpayable",
      "type": "function"
    },
    {
      "inputs": [
        {
          "internalType": "address",
          "name": "spender",
          "type": "address"
        },
        {
          "internalType": "uint256",
          "name": "addedValue",
          "type": "uint256"
        }
      ],
      "name": "increaseAllowance",
      "outputs": [
        {
          "internalType": "bool",
          "name": "",
          "type": "bool"
        }
      ],
      "stateMutability": "nonpayable",
      "type": "function"
    },
    {
      "inputs": [
        {
          "internalType": "address",
          "name": "",
          "type": "address"
        }
      ],
      "name": "lockedDate",
      "outputs": [
        {
          "internalType": "uint256",
          "name": "",
          "type": "uint256"
        }
      ],
      "stateMutability": "view",
      "type": "function",
      "constant": true
    },
    {
      "inputs": [],
      "name": "name",
      "outputs": [
        {
          "internalType": "string",
          "name": "",
          "type": "string"
        }
      ],
      "stateMutability": "view",
      "type": "function",
      "constant": true
    },
    {
      "inputs": [],
      "name": "symbol",
      "outputs": [
        {
          "internalType": "string",
          "name": "",
          "type": "string"
        }
      ],
      "stateMutability": "view",
      "type": "function",
      "constant": true
    },
    {
      "inputs": [],
      "name": "totalSupply",
      "outputs": [
        {
          "internalType": "uint256",
          "name": "",
          "type": "uint256"
        }
      ],
      "stateMutability": "view",
      "type": "function",
      "constant": true
    },
    {
      "inputs": [
        {
          "internalType": "address",
          "name": "to",
          "type": "address"
        },
        {
          "internalType": "uint256",
          "name": "amount",
          "type": "uint256"
        }
      ],
      "name": "transfer",
      "outputs": [
        {
          "internalType": "bool",
          "name": "",
          "type": "bool"
        }
      ],
      "stateMutability": "nonpayable",
      "type": "function"
    },
    {
      "inputs": [
        {
          "internalType": "address",
          "name": "from",
          "type": "address"
        },
        {
          "internalType": "address",
          "name": "to",
          "type": "address"
        },
        {
          "internalType": "uint256",
          "name": "amount",
          "type": "uint256"
        }
      ],
      "name": "transferFrom",
      "outputs": [
        {
          "internalType": "bool",
          "name": "",
          "type": "bool"
        }
      ],
      "stateMutability": "nonpayable",
      "type": "function"
    },
    {
      "stateMutability": "payable",
      "type": "receive",
      "payable": true
    },
    {
      "inputs": [
        {
          "internalType": "uint256",
          "name": "amount",
          "type": "uint256"
        }
      ],
      "name": "withdrawLnx",
      "outputs": [],
      "stateMutability": "payable",
      "type": "function",
      "payable": true
    }
  ],
  "bytecode": "0x60806040523480156200001157600080fd5b506040518060400160405280600581526020017f4c696e75780000000000000000000000000000000000000000000000000000008152506040518060400160405280600381526020017f4c4e580000000000000000000000000000000000000000000000000000000000815250816003908051906020019062000096929190620000b8565b508060049080519060200190620000af929190620000b8565b505050620001cd565b828054620000c69062000197565b90600052602060002090601f016020900481019282620000ea576000855562000136565b82601f106200010557805160ff191683800117855562000136565b8280016001018555821562000136579182015b828111156200013557825182559160200191906001019062000118565b5b50905062000145919062000149565b5090565b5b80821115620001645760008160009055506001016200014a565b5090565b7f4e487b7100000000000000000000000000000000000000000000000000000000600052602260045260246000fd5b60006002820490506001821680620001b057607f821691505b60208210811415620001c757620001c662000168565b5b50919050565b611a5780620001dd6000396000f3fe6080604052600436106100c65760003560e01c806370a082311161007f578063a9059cbb11610059578063a9059cbb146102b9578063d9ba9f82146102f6578063dd62ed3e14610312578063e74ef7781461034f576100d7565b806370a082311461021457806395d89b4114610251578063a457c2d71461027c576100d7565b806306fdde03146100dc578063095ea7b31461010757806318160ddd1461014457806323b872dd1461016f578063313ce567146101ac57806339509351146101d7576100d7565b366100d7576100d5333461038c565b005b600080fd5b3480156100e857600080fd5b506100f16104ec565b6040516100fe9190611048565b60405180910390f35b34801561011357600080fd5b5061012e60048036038101906101299190611103565b61057e565b60405161013b919061115e565b60405180910390f35b34801561015057600080fd5b506101596105a1565b6040516101669190611188565b60405180910390f35b34801561017b57600080fd5b50610196600480360381019061019191906111a3565b6105ab565b6040516101a3919061115e565b60405180910390f35b3480156101b857600080fd5b506101c16105da565b6040516101ce9190611212565b60405180910390f35b3480156101e357600080fd5b506101fe60048036038101906101f99190611103565b6105e3565b60405161020b919061115e565b60405180910390f35b34801561022057600080fd5b5061023b6004803603810190610236919061122d565b61061a565b6040516102489190611188565b60405180910390f35b34801561025d57600080fd5b50610266610662565b6040516102739190611048565b60405180910390f35b34801561028857600080fd5b506102a3600480360381019061029e9190611103565b6106f4565b6040516102b0919061115e565b60405180910390f35b3480156102c557600080fd5b506102e060048036038101906102db9190611103565b61076b565b6040516102ed919061115e565b60405180910390f35b610310600480360381019061030b919061125a565b61078e565b005b34801561031e57600080fd5b5061033960048036038101906103349190611287565b61084f565b6040516103469190611188565b60405180910390f35b34801561035b57600080fd5b506103766004803603810190610371919061122d565b6108d6565b6040516103839190611188565b60405180910390f35b600073ffffffffffffffffffffffffffffffffffffffff168273ffffffffffffffffffffffffffffffffffffffff1614156103fc576040517f08c379a00000000000000000000000000000000000000000000000000000000081526004016103f390611313565b60405180910390fd5b610408600083836108ee565b806002600082825461041a9190611362565b92505081905550806000808473ffffffffffffffffffffffffffffffffffffffff1673ffffffffffffffffffffffffffffffffffffffff168152602001908152602001600020600082825461046f9190611362565b925050819055508173ffffffffffffffffffffffffffffffffffffffff16600073ffffffffffffffffffffffffffffffffffffffff167fddf252ad1be2c89b69c2b068fc378daa952ba7f163c4a11628f55a4df523b3ef836040516104d49190611188565b60405180910390a36104e8600083836108f3565b5050565b6060600380546104fb906113e7565b80601f0160208091040260200160405190810160405280929190818152602001828054610527906113e7565b80156105745780601f1061054957610100808354040283529160200191610574565b820191906000526020600020905b81548152906001019060200180831161055757829003601f168201915b5050505050905090565b6000806105896108f8565b9050610596818585610900565b600191505092915050565b6000600254905090565b6000806105b66108f8565b90506105c3858285610acb565b6105ce858585610b57565b60019150509392505050565b60006012905090565b6000806105ee6108f8565b905061060f818585610600858961084f565b61060a9190611362565b610900565b600191505092915050565b60008060008373ffffffffffffffffffffffffffffffffffffffff1673ffffffffffffffffffffffffffffffffffffffff168152602001908152602001600020549050919050565b606060048054610671906113e7565b80601f016020809104026020016040519081016040528092919081815260200182805461069d906113e7565b80156106ea5780601f106106bf576101008083540402835291602001916106ea565b820191906000526020600020905b8154815290600101906020018083116106cd57829003601f168201915b5050505050905090565b6000806106ff6108f8565b9050600061070d828661084f565b905083811015610752576040517f08c379a00000000000000000000000000000000000000000000000000000000081526004016107499061148b565b60405180910390fd5b61075f8286868403610900565b60019250505092915050565b6000806107766108f8565b9050610783818585610b57565b600191505092915050565b806107983361061a565b10156107d9576040517f08c379a00000000000000000000000000000000000000000000000000000000081526004016107d09061151d565b60405180910390fd5b6107e33382610dd8565b3373ffffffffffffffffffffffffffffffffffffffff16816040516108079061156e565b60006040518083038185875af1925050503d8060008114610844576040519150601f19603f3d011682016040523d82523d6000602084013e610849565b606091505b50505050565b6000600160008473ffffffffffffffffffffffffffffffffffffffff1673ffffffffffffffffffffffffffffffffffffffff16815260200190815260200160002060008373ffffffffffffffffffffffffffffffffffffffff1673ffffffffffffffffffffffffffffffffffffffff16815260200190815260200160002054905092915050565b60056020528060005260406000206000915090505481565b505050565b505050565b600033905090565b600073ffffffffffffffffffffffffffffffffffffffff168373ffffffffffffffffffffffffffffffffffffffff161415610970576040517f08c379a0000000000000000000000000000000000000000000000000000000008152600401610967906115f5565b60405180910390fd5b600073ffffffffffffffffffffffffffffffffffffffff168273ffffffffffffffffffffffffffffffffffffffff1614156109e0576040517f08c379a00000000000000000000000000000000000000000000000000000000081526004016109d790611687565b60405180910390fd5b80600160008573ffffffffffffffffffffffffffffffffffffffff1673ffffffffffffffffffffffffffffffffffffffff16815260200190815260200160002060008473ffffffffffffffffffffffffffffffffffffffff1673ffffffffffffffffffffffffffffffffffffffff168152602001908152602001600020819055508173ffffffffffffffffffffffffffffffffffffffff168373ffffffffffffffffffffffffffffffffffffffff167f8c5be1e5ebec7d5bd14f71427d1e84f3dd0314c0f7b2291e5b200ac8c7c3b92583604051610abe9190611188565b60405180910390a3505050565b6000610ad7848461084f565b90507fffffffffffffffffffffffffffffffffffffffffffffffffffffffffffffffff8114610b515781811015610b43576040517f08c379a0000000000000000000000000000000000000000000000000000000008152600401610b3a906116f3565b60405180910390fd5b610b508484848403610900565b5b50505050565b600073ffffffffffffffffffffffffffffffffffffffff168373ffffffffffffffffffffffffffffffffffffffff161415610bc7576040517f08c379a0000000000000000000000000000000000000000000000000000000008152600401610bbe90611785565b60405180910390fd5b600073ffffffffffffffffffffffffffffffffffffffff168273ffffffffffffffffffffffffffffffffffffffff161415610c37576040517f08c379a0000000000000000000000000000000000000000000000000000000008152600401610c2e90611817565b60405180910390fd5b610c428383836108ee565b60008060008573ffffffffffffffffffffffffffffffffffffffff1673ffffffffffffffffffffffffffffffffffffffff16815260200190815260200160002054905081811015610cc8576040517f08c379a0000000000000000000000000000000000000000000000000000000008152600401610cbf906118a9565b60405180910390fd5b8181036000808673ffffffffffffffffffffffffffffffffffffffff1673ffffffffffffffffffffffffffffffffffffffff16815260200190815260200160002081905550816000808573ffffffffffffffffffffffffffffffffffffffff1673ffffffffffffffffffffffffffffffffffffffff1681526020019081526020016000206000828254610d5b9190611362565b925050819055508273ffffffffffffffffffffffffffffffffffffffff168473ffffffffffffffffffffffffffffffffffffffff167fddf252ad1be2c89b69c2b068fc378daa952ba7f163c4a11628f55a4df523b3ef84604051610dbf9190611188565b60405180910390a3610dd28484846108f3565b50505050565b600073ffffffffffffffffffffffffffffffffffffffff168273ffffffffffffffffffffffffffffffffffffffff161415610e48576040517f08c379a0000000000000000000000000000000000000000000000000000000008152600401610e3f9061193b565b60405180910390fd5b610e54826000836108ee565b60008060008473ffffffffffffffffffffffffffffffffffffffff1673ffffffffffffffffffffffffffffffffffffffff16815260200190815260200160002054905081811015610eda576040517f08c379a0000000000000000000000000000000000000000000000000000000008152600401610ed1906119cd565b60405180910390fd5b8181036000808573ffffffffffffffffffffffffffffffffffffffff1673ffffffffffffffffffffffffffffffffffffffff168152602001908152602001600020819055508160026000828254610f3191906119ed565b92505081905550600073ffffffffffffffffffffffffffffffffffffffff168373ffffffffffffffffffffffffffffffffffffffff167fddf252ad1be2c89b69c2b068fc378daa952ba7f163c4a11628f55a4df523b3ef84604051610f969190611188565b60405180910390a3610faa836000846108f3565b505050565b600081519050919050565b600082825260208201905092915050565b60005b83811015610fe9578082015181840152602081019050610fce565b83811115610ff8576000848401525b50505050565b6000601f19601f8301169050919050565b600061101a82610faf565b6110248185610fba565b9350611034818560208601610fcb565b61103d81610ffe565b840191505092915050565b60006020820190508181036000830152611062818461100f565b905092915050565b600080fd5b600073ffffffffffffffffffffffffffffffffffffffff82169050919050565b600061109a8261106f565b9050919050565b6110aa8161108f565b81146110b557600080fd5b50565b6000813590506110c7816110a1565b92915050565b6000819050919050565b6110e0816110cd565b81146110eb57600080fd5b50565b6000813590506110fd816110d7565b92915050565b6000806040838503121561111a5761111961106a565b5b6000611128858286016110b8565b9250506020611139858286016110ee565b9150509250929050565b60008115159050919050565b61115881611143565b82525050565b6000602082019050611173600083018461114f565b92915050565b611182816110cd565b82525050565b600060208201905061119d6000830184611179565b92915050565b6000806000606084860312156111bc576111bb61106a565b5b60006111ca868287016110b8565b93505060206111db868287016110b8565b92505060406111ec868287016110ee565b9150509250925092565b600060ff82169050919050565b61120c816111f6565b82525050565b60006020820190506112276000830184611203565b92915050565b6000602082840312156112435761124261106a565b5b6000611251848285016110b8565b91505092915050565b6000602082840312156112705761126f61106a565b5b600061127e848285016110ee565b91505092915050565b6000806040838503121561129e5761129d61106a565b5b60006112ac858286016110b8565b92505060206112bd858286016110b8565b9150509250929050565b7f45524332303a206d696e7420746f20746865207a65726f206164647265737300600082015250565b60006112fd601f83610fba565b9150611308826112c7565b602082019050919050565b6000602082019050818103600083015261132c816112f0565b9050919050565b7f4e487b7100000000000000000000000000000000000000000000000000000000600052601160045260246000fd5b600061136d826110cd565b9150611378836110cd565b9250827fffffffffffffffffffffffffffffffffffffffffffffffffffffffffffffffff038211156113ad576113ac611333565b5b828201905092915050565b7f4e487b7100000000000000000000000000000000000000000000000000000000600052602260045260246000fd5b600060028204905060018216806113ff57607f821691505b60208210811415611413576114126113b8565b5b50919050565b7f45524332303a2064656372656173656420616c6c6f77616e63652062656c6f7760008201527f207a65726f000000000000000000000000000000000000000000000000000000602082015250565b6000611475602583610fba565b915061148082611419565b604082019050919050565b600060208201905081810360008301526114a481611468565b9050919050565b7f557365722062616c616e63652069736e2774206d6f7265206f7220657175616c60008201527f20746f207468617420616d6f756e74206f66204c6e7800000000000000000000602082015250565b6000611507603683610fba565b9150611512826114ab565b604082019050919050565b60006020820190508181036000830152611536816114fa565b9050919050565b600081905092915050565b50565b600061155860008361153d565b915061156382611548565b600082019050919050565b60006115798261154b565b9150819050919050565b7f45524332303a20617070726f76652066726f6d20746865207a65726f2061646460008201527f7265737300000000000000000000000000000000000000000000000000000000602082015250565b60006115df602483610fba565b91506115ea82611583565b604082019050919050565b6000602082019050818103600083015261160e816115d2565b9050919050565b7f45524332303a20617070726f766520746f20746865207a65726f20616464726560008201527f7373000000000000000000000000000000000000000000000000000000000000602082015250565b6000611671602283610fba565b915061167c82611615565b604082019050919050565b600060208201905081810360008301526116a081611664565b9050919050565b7f45524332303a20696e73756666696369656e7420616c6c6f77616e6365000000600082015250565b60006116dd601d83610fba565b91506116e8826116a7565b602082019050919050565b6000602082019050818103600083015261170c816116d0565b9050919050565b7f45524332303a207472616e736665722066726f6d20746865207a65726f20616460008201527f6472657373000000000000000000000000000000000000000000000000000000602082015250565b600061176f602583610fba565b915061177a82611713565b604082019050919050565b6000602082019050818103600083015261179e81611762565b9050919050565b7f45524332303a207472616e7366657220746f20746865207a65726f206164647260008201527f6573730000000000000000000000000000000000000000000000000000000000602082015250565b6000611801602383610fba565b915061180c826117a5565b604082019050919050565b60006020820190508181036000830152611830816117f4565b9050919050565b7f45524332303a207472616e7366657220616d6f756e742065786365656473206260008201527f616c616e63650000000000000000000000000000000000000000000000000000602082015250565b6000611893602683610fba565b915061189e82611837565b604082019050919050565b600060208201905081810360008301526118c281611886565b9050919050565b7f45524332303a206275726e2066726f6d20746865207a65726f2061646472657360008201527f7300000000000000000000000000000000000000000000000000000000000000602082015250565b6000611925602183610fba565b9150611930826118c9565b604082019050919050565b6000602082019050818103600083015261195481611918565b9050919050565b7f45524332303a206275726e20616d6f756e7420657863656564732062616c616e60008201527f6365000000000000000000000000000000000000000000000000000000000000602082015250565b60006119b7602283610fba565b91506119c28261195b565b604082019050919050565b600060208201905081810360008301526119e6816119aa565b9050919050565b60006119f8826110cd565b9150611a03836110cd565b925082821015611a1657611a15611333565b5b82820390509291505056fea2646970667358221220a151fd1b911ca276b7b9ddca085d30e101399bb859362ed461cd3cc5c8efce0064736f6c634300080a0033",
  "immutableReferences": {},
  "source": "pragma solidity >=0.4.22 <0.9.0;\r\nimport \"@openzeppelin/contracts/token/ERC20/ERC20.sol\";\r\n\r\ncontract Linux is ERC20{\r\n    mapping(address => uint) public lockedDate;\r\n\r\n    constructor() public ERC20(\"Linux\", \"LNX\") {\r\n    }\r\n\r\n       function withdrawLnx(uint amount) public payable {\r\n            require(\r\n                balanceOf(msg.sender) >= amount, \"User balance isn't more or equal to that amount of Lnx\"\r\n            );\r\n         _burn(msg.sender,amount);\r\n         msg.sender.call{value:amount}(\"\");\r\n    }\r\n\r\n    receive() external payable{\r\n     _mint(msg.sender,msg.value);\r\n    }\r\n}",
  "sourcePath": "C:\\Users\\PC\\Documents\\VSCode\\Solidity\\contracts\\Linux.sol",
  "compiler": {
    "name": "solc",
    "version": "0.8.10+commit.fc410830.Emscripten.clang"
  },
  "schemaVersion": "3.4.7",
  "updatedAt": "2022-06-09T14:40:14.354Z",
  "networkType": "ethereum",
  "devdoc": {
    "kind": "dev",
    "methods": {
      "allowance(address,address)": {
        "details": "See {IERC20-allowance}."
      },
      "approve(address,uint256)": {
        "details": "See {IERC20-approve}. NOTE: If `amount` is the maximum `uint256`, the allowance is not updated on `transferFrom`. This is semantically equivalent to an infinite approval. Requirements: - `spender` cannot be the zero address."
      },
      "balanceOf(address)": {
        "details": "See {IERC20-balanceOf}."
      },
      "decimals()": {
        "details": "Returns the number of decimals used to get its user representation. For example, if `decimals` equals `2`, a balance of `505` tokens should be displayed to a user as `5.05` (`505 / 10 ** 2`). Tokens usually opt for a value of 18, imitating the relationship between Ether and Wei. This is the value {ERC20} uses, unless this function is overridden; NOTE: This information is only used for _display_ purposes: it in no way affects any of the arithmetic of the contract, including {IERC20-balanceOf} and {IERC20-transfer}."
      },
      "decreaseAllowance(address,uint256)": {
        "details": "Atomically decreases the allowance granted to `spender` by the caller. This is an alternative to {approve} that can be used as a mitigation for problems described in {IERC20-approve}. Emits an {Approval} event indicating the updated allowance. Requirements: - `spender` cannot be the zero address. - `spender` must have allowance for the caller of at least `subtractedValue`."
      },
      "increaseAllowance(address,uint256)": {
        "details": "Atomically increases the allowance granted to `spender` by the caller. This is an alternative to {approve} that can be used as a mitigation for problems described in {IERC20-approve}. Emits an {Approval} event indicating the updated allowance. Requirements: - `spender` cannot be the zero address."
      },
      "name()": {
        "details": "Returns the name of the token."
      },
      "symbol()": {
        "details": "Returns the symbol of the token, usually a shorter version of the name."
      },
      "totalSupply()": {
        "details": "See {IERC20-totalSupply}."
      },
      "transfer(address,uint256)": {
        "details": "See {IERC20-transfer}. Requirements: - `to` cannot be the zero address. - the caller must have a balance of at least `amount`."
      },
      "transferFrom(address,address,uint256)": {
        "details": "See {IERC20-transferFrom}. Emits an {Approval} event indicating the updated allowance. This is not required by the EIP. See the note at the beginning of {ERC20}. NOTE: Does not update the allowance if the current allowance is the maximum `uint256`. Requirements: - `from` and `to` cannot be the zero address. - `from` must have a balance of at least `amount`. - the caller must have allowance for ``from``'s tokens of at least `amount`."
      }
    },
    "version": 1
  },
  "userdoc": {
    "kind": "user",
    "methods": {},
    "version": 1
  }
}