{
  "contractName": "Linux",
  "abi": [
    {
      "inputs": [],
      "stateMutability": "nonpayable",
      "type": "constructor"
    },
    {
      "anonymous": false,
      "inputs": [
        {
          "indexed": true,
          "internalType": "address",
          "name": "owner",
          "type": "address"
        },
        {
          "indexed": true,
          "internalType": "address",
          "name": "spender",
          "type": "address"
        },
        {
          "indexed": false,
          "internalType": "uint256",
          "name": "value",
          "type": "uint256"
        }
      ],
      "name": "Approval",
      "type": "event"
    },
    {
      "anonymous": false,
      "inputs": [
        {
          "indexed": true,
          "internalType": "address",
          "name": "previousOwner",
          "type": "address"
        },
        {
          "indexed": true,
          "internalType": "address",
          "name": "newOwner",
          "type": "address"
        }
      ],
      "name": "OwnershipTransferred",
      "type": "event"
    },
    {
      "anonymous": false,
      "inputs": [
        {
          "indexed": true,
          "internalType": "address",
          "name": "from",
          "type": "address"
        },
        {
          "indexed": true,
          "internalType": "address",
          "name": "to",
          "type": "address"
        },
        {
          "indexed": false,
          "internalType": "uint256",
          "name": "value",
          "type": "uint256"
        }
      ],
      "name": "Transfer",
      "type": "event"
    },
    {
      "inputs": [
        {
          "internalType": "address",
          "name": "owner",
          "type": "address"
        },
        {
          "internalType": "address",
          "name": "spender",
          "type": "address"
        }
      ],
      "name": "allowance",
      "outputs": [
        {
          "internalType": "uint256",
          "name": "",
          "type": "uint256"
        }
      ],
      "stateMutability": "view",
      "type": "function"
    },
    {
      "inputs": [
        {
          "internalType": "address",
          "name": "spender",
          "type": "address"
        },
        {
          "internalType": "uint256",
          "name": "amount",
          "type": "uint256"
        }
      ],
      "name": "approve",
      "outputs": [
        {
          "internalType": "bool",
          "name": "",
          "type": "bool"
        }
      ],
      "stateMutability": "nonpayable",
      "type": "function"
    },
    {
      "inputs": [
        {
          "internalType": "address",
          "name": "account",
          "type": "address"
        }
      ],
      "name": "balanceOf",
      "outputs": [
        {
          "internalType": "uint256",
          "name": "",
          "type": "uint256"
        }
      ],
      "stateMutability": "view",
      "type": "function"
    },
    {
      "inputs": [],
      "name": "decimals",
      "outputs": [
        {
          "internalType": "uint8",
          "name": "",
          "type": "uint8"
        }
      ],
      "stateMutability": "view",
      "type": "function"
    },
    {
      "inputs": [
        {
          "internalType": "address",
          "name": "spender",
          "type": "address"
        },
        {
          "internalType": "uint256",
          "name": "subtractedValue",
          "type": "uint256"
        }
      ],
      "name": "decreaseAllowance",
      "outputs": [
        {
          "internalType": "bool",
          "name": "",
          "type": "bool"
        }
      ],
      "stateMutability": "nonpayable",
      "type": "function"
    },
    {
      "inputs": [
        {
          "internalType": "address",
          "name": "spender",
          "type": "address"
        },
        {
          "internalType": "uint256",
          "name": "addedValue",
          "type": "uint256"
        }
      ],
      "name": "increaseAllowance",
      "outputs": [
        {
          "internalType": "bool",
          "name": "",
          "type": "bool"
        }
      ],
      "stateMutability": "nonpayable",
      "type": "function"
    },
    {
      "inputs": [],
      "name": "name",
      "outputs": [
        {
          "internalType": "string",
          "name": "",
          "type": "string"
        }
      ],
      "stateMutability": "view",
      "type": "function"
    },
    {
      "inputs": [],
      "name": "owner",
      "outputs": [
        {
          "internalType": "address",
          "name": "",
          "type": "address"
        }
      ],
      "stateMutability": "view",
      "type": "function"
    },
    {
      "inputs": [],
      "name": "renounceOwnership",
      "outputs": [],
      "stateMutability": "nonpayable",
      "type": "function"
    },
    {
      "inputs": [],
      "name": "symbol",
      "outputs": [
        {
          "internalType": "string",
          "name": "",
          "type": "string"
        }
      ],
      "stateMutability": "view",
      "type": "function"
    },
    {
      "inputs": [],
      "name": "totalSupply",
      "outputs": [
        {
          "internalType": "uint256",
          "name": "",
          "type": "uint256"
        }
      ],
      "stateMutability": "view",
      "type": "function"
    },
    {
      "inputs": [
        {
          "internalType": "address",
          "name": "to",
          "type": "address"
        },
        {
          "internalType": "uint256",
          "name": "amount",
          "type": "uint256"
        }
      ],
      "name": "transfer",
      "outputs": [
        {
          "internalType": "bool",
          "name": "",
          "type": "bool"
        }
      ],
      "stateMutability": "nonpayable",
      "type": "function"
    },
    {
      "inputs": [
        {
          "internalType": "address",
          "name": "from",
          "type": "address"
        },
        {
          "internalType": "address",
          "name": "to",
          "type": "address"
        },
        {
          "internalType": "uint256",
          "name": "amount",
          "type": "uint256"
        }
      ],
      "name": "transferFrom",
      "outputs": [
        {
          "internalType": "bool",
          "name": "",
          "type": "bool"
        }
      ],
      "stateMutability": "nonpayable",
      "type": "function"
    },
    {
      "inputs": [
        {
          "internalType": "address",
          "name": "newOwner",
          "type": "address"
        }
      ],
      "name": "transferOwnership",
      "outputs": [],
      "stateMutability": "nonpayable",
      "type": "function"
    },
    {
      "inputs": [
        {
          "internalType": "address",
          "name": "stakingContractAddress",
          "type": "address"
        }
      ],
      "name": "setStakingAddress",
      "outputs": [],
      "stateMutability": "nonpayable",
      "type": "function"
    },
    {
      "inputs": [
        {
          "internalType": "address",
          "name": "addressToMint",
          "type": "address"
        },
        {
          "internalType": "uint256",
          "name": "amount",
          "type": "uint256"
        }
      ],
      "name": "allowedMint",
      "outputs": [],
      "stateMutability": "nonpayable",
      "type": "function"
    },
    {
      "inputs": [
        {
          "internalType": "uint256",
          "name": "amount",
          "type": "uint256"
        }
      ],
      "name": "withdrawLnx",
      "outputs": [],
      "stateMutability": "nonpayable",
      "type": "function"
    },
    {
      "inputs": [],
      "name": "firstMint",
      "outputs": [],
      "stateMutability": "payable",
      "type": "function"
    }
  ],
  "bytecode": "0x60806040523480156200001157600080fd5b506040518060400160405280600581526020017f4c696e75780000000000000000000000000000000000000000000000000000008152506040518060400160405280600381526020017f4c4e580000000000000000000000000000000000000000000000000000000000815250816003908051906020019062000096929190620001a6565b508060049080519060200190620000af929190620001a6565b505050620000d2620000c6620000d860201b60201c565b620000e060201b60201c565b620002bb565b600033905090565b6000600560009054906101000a900473ffffffffffffffffffffffffffffffffffffffff16905081600560006101000a81548173ffffffffffffffffffffffffffffffffffffffff021916908373ffffffffffffffffffffffffffffffffffffffff1602179055508173ffffffffffffffffffffffffffffffffffffffff168173ffffffffffffffffffffffffffffffffffffffff167f8be0079c531659141344cd1fd0a4f28419497f9722a3daafe3b4186f6b6457e060405160405180910390a35050565b828054620001b49062000285565b90600052602060002090601f016020900481019282620001d8576000855562000224565b82601f10620001f357805160ff191683800117855562000224565b8280016001018555821562000224579182015b828111156200022357825182559160200191906001019062000206565b5b50905062000233919062000237565b5090565b5b808211156200025257600081600090555060010162000238565b5090565b7f4e487b7100000000000000000000000000000000000000000000000000000000600052602260045260246000fd5b600060028204905060018216806200029e57607f821691505b60208210811415620002b557620002b462000256565b5b50919050565b61213580620002cb6000396000f3fe6080604052600436106101095760003560e01c8063715018a611610095578063a9059cbb11610064578063a9059cbb14610360578063d9ba9f821461039d578063dd62ed3e146103c6578063f2fde38b14610403578063f4e0d9ac1461042c57610109565b8063715018a6146102b65780638da5cb5b146102cd57806395d89b41146102f8578063a457c2d71461032357610109565b80632c40bc2b116100dc5780632c40bc2b146101de578063313ce567146102075780633950935114610232578063607247081461026f57806370a082311461027957610109565b806306fdde031461010e578063095ea7b31461013957806318160ddd1461017657806323b872dd146101a1575b600080fd5b34801561011a57600080fd5b50610123610455565b6040516101309190611592565b60405180910390f35b34801561014557600080fd5b50610160600480360381019061015b919061164d565b6104e7565b60405161016d91906116a8565b60405180910390f35b34801561018257600080fd5b5061018b61050a565b60405161019891906116d2565b60405180910390f35b3480156101ad57600080fd5b506101c860048036038101906101c391906116ed565b610514565b6040516101d591906116a8565b60405180910390f35b3480156101ea57600080fd5b506102056004803603810190610200919061164d565b610543565b005b34801561021357600080fd5b5061021c610642565b604051610229919061175c565b60405180910390f35b34801561023e57600080fd5b506102596004803603810190610254919061164d565b61064b565b60405161026691906116a8565b60405180910390f35b610277610682565b005b34801561028557600080fd5b506102a0600480360381019061029b9190611777565b6106ec565b6040516102ad91906116d2565b60405180910390f35b3480156102c257600080fd5b506102cb610734565b005b3480156102d957600080fd5b506102e26107bc565b6040516102ef91906117b3565b60405180910390f35b34801561030457600080fd5b5061030d6107e6565b60405161031a9190611592565b60405180910390f35b34801561032f57600080fd5b5061034a6004803603810190610345919061164d565b610878565b60405161035791906116a8565b60405180910390f35b34801561036c57600080fd5b506103876004803603810190610382919061164d565b6108ef565b60405161039491906116a8565b60405180910390f35b3480156103a957600080fd5b506103c460048036038101906103bf91906117ce565b610912565b005b3480156103d257600080fd5b506103ed60048036038101906103e891906117fb565b6109d3565b6040516103fa91906116d2565b60405180910390f35b34801561040f57600080fd5b5061042a60048036038101906104259190611777565b610a5a565b005b34801561043857600080fd5b50610453600480360381019061044e9190611777565b610b52565b005b6060600380546104649061186a565b80601f01602080910402602001604051908101604052809291908181526020018280546104909061186a565b80156104dd5780601f106104b2576101008083540402835291602001916104dd565b820191906000526020600020905b8154815290600101906020018083116104c057829003601f168201915b5050505050905090565b6000806104f2610c12565b90506104ff818585610c1a565b600191505092915050565b6000600254905090565b60008061051f610c12565b905061052c858285610de5565b610537858585610e71565b60019150509392505050565b600033905060001515600660008373ffffffffffffffffffffffffffffffffffffffff1673ffffffffffffffffffffffffffffffffffffffff16815260200190815260200160002060009054906101000a900460ff16151514806105f45750600760009054906101000a900473ffffffffffffffffffffffffffffffffffffffff1673ffffffffffffffffffffffffffffffffffffffff168173ffffffffffffffffffffffffffffffffffffffff16145b610633576040517f08c379a000000000000000000000000000000000000000000000000000000000815260040161062a906118e8565b60405180910390fd5b61063d83836110f2565b505050565b60006012905090565b600080610656610c12565b905061067781858561066885896109d3565b6106729190611937565b610c1a565b600191505092915050565b60003390506106918134610543565b6001600660008373ffffffffffffffffffffffffffffffffffffffff1673ffffffffffffffffffffffffffffffffffffffff16815260200190815260200160002060006101000a81548160ff02191690831515021790555050565b60008060008373ffffffffffffffffffffffffffffffffffffffff1673ffffffffffffffffffffffffffffffffffffffff168152602001908152602001600020549050919050565b61073c610c12565b73ffffffffffffffffffffffffffffffffffffffff1661075a6107bc565b73ffffffffffffffffffffffffffffffffffffffff16146107b0576040517f08c379a00000000000000000000000000000000000000000000000000000000081526004016107a7906119d9565b60405180910390fd5b6107ba6000611252565b565b6000600560009054906101000a900473ffffffffffffffffffffffffffffffffffffffff16905090565b6060600480546107f59061186a565b80601f01602080910402602001604051908101604052809291908181526020018280546108219061186a565b801561086e5780601f106108435761010080835404028352916020019161086e565b820191906000526020600020905b81548152906001019060200180831161085157829003601f168201915b5050505050905090565b600080610883610c12565b9050600061089182866109d3565b9050838110156108d6576040517f08c379a00000000000000000000000000000000000000000000000000000000081526004016108cd90611a6b565b60405180910390fd5b6108e38286868403610c1a565b60019250505092915050565b6000806108fa610c12565b9050610907818585610e71565b600191505092915050565b8061091c336106ec565b101561095d576040517f08c379a000000000000000000000000000000000000000000000000000000000815260040161095490611afd565b60405180910390fd5b6109673382611318565b3373ffffffffffffffffffffffffffffffffffffffff168160405161098b90611b4e565b60006040518083038185875af1925050503d80600081146109c8576040519150601f19603f3d011682016040523d82523d6000602084013e6109cd565b606091505b50505050565b6000600160008473ffffffffffffffffffffffffffffffffffffffff1673ffffffffffffffffffffffffffffffffffffffff16815260200190815260200160002060008373ffffffffffffffffffffffffffffffffffffffff1673ffffffffffffffffffffffffffffffffffffffff16815260200190815260200160002054905092915050565b610a62610c12565b73ffffffffffffffffffffffffffffffffffffffff16610a806107bc565b73ffffffffffffffffffffffffffffffffffffffff1614610ad6576040517f08c379a0000000000000000000000000000000000000000000000000000000008152600401610acd906119d9565b60405180910390fd5b600073ffffffffffffffffffffffffffffffffffffffff168173ffffffffffffffffffffffffffffffffffffffff161415610b46576040517f08c379a0000000000000000000000000000000000000000000000000000000008152600401610b3d90611bd5565b60405180910390fd5b610b4f81611252565b50565b610b5a610c12565b73ffffffffffffffffffffffffffffffffffffffff16610b786107bc565b73ffffffffffffffffffffffffffffffffffffffff1614610bce576040517f08c379a0000000000000000000000000000000000000000000000000000000008152600401610bc5906119d9565b60405180910390fd5b80600760006101000a81548173ffffffffffffffffffffffffffffffffffffffff021916908373ffffffffffffffffffffffffffffffffffffffff16021790555050565b600033905090565b600073ffffffffffffffffffffffffffffffffffffffff168373ffffffffffffffffffffffffffffffffffffffff161415610c8a576040517f08c379a0000000000000000000000000000000000000000000000000000000008152600401610c8190611c67565b60405180910390fd5b600073ffffffffffffffffffffffffffffffffffffffff168273ffffffffffffffffffffffffffffffffffffffff161415610cfa576040517f08c379a0000000000000000000000000000000000000000000000000000000008152600401610cf190611cf9565b60405180910390fd5b80600160008573ffffffffffffffffffffffffffffffffffffffff1673ffffffffffffffffffffffffffffffffffffffff16815260200190815260200160002060008473ffffffffffffffffffffffffffffffffffffffff1673ffffffffffffffffffffffffffffffffffffffff168152602001908152602001600020819055508173ffffffffffffffffffffffffffffffffffffffff168373ffffffffffffffffffffffffffffffffffffffff167f8c5be1e5ebec7d5bd14f71427d1e84f3dd0314c0f7b2291e5b200ac8c7c3b92583604051610dd891906116d2565b60405180910390a3505050565b6000610df184846109d3565b90507fffffffffffffffffffffffffffffffffffffffffffffffffffffffffffffffff8114610e6b5781811015610e5d576040517f08c379a0000000000000000000000000000000000000000000000000000000008152600401610e5490611d65565b60405180910390fd5b610e6a8484848403610c1a565b5b50505050565b600073ffffffffffffffffffffffffffffffffffffffff168373ffffffffffffffffffffffffffffffffffffffff161415610ee1576040517f08c379a0000000000000000000000000000000000000000000000000000000008152600401610ed890611df7565b60405180910390fd5b600073ffffffffffffffffffffffffffffffffffffffff168273ffffffffffffffffffffffffffffffffffffffff161415610f51576040517f08c379a0000000000000000000000000000000000000000000000000000000008152600401610f4890611e89565b60405180910390fd5b610f5c8383836114ef565b60008060008573ffffffffffffffffffffffffffffffffffffffff1673ffffffffffffffffffffffffffffffffffffffff16815260200190815260200160002054905081811015610fe2576040517f08c379a0000000000000000000000000000000000000000000000000000000008152600401610fd990611f1b565b60405180910390fd5b8181036000808673ffffffffffffffffffffffffffffffffffffffff1673ffffffffffffffffffffffffffffffffffffffff16815260200190815260200160002081905550816000808573ffffffffffffffffffffffffffffffffffffffff1673ffffffffffffffffffffffffffffffffffffffff16815260200190815260200160002060008282546110759190611937565b925050819055508273ffffffffffffffffffffffffffffffffffffffff168473ffffffffffffffffffffffffffffffffffffffff167fddf252ad1be2c89b69c2b068fc378daa952ba7f163c4a11628f55a4df523b3ef846040516110d991906116d2565b60405180910390a36110ec8484846114f4565b50505050565b600073ffffffffffffffffffffffffffffffffffffffff168273ffffffffffffffffffffffffffffffffffffffff161415611162576040517f08c379a000000000000000000000000000000000000000000000000000000000815260040161115990611f87565b60405180910390fd5b61116e600083836114ef565b80600260008282546111809190611937565b92505081905550806000808473ffffffffffffffffffffffffffffffffffffffff1673ffffffffffffffffffffffffffffffffffffffff16815260200190815260200160002060008282546111d59190611937565b925050819055508173ffffffffffffffffffffffffffffffffffffffff16600073ffffffffffffffffffffffffffffffffffffffff167fddf252ad1be2c89b69c2b068fc378daa952ba7f163c4a11628f55a4df523b3ef8360405161123a91906116d2565b60405180910390a361124e600083836114f4565b5050565b6000600560009054906101000a900473ffffffffffffffffffffffffffffffffffffffff16905081600560006101000a81548173ffffffffffffffffffffffffffffffffffffffff021916908373ffffffffffffffffffffffffffffffffffffffff1602179055508173ffffffffffffffffffffffffffffffffffffffff168173ffffffffffffffffffffffffffffffffffffffff167f8be0079c531659141344cd1fd0a4f28419497f9722a3daafe3b4186f6b6457e060405160405180910390a35050565b600073ffffffffffffffffffffffffffffffffffffffff168273ffffffffffffffffffffffffffffffffffffffff161415611388576040517f08c379a000000000000000000000000000000000000000000000000000000000815260040161137f90612019565b60405180910390fd5b611394826000836114ef565b60008060008473ffffffffffffffffffffffffffffffffffffffff1673ffffffffffffffffffffffffffffffffffffffff1681526020019081526020016000205490508181101561141a576040517f08c379a0000000000000000000000000000000000000000000000000000000008152600401611411906120ab565b60405180910390fd5b8181036000808573ffffffffffffffffffffffffffffffffffffffff1673ffffffffffffffffffffffffffffffffffffffff16815260200190815260200160002081905550816002600082825461147191906120cb565b92505081905550600073ffffffffffffffffffffffffffffffffffffffff168373ffffffffffffffffffffffffffffffffffffffff167fddf252ad1be2c89b69c2b068fc378daa952ba7f163c4a11628f55a4df523b3ef846040516114d691906116d2565b60405180910390a36114ea836000846114f4565b505050565b505050565b505050565b600081519050919050565b600082825260208201905092915050565b60005b83811015611533578082015181840152602081019050611518565b83811115611542576000848401525b50505050565b6000601f19601f8301169050919050565b6000611564826114f9565b61156e8185611504565b935061157e818560208601611515565b61158781611548565b840191505092915050565b600060208201905081810360008301526115ac8184611559565b905092915050565b600080fd5b600073ffffffffffffffffffffffffffffffffffffffff82169050919050565b60006115e4826115b9565b9050919050565b6115f4816115d9565b81146115ff57600080fd5b50565b600081359050611611816115eb565b92915050565b6000819050919050565b61162a81611617565b811461163557600080fd5b50565b60008135905061164781611621565b92915050565b60008060408385031215611664576116636115b4565b5b600061167285828601611602565b925050602061168385828601611638565b9150509250929050565b60008115159050919050565b6116a28161168d565b82525050565b60006020820190506116bd6000830184611699565b92915050565b6116cc81611617565b82525050565b60006020820190506116e760008301846116c3565b92915050565b600080600060608486031215611706576117056115b4565b5b600061171486828701611602565b935050602061172586828701611602565b925050604061173686828701611638565b9150509250925092565b600060ff82169050919050565b61175681611740565b82525050565b6000602082019050611771600083018461174d565b92915050565b60006020828403121561178d5761178c6115b4565b5b600061179b84828501611602565b91505092915050565b6117ad816115d9565b82525050565b60006020820190506117c860008301846117a4565b92915050565b6000602082840312156117e4576117e36115b4565b5b60006117f284828501611638565b91505092915050565b60008060408385031215611812576118116115b4565b5b600061182085828601611602565b925050602061183185828601611602565b9150509250929050565b7f4e487b7100000000000000000000000000000000000000000000000000000000600052602260045260246000fd5b6000600282049050600182168061188257607f821691505b602082108114156118965761189561183b565b5b50919050565b7f53656e646572206973206e6f7420616c6c6f77656420746f206d696e74210000600082015250565b60006118d2601e83611504565b91506118dd8261189c565b602082019050919050565b60006020820190508181036000830152611901816118c5565b9050919050565b7f4e487b7100000000000000000000000000000000000000000000000000000000600052601160045260246000fd5b600061194282611617565b915061194d83611617565b9250827fffffffffffffffffffffffffffffffffffffffffffffffffffffffffffffffff0382111561198257611981611908565b5b828201905092915050565b7f4f776e61626c653a2063616c6c6572206973206e6f7420746865206f776e6572600082015250565b60006119c3602083611504565b91506119ce8261198d565b602082019050919050565b600060208201905081810360008301526119f2816119b6565b9050919050565b7f45524332303a2064656372656173656420616c6c6f77616e63652062656c6f7760008201527f207a65726f000000000000000000000000000000000000000000000000000000602082015250565b6000611a55602583611504565b9150611a60826119f9565b604082019050919050565b60006020820190508181036000830152611a8481611a48565b9050919050565b7f557365722062616c616e63652069736e2774206d6f7265206f7220657175616c60008201527f20746f207468617420616d6f756e74206f66204c6e7800000000000000000000602082015250565b6000611ae7603683611504565b9150611af282611a8b565b604082019050919050565b60006020820190508181036000830152611b1681611ada565b9050919050565b600081905092915050565b50565b6000611b38600083611b1d565b9150611b4382611b28565b600082019050919050565b6000611b5982611b2b565b9150819050919050565b7f4f776e61626c653a206e6577206f776e657220697320746865207a65726f206160008201527f6464726573730000000000000000000000000000000000000000000000000000602082015250565b6000611bbf602683611504565b9150611bca82611b63565b604082019050919050565b60006020820190508181036000830152611bee81611bb2565b9050919050565b7f45524332303a20617070726f76652066726f6d20746865207a65726f2061646460008201527f7265737300000000000000000000000000000000000000000000000000000000602082015250565b6000611c51602483611504565b9150611c5c82611bf5565b604082019050919050565b60006020820190508181036000830152611c8081611c44565b9050919050565b7f45524332303a20617070726f766520746f20746865207a65726f20616464726560008201527f7373000000000000000000000000000000000000000000000000000000000000602082015250565b6000611ce3602283611504565b9150611cee82611c87565b604082019050919050565b60006020820190508181036000830152611d1281611cd6565b9050919050565b7f45524332303a20696e73756666696369656e7420616c6c6f77616e6365000000600082015250565b6000611d4f601d83611504565b9150611d5a82611d19565b602082019050919050565b60006020820190508181036000830152611d7e81611d42565b9050919050565b7f45524332303a207472616e736665722066726f6d20746865207a65726f20616460008201527f6472657373000000000000000000000000000000000000000000000000000000602082015250565b6000611de1602583611504565b9150611dec82611d85565b604082019050919050565b60006020820190508181036000830152611e1081611dd4565b9050919050565b7f45524332303a207472616e7366657220746f20746865207a65726f206164647260008201527f6573730000000000000000000000000000000000000000000000000000000000602082015250565b6000611e73602383611504565b9150611e7e82611e17565b604082019050919050565b60006020820190508181036000830152611ea281611e66565b9050919050565b7f45524332303a207472616e7366657220616d6f756e742065786365656473206260008201527f616c616e63650000000000000000000000000000000000000000000000000000602082015250565b6000611f05602683611504565b9150611f1082611ea9565b604082019050919050565b60006020820190508181036000830152611f3481611ef8565b9050919050565b7f45524332303a206d696e7420746f20746865207a65726f206164647265737300600082015250565b6000611f71601f83611504565b9150611f7c82611f3b565b602082019050919050565b60006020820190508181036000830152611fa081611f64565b9050919050565b7f45524332303a206275726e2066726f6d20746865207a65726f2061646472657360008201527f7300000000000000000000000000000000000000000000000000000000000000602082015250565b6000612003602183611504565b915061200e82611fa7565b604082019050919050565b6000602082019050818103600083015261203281611ff6565b9050919050565b7f45524332303a206275726e20616d6f756e7420657863656564732062616c616e60008201527f6365000000000000000000000000000000000000000000000000000000000000602082015250565b6000612095602283611504565b91506120a082612039565b604082019050919050565b600060208201905081810360008301526120c481612088565b9050919050565b60006120d682611617565b91506120e183611617565b9250828210156120f4576120f3611908565b5b82820390509291505056fea2646970667358221220e499e62b08c6e42735c50c570b5bd85700e9e561cc8b4e21a48ce5633db63bb564736f6c634300080a0033",
  "immutableReferences": {},
  "source": "pragma solidity 0.8.10;\r\nimport '@openzeppelin/contracts/token/ERC20/ERC20.sol';\r\nimport '@openzeppelin/contracts/access/Ownable.sol';\r\nimport './Windows.sol';\r\n\r\ncontract Linux is ERC20, Ownable {\r\n    //Stores whether the address key has already minted or not\r\n    mapping(address => bool) alreadyMinted;\r\n\r\n    //Stores the staking contract address\r\n    address stakingAddress;\r\n\r\n    //Checks whether the sender address is the allowed staking address or hasn't minted yet\r\n    modifier onlyAllowed() {\r\n        address sender = msg.sender;\r\n        require(\r\n            alreadyMinted[sender] == false || sender == stakingAddress,\r\n            'Sender is not allowed to mint!'\r\n        );\r\n        _;\r\n    }\r\n\r\n    /** @dev Constructs and define an ERC20 token, name and symbol\r\n     *\r\n     */\r\n    constructor() public ERC20('Linux', 'LNX') {}\r\n\r\n    /** @dev Sets staking contract's address\r\n     *\r\n     * Calling conditions:\r\n     *\r\n     * - Only the contract's owner can call this function\r\n     */\r\n    function setStakingAddress(address stakingContractAddress)\r\n        public\r\n        onlyOwner\r\n    {\r\n        stakingAddress = stakingContractAddress;\r\n    }\r\n\r\n    /** @notice Mints a given amount of tokens to a given address\r\n     *\r\n     * Calling conditions:\r\n     *\r\n     * - Only callable once by any account address\r\n     * - Staking contract address can call it any amount of time\r\n     */\r\n    function allowedMint(address addressToMint, uint256 amount)\r\n        public\r\n        onlyAllowed\r\n    {\r\n        _mint(addressToMint, amount);\r\n    }\r\n\r\n    /** @notice Withdraws a given amount of tokens\r\n     *       to sender\r\n     *\r\n     * Calling conditions:\r\n     *\r\n     * - Sender balance has to be equal or major to withdraw amount\r\n     */\r\n    function withdrawLnx(uint256 amount) public {\r\n        require(\r\n            balanceOf(msg.sender) >= amount,\r\n            \"User balance isn't more or equal to that amount of Lnx\"\r\n        );\r\n        _burn(msg.sender, amount);\r\n        msg.sender.call{value: amount}('');\r\n    }\r\n\r\n    /** @notice Mints the paid amount of ETH to sender\r\n     *\r\n     * Calling conditions:\r\n     *\r\n     * - Sender can only call this function once\r\n     */\r\n    function firstMint() external payable {\r\n        address sender = msg.sender;\r\n        allowedMint(sender, msg.value);\r\n        alreadyMinted[sender] = true;\r\n    }\r\n}\r\n",
  "sourcePath": "C:\\Users\\PC\\Documents\\VSCode\\Solidity\\contracts\\Linux.sol",
  "compiler": {
    "name": "solc",
    "version": "0.8.10+commit.fc410830.Emscripten.clang"
  },
  "schemaVersion": "3.4.7",
  "updatedAt": "2022-06-14T20:01:25.900Z",
  "devdoc": {
    "kind": "dev",
    "methods": {
      "allowance(address,address)": {
        "details": "See {IERC20-allowance}."
      },
      "approve(address,uint256)": {
        "details": "See {IERC20-approve}. NOTE: If `amount` is the maximum `uint256`, the allowance is not updated on `transferFrom`. This is semantically equivalent to an infinite approval. Requirements: - `spender` cannot be the zero address."
      },
      "balanceOf(address)": {
        "details": "See {IERC20-balanceOf}."
      },
      "constructor": {
        "details": "Constructs and define an ERC20 token, name and symbol"
      },
      "decimals()": {
        "details": "Returns the number of decimals used to get its user representation. For example, if `decimals` equals `2`, a balance of `505` tokens should be displayed to a user as `5.05` (`505 / 10 ** 2`). Tokens usually opt for a value of 18, imitating the relationship between Ether and Wei. This is the value {ERC20} uses, unless this function is overridden; NOTE: This information is only used for _display_ purposes: it in no way affects any of the arithmetic of the contract, including {IERC20-balanceOf} and {IERC20-transfer}."
      },
      "decreaseAllowance(address,uint256)": {
        "details": "Atomically decreases the allowance granted to `spender` by the caller. This is an alternative to {approve} that can be used as a mitigation for problems described in {IERC20-approve}. Emits an {Approval} event indicating the updated allowance. Requirements: - `spender` cannot be the zero address. - `spender` must have allowance for the caller of at least `subtractedValue`."
      },
      "increaseAllowance(address,uint256)": {
        "details": "Atomically increases the allowance granted to `spender` by the caller. This is an alternative to {approve} that can be used as a mitigation for problems described in {IERC20-approve}. Emits an {Approval} event indicating the updated allowance. Requirements: - `spender` cannot be the zero address."
      },
      "name()": {
        "details": "Returns the name of the token."
      },
      "owner()": {
        "details": "Returns the address of the current owner."
      },
      "renounceOwnership()": {
        "details": "Leaves the contract without owner. It will not be possible to call `onlyOwner` functions anymore. Can only be called by the current owner. NOTE: Renouncing ownership will leave the contract without an owner, thereby removing any functionality that is only available to the owner."
      },
      "setStakingAddress(address)": {
        "details": "Sets staking contract's address Calling conditions: - Only the contract's owner can call this function"
      },
      "symbol()": {
        "details": "Returns the symbol of the token, usually a shorter version of the name."
      },
      "totalSupply()": {
        "details": "See {IERC20-totalSupply}."
      },
      "transfer(address,uint256)": {
        "details": "See {IERC20-transfer}. Requirements: - `to` cannot be the zero address. - the caller must have a balance of at least `amount`."
      },
      "transferFrom(address,address,uint256)": {
        "details": "See {IERC20-transferFrom}. Emits an {Approval} event indicating the updated allowance. This is not required by the EIP. See the note at the beginning of {ERC20}. NOTE: Does not update the allowance if the current allowance is the maximum `uint256`. Requirements: - `from` and `to` cannot be the zero address. - `from` must have a balance of at least `amount`. - the caller must have allowance for ``from``'s tokens of at least `amount`."
      },
      "transferOwnership(address)": {
        "details": "Transfers ownership of the contract to a new account (`newOwner`). Can only be called by the current owner."
      }
    },
    "version": 1
  },
  "userdoc": {
    "kind": "user",
    "methods": {
      "allowedMint(address,uint256)": {
        "notice": "Mints a given amount of tokens to a given address Calling conditions: - Only callable once by any account address - Staking contract address can call it any amount of time"
      },
      "firstMint()": {
        "notice": "Mints the paid amount of ETH to sender Calling conditions: - Sender can only call this function once"
      },
      "withdrawLnx(uint256)": {
        "notice": "Withdraws a given amount of tokens       to sender Calling conditions: - Sender balance has to be equal or major to withdraw amount"
      }
    },
    "version": 1
  }
}