{
  "contractName": "Linux",
  "abi": [
    {
      "inputs": [],
      "stateMutability": "nonpayable",
      "type": "constructor"
    },
    {
      "anonymous": false,
      "inputs": [
        {
          "indexed": true,
          "internalType": "address",
          "name": "owner",
          "type": "address"
        },
        {
          "indexed": true,
          "internalType": "address",
          "name": "spender",
          "type": "address"
        },
        {
          "indexed": false,
          "internalType": "uint256",
          "name": "value",
          "type": "uint256"
        }
      ],
      "name": "Approval",
      "type": "event"
    },
    {
      "anonymous": false,
      "inputs": [
        {
          "indexed": true,
          "internalType": "address",
          "name": "from",
          "type": "address"
        },
        {
          "indexed": true,
          "internalType": "address",
          "name": "to",
          "type": "address"
        },
        {
          "indexed": false,
          "internalType": "uint256",
          "name": "value",
          "type": "uint256"
        }
      ],
      "name": "Transfer",
      "type": "event"
    },
    {
      "inputs": [
        {
          "internalType": "address",
          "name": "owner",
          "type": "address"
        },
        {
          "internalType": "address",
          "name": "spender",
          "type": "address"
        }
      ],
      "name": "allowance",
      "outputs": [
        {
          "internalType": "uint256",
          "name": "",
          "type": "uint256"
        }
      ],
      "stateMutability": "view",
      "type": "function",
      "constant": true
    },
    {
      "inputs": [
        {
          "internalType": "address",
          "name": "spender",
          "type": "address"
        },
        {
          "internalType": "uint256",
          "name": "amount",
          "type": "uint256"
        }
      ],
      "name": "approve",
      "outputs": [
        {
          "internalType": "bool",
          "name": "",
          "type": "bool"
        }
      ],
      "stateMutability": "nonpayable",
      "type": "function"
    },
    {
      "inputs": [
        {
          "internalType": "address",
          "name": "account",
          "type": "address"
        }
      ],
      "name": "balanceOf",
      "outputs": [
        {
          "internalType": "uint256",
          "name": "",
          "type": "uint256"
        }
      ],
      "stateMutability": "view",
      "type": "function",
      "constant": true
    },
    {
      "inputs": [],
      "name": "decimals",
      "outputs": [
        {
          "internalType": "uint8",
          "name": "",
          "type": "uint8"
        }
      ],
      "stateMutability": "view",
      "type": "function",
      "constant": true
    },
    {
      "inputs": [
        {
          "internalType": "address",
          "name": "spender",
          "type": "address"
        },
        {
          "internalType": "uint256",
          "name": "subtractedValue",
          "type": "uint256"
        }
      ],
      "name": "decreaseAllowance",
      "outputs": [
        {
          "internalType": "bool",
          "name": "",
          "type": "bool"
        }
      ],
      "stateMutability": "nonpayable",
      "type": "function"
    },
    {
      "inputs": [
        {
          "internalType": "address",
          "name": "spender",
          "type": "address"
        },
        {
          "internalType": "uint256",
          "name": "addedValue",
          "type": "uint256"
        }
      ],
      "name": "increaseAllowance",
      "outputs": [
        {
          "internalType": "bool",
          "name": "",
          "type": "bool"
        }
      ],
      "stateMutability": "nonpayable",
      "type": "function"
    },
    {
      "inputs": [
        {
          "internalType": "address",
          "name": "",
          "type": "address"
        }
      ],
      "name": "lockedDate",
      "outputs": [
        {
          "internalType": "uint256",
          "name": "",
          "type": "uint256"
        }
      ],
      "stateMutability": "view",
      "type": "function",
      "constant": true
    },
    {
      "inputs": [],
      "name": "name",
      "outputs": [
        {
          "internalType": "string",
          "name": "",
          "type": "string"
        }
      ],
      "stateMutability": "view",
      "type": "function",
      "constant": true
    },
    {
      "inputs": [],
      "name": "symbol",
      "outputs": [
        {
          "internalType": "string",
          "name": "",
          "type": "string"
        }
      ],
      "stateMutability": "view",
      "type": "function",
      "constant": true
    },
    {
      "inputs": [],
      "name": "totalSupply",
      "outputs": [
        {
          "internalType": "uint256",
          "name": "",
          "type": "uint256"
        }
      ],
      "stateMutability": "view",
      "type": "function",
      "constant": true
    },
    {
      "inputs": [
        {
          "internalType": "address",
          "name": "to",
          "type": "address"
        },
        {
          "internalType": "uint256",
          "name": "amount",
          "type": "uint256"
        }
      ],
      "name": "transfer",
      "outputs": [
        {
          "internalType": "bool",
          "name": "",
          "type": "bool"
        }
      ],
      "stateMutability": "nonpayable",
      "type": "function"
    },
    {
      "inputs": [
        {
          "internalType": "address",
          "name": "from",
          "type": "address"
        },
        {
          "internalType": "address",
          "name": "to",
          "type": "address"
        },
        {
          "internalType": "uint256",
          "name": "amount",
          "type": "uint256"
        }
      ],
      "name": "transferFrom",
      "outputs": [
        {
          "internalType": "bool",
          "name": "",
          "type": "bool"
        }
      ],
      "stateMutability": "nonpayable",
      "type": "function"
    },
    {
      "stateMutability": "payable",
      "type": "receive",
      "payable": true
    },
    {
      "inputs": [
        {
          "internalType": "uint256",
          "name": "amount",
          "type": "uint256"
        }
      ],
      "name": "withdrawLnx",
      "outputs": [],
      "stateMutability": "payable",
      "type": "function",
      "payable": true
    },
    {
      "inputs": [],
      "name": "getRewards",
      "outputs": [],
      "stateMutability": "payable",
      "type": "function",
      "payable": true
    }
  ],
  "bytecode": "0x60806040523480156200001157600080fd5b506040518060400160405280600581526020017f4c696e75780000000000000000000000000000000000000000000000000000008152506040518060400160405280600381526020017f4c4e580000000000000000000000000000000000000000000000000000000000815250816003908051906020019062000096929190620000b8565b508060049080519060200190620000af929190620000b8565b505050620001cd565b828054620000c69062000197565b90600052602060002090601f016020900481019282620000ea576000855562000136565b82601f106200010557805160ff191683800117855562000136565b8280016001018555821562000136579182015b828111156200013557825182559160200191906001019062000118565b5b50905062000145919062000149565b5090565b5b80821115620001645760008160009055506001016200014a565b5090565b7f4e487b7100000000000000000000000000000000000000000000000000000000600052602260045260246000fd5b60006002820490506001821680620001b057607f821691505b60208210811415620001c757620001c662000168565b5b50919050565b611ce080620001dd6000396000f3fe6080604052600436106100e15760003560e01c806370a082311161007f578063a9059cbb11610059578063a9059cbb146102de578063d9ba9f821461031b578063dd62ed3e14610337578063e74ef77814610374576100f2565b806370a082311461023957806395d89b4114610276578063a457c2d7146102a1576100f2565b806318160ddd116100bb57806318160ddd1461016957806323b872dd14610194578063313ce567146101d157806339509351146101fc576100f2565b80630572b0cc146100f757806306fdde0314610101578063095ea7b31461012c576100f2565b366100f2576100f033346103b1565b005b600080fd5b6100ff610511565b005b34801561010d57600080fd5b5061011661064f565b60405161012391906111ab565b60405180910390f35b34801561013857600080fd5b50610153600480360381019061014e9190611266565b6106e1565b60405161016091906112c1565b60405180910390f35b34801561017557600080fd5b5061017e610704565b60405161018b91906112eb565b60405180910390f35b3480156101a057600080fd5b506101bb60048036038101906101b69190611306565b61070e565b6040516101c891906112c1565b60405180910390f35b3480156101dd57600080fd5b506101e661073d565b6040516101f39190611375565b60405180910390f35b34801561020857600080fd5b50610223600480360381019061021e9190611266565b610746565b60405161023091906112c1565b60405180910390f35b34801561024557600080fd5b50610260600480360381019061025b9190611390565b61077d565b60405161026d91906112eb565b60405180910390f35b34801561028257600080fd5b5061028b6107c5565b60405161029891906111ab565b60405180910390f35b3480156102ad57600080fd5b506102c860048036038101906102c39190611266565b610857565b6040516102d591906112c1565b60405180910390f35b3480156102ea57600080fd5b5061030560048036038101906103009190611266565b6108ce565b60405161031291906112c1565b60405180910390f35b610335600480360381019061033091906113bd565b6108f1565b005b34801561034357600080fd5b5061035e600480360381019061035991906113ea565b6109b2565b60405161036b91906112eb565b60405180910390f35b34801561038057600080fd5b5061039b60048036038101906103969190611390565b610a39565b6040516103a891906112eb565b60405180910390f35b600073ffffffffffffffffffffffffffffffffffffffff168273ffffffffffffffffffffffffffffffffffffffff161415610421576040517f08c379a000000000000000000000000000000000000000000000000000000000815260040161041890611476565b60405180910390fd5b61042d60008383610a51565b806002600082825461043f91906114c5565b92505081905550806000808473ffffffffffffffffffffffffffffffffffffffff1673ffffffffffffffffffffffffffffffffffffffff168152602001908152602001600020600082825461049491906114c5565b925050819055508173ffffffffffffffffffffffffffffffffffffffff16600073ffffffffffffffffffffffffffffffffffffffff167fddf252ad1be2c89b69c2b068fc378daa952ba7f163c4a11628f55a4df523b3ef836040516104f991906112eb565b60405180910390a361050d60008383610a56565b5050565b600061051c3361077d565b141561055d576040517f08c379a000000000000000000000000000000000000000000000000000000000815260040161055490611567565b60405180910390fd5b6000603c600560003373ffffffffffffffffffffffffffffffffffffffff1673ffffffffffffffffffffffffffffffffffffffff16815260200190815260200160002054426105ac9190611587565b600860016105b93361077d565b6105c391906115bb565b6105cd9190611644565b6105d791906115bb565b6105e19190611644565b90503373ffffffffffffffffffffffffffffffffffffffff1681604051610607906116a6565b60006040518083038185875af1925050503d8060008114610644576040519150601f19603f3d011682016040523d82523d6000602084013e610649565b606091505b50505050565b60606003805461065e906116ea565b80601f016020809104026020016040519081016040528092919081815260200182805461068a906116ea565b80156106d75780601f106106ac576101008083540402835291602001916106d7565b820191906000526020600020905b8154815290600101906020018083116106ba57829003601f168201915b5050505050905090565b6000806106ec610a5b565b90506106f9818585610a63565b600191505092915050565b6000600254905090565b600080610719610a5b565b9050610726858285610c2e565b610731858585610cba565b60019150509392505050565b60006012905090565b600080610751610a5b565b905061077281858561076385896109b2565b61076d91906114c5565b610a63565b600191505092915050565b60008060008373ffffffffffffffffffffffffffffffffffffffff1673ffffffffffffffffffffffffffffffffffffffff168152602001908152602001600020549050919050565b6060600480546107d4906116ea565b80601f0160208091040260200160405190810160405280929190818152602001828054610800906116ea565b801561084d5780601f106108225761010080835404028352916020019161084d565b820191906000526020600020905b81548152906001019060200180831161083057829003601f168201915b5050505050905090565b600080610862610a5b565b9050600061087082866109b2565b9050838110156108b5576040517f08c379a00000000000000000000000000000000000000000000000000000000081526004016108ac9061178e565b60405180910390fd5b6108c28286868403610a63565b60019250505092915050565b6000806108d9610a5b565b90506108e6818585610cba565b600191505092915050565b806108fb3361077d565b101561093c576040517f08c379a000000000000000000000000000000000000000000000000000000000815260040161093390611820565b60405180910390fd5b6109463382610f3b565b3373ffffffffffffffffffffffffffffffffffffffff168160405161096a906116a6565b60006040518083038185875af1925050503d80600081146109a7576040519150601f19603f3d011682016040523d82523d6000602084013e6109ac565b606091505b50505050565b6000600160008473ffffffffffffffffffffffffffffffffffffffff1673ffffffffffffffffffffffffffffffffffffffff16815260200190815260200160002060008373ffffffffffffffffffffffffffffffffffffffff1673ffffffffffffffffffffffffffffffffffffffff16815260200190815260200160002054905092915050565b60056020528060005260406000206000915090505481565b505050565b505050565b600033905090565b600073ffffffffffffffffffffffffffffffffffffffff168373ffffffffffffffffffffffffffffffffffffffff161415610ad3576040517f08c379a0000000000000000000000000000000000000000000000000000000008152600401610aca906118b2565b60405180910390fd5b600073ffffffffffffffffffffffffffffffffffffffff168273ffffffffffffffffffffffffffffffffffffffff161415610b43576040517f08c379a0000000000000000000000000000000000000000000000000000000008152600401610b3a90611944565b60405180910390fd5b80600160008573ffffffffffffffffffffffffffffffffffffffff1673ffffffffffffffffffffffffffffffffffffffff16815260200190815260200160002060008473ffffffffffffffffffffffffffffffffffffffff1673ffffffffffffffffffffffffffffffffffffffff168152602001908152602001600020819055508173ffffffffffffffffffffffffffffffffffffffff168373ffffffffffffffffffffffffffffffffffffffff167f8c5be1e5ebec7d5bd14f71427d1e84f3dd0314c0f7b2291e5b200ac8c7c3b92583604051610c2191906112eb565b60405180910390a3505050565b6000610c3a84846109b2565b90507fffffffffffffffffffffffffffffffffffffffffffffffffffffffffffffffff8114610cb45781811015610ca6576040517f08c379a0000000000000000000000000000000000000000000000000000000008152600401610c9d906119b0565b60405180910390fd5b610cb38484848403610a63565b5b50505050565b600073ffffffffffffffffffffffffffffffffffffffff168373ffffffffffffffffffffffffffffffffffffffff161415610d2a576040517f08c379a0000000000000000000000000000000000000000000000000000000008152600401610d2190611a42565b60405180910390fd5b600073ffffffffffffffffffffffffffffffffffffffff168273ffffffffffffffffffffffffffffffffffffffff161415610d9a576040517f08c379a0000000000000000000000000000000000000000000000000000000008152600401610d9190611ad4565b60405180910390fd5b610da5838383610a51565b60008060008573ffffffffffffffffffffffffffffffffffffffff1673ffffffffffffffffffffffffffffffffffffffff16815260200190815260200160002054905081811015610e2b576040517f08c379a0000000000000000000000000000000000000000000000000000000008152600401610e2290611b66565b60405180910390fd5b8181036000808673ffffffffffffffffffffffffffffffffffffffff1673ffffffffffffffffffffffffffffffffffffffff16815260200190815260200160002081905550816000808573ffffffffffffffffffffffffffffffffffffffff1673ffffffffffffffffffffffffffffffffffffffff1681526020019081526020016000206000828254610ebe91906114c5565b925050819055508273ffffffffffffffffffffffffffffffffffffffff168473ffffffffffffffffffffffffffffffffffffffff167fddf252ad1be2c89b69c2b068fc378daa952ba7f163c4a11628f55a4df523b3ef84604051610f2291906112eb565b60405180910390a3610f35848484610a56565b50505050565b600073ffffffffffffffffffffffffffffffffffffffff168273ffffffffffffffffffffffffffffffffffffffff161415610fab576040517f08c379a0000000000000000000000000000000000000000000000000000000008152600401610fa290611bf8565b60405180910390fd5b610fb782600083610a51565b60008060008473ffffffffffffffffffffffffffffffffffffffff1673ffffffffffffffffffffffffffffffffffffffff1681526020019081526020016000205490508181101561103d576040517f08c379a000000000000000000000000000000000000000000000000000000000815260040161103490611c8a565b60405180910390fd5b8181036000808573ffffffffffffffffffffffffffffffffffffffff1673ffffffffffffffffffffffffffffffffffffffff1681526020019081526020016000208190555081600260008282546110949190611587565b92505081905550600073ffffffffffffffffffffffffffffffffffffffff168373ffffffffffffffffffffffffffffffffffffffff167fddf252ad1be2c89b69c2b068fc378daa952ba7f163c4a11628f55a4df523b3ef846040516110f991906112eb565b60405180910390a361110d83600084610a56565b505050565b600081519050919050565b600082825260208201905092915050565b60005b8381101561114c578082015181840152602081019050611131565b8381111561115b576000848401525b50505050565b6000601f19601f8301169050919050565b600061117d82611112565b611187818561111d565b935061119781856020860161112e565b6111a081611161565b840191505092915050565b600060208201905081810360008301526111c58184611172565b905092915050565b600080fd5b600073ffffffffffffffffffffffffffffffffffffffff82169050919050565b60006111fd826111d2565b9050919050565b61120d816111f2565b811461121857600080fd5b50565b60008135905061122a81611204565b92915050565b6000819050919050565b61124381611230565b811461124e57600080fd5b50565b6000813590506112608161123a565b92915050565b6000806040838503121561127d5761127c6111cd565b5b600061128b8582860161121b565b925050602061129c85828601611251565b9150509250929050565b60008115159050919050565b6112bb816112a6565b82525050565b60006020820190506112d660008301846112b2565b92915050565b6112e581611230565b82525050565b600060208201905061130060008301846112dc565b92915050565b60008060006060848603121561131f5761131e6111cd565b5b600061132d8682870161121b565b935050602061133e8682870161121b565b925050604061134f86828701611251565b9150509250925092565b600060ff82169050919050565b61136f81611359565b82525050565b600060208201905061138a6000830184611366565b92915050565b6000602082840312156113a6576113a56111cd565b5b60006113b48482850161121b565b91505092915050565b6000602082840312156113d3576113d26111cd565b5b60006113e184828501611251565b91505092915050565b60008060408385031215611401576114006111cd565b5b600061140f8582860161121b565b92505060206114208582860161121b565b9150509250929050565b7f45524332303a206d696e7420746f20746865207a65726f206164647265737300600082015250565b6000611460601f8361111d565b915061146b8261142a565b602082019050919050565b6000602082019050818103600083015261148f81611453565b9050919050565b7f4e487b7100000000000000000000000000000000000000000000000000000000600052601160045260246000fd5b60006114d082611230565b91506114db83611230565b9250827fffffffffffffffffffffffffffffffffffffffffffffffffffffffffffffffff038211156115105761150f611496565b5b828201905092915050565b7f557365722062616c616e63652069732030000000000000000000000000000000600082015250565b600061155160118361111d565b915061155c8261151b565b602082019050919050565b6000602082019050818103600083015261158081611544565b9050919050565b600061159282611230565b915061159d83611230565b9250828210156115b0576115af611496565b5b828203905092915050565b60006115c682611230565b91506115d183611230565b9250817fffffffffffffffffffffffffffffffffffffffffffffffffffffffffffffffff048311821515161561160a57611609611496565b5b828202905092915050565b7f4e487b7100000000000000000000000000000000000000000000000000000000600052601260045260246000fd5b600061164f82611230565b915061165a83611230565b92508261166a57611669611615565b5b828204905092915050565b600081905092915050565b50565b6000611690600083611675565b915061169b82611680565b600082019050919050565b60006116b182611683565b9150819050919050565b7f4e487b7100000000000000000000000000000000000000000000000000000000600052602260045260246000fd5b6000600282049050600182168061170257607f821691505b60208210811415611716576117156116bb565b5b50919050565b7f45524332303a2064656372656173656420616c6c6f77616e63652062656c6f7760008201527f207a65726f000000000000000000000000000000000000000000000000000000602082015250565b600061177860258361111d565b91506117838261171c565b604082019050919050565b600060208201905081810360008301526117a78161176b565b9050919050565b7f557365722062616c616e63652069736e2774206d6f7265206f7220657175616c60008201527f20746f207468617420616d6f756e74206f66204c6e7800000000000000000000602082015250565b600061180a60368361111d565b9150611815826117ae565b604082019050919050565b60006020820190508181036000830152611839816117fd565b9050919050565b7f45524332303a20617070726f76652066726f6d20746865207a65726f2061646460008201527f7265737300000000000000000000000000000000000000000000000000000000602082015250565b600061189c60248361111d565b91506118a782611840565b604082019050919050565b600060208201905081810360008301526118cb8161188f565b9050919050565b7f45524332303a20617070726f766520746f20746865207a65726f20616464726560008201527f7373000000000000000000000000000000000000000000000000000000000000602082015250565b600061192e60228361111d565b9150611939826118d2565b604082019050919050565b6000602082019050818103600083015261195d81611921565b9050919050565b7f45524332303a20696e73756666696369656e7420616c6c6f77616e6365000000600082015250565b600061199a601d8361111d565b91506119a582611964565b602082019050919050565b600060208201905081810360008301526119c98161198d565b9050919050565b7f45524332303a207472616e736665722066726f6d20746865207a65726f20616460008201527f6472657373000000000000000000000000000000000000000000000000000000602082015250565b6000611a2c60258361111d565b9150611a37826119d0565b604082019050919050565b60006020820190508181036000830152611a5b81611a1f565b9050919050565b7f45524332303a207472616e7366657220746f20746865207a65726f206164647260008201527f6573730000000000000000000000000000000000000000000000000000000000602082015250565b6000611abe60238361111d565b9150611ac982611a62565b604082019050919050565b60006020820190508181036000830152611aed81611ab1565b9050919050565b7f45524332303a207472616e7366657220616d6f756e742065786365656473206260008201527f616c616e63650000000000000000000000000000000000000000000000000000602082015250565b6000611b5060268361111d565b9150611b5b82611af4565b604082019050919050565b60006020820190508181036000830152611b7f81611b43565b9050919050565b7f45524332303a206275726e2066726f6d20746865207a65726f2061646472657360008201527f7300000000000000000000000000000000000000000000000000000000000000602082015250565b6000611be260218361111d565b9150611bed82611b86565b604082019050919050565b60006020820190508181036000830152611c1181611bd5565b9050919050565b7f45524332303a206275726e20616d6f756e7420657863656564732062616c616e60008201527f6365000000000000000000000000000000000000000000000000000000000000602082015250565b6000611c7460228361111d565b9150611c7f82611c18565b604082019050919050565b60006020820190508181036000830152611ca381611c67565b905091905056fea2646970667358221220536e03ce9f15e8ed353cd47c63b4f8fd4524b9e9da19bb855e5b81a4fc2b1a6664736f6c634300080a0033",
  "immutableReferences": {},
  "source": "pragma solidity >=0.4.22 <0.9.0;\r\nimport \"@openzeppelin/contracts/token/ERC20/ERC20.sol\";\r\n\r\ncontract Linux is ERC20{\r\n    mapping(address => uint) public lockedDate;\r\n\r\n    constructor() public ERC20(\"Linux\", \"LNX\") {\r\n    }\r\n\r\n       function withdrawLnx(uint amount) public payable {\r\n            require(\r\n                balanceOf(msg.sender) >= amount, \"User balance isn't more or equal to that amount of Lnx\"\r\n            );\r\n         _burn(msg.sender,amount);\r\n         msg.sender.call{value:amount}(\"\");\r\n    }\r\n\r\n       function getRewards() public payable {\r\n           require(\r\n                balanceOf(msg.sender) != 0, \"User balance is 0\"\r\n            );\r\n           uint reward = balanceOf(msg.sender) * 1/8 * (block.timestamp-lockedDate[msg.sender])/60;\r\n         msg.sender.call{value:reward}(\"\");\r\n    }\r\n\r\n    receive() external payable{\r\n     _mint(msg.sender,msg.value);\r\n    }\r\n}",
  "sourcePath": "C:\\Users\\PC\\Documents\\VSCode\\Solidity\\contracts\\Linux.sol",
  "compiler": {
    "name": "solc",
    "version": "0.8.10+commit.fc410830.Emscripten.clang"
  },
  "schemaVersion": "3.4.7",
  "updatedAt": "2022-06-08T22:47:34.586Z",
  "networkType": "ethereum",
  "devdoc": {
    "kind": "dev",
    "methods": {
      "allowance(address,address)": {
        "details": "See {IERC20-allowance}."
      },
      "approve(address,uint256)": {
        "details": "See {IERC20-approve}. NOTE: If `amount` is the maximum `uint256`, the allowance is not updated on `transferFrom`. This is semantically equivalent to an infinite approval. Requirements: - `spender` cannot be the zero address."
      },
      "balanceOf(address)": {
        "details": "See {IERC20-balanceOf}."
      },
      "decimals()": {
        "details": "Returns the number of decimals used to get its user representation. For example, if `decimals` equals `2`, a balance of `505` tokens should be displayed to a user as `5.05` (`505 / 10 ** 2`). Tokens usually opt for a value of 18, imitating the relationship between Ether and Wei. This is the value {ERC20} uses, unless this function is overridden; NOTE: This information is only used for _display_ purposes: it in no way affects any of the arithmetic of the contract, including {IERC20-balanceOf} and {IERC20-transfer}."
      },
      "decreaseAllowance(address,uint256)": {
        "details": "Atomically decreases the allowance granted to `spender` by the caller. This is an alternative to {approve} that can be used as a mitigation for problems described in {IERC20-approve}. Emits an {Approval} event indicating the updated allowance. Requirements: - `spender` cannot be the zero address. - `spender` must have allowance for the caller of at least `subtractedValue`."
      },
      "increaseAllowance(address,uint256)": {
        "details": "Atomically increases the allowance granted to `spender` by the caller. This is an alternative to {approve} that can be used as a mitigation for problems described in {IERC20-approve}. Emits an {Approval} event indicating the updated allowance. Requirements: - `spender` cannot be the zero address."
      },
      "name()": {
        "details": "Returns the name of the token."
      },
      "symbol()": {
        "details": "Returns the symbol of the token, usually a shorter version of the name."
      },
      "totalSupply()": {
        "details": "See {IERC20-totalSupply}."
      },
      "transfer(address,uint256)": {
        "details": "See {IERC20-transfer}. Requirements: - `to` cannot be the zero address. - the caller must have a balance of at least `amount`."
      },
      "transferFrom(address,address,uint256)": {
        "details": "See {IERC20-transferFrom}. Emits an {Approval} event indicating the updated allowance. This is not required by the EIP. See the note at the beginning of {ERC20}. NOTE: Does not update the allowance if the current allowance is the maximum `uint256`. Requirements: - `from` and `to` cannot be the zero address. - `from` must have a balance of at least `amount`. - the caller must have allowance for ``from``'s tokens of at least `amount`."
      }
    },
    "version": 1
  },
  "userdoc": {
    "kind": "user",
    "methods": {},
    "version": 1
  }
}