{
  "contractName": "LinuxStaking",
  "abi": [
    {
      "inputs": [
        {
          "internalType": "address",
          "name": "newTokenAddress",
          "type": "address"
        }
      ],
      "stateMutability": "nonpayable",
      "type": "constructor"
    },
    {
      "anonymous": false,
      "inputs": [
        {
          "indexed": false,
          "internalType": "uint256",
          "name": "lockedTokens",
          "type": "uint256"
        }
      ],
      "name": "AddressLockedTokens",
      "type": "event"
    },
    {
      "anonymous": false,
      "inputs": [
        {
          "indexed": true,
          "internalType": "address",
          "name": "previousOwner",
          "type": "address"
        },
        {
          "indexed": true,
          "internalType": "address",
          "name": "newOwner",
          "type": "address"
        }
      ],
      "name": "OwnershipTransferred",
      "type": "event"
    },
    {
      "inputs": [],
      "name": "owner",
      "outputs": [
        {
          "internalType": "address",
          "name": "",
          "type": "address"
        }
      ],
      "stateMutability": "view",
      "type": "function"
    },
    {
      "inputs": [],
      "name": "renounceOwnership",
      "outputs": [],
      "stateMutability": "nonpayable",
      "type": "function"
    },
    {
      "inputs": [
        {
          "internalType": "address",
          "name": "newOwner",
          "type": "address"
        }
      ],
      "name": "transferOwnership",
      "outputs": [],
      "stateMutability": "nonpayable",
      "type": "function"
    },
    {
      "inputs": [
        {
          "internalType": "uint256",
          "name": "secondsAmount",
          "type": "uint256"
        }
      ],
      "name": "setStakingSecondAmount",
      "outputs": [],
      "stateMutability": "nonpayable",
      "type": "function"
    },
    {
      "inputs": [
        {
          "internalType": "uint256",
          "name": "amount",
          "type": "uint256"
        }
      ],
      "name": "deposit",
      "outputs": [],
      "stateMutability": "nonpayable",
      "type": "function"
    },
    {
      "inputs": [],
      "name": "getReward",
      "outputs": [],
      "stateMutability": "nonpayable",
      "type": "function"
    },
    {
      "inputs": [],
      "name": "retrieve",
      "outputs": [],
      "stateMutability": "nonpayable",
      "type": "function"
    },
    {
      "inputs": [],
      "name": "exit",
      "outputs": [],
      "stateMutability": "nonpayable",
      "type": "function"
    }
  ],
  "bytecode": "0x608060405260016002553480156200001657600080fd5b50604051620011f7380380620011f783398181016040528101906200003c9190620001da565b6200005c62000050620000a460201b60201c565b620000ac60201b60201c565b80600160006101000a81548173ffffffffffffffffffffffffffffffffffffffff021916908373ffffffffffffffffffffffffffffffffffffffff160217905550506200020c565b600033905090565b60008060009054906101000a900473ffffffffffffffffffffffffffffffffffffffff169050816000806101000a81548173ffffffffffffffffffffffffffffffffffffffff021916908373ffffffffffffffffffffffffffffffffffffffff1602179055508173ffffffffffffffffffffffffffffffffffffffff168173ffffffffffffffffffffffffffffffffffffffff167f8be0079c531659141344cd1fd0a4f28419497f9722a3daafe3b4186f6b6457e060405160405180910390a35050565b600080fd5b600073ffffffffffffffffffffffffffffffffffffffff82169050919050565b6000620001a28262000175565b9050919050565b620001b48162000195565b8114620001c057600080fd5b50565b600081519050620001d481620001a9565b92915050565b600060208284031215620001f357620001f262000170565b5b60006200020384828501620001c3565b91505092915050565b610fdb806200021c6000396000f3fe608060405234801561001057600080fd5b50600436106100885760003560e01c80638da5cb5b1161005b5780638da5cb5b146100c7578063b6b55f25146100e5578063e9fad8ee14610101578063f2fde38b1461010b57610088565b8063012a4b361461008d5780632e64cec1146100a95780633d18b912146100b3578063715018a6146100bd575b600080fd5b6100a760048036038101906100a29190610a95565b610127565b005b6100b16101ad565b005b6100bb610399565b005b6100c56105fc565b005b6100cf610684565b6040516100dc9190610b03565b60405180910390f35b6100ff60048036038101906100fa9190610a95565b6106ad565b005b610109610884565b005b61012560048036038101906101209190610b4a565b610896565b005b61012f61098e565b73ffffffffffffffffffffffffffffffffffffffff1661014d610684565b73ffffffffffffffffffffffffffffffffffffffff16146101a3576040517f08c379a000000000000000000000000000000000000000000000000000000000815260040161019a90610bd4565b60405180910390fd5b8060028190555050565b6000600360003373ffffffffffffffffffffffffffffffffffffffff1673ffffffffffffffffffffffffffffffffffffffff168152602001908152602001600020600001541415610233576040517f08c379a000000000000000000000000000000000000000000000000000000000815260040161022a90610c40565b60405180910390fd5b60003390506000600360008373ffffffffffffffffffffffffffffffffffffffff1673ffffffffffffffffffffffffffffffffffffffff168152602001908152602001600020600001549050600160009054906101000a900473ffffffffffffffffffffffffffffffffffffffff1673ffffffffffffffffffffffffffffffffffffffff1663a9059cbb83836040518363ffffffff1660e01b81526004016102dc929190610c6f565b6020604051808303816000875af11580156102fb573d6000803e3d6000fd5b505050506040513d601f19601f8201168201806040525081019061031f9190610cd0565b61032857600080fd5b6040518060400160405280600081526020016000815250600360008473ffffffffffffffffffffffffffffffffffffffff1673ffffffffffffffffffffffffffffffffffffffff16815260200190815260200160002060008201518160000155602082015181600101559050505050565b6000600360003373ffffffffffffffffffffffffffffffffffffffff1673ffffffffffffffffffffffffffffffffffffffff16815260200190815260200160002060000154141561041f576040517f08c379a000000000000000000000000000000000000000000000000000000000815260040161041690610c40565b60405180910390fd5b60003390506000600360008373ffffffffffffffffffffffffffffffffffffffff1673ffffffffffffffffffffffffffffffffffffffff168152602001908152602001600020604051806040016040529081600082015481526020016001820154815250509050600060025482602001514261049b9190610d2c565b83600001516104aa9190610d60565b6104b49190610de9565b9050600081116104f9576040517f08c379a00000000000000000000000000000000000000000000000000000000081526004016104f090610e66565b60405180910390fd5b600160009054906101000a900473ffffffffffffffffffffffffffffffffffffffff1673ffffffffffffffffffffffffffffffffffffffff16632c40bc2b84836040518363ffffffff1660e01b8152600401610556929190610c6f565b600060405180830381600087803b15801561057057600080fd5b505af1158015610584573d6000803e3d6000fd5b5050505060405180604001604052808360000151815260200142815250600360008573ffffffffffffffffffffffffffffffffffffffff1673ffffffffffffffffffffffffffffffffffffffff1681526020019081526020016000206000820151816000015560208201518160010155905050505050565b61060461098e565b73ffffffffffffffffffffffffffffffffffffffff16610622610684565b73ffffffffffffffffffffffffffffffffffffffff1614610678576040517f08c379a000000000000000000000000000000000000000000000000000000000815260040161066f90610bd4565b60405180910390fd5b6106826000610996565b565b60008060009054906101000a900473ffffffffffffffffffffffffffffffffffffffff16905090565b60003390506000600360008373ffffffffffffffffffffffffffffffffffffffff1673ffffffffffffffffffffffffffffffffffffffff16815260200190815260200160002060405180604001604052908160008201548152602001600182015481525050905060006002548260200151426107299190610d2c565b83600001516107389190610d60565b6107429190610de9565b9050600160009054906101000a900473ffffffffffffffffffffffffffffffffffffffff1673ffffffffffffffffffffffffffffffffffffffff166323b872dd8430876040518463ffffffff1660e01b81526004016107a393929190610e86565b6020604051808303816000875af11580156107c2573d6000803e3d6000fd5b505050506040513d601f19601f820116820180604052508101906107e69190610cd0565b6107ef57600080fd5b600081111561080157610800610399565b5b604051806040016040528085846000015161081c9190610ebd565b815260200142815250915081600360008573ffffffffffffffffffffffffffffffffffffffff1673ffffffffffffffffffffffffffffffffffffffff168152602001908152602001600020600082015181600001556020820151816001015590505050505050565b61088c610399565b6108946101ad565b565b61089e61098e565b73ffffffffffffffffffffffffffffffffffffffff166108bc610684565b73ffffffffffffffffffffffffffffffffffffffff1614610912576040517f08c379a000000000000000000000000000000000000000000000000000000000815260040161090990610bd4565b60405180910390fd5b600073ffffffffffffffffffffffffffffffffffffffff168173ffffffffffffffffffffffffffffffffffffffff161415610982576040517f08c379a000000000000000000000000000000000000000000000000000000000815260040161097990610f85565b60405180910390fd5b61098b81610996565b50565b600033905090565b60008060009054906101000a900473ffffffffffffffffffffffffffffffffffffffff169050816000806101000a81548173ffffffffffffffffffffffffffffffffffffffff021916908373ffffffffffffffffffffffffffffffffffffffff1602179055508173ffffffffffffffffffffffffffffffffffffffff168173ffffffffffffffffffffffffffffffffffffffff167f8be0079c531659141344cd1fd0a4f28419497f9722a3daafe3b4186f6b6457e060405160405180910390a35050565b600080fd5b6000819050919050565b610a7281610a5f565b8114610a7d57600080fd5b50565b600081359050610a8f81610a69565b92915050565b600060208284031215610aab57610aaa610a5a565b5b6000610ab984828501610a80565b91505092915050565b600073ffffffffffffffffffffffffffffffffffffffff82169050919050565b6000610aed82610ac2565b9050919050565b610afd81610ae2565b82525050565b6000602082019050610b186000830184610af4565b92915050565b610b2781610ae2565b8114610b3257600080fd5b50565b600081359050610b4481610b1e565b92915050565b600060208284031215610b6057610b5f610a5a565b5b6000610b6e84828501610b35565b91505092915050565b600082825260208201905092915050565b7f4f776e61626c653a2063616c6c6572206973206e6f7420746865206f776e6572600082015250565b6000610bbe602083610b77565b9150610bc982610b88565b602082019050919050565b60006020820190508181036000830152610bed81610bb1565b9050919050565b7f53656e64657220686173206e6f74206c6f636b656420746f6b656e7300000000600082015250565b6000610c2a601c83610b77565b9150610c3582610bf4565b602082019050919050565b60006020820190508181036000830152610c5981610c1d565b9050919050565b610c6981610a5f565b82525050565b6000604082019050610c846000830185610af4565b610c916020830184610c60565b9392505050565b60008115159050919050565b610cad81610c98565b8114610cb857600080fd5b50565b600081519050610cca81610ca4565b92915050565b600060208284031215610ce657610ce5610a5a565b5b6000610cf484828501610cbb565b91505092915050565b7f4e487b7100000000000000000000000000000000000000000000000000000000600052601160045260246000fd5b6000610d3782610a5f565b9150610d4283610a5f565b925082821015610d5557610d54610cfd565b5b828203905092915050565b6000610d6b82610a5f565b9150610d7683610a5f565b9250817fffffffffffffffffffffffffffffffffffffffffffffffffffffffffffffffff0483118215151615610daf57610dae610cfd565b5b828202905092915050565b7f4e487b7100000000000000000000000000000000000000000000000000000000600052601260045260246000fd5b6000610df482610a5f565b9150610dff83610a5f565b925082610e0f57610e0e610dba565b5b828204905092915050565b7f5468657265206973206e6f2072657761726420746f206d696e74000000000000600082015250565b6000610e50601a83610b77565b9150610e5b82610e1a565b602082019050919050565b60006020820190508181036000830152610e7f81610e43565b9050919050565b6000606082019050610e9b6000830186610af4565b610ea86020830185610af4565b610eb56040830184610c60565b949350505050565b6000610ec882610a5f565b9150610ed383610a5f565b9250827fffffffffffffffffffffffffffffffffffffffffffffffffffffffffffffffff03821115610f0857610f07610cfd565b5b828201905092915050565b7f4f776e61626c653a206e6577206f776e657220697320746865207a65726f206160008201527f6464726573730000000000000000000000000000000000000000000000000000602082015250565b6000610f6f602683610b77565b9150610f7a82610f13565b604082019050919050565b60006020820190508181036000830152610f9e81610f62565b905091905056fea2646970667358221220aa8d7cc0f29431b65ceea469c4c6f84f6a69534e6c01ffa56dcf9cdf431d5d5264736f6c634300080a0033",
  "immutableReferences": {},
  "source": "pragma solidity 0.8.10;\r\nimport '@openzeppelin/contracts/access/Ownable.sol';\r\nimport '@openzeppelin/contracts/token/ERC20/IERC20.sol';\r\nimport './Linux.sol';\r\n\r\ncontract LinuxStaking is Ownable {\r\n    //Stores the ERC20 contract's address to used to pay\r\n    address tokenAddress;\r\n\r\n    //Stores the amount of seconds in which one token will be given for each staked token\r\n    uint256 stakingSecAmount = 1;\r\n\r\n    //Stores the stake amount and deposit date\r\n    struct StakeData {\r\n        uint256 amount;\r\n        uint256 date;\r\n    }\r\n\r\n    //Stores the stake data for address\r\n    mapping(address => StakeData) lockedTokens;\r\n\r\n    event AddressLockedTokens(uint256 lockedTokens);\r\n\r\n    modifier hasLockedTokens() {\r\n        require(\r\n            lockedTokens[msg.sender].amount != 0,\r\n            'Sender has not locked tokens'\r\n        );\r\n        _;\r\n    }\r\n\r\n    /**@dev Constructs staking contraft and defines the\r\n     *      token contract's address used to stake\r\n     */\r\n    constructor(address newTokenAddress) {\r\n        tokenAddress = newTokenAddress;\r\n    }\r\n\r\n    /**@dev Sets a given staking reward seconds amount\r\n     *\r\n     * Calling conditions:\r\n     *\r\n     * - Only contract's owner can call this function\r\n     */\r\n    function setStakingSecondAmount(uint256 secondsAmount) public onlyOwner {\r\n        stakingSecAmount = secondsAmount;\r\n    }\r\n\r\n    /**@dev Adds a given amount of tokens to the sender address\r\n     *\r\n     * Calling conditions:\r\n     *\r\n     * - The address of this contract needs to be allowed\r\n     *   to transfer from sender the given amount\r\n     * - Given amount has to be transferred to the address\r\n     *   of this contract\r\n     */\r\n    function deposit(uint256 amount) public {\r\n        address sender = msg.sender;\r\n        StakeData memory senderStake = lockedTokens[sender];\r\n        uint reward = (senderStake.amount *\r\n            (block.timestamp - senderStake.date)) / stakingSecAmount;\r\n        require(\r\n            IERC20(tokenAddress).transferFrom(sender, address(this), amount)\r\n        );\r\n\r\n        if (reward > 0) getReward();\r\n        \r\n        senderStake = StakeData(\r\n            senderStake.amount + amount,\r\n            block.timestamp\r\n        );\r\n        lockedTokens[sender] = senderStake;\r\n    }\r\n\r\n    /**@dev Mints the reward amount of tokens to the sender\r\n     *\r\n     * Calling conditions:\r\n     *\r\n     * - Sender has to have locked tokens\r\n     */\r\n    function getReward() public hasLockedTokens {\r\n        address sender = msg.sender;\r\n        StakeData memory senderStake = lockedTokens[sender];\r\n        uint256 reward = (senderStake.amount *\r\n            (block.timestamp - senderStake.date)) / stakingSecAmount;\r\n        require(reward > 0, 'There is no reward to mint');\r\n        Linux(tokenAddress).allowedMint(sender, reward);\r\n        lockedTokens[sender] = StakeData(senderStake.amount, block.timestamp);\r\n    }\r\n\r\n    /**@dev Retrieves back the locked tokens of sender\r\n     *\r\n     * Calling conditions:\r\n     *\r\n     * - Sender has to have locked tokens\r\n     */\r\n    function retrieve() public hasLockedTokens {\r\n        address sender = msg.sender;\r\n        uint256 senderStakedTokens = lockedTokens[sender].amount;\r\n        require(IERC20(tokenAddress).transfer(sender, senderStakedTokens));\r\n        lockedTokens[sender] = StakeData(0, 0);\r\n    }\r\n\r\n    /**@dev Retrieves back the locked tokens\r\n     *      of sender and gets rewards\r\n     *\r\n     * Calling conditions:\r\n     *\r\n     * - Sender has to have locked tokens\r\n     */\r\n    function exit() public {\r\n        getReward();\r\n        retrieve();\r\n    }\r\n}\r\n",
  "sourcePath": "C:\\Users\\PC\\Documents\\VSCode\\Solidity\\contracts\\LinuxStaking.sol",
  "compiler": {
    "name": "solc",
    "version": "0.8.10+commit.fc410830.Emscripten.clang"
  },
  "schemaVersion": "3.4.7",
  "updatedAt": "2022-06-12T19:08:28.067Z",
  "devdoc": {
    "kind": "dev",
    "methods": {
      "constructor": {
        "details": "Constructs staking contraft and defines the      token contract's address used to stake"
      },
      "deposit(uint256)": {
        "details": "Adds a given amount of tokens to the sender address Calling conditions: - The address of this contract needs to be allowed   to transfer from sender the given amount - Given amount has to be transferred to the address   of this contract"
      },
      "exit()": {
        "details": "Retrieves back the locked tokens      of sender and gets rewards Calling conditions: - Sender has to have locked tokens"
      },
      "getReward()": {
        "details": "Mints the reward amount of tokens to the sender Calling conditions: - Sender has to have locked tokens"
      },
      "owner()": {
        "details": "Returns the address of the current owner."
      },
      "renounceOwnership()": {
        "details": "Leaves the contract without owner. It will not be possible to call `onlyOwner` functions anymore. Can only be called by the current owner. NOTE: Renouncing ownership will leave the contract without an owner, thereby removing any functionality that is only available to the owner."
      },
      "retrieve()": {
        "details": "Retrieves back the locked tokens of sender Calling conditions: - Sender has to have locked tokens"
      },
      "setStakingSecondAmount(uint256)": {
        "details": "Sets a given staking reward seconds amount Calling conditions: - Only contract's owner can call this function"
      },
      "transferOwnership(address)": {
        "details": "Transfers ownership of the contract to a new account (`newOwner`). Can only be called by the current owner."
      }
    },
    "version": 1
  },
  "userdoc": {
    "kind": "user",
    "methods": {},
    "version": 1
  }
}