{
  "contractName": "LinuxStaking",
  "abi": [
    {
      "inputs": [
        {
          "internalType": "address",
          "name": "newTokenAddress",
          "type": "address"
        }
      ],
      "stateMutability": "nonpayable",
      "type": "constructor"
    },
    {
      "anonymous": false,
      "inputs": [
        {
          "indexed": true,
          "internalType": "address",
          "name": "previousOwner",
          "type": "address"
        },
        {
          "indexed": true,
          "internalType": "address",
          "name": "newOwner",
          "type": "address"
        }
      ],
      "name": "OwnershipTransferred",
      "type": "event"
    },
    {
      "inputs": [],
      "name": "owner",
      "outputs": [
        {
          "internalType": "address",
          "name": "",
          "type": "address"
        }
      ],
      "stateMutability": "view",
      "type": "function"
    },
    {
      "inputs": [],
      "name": "renounceOwnership",
      "outputs": [],
      "stateMutability": "nonpayable",
      "type": "function"
    },
    {
      "inputs": [
        {
          "internalType": "address",
          "name": "newOwner",
          "type": "address"
        }
      ],
      "name": "transferOwnership",
      "outputs": [],
      "stateMutability": "nonpayable",
      "type": "function"
    },
    {
      "inputs": [
        {
          "internalType": "uint256",
          "name": "secondsAmount",
          "type": "uint256"
        }
      ],
      "name": "setStakingMinuteAmount",
      "outputs": [],
      "stateMutability": "nonpayable",
      "type": "function"
    },
    {
      "inputs": [
        {
          "internalType": "uint256",
          "name": "amount",
          "type": "uint256"
        }
      ],
      "name": "deposit",
      "outputs": [],
      "stateMutability": "nonpayable",
      "type": "function"
    },
    {
      "inputs": [],
      "name": "getReward",
      "outputs": [],
      "stateMutability": "nonpayable",
      "type": "function"
    },
    {
      "inputs": [],
      "name": "retrieve",
      "outputs": [],
      "stateMutability": "nonpayable",
      "type": "function"
    }
  ],
  "bytecode": "0x6080604052600160025534801561001557600080fd5b5060405162000e0838038062000e08833981810160405281019061003991906101cb565b61005561004a61009c60201b60201c565b6100a460201b60201c565b80600160006101000a81548173ffffffffffffffffffffffffffffffffffffffff021916908373ffffffffffffffffffffffffffffffffffffffff160217905550506101f8565b600033905090565b60008060009054906101000a900473ffffffffffffffffffffffffffffffffffffffff169050816000806101000a81548173ffffffffffffffffffffffffffffffffffffffff021916908373ffffffffffffffffffffffffffffffffffffffff1602179055508173ffffffffffffffffffffffffffffffffffffffff168173ffffffffffffffffffffffffffffffffffffffff167f8be0079c531659141344cd1fd0a4f28419497f9722a3daafe3b4186f6b6457e060405160405180910390a35050565b600080fd5b600073ffffffffffffffffffffffffffffffffffffffff82169050919050565b60006101988261016d565b9050919050565b6101a88161018d565b81146101b357600080fd5b50565b6000815190506101c58161019f565b92915050565b6000602082840312156101e1576101e0610168565b5b60006101ef848285016101b6565b91505092915050565b610c0080620002086000396000f3fe608060405234801561001057600080fd5b506004361061007d5760003560e01c8063715018a61161005b578063715018a6146100b25780638da5cb5b146100bc578063b6b55f25146100da578063f2fde38b146100f65761007d565b80632e64cec1146100825780633d18b9121461008c5780634ca5244814610096575b600080fd5b61008a610112565b005b610094610274565b005b6100b060048036038101906100ab91906107e8565b610399565b005b6100ba61041f565b005b6100c46104a7565b6040516100d19190610856565b60405180910390f35b6100f460048036038101906100ef91906107e8565b6104d0565b005b610110600480360381019061010b919061089d565b6105e9565b005b6000339050600160009054906101000a900473ffffffffffffffffffffffffffffffffffffffff1673ffffffffffffffffffffffffffffffffffffffff166323b872dd3083600360008673ffffffffffffffffffffffffffffffffffffffff1673ffffffffffffffffffffffffffffffffffffffff168152602001908152602001600020600001546040518463ffffffff1660e01b81526004016101b8939291906108d9565b6020604051808303816000875af11580156101d7573d6000803e3d6000fd5b505050506040513d601f19601f820116820180604052508101906101fb9190610948565b61020457600080fd5b6040518060400160405280600081526020016000815250600360008373ffffffffffffffffffffffffffffffffffffffff1673ffffffffffffffffffffffffffffffffffffffff168152602001908152602001600020600082015181600001556020820151816001015590505050565b6000600360003373ffffffffffffffffffffffffffffffffffffffff1673ffffffffffffffffffffffffffffffffffffffff16815260200190815260200160002060405180604001604052908160008201548152602001600182015481525050905060006002548260200151426102eb91906109a4565b83600001516102fa91906109d8565b6103049190610a61565b9050600160009054906101000a900473ffffffffffffffffffffffffffffffffffffffff1673ffffffffffffffffffffffffffffffffffffffff16632c40bc2b33836040518363ffffffff1660e01b8152600401610363929190610a92565b600060405180830381600087803b15801561037d57600080fd5b505af1158015610391573d6000803e3d6000fd5b505050505050565b6103a16106e1565b73ffffffffffffffffffffffffffffffffffffffff166103bf6104a7565b73ffffffffffffffffffffffffffffffffffffffff1614610415576040517f08c379a000000000000000000000000000000000000000000000000000000000815260040161040c90610b18565b60405180910390fd5b8060028190555050565b6104276106e1565b73ffffffffffffffffffffffffffffffffffffffff166104456104a7565b73ffffffffffffffffffffffffffffffffffffffff161461049b576040517f08c379a000000000000000000000000000000000000000000000000000000000815260040161049290610b18565b60405180910390fd5b6104a560006106e9565b565b60008060009054906101000a900473ffffffffffffffffffffffffffffffffffffffff16905090565b600160009054906101000a900473ffffffffffffffffffffffffffffffffffffffff1673ffffffffffffffffffffffffffffffffffffffff166323b872dd3330846040518463ffffffff1660e01b815260040161052f939291906108d9565b6020604051808303816000875af115801561054e573d6000803e3d6000fd5b505050506040513d601f19601f820116820180604052508101906105729190610948565b61057b57600080fd5b604051806040016040528082815260200142815250600360003373ffffffffffffffffffffffffffffffffffffffff1673ffffffffffffffffffffffffffffffffffffffff168152602001908152602001600020600082015181600001556020820151816001015590505050565b6105f16106e1565b73ffffffffffffffffffffffffffffffffffffffff1661060f6104a7565b73ffffffffffffffffffffffffffffffffffffffff1614610665576040517f08c379a000000000000000000000000000000000000000000000000000000000815260040161065c90610b18565b60405180910390fd5b600073ffffffffffffffffffffffffffffffffffffffff168173ffffffffffffffffffffffffffffffffffffffff1614156106d5576040517f08c379a00000000000000000000000000000000000000000000000000000000081526004016106cc90610baa565b60405180910390fd5b6106de816106e9565b50565b600033905090565b60008060009054906101000a900473ffffffffffffffffffffffffffffffffffffffff169050816000806101000a81548173ffffffffffffffffffffffffffffffffffffffff021916908373ffffffffffffffffffffffffffffffffffffffff1602179055508173ffffffffffffffffffffffffffffffffffffffff168173ffffffffffffffffffffffffffffffffffffffff167f8be0079c531659141344cd1fd0a4f28419497f9722a3daafe3b4186f6b6457e060405160405180910390a35050565b600080fd5b6000819050919050565b6107c5816107b2565b81146107d057600080fd5b50565b6000813590506107e2816107bc565b92915050565b6000602082840312156107fe576107fd6107ad565b5b600061080c848285016107d3565b91505092915050565b600073ffffffffffffffffffffffffffffffffffffffff82169050919050565b600061084082610815565b9050919050565b61085081610835565b82525050565b600060208201905061086b6000830184610847565b92915050565b61087a81610835565b811461088557600080fd5b50565b60008135905061089781610871565b92915050565b6000602082840312156108b3576108b26107ad565b5b60006108c184828501610888565b91505092915050565b6108d3816107b2565b82525050565b60006060820190506108ee6000830186610847565b6108fb6020830185610847565b61090860408301846108ca565b949350505050565b60008115159050919050565b61092581610910565b811461093057600080fd5b50565b6000815190506109428161091c565b92915050565b60006020828403121561095e5761095d6107ad565b5b600061096c84828501610933565b91505092915050565b7f4e487b7100000000000000000000000000000000000000000000000000000000600052601160045260246000fd5b60006109af826107b2565b91506109ba836107b2565b9250828210156109cd576109cc610975565b5b828203905092915050565b60006109e3826107b2565b91506109ee836107b2565b9250817fffffffffffffffffffffffffffffffffffffffffffffffffffffffffffffffff0483118215151615610a2757610a26610975565b5b828202905092915050565b7f4e487b7100000000000000000000000000000000000000000000000000000000600052601260045260246000fd5b6000610a6c826107b2565b9150610a77836107b2565b925082610a8757610a86610a32565b5b828204905092915050565b6000604082019050610aa76000830185610847565b610ab460208301846108ca565b9392505050565b600082825260208201905092915050565b7f4f776e61626c653a2063616c6c6572206973206e6f7420746865206f776e6572600082015250565b6000610b02602083610abb565b9150610b0d82610acc565b602082019050919050565b60006020820190508181036000830152610b3181610af5565b9050919050565b7f4f776e61626c653a206e6577206f776e657220697320746865207a65726f206160008201527f6464726573730000000000000000000000000000000000000000000000000000602082015250565b6000610b94602683610abb565b9150610b9f82610b38565b604082019050919050565b60006020820190508181036000830152610bc381610b87565b905091905056fea2646970667358221220fb208fd5011cb92807c49fd5c1b0d4e3c3af9359c3b9369ad03fa2acb4d931bb64736f6c634300080a0033",
  "immutableReferences": {},
  "source": "pragma solidity >=0.4.22 <0.9.0;\r\n\r\nimport '@openzeppelin/contracts/access/Ownable.sol';\r\nimport '@openzeppelin/contracts/token/ERC20/IERC20.sol';\r\nimport './Linux.sol';\r\n\r\ncontract LinuxStaking is Ownable {\r\n    address tokenAddress;\r\n\r\n    uint256 stakingSecAmount = 1;\r\n\r\n    struct StakeData {\r\n        uint256 amount;\r\n        uint256 date;\r\n    }\r\n\r\n    mapping(address => StakeData) lockedTokens;\r\n\r\n    constructor(address newTokenAddress) {\r\n        tokenAddress = newTokenAddress;\r\n    }\r\n\r\n    function setStakingMinuteAmount(uint256 secondsAmount) public onlyOwner {\r\n        stakingSecAmount = secondsAmount;\r\n    }\r\n\r\n    function deposit(uint256 amount) public {\r\n        require(\r\n            IERC20(tokenAddress).transferFrom(msg.sender, address(this), amount)\r\n        );\r\n        lockedTokens[msg.sender] = StakeData(amount, block.timestamp);\r\n    }\r\n\r\n    function getReward() public {\r\n        StakeData memory senderStake = lockedTokens[msg.sender];\r\n        uint256 reward = (senderStake.amount *\r\n            (block.timestamp - senderStake.date)) / stakingSecAmount;\r\n\r\n        Linux(tokenAddress).allowedMint(msg.sender, reward);\r\n    }\r\n\r\n    function retrieve() public {\r\n        address sender = msg.sender;\r\n        require(\r\n            IERC20(tokenAddress).transferFrom(\r\n                address(this),\r\n                sender,\r\n                lockedTokens[sender].amount\r\n            )\r\n        );\r\n        lockedTokens[sender] = StakeData(0, 0);\r\n    }\r\n}\r\n",
  "sourcePath": "C:\\Users\\itrmi\\OneDrive\\Documentos\\Gabriel\\VSCode\\Truffle-Project\\contracts\\LinuxStaking.sol",
  "compiler": {
    "name": "solc",
    "version": "0.8.10+commit.fc410830.Emscripten.clang"
  },
  "schemaVersion": "3.4.7",
  "updatedAt": "2022-06-10T17:33:54.962Z",
  "devdoc": {
    "kind": "dev",
    "methods": {
      "owner()": {
        "details": "Returns the address of the current owner."
      },
      "renounceOwnership()": {
        "details": "Leaves the contract without owner. It will not be possible to call `onlyOwner` functions anymore. Can only be called by the current owner. NOTE: Renouncing ownership will leave the contract without an owner, thereby removing any functionality that is only available to the owner."
      },
      "transferOwnership(address)": {
        "details": "Transfers ownership of the contract to a new account (`newOwner`). Can only be called by the current owner."
      }
    },
    "version": 1
  },
  "userdoc": {
    "kind": "user",
    "methods": {},
    "version": 1
  }
}