{
  "contractName": "LinuxStaking",
  "abi": [
    {
      "inputs": [
        {
          "internalType": "address",
          "name": "newTokenAddress",
          "type": "address"
        }
      ],
      "stateMutability": "nonpayable",
      "type": "constructor"
    },
    {
      "anonymous": false,
      "inputs": [
        {
          "indexed": false,
          "internalType": "uint256",
          "name": "lockedTokens",
          "type": "uint256"
        }
      ],
      "name": "AddressLockedTokens",
      "type": "event"
    },
    {
      "anonymous": false,
      "inputs": [
        {
          "indexed": true,
          "internalType": "address",
          "name": "previousOwner",
          "type": "address"
        },
        {
          "indexed": true,
          "internalType": "address",
          "name": "newOwner",
          "type": "address"
        }
      ],
      "name": "OwnershipTransferred",
      "type": "event"
    },
    {
      "inputs": [],
      "name": "owner",
      "outputs": [
        {
          "internalType": "address",
          "name": "",
          "type": "address"
        }
      ],
      "stateMutability": "view",
      "type": "function"
    },
    {
      "inputs": [],
      "name": "renounceOwnership",
      "outputs": [],
      "stateMutability": "nonpayable",
      "type": "function"
    },
    {
      "inputs": [
        {
          "internalType": "address",
          "name": "newOwner",
          "type": "address"
        }
      ],
      "name": "transferOwnership",
      "outputs": [],
      "stateMutability": "nonpayable",
      "type": "function"
    },
    {
      "inputs": [
        {
          "internalType": "uint256",
          "name": "secondsAmount",
          "type": "uint256"
        }
      ],
      "name": "setStakingSecondAmount",
      "outputs": [],
      "stateMutability": "nonpayable",
      "type": "function"
    },
    {
      "inputs": [
        {
          "internalType": "uint256",
          "name": "amount",
          "type": "uint256"
        }
      ],
      "name": "deposit",
      "outputs": [],
      "stateMutability": "nonpayable",
      "type": "function"
    },
    {
      "inputs": [],
      "name": "getReward",
      "outputs": [],
      "stateMutability": "nonpayable",
      "type": "function"
    },
    {
      "inputs": [],
      "name": "retrieve",
      "outputs": [],
      "stateMutability": "nonpayable",
      "type": "function"
    },
    {
      "inputs": [],
      "name": "exit",
      "outputs": [],
      "stateMutability": "nonpayable",
      "type": "function"
    }
  ],
  "bytecode": "0x608060405260016002553480156200001657600080fd5b50604051620010813803806200108183398181016040528101906200003c9190620001da565b6200005c62000050620000a460201b60201c565b620000ac60201b60201c565b80600160006101000a81548173ffffffffffffffffffffffffffffffffffffffff021916908373ffffffffffffffffffffffffffffffffffffffff160217905550506200020c565b600033905090565b60008060009054906101000a900473ffffffffffffffffffffffffffffffffffffffff169050816000806101000a81548173ffffffffffffffffffffffffffffffffffffffff021916908373ffffffffffffffffffffffffffffffffffffffff1602179055508173ffffffffffffffffffffffffffffffffffffffff168173ffffffffffffffffffffffffffffffffffffffff167f8be0079c531659141344cd1fd0a4f28419497f9722a3daafe3b4186f6b6457e060405160405180910390a35050565b600080fd5b600073ffffffffffffffffffffffffffffffffffffffff82169050919050565b6000620001a28262000175565b9050919050565b620001b48162000195565b8114620001c057600080fd5b50565b600081519050620001d481620001a9565b92915050565b600060208284031215620001f357620001f262000170565b5b60006200020384828501620001c3565b91505092915050565b610e65806200021c6000396000f3fe608060405234801561001057600080fd5b50600436106100885760003560e01c80638da5cb5b1161005b5780638da5cb5b146100c7578063b6b55f25146100e5578063e9fad8ee14610101578063f2fde38b1461010b57610088565b8063012a4b361461008d5780632e64cec1146100a95780633d18b912146100b3578063715018a6146100bd575b600080fd5b6100a760048036038101906100a2919061098b565b610127565b005b6100b16101ad565b005b6100bb610399565b005b6100c5610496565b005b6100cf61051e565b6040516100dc91906109f9565b60405180910390f35b6100ff60048036038101906100fa919061098b565b610547565b005b6101096106e3565b005b61012560048036038101906101209190610a40565b6106f5565b005b61012f6107ed565b73ffffffffffffffffffffffffffffffffffffffff1661014d61051e565b73ffffffffffffffffffffffffffffffffffffffff16146101a3576040517f08c379a000000000000000000000000000000000000000000000000000000000815260040161019a90610aca565b60405180910390fd5b8060028190555050565b6000600360003373ffffffffffffffffffffffffffffffffffffffff1673ffffffffffffffffffffffffffffffffffffffff168152602001908152602001600020600001541415610233576040517f08c379a000000000000000000000000000000000000000000000000000000000815260040161022a90610b36565b60405180910390fd5b60003390506000600360008373ffffffffffffffffffffffffffffffffffffffff1673ffffffffffffffffffffffffffffffffffffffff168152602001908152602001600020600001549050600160009054906101000a900473ffffffffffffffffffffffffffffffffffffffff1673ffffffffffffffffffffffffffffffffffffffff1663a9059cbb83836040518363ffffffff1660e01b81526004016102dc929190610b65565b6020604051808303816000875af11580156102fb573d6000803e3d6000fd5b505050506040513d601f19601f8201168201806040525081019061031f9190610bc6565b61032857600080fd5b6040518060400160405280600081526020016000815250600360008473ffffffffffffffffffffffffffffffffffffffff1673ffffffffffffffffffffffffffffffffffffffff16815260200190815260200160002060008201518160000155602082015181600101559050505050565b600033905060006103a9826107f5565b905060008114156103bb575050610494565b600160009054906101000a900473ffffffffffffffffffffffffffffffffffffffff1673ffffffffffffffffffffffffffffffffffffffff16632c40bc2b83836040518363ffffffff1660e01b8152600401610418929190610b65565b600060405180830381600087803b15801561043257600080fd5b505af1158015610446573d6000803e3d6000fd5b5050505042600360008473ffffffffffffffffffffffffffffffffffffffff1673ffffffffffffffffffffffffffffffffffffffff1681526020019081526020016000206001018190555050505b565b61049e6107ed565b73ffffffffffffffffffffffffffffffffffffffff166104bc61051e565b73ffffffffffffffffffffffffffffffffffffffff1614610512576040517f08c379a000000000000000000000000000000000000000000000000000000000815260040161050990610aca565b60405180910390fd5b61051c600061088c565b565b60008060009054906101000a900473ffffffffffffffffffffffffffffffffffffffff16905090565b60003390506000600360008373ffffffffffffffffffffffffffffffffffffffff1673ffffffffffffffffffffffffffffffffffffffff168152602001908152602001600020604051806040016040529081600082015481526020016001820154815250509050600160009054906101000a900473ffffffffffffffffffffffffffffffffffffffff1673ffffffffffffffffffffffffffffffffffffffff166323b872dd8330866040518463ffffffff1660e01b815260040161060d93929190610bf3565b6020604051808303816000875af115801561062c573d6000803e3d6000fd5b505050506040513d601f19601f820116820180604052508101906106509190610bc6565b61065957600080fd5b610661610399565b604051806040016040528084836000015161067c9190610c59565b815260200142815250905080600360008473ffffffffffffffffffffffffffffffffffffffff1673ffffffffffffffffffffffffffffffffffffffff1681526020019081526020016000206000820151816000015560208201518160010155905050505050565b6106eb610399565b6106f36101ad565b565b6106fd6107ed565b73ffffffffffffffffffffffffffffffffffffffff1661071b61051e565b73ffffffffffffffffffffffffffffffffffffffff1614610771576040517f08c379a000000000000000000000000000000000000000000000000000000000815260040161076890610aca565b60405180910390fd5b600073ffffffffffffffffffffffffffffffffffffffff168173ffffffffffffffffffffffffffffffffffffffff1614156107e1576040517f08c379a00000000000000000000000000000000000000000000000000000000081526004016107d890610d21565b60405180910390fd5b6107ea8161088c565b50565b600033905090565b600080600360008473ffffffffffffffffffffffffffffffffffffffff1673ffffffffffffffffffffffffffffffffffffffff16815260200190815260200160002060405180604001604052908160008201548152602001600182015481525050905060025481602001514261086b9190610d41565b826000015161087a9190610d75565b6108849190610dfe565b915050919050565b60008060009054906101000a900473ffffffffffffffffffffffffffffffffffffffff169050816000806101000a81548173ffffffffffffffffffffffffffffffffffffffff021916908373ffffffffffffffffffffffffffffffffffffffff1602179055508173ffffffffffffffffffffffffffffffffffffffff168173ffffffffffffffffffffffffffffffffffffffff167f8be0079c531659141344cd1fd0a4f28419497f9722a3daafe3b4186f6b6457e060405160405180910390a35050565b600080fd5b6000819050919050565b61096881610955565b811461097357600080fd5b50565b6000813590506109858161095f565b92915050565b6000602082840312156109a1576109a0610950565b5b60006109af84828501610976565b91505092915050565b600073ffffffffffffffffffffffffffffffffffffffff82169050919050565b60006109e3826109b8565b9050919050565b6109f3816109d8565b82525050565b6000602082019050610a0e60008301846109ea565b92915050565b610a1d816109d8565b8114610a2857600080fd5b50565b600081359050610a3a81610a14565b92915050565b600060208284031215610a5657610a55610950565b5b6000610a6484828501610a2b565b91505092915050565b600082825260208201905092915050565b7f4f776e61626c653a2063616c6c6572206973206e6f7420746865206f776e6572600082015250565b6000610ab4602083610a6d565b9150610abf82610a7e565b602082019050919050565b60006020820190508181036000830152610ae381610aa7565b9050919050565b7f53656e64657220686173206e6f74206c6f636b656420746f6b656e7300000000600082015250565b6000610b20601c83610a6d565b9150610b2b82610aea565b602082019050919050565b60006020820190508181036000830152610b4f81610b13565b9050919050565b610b5f81610955565b82525050565b6000604082019050610b7a60008301856109ea565b610b876020830184610b56565b9392505050565b60008115159050919050565b610ba381610b8e565b8114610bae57600080fd5b50565b600081519050610bc081610b9a565b92915050565b600060208284031215610bdc57610bdb610950565b5b6000610bea84828501610bb1565b91505092915050565b6000606082019050610c0860008301866109ea565b610c1560208301856109ea565b610c226040830184610b56565b949350505050565b7f4e487b7100000000000000000000000000000000000000000000000000000000600052601160045260246000fd5b6000610c6482610955565b9150610c6f83610955565b9250827fffffffffffffffffffffffffffffffffffffffffffffffffffffffffffffffff03821115610ca457610ca3610c2a565b5b828201905092915050565b7f4f776e61626c653a206e6577206f776e657220697320746865207a65726f206160008201527f6464726573730000000000000000000000000000000000000000000000000000602082015250565b6000610d0b602683610a6d565b9150610d1682610caf565b604082019050919050565b60006020820190508181036000830152610d3a81610cfe565b9050919050565b6000610d4c82610955565b9150610d5783610955565b925082821015610d6a57610d69610c2a565b5b828203905092915050565b6000610d8082610955565b9150610d8b83610955565b9250817fffffffffffffffffffffffffffffffffffffffffffffffffffffffffffffffff0483118215151615610dc457610dc3610c2a565b5b828202905092915050565b7f4e487b7100000000000000000000000000000000000000000000000000000000600052601260045260246000fd5b6000610e0982610955565b9150610e1483610955565b925082610e2457610e23610dcf565b5b82820490509291505056fea2646970667358221220690f8a43e99c0944fbcd04188038410a5b9d90e9711e6a3b7799dc768356dd1764736f6c634300080a0033",
  "immutableReferences": {},
  "source": "pragma solidity 0.8.10;\r\nimport '@openzeppelin/contracts/access/Ownable.sol';\r\nimport '@openzeppelin/contracts/token/ERC20/IERC20.sol';\r\nimport './Linux.sol';\r\n\r\ncontract LinuxStaking is Ownable {\r\n    //Stores the ERC20 contract's address to used to pay\r\n    address tokenAddress;\r\n\r\n    //Stores the amount of seconds in which one token will be given for each staked token\r\n    uint256 stakingSecAmount = 1;\r\n\r\n    //Stores the stake amount and deposit date\r\n    struct StakeData {\r\n        uint256 amount;\r\n        uint256 date;\r\n    }\r\n\r\n    //Stores the stake data for address\r\n    mapping(address => StakeData) lockedTokens;\r\n\r\n    event AddressLockedTokens(uint256 lockedTokens);\r\n\r\n    modifier hasLockedTokens() {\r\n        require(\r\n            lockedTokens[msg.sender].amount != 0,\r\n            'Sender has not locked tokens'\r\n        );\r\n        _;\r\n    }\r\n\r\n    /**@dev Constructs staking contraft and defines the\r\n     *      token contract's address used to stake\r\n     */\r\n    constructor(address newTokenAddress) {\r\n        tokenAddress = newTokenAddress;\r\n    }\r\n\r\n    /**@dev Sets a given staking reward seconds amount\r\n     *\r\n     * Calling conditions:\r\n     *\r\n     * - Only contract's owner can call this function\r\n     */\r\n    function setStakingSecondAmount(uint256 secondsAmount) public onlyOwner {\r\n        stakingSecAmount = secondsAmount;\r\n    }\r\n\r\n    /**@notice Adds a given amount of tokens to the sender address\r\n     *\r\n     * Calling conditions:\r\n     *\r\n     * - The address of this contract needs to be allowed\r\n     *   to transfer from sender the given amount\r\n     * - Given amount has to be transferred to the address\r\n     *   of this contract\r\n     */\r\n    function deposit(uint256 amount) public {\r\n        address sender = msg.sender;\r\n        StakeData memory senderStake = lockedTokens[sender];\r\n        require(\r\n            IERC20(tokenAddress).transferFrom(sender, address(this), amount)\r\n        );\r\n        getReward();\r\n        senderStake = StakeData(senderStake.amount + amount, block.timestamp);\r\n        lockedTokens[sender] = senderStake;\r\n    }\r\n\r\n    /**@dev Calculates the reward to mint to sender address\r\n     */\r\n    function _calculateReward(address sender) internal view returns (uint256) {\r\n        StakeData memory senderStake = lockedTokens[sender];\r\n        return\r\n            (senderStake.amount * (block.timestamp - senderStake.date)) /\r\n            stakingSecAmount;\r\n    }\r\n\r\n    /**@notice Mints the reward amount of tokens to the sender\r\n     *\r\n     * Calling conditions:\r\n     *\r\n     * - Sender has to have locked tokens\r\n     */\r\n    function getReward() public {\r\n        address sender = msg.sender;\r\n        uint256 reward = _calculateReward(sender);\r\n        if (reward == 0) return;\r\n        Linux(tokenAddress).allowedMint(sender, reward);\r\n        lockedTokens[sender].date = block.timestamp;\r\n    }\r\n\r\n    /**@notice Retrieves back the locked tokens of sender\r\n     *\r\n     * Calling conditions:\r\n     *\r\n     * - Sender has to have locked tokens\r\n     */\r\n    function retrieve() public hasLockedTokens {\r\n        address sender = msg.sender;\r\n        uint256 senderStakedTokens = lockedTokens[sender].amount;\r\n        require(IERC20(tokenAddress).transfer(sender, senderStakedTokens));\r\n        lockedTokens[sender] = StakeData(0, 0);\r\n    }\r\n\r\n    /**@notice Retrieves back the locked tokens\r\n     *      of sender and gets rewards\r\n     *\r\n     * Calling conditions:\r\n     *\r\n     * - Sender has to have locked tokens\r\n     */\r\n    function exit() public {\r\n        getReward();\r\n        retrieve();\r\n    }\r\n}\r\n",
  "sourcePath": "C:\\Users\\PC\\Documents\\VSCode\\Solidity\\contracts\\LinuxStaking.sol",
  "compiler": {
    "name": "solc",
    "version": "0.8.10+commit.fc410830.Emscripten.clang"
  },
  "schemaVersion": "3.4.7",
  "updatedAt": "2022-06-14T20:01:25.907Z",
  "devdoc": {
    "kind": "dev",
    "methods": {
      "constructor": {
        "details": "Constructs staking contraft and defines the      token contract's address used to stake"
      },
      "owner()": {
        "details": "Returns the address of the current owner."
      },
      "renounceOwnership()": {
        "details": "Leaves the contract without owner. It will not be possible to call `onlyOwner` functions anymore. Can only be called by the current owner. NOTE: Renouncing ownership will leave the contract without an owner, thereby removing any functionality that is only available to the owner."
      },
      "setStakingSecondAmount(uint256)": {
        "details": "Sets a given staking reward seconds amount Calling conditions: - Only contract's owner can call this function"
      },
      "transferOwnership(address)": {
        "details": "Transfers ownership of the contract to a new account (`newOwner`). Can only be called by the current owner."
      }
    },
    "version": 1
  },
  "userdoc": {
    "kind": "user",
    "methods": {
      "deposit(uint256)": {
        "notice": "Adds a given amount of tokens to the sender address Calling conditions: - The address of this contract needs to be allowed   to transfer from sender the given amount - Given amount has to be transferred to the address   of this contract"
      },
      "exit()": {
        "notice": "Retrieves back the locked tokens      of sender and gets rewards Calling conditions: - Sender has to have locked tokens"
      },
      "getReward()": {
        "notice": "Mints the reward amount of tokens to the sender Calling conditions: - Sender has to have locked tokens"
      },
      "retrieve()": {
        "notice": "Retrieves back the locked tokens of sender Calling conditions: - Sender has to have locked tokens"
      }
    },
    "version": 1
  }
}