{
  "contractName": "Staking",
  "abi": [
    {
      "inputs": [
        {
          "internalType": "address",
          "name": "tokenAddress",
          "type": "address"
        }
      ],
      "stateMutability": "nonpayable",
      "type": "constructor"
    },
    {
      "anonymous": false,
      "inputs": [
        {
          "indexed": true,
          "internalType": "address",
          "name": "owner",
          "type": "address"
        },
        {
          "indexed": true,
          "internalType": "address",
          "name": "approved",
          "type": "address"
        },
        {
          "indexed": true,
          "internalType": "uint256",
          "name": "tokenId",
          "type": "uint256"
        }
      ],
      "name": "Approval",
      "type": "event"
    },
    {
      "anonymous": false,
      "inputs": [
        {
          "indexed": true,
          "internalType": "address",
          "name": "owner",
          "type": "address"
        },
        {
          "indexed": true,
          "internalType": "address",
          "name": "operator",
          "type": "address"
        },
        {
          "indexed": false,
          "internalType": "bool",
          "name": "approved",
          "type": "bool"
        }
      ],
      "name": "ApprovalForAll",
      "type": "event"
    },
    {
      "anonymous": false,
      "inputs": [
        {
          "indexed": true,
          "internalType": "address",
          "name": "previousOwner",
          "type": "address"
        },
        {
          "indexed": true,
          "internalType": "address",
          "name": "newOwner",
          "type": "address"
        }
      ],
      "name": "OwnershipTransferred",
      "type": "event"
    },
    {
      "anonymous": false,
      "inputs": [
        {
          "indexed": true,
          "internalType": "address",
          "name": "from",
          "type": "address"
        },
        {
          "indexed": true,
          "internalType": "address",
          "name": "to",
          "type": "address"
        },
        {
          "indexed": true,
          "internalType": "uint256",
          "name": "tokenId",
          "type": "uint256"
        }
      ],
      "name": "Transfer",
      "type": "event"
    },
    {
      "inputs": [
        {
          "internalType": "address",
          "name": "to",
          "type": "address"
        },
        {
          "internalType": "uint256",
          "name": "tokenId",
          "type": "uint256"
        }
      ],
      "name": "approve",
      "outputs": [],
      "stateMutability": "nonpayable",
      "type": "function"
    },
    {
      "inputs": [
        {
          "internalType": "address",
          "name": "owner",
          "type": "address"
        }
      ],
      "name": "balanceOf",
      "outputs": [
        {
          "internalType": "uint256",
          "name": "",
          "type": "uint256"
        }
      ],
      "stateMutability": "view",
      "type": "function",
      "constant": true
    },
    {
      "inputs": [
        {
          "internalType": "uint256",
          "name": "tokenId",
          "type": "uint256"
        }
      ],
      "name": "getApproved",
      "outputs": [
        {
          "internalType": "address",
          "name": "",
          "type": "address"
        }
      ],
      "stateMutability": "view",
      "type": "function",
      "constant": true
    },
    {
      "inputs": [
        {
          "internalType": "address",
          "name": "owner",
          "type": "address"
        },
        {
          "internalType": "address",
          "name": "operator",
          "type": "address"
        }
      ],
      "name": "isApprovedForAll",
      "outputs": [
        {
          "internalType": "bool",
          "name": "",
          "type": "bool"
        }
      ],
      "stateMutability": "view",
      "type": "function",
      "constant": true
    },
    {
      "inputs": [],
      "name": "mintToken",
      "outputs": [],
      "stateMutability": "nonpayable",
      "type": "function"
    },
    {
      "inputs": [],
      "name": "name",
      "outputs": [
        {
          "internalType": "string",
          "name": "",
          "type": "string"
        }
      ],
      "stateMutability": "view",
      "type": "function",
      "constant": true
    },
    {
      "inputs": [],
      "name": "owner",
      "outputs": [
        {
          "internalType": "address",
          "name": "",
          "type": "address"
        }
      ],
      "stateMutability": "view",
      "type": "function",
      "constant": true
    },
    {
      "inputs": [
        {
          "internalType": "uint256",
          "name": "tokenId",
          "type": "uint256"
        }
      ],
      "name": "ownerOf",
      "outputs": [
        {
          "internalType": "address",
          "name": "",
          "type": "address"
        }
      ],
      "stateMutability": "view",
      "type": "function",
      "constant": true
    },
    {
      "inputs": [],
      "name": "paymentToken",
      "outputs": [
        {
          "internalType": "address",
          "name": "",
          "type": "address"
        }
      ],
      "stateMutability": "view",
      "type": "function",
      "constant": true
    },
    {
      "inputs": [],
      "name": "renounceOwnership",
      "outputs": [],
      "stateMutability": "nonpayable",
      "type": "function"
    },
    {
      "inputs": [
        {
          "internalType": "address",
          "name": "from",
          "type": "address"
        },
        {
          "internalType": "address",
          "name": "to",
          "type": "address"
        },
        {
          "internalType": "uint256",
          "name": "tokenId",
          "type": "uint256"
        }
      ],
      "name": "safeTransferFrom",
      "outputs": [],
      "stateMutability": "nonpayable",
      "type": "function"
    },
    {
      "inputs": [
        {
          "internalType": "address",
          "name": "from",
          "type": "address"
        },
        {
          "internalType": "address",
          "name": "to",
          "type": "address"
        },
        {
          "internalType": "uint256",
          "name": "tokenId",
          "type": "uint256"
        },
        {
          "internalType": "bytes",
          "name": "_data",
          "type": "bytes"
        }
      ],
      "name": "safeTransferFrom",
      "outputs": [],
      "stateMutability": "nonpayable",
      "type": "function"
    },
    {
      "inputs": [
        {
          "internalType": "address",
          "name": "operator",
          "type": "address"
        },
        {
          "internalType": "bool",
          "name": "approved",
          "type": "bool"
        }
      ],
      "name": "setApprovalForAll",
      "outputs": [],
      "stateMutability": "nonpayable",
      "type": "function"
    },
    {
      "inputs": [
        {
          "internalType": "uint256",
          "name": "newTokenPrice",
          "type": "uint256"
        }
      ],
      "name": "setTokenPrice",
      "outputs": [],
      "stateMutability": "nonpayable",
      "type": "function"
    },
    {
      "inputs": [
        {
          "internalType": "bytes4",
          "name": "interfaceId",
          "type": "bytes4"
        }
      ],
      "name": "supportsInterface",
      "outputs": [
        {
          "internalType": "bool",
          "name": "",
          "type": "bool"
        }
      ],
      "stateMutability": "view",
      "type": "function",
      "constant": true
    },
    {
      "inputs": [],
      "name": "symbol",
      "outputs": [
        {
          "internalType": "string",
          "name": "",
          "type": "string"
        }
      ],
      "stateMutability": "view",
      "type": "function",
      "constant": true
    },
    {
      "inputs": [
        {
          "internalType": "uint256",
          "name": "index",
          "type": "uint256"
        }
      ],
      "name": "tokenByIndex",
      "outputs": [
        {
          "internalType": "uint256",
          "name": "",
          "type": "uint256"
        }
      ],
      "stateMutability": "view",
      "type": "function",
      "constant": true
    },
    {
      "inputs": [
        {
          "internalType": "address",
          "name": "owner",
          "type": "address"
        },
        {
          "internalType": "uint256",
          "name": "index",
          "type": "uint256"
        }
      ],
      "name": "tokenOfOwnerByIndex",
      "outputs": [
        {
          "internalType": "uint256",
          "name": "",
          "type": "uint256"
        }
      ],
      "stateMutability": "view",
      "type": "function",
      "constant": true
    },
    {
      "inputs": [
        {
          "internalType": "uint256",
          "name": "tokenId",
          "type": "uint256"
        }
      ],
      "name": "tokenURI",
      "outputs": [
        {
          "internalType": "string",
          "name": "",
          "type": "string"
        }
      ],
      "stateMutability": "view",
      "type": "function",
      "constant": true
    },
    {
      "inputs": [],
      "name": "totalSupply",
      "outputs": [
        {
          "internalType": "uint256",
          "name": "",
          "type": "uint256"
        }
      ],
      "stateMutability": "view",
      "type": "function",
      "constant": true
    },
    {
      "inputs": [
        {
          "internalType": "address",
          "name": "from",
          "type": "address"
        },
        {
          "internalType": "address",
          "name": "to",
          "type": "address"
        },
        {
          "internalType": "uint256",
          "name": "tokenId",
          "type": "uint256"
        }
      ],
      "name": "transferFrom",
      "outputs": [],
      "stateMutability": "nonpayable",
      "type": "function"
    },
    {
      "inputs": [
        {
          "internalType": "address",
          "name": "newOwner",
          "type": "address"
        }
      ],
      "name": "transferOwnership",
      "outputs": [],
      "stateMutability": "nonpayable",
      "type": "function"
    },
    {
      "stateMutability": "payable",
      "type": "receive",
      "payable": true
    },
    {
      "inputs": [
        {
          "internalType": "uint256",
          "name": "tokenId",
          "type": "uint256"
        }
      ],
      "name": "deposit",
      "outputs": [],
      "stateMutability": "nonpayable",
      "type": "function"
    },
    {
      "inputs": [
        {
          "internalType": "uint256",
          "name": "tokenId",
          "type": "uint256"
        }
      ],
      "name": "retrieve",
      "outputs": [],
      "stateMutability": "nonpayable",
      "type": "function"
    },
    {
      "inputs": [],
      "name": "depositAll",
      "outputs": [],
      "stateMutability": "nonpayable",
      "type": "function"
    },
    {
      "inputs": [],
      "name": "retrieveAll",
      "outputs": [],
      "stateMutability": "nonpayable",
      "type": "function"
    },
    {
      "inputs": [
        {
          "internalType": "uint256",
          "name": "value",
          "type": "uint256"
        },
        {
          "internalType": "uint256[]",
          "name": "values",
          "type": "uint256[]"
        }
      ],
      "name": "removeByValue",
      "outputs": [],
      "stateMutability": "nonpayable",
      "type": "function"
    },
    {
      "inputs": [
        {
          "internalType": "uint256",
          "name": "value",
          "type": "uint256"
        },
        {
          "internalType": "uint256[]",
          "name": "values",
          "type": "uint256[]"
        }
      ],
      "name": "find",
      "outputs": [
        {
          "internalType": "uint256",
          "name": "",
          "type": "uint256"
        }
      ],
      "stateMutability": "nonpayable",
      "type": "function"
    }
  ],
  "bytecode": "0x60a06040526000600b55600a600c553480156200001b57600080fd5b50604051620044b1380380620044b1833981810160405281019062000041919062000326565b806040518060400160405280600781526020017f57696e646f7773000000000000000000000000000000000000000000000000008152506040518060400160405280600381526020017f574e4400000000000000000000000000000000000000000000000000000000008152508160009080519060200190620000c69291906200020c565b508060019080519060200190620000df9291906200020c565b50505062000102620000f66200013e60201b60201c565b6200014660201b60201c565b8073ffffffffffffffffffffffffffffffffffffffff1660808173ffffffffffffffffffffffffffffffffffffffff16815250505050620003bd565b600033905090565b6000600a60009054906101000a900473ffffffffffffffffffffffffffffffffffffffff16905081600a60006101000a81548173ffffffffffffffffffffffffffffffffffffffff021916908373ffffffffffffffffffffffffffffffffffffffff1602179055508173ffffffffffffffffffffffffffffffffffffffff168173ffffffffffffffffffffffffffffffffffffffff167f8be0079c531659141344cd1fd0a4f28419497f9722a3daafe3b4186f6b6457e060405160405180910390a35050565b8280546200021a9062000387565b90600052602060002090601f0160209004810192826200023e57600085556200028a565b82601f106200025957805160ff19168380011785556200028a565b828001600101855582156200028a579182015b82811115620002895782518255916020019190600101906200026c565b5b5090506200029991906200029d565b5090565b5b80821115620002b85760008160009055506001016200029e565b5090565b600080fd5b600073ffffffffffffffffffffffffffffffffffffffff82169050919050565b6000620002ee82620002c1565b9050919050565b6200030081620002e1565b81146200030c57600080fd5b50565b6000815190506200032081620002f5565b92915050565b6000602082840312156200033f576200033e620002bc565b5b60006200034f848285016200030f565b91505092915050565b7f4e487b7100000000000000000000000000000000000000000000000000000000600052602260045260246000fd5b60006002820490506001821680620003a057607f821691505b60208210811415620003b757620003b662000358565b5b50919050565b6080516140d1620003e060003960008181610bb30152610dc601526140d16000f3fe6080604052600436106101bb5760003560e01c8063715018a6116100ec578063b6b55f251161008a578063de5f626811610064578063de5f62681461067b578063e8e1355314610692578063e985e9c5146106bb578063f2fde38b146106f85761022a565b8063b6b55f25146105ec578063b88d4fde14610615578063c87b56dd1461063e5761022a565b806395607ced116100c657806395607ced1461054457806395d89b411461055b578063a22cb46514610586578063ade3b1ad146105af5761022a565b8063715018a6146104d95780638da5cb5b146104f05780638f88708b1461051b5761022a565b80632f745c59116101595780634f6ccce7116101335780634f6ccce7146103f95780636352211e146104365780636a61e5fc1461047357806370a082311461049c5761022a565b80632f745c59146103685780633013ce29146103a557806342842e0e146103d05761022a565b8063095ea7b311610195578063095ea7b3146102d457806318160ddd146102fd5780632004ffd91461032857806323b872dd1461033f5761022a565b806301ffc9a71461022f57806306fdde031461026c578063081812fc146102975761022a565b3661022a57600c543411610204576040517f08c379a00000000000000000000000000000000000000000000000000000000081526004016101fb90612a61565b60405180910390fd5b61021033600b54610721565b600b600081548092919061022390612aba565b9190505550005b600080fd5b34801561023b57600080fd5b5061025660048036038101906102519190612b6f565b6108fb565b6040516102639190612bb7565b60405180910390f35b34801561027857600080fd5b50610281610975565b60405161028e9190612c5a565b60405180910390f35b3480156102a357600080fd5b506102be60048036038101906102b99190612ca8565b610a07565b6040516102cb9190612d16565b60405180910390f35b3480156102e057600080fd5b506102fb60048036038101906102f69190612d5d565b610a8c565b005b34801561030957600080fd5b50610312610ba4565b60405161031f9190612dac565b60405180910390f35b34801561033457600080fd5b5061033d610bb1565b005b34801561034b57600080fd5b5061036660048036038101906103619190612dc7565b610cbf565b005b34801561037457600080fd5b5061038f600480360381019061038a9190612d5d565b610d1f565b60405161039c9190612dac565b60405180910390f35b3480156103b157600080fd5b506103ba610dc4565b6040516103c79190612d16565b60405180910390f35b3480156103dc57600080fd5b506103f760048036038101906103f29190612dc7565b610de8565b005b34801561040557600080fd5b50610420600480360381019061041b9190612ca8565b610e08565b60405161042d9190612dac565b60405180910390f35b34801561044257600080fd5b5061045d60048036038101906104589190612ca8565b610e79565b60405161046a9190612d16565b60405180910390f35b34801561047f57600080fd5b5061049a60048036038101906104959190612ca8565b610f2b565b005b3480156104a857600080fd5b506104c360048036038101906104be9190612e1a565b610fb1565b6040516104d09190612dac565b60405180910390f35b3480156104e557600080fd5b506104ee611069565b005b3480156104fc57600080fd5b506105056110f1565b6040516105129190612d16565b60405180910390f35b34801561052757600080fd5b50610542600480360381019061053d9190612ca8565b61111b565b005b34801561055057600080fd5b506105596112bb565b005b34801561056757600080fd5b506105706113f0565b60405161057d9190612c5a565b60405180910390f35b34801561059257600080fd5b506105ad60048036038101906105a89190612e73565b611482565b005b3480156105bb57600080fd5b506105d660048036038101906105d19190612ffb565b611498565b6040516105e39190612dac565b60405180910390f35b3480156105f857600080fd5b50610613600480360381019061060e9190612ca8565b6114de565b005b34801561062157600080fd5b5061063c6004803603810190610637919061310c565b611623565b005b34801561064a57600080fd5b5061066560048036038101906106609190612ca8565b611685565b6040516106729190612c5a565b60405180910390f35b34801561068757600080fd5b5061069061172c565b005b34801561069e57600080fd5b506106b960048036038101906106b49190612ffb565b6117d3565b005b3480156106c757600080fd5b506106e260048036038101906106dd919061318f565b611805565b6040516106ef9190612bb7565b60405180910390f35b34801561070457600080fd5b5061071f600480360381019061071a9190612e1a565b611899565b005b600073ffffffffffffffffffffffffffffffffffffffff168273ffffffffffffffffffffffffffffffffffffffff161415610791576040517f08c379a00000000000000000000000000000000000000000000000000000000081526004016107889061321b565b60405180910390fd5b61079a81611991565b156107da576040517f08c379a00000000000000000000000000000000000000000000000000000000081526004016107d190613287565b60405180910390fd5b6107e6600083836119fd565b6001600360008473ffffffffffffffffffffffffffffffffffffffff1673ffffffffffffffffffffffffffffffffffffffff168152602001908152602001600020600082825461083691906132a7565b92505081905550816002600083815260200190815260200160002060006101000a81548173ffffffffffffffffffffffffffffffffffffffff021916908373ffffffffffffffffffffffffffffffffffffffff160217905550808273ffffffffffffffffffffffffffffffffffffffff16600073ffffffffffffffffffffffffffffffffffffffff167fddf252ad1be2c89b69c2b068fc378daa952ba7f163c4a11628f55a4df523b3ef60405160405180910390a46108f760008383611b11565b5050565b60007f780e9d63000000000000000000000000000000000000000000000000000000007bffffffffffffffffffffffffffffffffffffffffffffffffffffffff1916827bffffffffffffffffffffffffffffffffffffffffffffffffffffffff1916148061096e575061096d82611b16565b5b9050919050565b6060600080546109849061332c565b80601f01602080910402602001604051908101604052809291908181526020018280546109b09061332c565b80156109fd5780601f106109d2576101008083540402835291602001916109fd565b820191906000526020600020905b8154815290600101906020018083116109e057829003601f168201915b5050505050905090565b6000610a1282611991565b610a51576040517f08c379a0000000000000000000000000000000000000000000000000000000008152600401610a48906133d0565b60405180910390fd5b6004600083815260200190815260200160002060009054906101000a900473ffffffffffffffffffffffffffffffffffffffff169050919050565b6000610a9782610e79565b90508073ffffffffffffffffffffffffffffffffffffffff168373ffffffffffffffffffffffffffffffffffffffff161415610b08576040517f08c379a0000000000000000000000000000000000000000000000000000000008152600401610aff90613462565b60405180910390fd5b8073ffffffffffffffffffffffffffffffffffffffff16610b27611bf8565b73ffffffffffffffffffffffffffffffffffffffff161480610b565750610b5581610b50611bf8565b611805565b5b610b95576040517f08c379a0000000000000000000000000000000000000000000000000000000008152600401610b8c906134f4565b60405180910390fd5b610b9f8383611c00565b505050565b6000600880549050905090565b7f000000000000000000000000000000000000000000000000000000000000000073ffffffffffffffffffffffffffffffffffffffff166323b872dd33610bf66110f1565b600c546040518463ffffffff1660e01b8152600401610c1793929190613514565b6020604051808303816000875af1158015610c36573d6000803e3d6000fd5b505050506040513d601f19601f82011682018060405250810190610c5a9190613560565b610c99576040517f08c379a0000000000000000000000000000000000000000000000000000000008152600401610c90906135d9565b60405180910390fd5b610ca533600b54610721565b600b6000815480929190610cb890612aba565b9190505550565b610cd0610cca611bf8565b82611cb9565b610d0f576040517f08c379a0000000000000000000000000000000000000000000000000000000008152600401610d069061366b565b60405180910390fd5b610d1a838383611d97565b505050565b6000610d2a83610fb1565b8210610d6b576040517f08c379a0000000000000000000000000000000000000000000000000000000008152600401610d62906136fd565b60405180910390fd5b600660008473ffffffffffffffffffffffffffffffffffffffff1673ffffffffffffffffffffffffffffffffffffffff168152602001908152602001600020600083815260200190815260200160002054905092915050565b7f000000000000000000000000000000000000000000000000000000000000000081565b610e0383838360405180602001604052806000815250611623565b505050565b6000610e12610ba4565b8210610e53576040517f08c379a0000000000000000000000000000000000000000000000000000000008152600401610e4a9061378f565b60405180910390fd5b60088281548110610e6757610e666137af565b5b90600052602060002001549050919050565b6000806002600084815260200190815260200160002060009054906101000a900473ffffffffffffffffffffffffffffffffffffffff169050600073ffffffffffffffffffffffffffffffffffffffff168173ffffffffffffffffffffffffffffffffffffffff161415610f22576040517f08c379a0000000000000000000000000000000000000000000000000000000008152600401610f1990613850565b60405180910390fd5b80915050919050565b610f33611bf8565b73ffffffffffffffffffffffffffffffffffffffff16610f516110f1565b73ffffffffffffffffffffffffffffffffffffffff1614610fa7576040517f08c379a0000000000000000000000000000000000000000000000000000000008152600401610f9e906138bc565b60405180910390fd5b80600c8190555050565b60008073ffffffffffffffffffffffffffffffffffffffff168273ffffffffffffffffffffffffffffffffffffffff161415611022576040517f08c379a00000000000000000000000000000000000000000000000000000000081526004016110199061394e565b60405180910390fd5b600360008373ffffffffffffffffffffffffffffffffffffffff1673ffffffffffffffffffffffffffffffffffffffff168152602001908152602001600020549050919050565b611071611bf8565b73ffffffffffffffffffffffffffffffffffffffff1661108f6110f1565b73ffffffffffffffffffffffffffffffffffffffff16146110e5576040517f08c379a00000000000000000000000000000000000000000000000000000000081526004016110dc906138bc565b60405180910390fd5b6110ef6000611ffe565b565b6000600a60009054906101000a900473ffffffffffffffffffffffffffffffffffffffff16905090565b806000600d60003373ffffffffffffffffffffffffffffffffffffffff1673ffffffffffffffffffffffffffffffffffffffff16815260200190815260200160002060008381526020019081526020016000205414156111b0576040517f08c379a00000000000000000000000000000000000000000000000000000000081526004016111a7906139ba565b60405180910390fd5b60003390506000600d60008373ffffffffffffffffffffffffffffffffffffffff1673ffffffffffffffffffffffffffffffffffffffff1681526020019081526020016000206000858152602001908152602001600020819055506112a283600e60008473ffffffffffffffffffffffffffffffffffffffff1673ffffffffffffffffffffffffffffffffffffffff16815260200190815260200160002080548060200260200160405190810160405280929190818152602001828054801561129857602002820191906000526020600020905b815481526020019060010190808311611284575b50505050506117d3565b6112ad308285611d97565b6112b6836120c4565b505050565b600033905060005b600e60008373ffffffffffffffffffffffffffffffffffffffff1673ffffffffffffffffffffffffffffffffffffffff168152602001908152602001600020805490508110156113ec576000600e60008473ffffffffffffffffffffffffffffffffffffffff1673ffffffffffffffffffffffffffffffffffffffff16815260200190815260200160002082815481106113605761135f6137af565b5b906000526020600020015490506000600d60003373ffffffffffffffffffffffffffffffffffffffff1673ffffffffffffffffffffffffffffffffffffffff168152602001908152602001600020600083815260200190815260200160002054146113d8576113ce8161111b565b6113d7816120c4565b5b5080806113e490612aba565b9150506112c3565b5050565b6060600180546113ff9061332c565b80601f016020809104026020016040519081016040528092919081815260200182805461142b9061332c565b80156114785780601f1061144d57610100808354040283529160200191611478565b820191906000526020600020905b81548152906001019060200180831161145b57829003601f168201915b5050505050905090565b61149461148d611bf8565b83836121a3565b5050565b600080600090505b838382815181106114b4576114b36137af565b5b6020026020010151146114d45780806114cc90612aba565b9150506114a0565b8091505092915050565b60003390508073ffffffffffffffffffffffffffffffffffffffff1661150383610e79565b73ffffffffffffffffffffffffffffffffffffffff1614611559576040517f08c379a000000000000000000000000000000000000000000000000000000000815260040161155090613a26565b60405180910390fd5b42600d60008373ffffffffffffffffffffffffffffffffffffffff1673ffffffffffffffffffffffffffffffffffffffff168152602001908152602001600020600084815260200190815260200160002081905550600e60008273ffffffffffffffffffffffffffffffffffffffff1673ffffffffffffffffffffffffffffffffffffffff16815260200190815260200160002082908060018154018082558091505060019003906000526020600020016000909190919091505561161f813084611d97565b5050565b61163461162e611bf8565b83611cb9565b611673576040517f08c379a000000000000000000000000000000000000000000000000000000000815260040161166a9061366b565b60405180910390fd5b61167f84848484612310565b50505050565b606061169082611991565b6116cf576040517f08c379a00000000000000000000000000000000000000000000000000000000081526004016116c690613ab8565b60405180910390fd5b60006116d961236c565b905060008151116116f95760405180602001604052806000815250611724565b8061170384612383565b604051602001611714929190613b14565b6040516020818303038152906040525b915050919050565b6000339050600061173c82610fb1565b905060005b818110156117ce5760006117558483610d1f565b90506000600d60003373ffffffffffffffffffffffffffffffffffffffff1673ffffffffffffffffffffffffffffffffffffffff16815260200190815260200160002060008381526020019081526020016000205414156117ba576117b9816114de565b5b5080806117c690612aba565b915050611741565b505050565b60006117df8383611498565b90508181815181106117f4576117f36137af565b5b602002602001016000815250505050565b6000600560008473ffffffffffffffffffffffffffffffffffffffff1673ffffffffffffffffffffffffffffffffffffffff16815260200190815260200160002060008373ffffffffffffffffffffffffffffffffffffffff1673ffffffffffffffffffffffffffffffffffffffff16815260200190815260200160002060009054906101000a900460ff16905092915050565b6118a1611bf8565b73ffffffffffffffffffffffffffffffffffffffff166118bf6110f1565b73ffffffffffffffffffffffffffffffffffffffff1614611915576040517f08c379a000000000000000000000000000000000000000000000000000000000815260040161190c906138bc565b60405180910390fd5b600073ffffffffffffffffffffffffffffffffffffffff168173ffffffffffffffffffffffffffffffffffffffff161415611985576040517f08c379a000000000000000000000000000000000000000000000000000000000815260040161197c90613baa565b60405180910390fd5b61198e81611ffe565b50565b60008073ffffffffffffffffffffffffffffffffffffffff166002600084815260200190815260200160002060009054906101000a900473ffffffffffffffffffffffffffffffffffffffff1673ffffffffffffffffffffffffffffffffffffffff1614159050919050565b611a088383836124e4565b600073ffffffffffffffffffffffffffffffffffffffff168373ffffffffffffffffffffffffffffffffffffffff161415611a4b57611a46816124e9565b611a8a565b8173ffffffffffffffffffffffffffffffffffffffff168373ffffffffffffffffffffffffffffffffffffffff1614611a8957611a888382612532565b5b5b600073ffffffffffffffffffffffffffffffffffffffff168273ffffffffffffffffffffffffffffffffffffffff161415611acd57611ac88161269f565b611b0c565b8273ffffffffffffffffffffffffffffffffffffffff168273ffffffffffffffffffffffffffffffffffffffff1614611b0b57611b0a8282612770565b5b5b505050565b505050565b60007f80ac58cd000000000000000000000000000000000000000000000000000000007bffffffffffffffffffffffffffffffffffffffffffffffffffffffff1916827bffffffffffffffffffffffffffffffffffffffffffffffffffffffff19161480611be157507f5b5e139f000000000000000000000000000000000000000000000000000000007bffffffffffffffffffffffffffffffffffffffffffffffffffffffff1916827bffffffffffffffffffffffffffffffffffffffffffffffffffffffff1916145b80611bf15750611bf0826127ef565b5b9050919050565b600033905090565b816004600083815260200190815260200160002060006101000a81548173ffffffffffffffffffffffffffffffffffffffff021916908373ffffffffffffffffffffffffffffffffffffffff160217905550808273ffffffffffffffffffffffffffffffffffffffff16611c7383610e79565b73ffffffffffffffffffffffffffffffffffffffff167f8c5be1e5ebec7d5bd14f71427d1e84f3dd0314c0f7b2291e5b200ac8c7c3b92560405160405180910390a45050565b6000611cc482611991565b611d03576040517f08c379a0000000000000000000000000000000000000000000000000000000008152600401611cfa90613c3c565b60405180910390fd5b6000611d0e83610e79565b90508073ffffffffffffffffffffffffffffffffffffffff168473ffffffffffffffffffffffffffffffffffffffff161480611d505750611d4f8185611805565b5b80611d8e57508373ffffffffffffffffffffffffffffffffffffffff16611d7684610a07565b73ffffffffffffffffffffffffffffffffffffffff16145b91505092915050565b8273ffffffffffffffffffffffffffffffffffffffff16611db782610e79565b73ffffffffffffffffffffffffffffffffffffffff1614611e0d576040517f08c379a0000000000000000000000000000000000000000000000000000000008152600401611e0490613cce565b60405180910390fd5b600073ffffffffffffffffffffffffffffffffffffffff168273ffffffffffffffffffffffffffffffffffffffff161415611e7d576040517f08c379a0000000000000000000000000000000000000000000000000000000008152600401611e7490613d60565b60405180910390fd5b611e888383836119fd565b611e93600082611c00565b6001600360008573ffffffffffffffffffffffffffffffffffffffff1673ffffffffffffffffffffffffffffffffffffffff1681526020019081526020016000206000828254611ee39190613d80565b925050819055506001600360008473ffffffffffffffffffffffffffffffffffffffff1673ffffffffffffffffffffffffffffffffffffffff1681526020019081526020016000206000828254611f3a91906132a7565b92505081905550816002600083815260200190815260200160002060006101000a81548173ffffffffffffffffffffffffffffffffffffffff021916908373ffffffffffffffffffffffffffffffffffffffff160217905550808273ffffffffffffffffffffffffffffffffffffffff168473ffffffffffffffffffffffffffffffffffffffff167fddf252ad1be2c89b69c2b068fc378daa952ba7f163c4a11628f55a4df523b3ef60405160405180910390a4611ff9838383611b11565b505050565b6000600a60009054906101000a900473ffffffffffffffffffffffffffffffffffffffff16905081600a60006101000a81548173ffffffffffffffffffffffffffffffffffffffff021916908373ffffffffffffffffffffffffffffffffffffffff1602179055508173ffffffffffffffffffffffffffffffffffffffff168173ffffffffffffffffffffffffffffffffffffffff167f8be0079c531659141344cd1fd0a4f28419497f9722a3daafe3b4186f6b6457e060405160405180910390a35050565b60003390506000603c600d60008473ffffffffffffffffffffffffffffffffffffffff1673ffffffffffffffffffffffffffffffffffffffff168152602001908152602001600020600085815260200190815260200160002054426121299190613d80565b6121339190613de3565b90503373ffffffffffffffffffffffffffffffffffffffff168160405161215990613e45565b60006040518083038185875af1925050503d8060008114612196576040519150601f19603f3d011682016040523d82523d6000602084013e61219b565b606091505b505050505050565b8173ffffffffffffffffffffffffffffffffffffffff168373ffffffffffffffffffffffffffffffffffffffff161415612212576040517f08c379a000000000000000000000000000000000000000000000000000000000815260040161220990613ea6565b60405180910390fd5b80600560008573ffffffffffffffffffffffffffffffffffffffff1673ffffffffffffffffffffffffffffffffffffffff16815260200190815260200160002060008473ffffffffffffffffffffffffffffffffffffffff1673ffffffffffffffffffffffffffffffffffffffff16815260200190815260200160002060006101000a81548160ff0219169083151502179055508173ffffffffffffffffffffffffffffffffffffffff168373ffffffffffffffffffffffffffffffffffffffff167f17307eab39ab6107e8899845ad3d59bd9653f200f220920489ca2b5937696c31836040516123039190612bb7565b60405180910390a3505050565b61231b848484611d97565b61232784848484612859565b612366576040517f08c379a000000000000000000000000000000000000000000000000000000000815260040161235d90613f38565b60405180910390fd5b50505050565b606060405180602001604052806000815250905090565b606060008214156123cb576040518060400160405280600181526020017f300000000000000000000000000000000000000000000000000000000000000081525090506124df565b600082905060005b600082146123fd5780806123e690612aba565b915050600a826123f69190613de3565b91506123d3565b60008167ffffffffffffffff81111561241957612418612eb8565b5b6040519080825280601f01601f19166020018201604052801561244b5781602001600182028036833780820191505090505b5090505b600085146124d8576001826124649190613d80565b9150600a856124739190613f58565b603061247f91906132a7565b60f81b818381518110612495576124946137af565b5b60200101907effffffffffffffffffffffffffffffffffffffffffffffffffffffffffffff1916908160001a905350600a856124d19190613de3565b945061244f565b8093505050505b919050565b505050565b6008805490506009600083815260200190815260200160002081905550600881908060018154018082558091505060019003906000526020600020016000909190919091505550565b6000600161253f84610fb1565b6125499190613d80565b905060006007600084815260200190815260200160002054905081811461262e576000600660008673ffffffffffffffffffffffffffffffffffffffff1673ffffffffffffffffffffffffffffffffffffffff168152602001908152602001600020600084815260200190815260200160002054905080600660008773ffffffffffffffffffffffffffffffffffffffff1673ffffffffffffffffffffffffffffffffffffffff168152602001908152602001600020600084815260200190815260200160002081905550816007600083815260200190815260200160002081905550505b6007600084815260200190815260200160002060009055600660008573ffffffffffffffffffffffffffffffffffffffff1673ffffffffffffffffffffffffffffffffffffffff16815260200190815260200160002060008381526020019081526020016000206000905550505050565b600060016008805490506126b39190613d80565b90506000600960008481526020019081526020016000205490506000600883815481106126e3576126e26137af565b5b906000526020600020015490508060088381548110612705576127046137af565b5b90600052602060002001819055508160096000838152602001908152602001600020819055506009600085815260200190815260200160002060009055600880548061275457612753613f89565b5b6001900381819060005260206000200160009055905550505050565b600061277b83610fb1565b905081600660008573ffffffffffffffffffffffffffffffffffffffff1673ffffffffffffffffffffffffffffffffffffffff168152602001908152602001600020600083815260200190815260200160002081905550806007600084815260200190815260200160002081905550505050565b60007f01ffc9a7000000000000000000000000000000000000000000000000000000007bffffffffffffffffffffffffffffffffffffffffffffffffffffffff1916827bffffffffffffffffffffffffffffffffffffffffffffffffffffffff1916149050919050565b600061287a8473ffffffffffffffffffffffffffffffffffffffff166129e1565b156129d4578373ffffffffffffffffffffffffffffffffffffffff1663150b7a026128a3611bf8565b8786866040518563ffffffff1660e01b81526004016128c5949392919061400d565b6020604051808303816000875af192505050801561290157506040513d601f19601f820116820180604052508101906128fe919061406e565b60015b612984573d8060008114612931576040519150601f19603f3d011682016040523d82523d6000602084013e612936565b606091505b5060008151141561297c576040517f08c379a000000000000000000000000000000000000000000000000000000000815260040161297390613f38565b60405180910390fd5b805181602001fd5b63150b7a0260e01b7bffffffffffffffffffffffffffffffffffffffffffffffffffffffff1916817bffffffffffffffffffffffffffffffffffffffffffffffffffffffff1916149150506129d9565b600190505b949350505050565b6000808273ffffffffffffffffffffffffffffffffffffffff163b119050919050565b600082825260208201905092915050565b7f457468206973206e6f7420656e6f756768000000000000000000000000000000600082015250565b6000612a4b601183612a04565b9150612a5682612a15565b602082019050919050565b60006020820190508181036000830152612a7a81612a3e565b9050919050565b7f4e487b7100000000000000000000000000000000000000000000000000000000600052601160045260246000fd5b6000819050919050565b6000612ac582612ab0565b91507fffffffffffffffffffffffffffffffffffffffffffffffffffffffffffffffff821415612af857612af7612a81565b5b600182019050919050565b6000604051905090565b600080fd5b600080fd5b60007fffffffff0000000000000000000000000000000000000000000000000000000082169050919050565b612b4c81612b17565b8114612b5757600080fd5b50565b600081359050612b6981612b43565b92915050565b600060208284031215612b8557612b84612b0d565b5b6000612b9384828501612b5a565b91505092915050565b60008115159050919050565b612bb181612b9c565b82525050565b6000602082019050612bcc6000830184612ba8565b92915050565b600081519050919050565b60005b83811015612bfb578082015181840152602081019050612be0565b83811115612c0a576000848401525b50505050565b6000601f19601f8301169050919050565b6000612c2c82612bd2565b612c368185612a04565b9350612c46818560208601612bdd565b612c4f81612c10565b840191505092915050565b60006020820190508181036000830152612c748184612c21565b905092915050565b612c8581612ab0565b8114612c9057600080fd5b50565b600081359050612ca281612c7c565b92915050565b600060208284031215612cbe57612cbd612b0d565b5b6000612ccc84828501612c93565b91505092915050565b600073ffffffffffffffffffffffffffffffffffffffff82169050919050565b6000612d0082612cd5565b9050919050565b612d1081612cf5565b82525050565b6000602082019050612d2b6000830184612d07565b92915050565b612d3a81612cf5565b8114612d4557600080fd5b50565b600081359050612d5781612d31565b92915050565b60008060408385031215612d7457612d73612b0d565b5b6000612d8285828601612d48565b9250506020612d9385828601612c93565b9150509250929050565b612da681612ab0565b82525050565b6000602082019050612dc16000830184612d9d565b92915050565b600080600060608486031215612de057612ddf612b0d565b5b6000612dee86828701612d48565b9350506020612dff86828701612d48565b9250506040612e1086828701612c93565b9150509250925092565b600060208284031215612e3057612e2f612b0d565b5b6000612e3e84828501612d48565b91505092915050565b612e5081612b9c565b8114612e5b57600080fd5b50565b600081359050612e6d81612e47565b92915050565b60008060408385031215612e8a57612e89612b0d565b5b6000612e9885828601612d48565b9250506020612ea985828601612e5e565b9150509250929050565b600080fd5b7f4e487b7100000000000000000000000000000000000000000000000000000000600052604160045260246000fd5b612ef082612c10565b810181811067ffffffffffffffff82111715612f0f57612f0e612eb8565b5b80604052505050565b6000612f22612b03565b9050612f2e8282612ee7565b919050565b600067ffffffffffffffff821115612f4e57612f4d612eb8565b5b602082029050602081019050919050565b600080fd5b6000612f77612f7284612f33565b612f18565b90508083825260208201905060208402830185811115612f9a57612f99612f5f565b5b835b81811015612fc35780612faf8882612c93565b845260208401935050602081019050612f9c565b5050509392505050565b600082601f830112612fe257612fe1612eb3565b5b8135612ff2848260208601612f64565b91505092915050565b6000806040838503121561301257613011612b0d565b5b600061302085828601612c93565b925050602083013567ffffffffffffffff81111561304157613040612b12565b5b61304d85828601612fcd565b9150509250929050565b600080fd5b600067ffffffffffffffff82111561307757613076612eb8565b5b61308082612c10565b9050602081019050919050565b82818337600083830152505050565b60006130af6130aa8461305c565b612f18565b9050828152602081018484840111156130cb576130ca613057565b5b6130d684828561308d565b509392505050565b600082601f8301126130f3576130f2612eb3565b5b813561310384826020860161309c565b91505092915050565b6000806000806080858703121561312657613125612b0d565b5b600061313487828801612d48565b945050602061314587828801612d48565b935050604061315687828801612c93565b925050606085013567ffffffffffffffff81111561317757613176612b12565b5b613183878288016130de565b91505092959194509250565b600080604083850312156131a6576131a5612b0d565b5b60006131b485828601612d48565b92505060206131c585828601612d48565b9150509250929050565b7f4552433732313a206d696e7420746f20746865207a65726f2061646472657373600082015250565b6000613205602083612a04565b9150613210826131cf565b602082019050919050565b60006020820190508181036000830152613234816131f8565b9050919050565b7f4552433732313a20746f6b656e20616c7265616479206d696e74656400000000600082015250565b6000613271601c83612a04565b915061327c8261323b565b602082019050919050565b600060208201905081810360008301526132a081613264565b9050919050565b60006132b282612ab0565b91506132bd83612ab0565b9250827fffffffffffffffffffffffffffffffffffffffffffffffffffffffffffffffff038211156132f2576132f1612a81565b5b828201905092915050565b7f4e487b7100000000000000000000000000000000000000000000000000000000600052602260045260246000fd5b6000600282049050600182168061334457607f821691505b60208210811415613358576133576132fd565b5b50919050565b7f4552433732313a20617070726f76656420717565727920666f72206e6f6e657860008201527f697374656e7420746f6b656e0000000000000000000000000000000000000000602082015250565b60006133ba602c83612a04565b91506133c58261335e565b604082019050919050565b600060208201905081810360008301526133e9816133ad565b9050919050565b7f4552433732313a20617070726f76616c20746f2063757272656e74206f776e6560008201527f7200000000000000000000000000000000000000000000000000000000000000602082015250565b600061344c602183612a04565b9150613457826133f0565b604082019050919050565b6000602082019050818103600083015261347b8161343f565b9050919050565b7f4552433732313a20617070726f76652063616c6c6572206973206e6f74206f7760008201527f6e6572206e6f7220617070726f76656420666f7220616c6c0000000000000000602082015250565b60006134de603883612a04565b91506134e982613482565b604082019050919050565b6000602082019050818103600083015261350d816134d1565b9050919050565b60006060820190506135296000830186612d07565b6135366020830185612d07565b6135436040830184612d9d565b949350505050565b60008151905061355a81612e47565b92915050565b60006020828403121561357657613575612b0d565b5b60006135848482850161354b565b91505092915050565b7f5472616e73666572206661696c65640000000000000000000000000000000000600082015250565b60006135c3600f83612a04565b91506135ce8261358d565b602082019050919050565b600060208201905081810360008301526135f2816135b6565b9050919050565b7f4552433732313a207472616e736665722063616c6c6572206973206e6f74206f60008201527f776e6572206e6f7220617070726f766564000000000000000000000000000000602082015250565b6000613655603183612a04565b9150613660826135f9565b604082019050919050565b6000602082019050818103600083015261368481613648565b9050919050565b7f455243373231456e756d657261626c653a206f776e657220696e646578206f7560008201527f74206f6620626f756e6473000000000000000000000000000000000000000000602082015250565b60006136e7602b83612a04565b91506136f28261368b565b604082019050919050565b60006020820190508181036000830152613716816136da565b9050919050565b7f455243373231456e756d657261626c653a20676c6f62616c20696e646578206f60008201527f7574206f6620626f756e64730000000000000000000000000000000000000000602082015250565b6000613779602c83612a04565b91506137848261371d565b604082019050919050565b600060208201905081810360008301526137a88161376c565b9050919050565b7f4e487b7100000000000000000000000000000000000000000000000000000000600052603260045260246000fd5b7f4552433732313a206f776e657220717565727920666f72206e6f6e657869737460008201527f656e7420746f6b656e0000000000000000000000000000000000000000000000602082015250565b600061383a602983612a04565b9150613845826137de565b604082019050919050565b600060208201905081810360008301526138698161382d565b9050919050565b7f4f776e61626c653a2063616c6c6572206973206e6f7420746865206f776e6572600082015250565b60006138a6602083612a04565b91506138b182613870565b602082019050919050565b600060208201905081810360008301526138d581613899565b9050919050565b7f4552433732313a2062616c616e636520717565727920666f7220746865207a6560008201527f726f206164647265737300000000000000000000000000000000000000000000602082015250565b6000613938602a83612a04565b9150613943826138dc565b604082019050919050565b600060208201905081810360008301526139678161392b565b9050919050565b7f546f6b656e206973206e6f74206c6f636b656421000000000000000000000000600082015250565b60006139a4601483612a04565b91506139af8261396e565b602082019050919050565b600060208201905081810360008301526139d381613997565b9050919050565b7f546f6b656e206973206e6f74206f776e65642062792073656e64657221000000600082015250565b6000613a10601d83612a04565b9150613a1b826139da565b602082019050919050565b60006020820190508181036000830152613a3f81613a03565b9050919050565b7f4552433732314d657461646174613a2055524920717565727920666f72206e6f60008201527f6e6578697374656e7420746f6b656e0000000000000000000000000000000000602082015250565b6000613aa2602f83612a04565b9150613aad82613a46565b604082019050919050565b60006020820190508181036000830152613ad181613a95565b9050919050565b600081905092915050565b6000613aee82612bd2565b613af88185613ad8565b9350613b08818560208601612bdd565b80840191505092915050565b6000613b208285613ae3565b9150613b2c8284613ae3565b91508190509392505050565b7f4f776e61626c653a206e6577206f776e657220697320746865207a65726f206160008201527f6464726573730000000000000000000000000000000000000000000000000000602082015250565b6000613b94602683612a04565b9150613b9f82613b38565b604082019050919050565b60006020820190508181036000830152613bc381613b87565b9050919050565b7f4552433732313a206f70657261746f7220717565727920666f72206e6f6e657860008201527f697374656e7420746f6b656e0000000000000000000000000000000000000000602082015250565b6000613c26602c83612a04565b9150613c3182613bca565b604082019050919050565b60006020820190508181036000830152613c5581613c19565b9050919050565b7f4552433732313a207472616e736665722066726f6d20696e636f72726563742060008201527f6f776e6572000000000000000000000000000000000000000000000000000000602082015250565b6000613cb8602583612a04565b9150613cc382613c5c565b604082019050919050565b60006020820190508181036000830152613ce781613cab565b9050919050565b7f4552433732313a207472616e7366657220746f20746865207a65726f2061646460008201527f7265737300000000000000000000000000000000000000000000000000000000602082015250565b6000613d4a602483612a04565b9150613d5582613cee565b604082019050919050565b60006020820190508181036000830152613d7981613d3d565b9050919050565b6000613d8b82612ab0565b9150613d9683612ab0565b925082821015613da957613da8612a81565b5b828203905092915050565b7f4e487b7100000000000000000000000000000000000000000000000000000000600052601260045260246000fd5b6000613dee82612ab0565b9150613df983612ab0565b925082613e0957613e08613db4565b5b828204905092915050565b600081905092915050565b50565b6000613e2f600083613e14565b9150613e3a82613e1f565b600082019050919050565b6000613e5082613e22565b9150819050919050565b7f4552433732313a20617070726f766520746f2063616c6c657200000000000000600082015250565b6000613e90601983612a04565b9150613e9b82613e5a565b602082019050919050565b60006020820190508181036000830152613ebf81613e83565b9050919050565b7f4552433732313a207472616e7366657220746f206e6f6e20455243373231526560008201527f63656976657220696d706c656d656e7465720000000000000000000000000000602082015250565b6000613f22603283612a04565b9150613f2d82613ec6565b604082019050919050565b60006020820190508181036000830152613f5181613f15565b9050919050565b6000613f6382612ab0565b9150613f6e83612ab0565b925082613f7e57613f7d613db4565b5b828206905092915050565b7f4e487b7100000000000000000000000000000000000000000000000000000000600052603160045260246000fd5b600081519050919050565b600082825260208201905092915050565b6000613fdf82613fb8565b613fe98185613fc3565b9350613ff9818560208601612bdd565b61400281612c10565b840191505092915050565b60006080820190506140226000830187612d07565b61402f6020830186612d07565b61403c6040830185612d9d565b818103606083015261404e8184613fd4565b905095945050505050565b60008151905061406881612b43565b92915050565b60006020828403121561408457614083612b0d565b5b600061409284828501614059565b9150509291505056fea26469706673582212201d26fdc6eaf1de4cb4782524d8ca8b3a466f6fa22dbc37a626830c67bfb7777764736f6c634300080a0033",
  "immutableReferences": {
    "2880": [
      {
        "length": 32,
        "start": 2995
      },
      {
        "length": 32,
        "start": 3526
      }
    ]
  },
  "source": "pragma solidity >=0.4.22 <0.9.0;\r\n\r\nimport './Windows.sol';\r\n\r\ncontract Staking is Windows {\r\n    mapping(address => mapping(uint256 => uint256)) lockedTokens;\r\n\r\n    mapping(address => uint256[]) lockedTokenIds;\r\n\r\n    constructor(address tokenAddress) Windows(tokenAddress) {}\r\n\r\n    modifier tokenIsLocked(uint256 tokenId) {\r\n        require(lockedTokens[msg.sender][tokenId] != 0, 'Token is not locked!');\r\n        _;\r\n    }\r\n\r\n    //Deposit a token by ID\r\n    function deposit(uint256 tokenId) public {\r\n        address senderAddress = msg.sender;\r\n        require(\r\n            ownerOf(tokenId) == senderAddress,\r\n            'Token is not owned by sender!'\r\n        );\r\n        lockedTokens[senderAddress][tokenId] = block.timestamp;\r\n        lockedTokenIds[senderAddress].push(tokenId);\r\n        _transfer(senderAddress, address(this), tokenId);\r\n    }\r\n\r\n    //Retrieve a token by ID\r\n    function retrieve(uint256 tokenId) public tokenIsLocked(tokenId) {\r\n        address senderAddress = msg.sender;\r\n        lockedTokens[senderAddress][tokenId] = 0;\r\n        removeByValue(tokenId, lockedTokenIds[senderAddress]);\r\n        _transfer(address(this), senderAddress, tokenId);\r\n        getRewards(tokenId);\r\n    }\r\n\r\n    //Get reward by token ID\r\n    function getRewards(uint256 tokenId) internal {\r\n        address senderAddress = msg.sender;\r\n        uint256 reward = (block.timestamp -\r\n            lockedTokens[senderAddress][tokenId]) / 60;\r\n        msg.sender.call{value: reward}('');\r\n    }\r\n\r\n    function depositAll() public {\r\n        address senderAddress = msg.sender;\r\n        uint senderBalance = balanceOf(senderAddress);\r\n        for (uint256 i = 0; i < senderBalance; i++) {\r\n            uint256 tokenId = tokenOfOwnerByIndex(senderAddress, i);\r\n\r\n            if (lockedTokens[msg.sender][tokenId] == 0) deposit(tokenId);\r\n        }\r\n    }\r\n\r\n    function retrieveAll() public {\r\n        address senderAddress = msg.sender;\r\n        for (uint256 i = 0; i < lockedTokenIds[senderAddress].length; i++) {\r\n            uint256 tokenId = lockedTokenIds[senderAddress][i];\r\n            if (lockedTokens[msg.sender][tokenId] != 0) {\r\n                retrieve(tokenId);\r\n                getRewards(tokenId);\r\n            }\r\n        }\r\n    }\r\n\r\n    function removeByValue(uint256 value, uint256[] memory values) public {\r\n        uint256 i = find(value, values);\r\n        delete values[i];\r\n    }\r\n\r\n    function find(uint256 value, uint256[] memory values)\r\n        public\r\n        returns (uint256)\r\n    {\r\n        uint256 i = 0;\r\n        while (values[i] != value) {\r\n            i++;\r\n        }\r\n        return i;\r\n    }\r\n}",
  "sourcePath": "C:\\Users\\PC\\Documents\\VSCode\\Solidity\\contracts\\WindowsStaking.sol",
  "compiler": {
    "name": "solc",
    "version": "0.8.10+commit.fc410830.Emscripten.clang"
  },
  "schemaVersion": "3.4.7",
  "updatedAt": "2022-06-08T18:28:14.706Z",
  "networkType": "ethereum",
  "devdoc": {
    "kind": "dev",
    "methods": {
      "approve(address,uint256)": {
        "details": "See {IERC721-approve}."
      },
      "balanceOf(address)": {
        "details": "See {IERC721-balanceOf}."
      },
      "getApproved(uint256)": {
        "details": "See {IERC721-getApproved}."
      },
      "isApprovedForAll(address,address)": {
        "details": "See {IERC721-isApprovedForAll}."
      },
      "name()": {
        "details": "See {IERC721Metadata-name}."
      },
      "owner()": {
        "details": "Returns the address of the current owner."
      },
      "ownerOf(uint256)": {
        "details": "See {IERC721-ownerOf}."
      },
      "renounceOwnership()": {
        "details": "Leaves the contract without owner. It will not be possible to call `onlyOwner` functions anymore. Can only be called by the current owner. NOTE: Renouncing ownership will leave the contract without an owner, thereby removing any functionality that is only available to the owner."
      },
      "safeTransferFrom(address,address,uint256)": {
        "details": "See {IERC721-safeTransferFrom}."
      },
      "safeTransferFrom(address,address,uint256,bytes)": {
        "details": "See {IERC721-safeTransferFrom}."
      },
      "setApprovalForAll(address,bool)": {
        "details": "See {IERC721-setApprovalForAll}."
      },
      "supportsInterface(bytes4)": {
        "details": "See {IERC165-supportsInterface}."
      },
      "symbol()": {
        "details": "See {IERC721Metadata-symbol}."
      },
      "tokenByIndex(uint256)": {
        "details": "See {IERC721Enumerable-tokenByIndex}."
      },
      "tokenOfOwnerByIndex(address,uint256)": {
        "details": "See {IERC721Enumerable-tokenOfOwnerByIndex}."
      },
      "tokenURI(uint256)": {
        "details": "See {IERC721Metadata-tokenURI}."
      },
      "totalSupply()": {
        "details": "See {IERC721Enumerable-totalSupply}."
      },
      "transferFrom(address,address,uint256)": {
        "details": "See {IERC721-transferFrom}."
      },
      "transferOwnership(address)": {
        "details": "Transfers ownership of the contract to a new account (`newOwner`). Can only be called by the current owner."
      }
    },
    "version": 1
  },
  "userdoc": {
    "kind": "user",
    "methods": {},
    "version": 1
  }
}