{
  "contractName": "Staking",
  "abi": [
    {
      "inputs": [
        {
          "internalType": "address",
          "name": "tokenAddress",
          "type": "address"
        }
      ],
      "stateMutability": "nonpayable",
      "type": "constructor"
    },
    {
      "anonymous": false,
      "inputs": [
        {
          "indexed": true,
          "internalType": "address",
          "name": "owner",
          "type": "address"
        },
        {
          "indexed": true,
          "internalType": "address",
          "name": "approved",
          "type": "address"
        },
        {
          "indexed": true,
          "internalType": "uint256",
          "name": "tokenId",
          "type": "uint256"
        }
      ],
      "name": "Approval",
      "type": "event"
    },
    {
      "anonymous": false,
      "inputs": [
        {
          "indexed": true,
          "internalType": "address",
          "name": "owner",
          "type": "address"
        },
        {
          "indexed": true,
          "internalType": "address",
          "name": "operator",
          "type": "address"
        },
        {
          "indexed": false,
          "internalType": "bool",
          "name": "approved",
          "type": "bool"
        }
      ],
      "name": "ApprovalForAll",
      "type": "event"
    },
    {
      "anonymous": false,
      "inputs": [
        {
          "indexed": true,
          "internalType": "address",
          "name": "previousOwner",
          "type": "address"
        },
        {
          "indexed": true,
          "internalType": "address",
          "name": "newOwner",
          "type": "address"
        }
      ],
      "name": "OwnershipTransferred",
      "type": "event"
    },
    {
      "anonymous": false,
      "inputs": [
        {
          "indexed": true,
          "internalType": "address",
          "name": "from",
          "type": "address"
        },
        {
          "indexed": true,
          "internalType": "address",
          "name": "to",
          "type": "address"
        },
        {
          "indexed": true,
          "internalType": "uint256",
          "name": "tokenId",
          "type": "uint256"
        }
      ],
      "name": "Transfer",
      "type": "event"
    },
    {
      "inputs": [
        {
          "internalType": "address",
          "name": "to",
          "type": "address"
        },
        {
          "internalType": "uint256",
          "name": "tokenId",
          "type": "uint256"
        }
      ],
      "name": "approve",
      "outputs": [],
      "stateMutability": "nonpayable",
      "type": "function"
    },
    {
      "inputs": [
        {
          "internalType": "address",
          "name": "owner",
          "type": "address"
        }
      ],
      "name": "balanceOf",
      "outputs": [
        {
          "internalType": "uint256",
          "name": "",
          "type": "uint256"
        }
      ],
      "stateMutability": "view",
      "type": "function"
    },
    {
      "inputs": [
        {
          "internalType": "uint256",
          "name": "tokenId",
          "type": "uint256"
        }
      ],
      "name": "getApproved",
      "outputs": [
        {
          "internalType": "address",
          "name": "",
          "type": "address"
        }
      ],
      "stateMutability": "view",
      "type": "function"
    },
    {
      "inputs": [
        {
          "internalType": "address",
          "name": "owner",
          "type": "address"
        },
        {
          "internalType": "address",
          "name": "operator",
          "type": "address"
        }
      ],
      "name": "isApprovedForAll",
      "outputs": [
        {
          "internalType": "bool",
          "name": "",
          "type": "bool"
        }
      ],
      "stateMutability": "view",
      "type": "function"
    },
    {
      "inputs": [
        {
          "internalType": "uint256",
          "name": "amount",
          "type": "uint256"
        }
      ],
      "name": "mintMultipleTokens",
      "outputs": [],
      "stateMutability": "nonpayable",
      "type": "function"
    },
    {
      "inputs": [],
      "name": "mintToken",
      "outputs": [],
      "stateMutability": "nonpayable",
      "type": "function"
    },
    {
      "inputs": [],
      "name": "name",
      "outputs": [
        {
          "internalType": "string",
          "name": "",
          "type": "string"
        }
      ],
      "stateMutability": "view",
      "type": "function"
    },
    {
      "inputs": [],
      "name": "owner",
      "outputs": [
        {
          "internalType": "address",
          "name": "",
          "type": "address"
        }
      ],
      "stateMutability": "view",
      "type": "function"
    },
    {
      "inputs": [
        {
          "internalType": "uint256",
          "name": "tokenId",
          "type": "uint256"
        }
      ],
      "name": "ownerOf",
      "outputs": [
        {
          "internalType": "address",
          "name": "",
          "type": "address"
        }
      ],
      "stateMutability": "view",
      "type": "function"
    },
    {
      "inputs": [],
      "name": "paymentToken",
      "outputs": [
        {
          "internalType": "address",
          "name": "",
          "type": "address"
        }
      ],
      "stateMutability": "view",
      "type": "function"
    },
    {
      "inputs": [],
      "name": "renounceOwnership",
      "outputs": [],
      "stateMutability": "nonpayable",
      "type": "function"
    },
    {
      "inputs": [
        {
          "internalType": "address",
          "name": "from",
          "type": "address"
        },
        {
          "internalType": "address",
          "name": "to",
          "type": "address"
        },
        {
          "internalType": "uint256",
          "name": "tokenId",
          "type": "uint256"
        }
      ],
      "name": "safeTransferFrom",
      "outputs": [],
      "stateMutability": "nonpayable",
      "type": "function"
    },
    {
      "inputs": [
        {
          "internalType": "address",
          "name": "from",
          "type": "address"
        },
        {
          "internalType": "address",
          "name": "to",
          "type": "address"
        },
        {
          "internalType": "uint256",
          "name": "tokenId",
          "type": "uint256"
        },
        {
          "internalType": "bytes",
          "name": "_data",
          "type": "bytes"
        }
      ],
      "name": "safeTransferFrom",
      "outputs": [],
      "stateMutability": "nonpayable",
      "type": "function"
    },
    {
      "inputs": [
        {
          "internalType": "address",
          "name": "operator",
          "type": "address"
        },
        {
          "internalType": "bool",
          "name": "approved",
          "type": "bool"
        }
      ],
      "name": "setApprovalForAll",
      "outputs": [],
      "stateMutability": "nonpayable",
      "type": "function"
    },
    {
      "inputs": [
        {
          "internalType": "uint256",
          "name": "newTokenPrice",
          "type": "uint256"
        }
      ],
      "name": "setTokenPrice",
      "outputs": [],
      "stateMutability": "nonpayable",
      "type": "function"
    },
    {
      "inputs": [
        {
          "internalType": "uint256",
          "name": "newTokenPriceRebate",
          "type": "uint256"
        }
      ],
      "name": "setTokenPriceRebate",
      "outputs": [],
      "stateMutability": "nonpayable",
      "type": "function"
    },
    {
      "inputs": [
        {
          "internalType": "bytes4",
          "name": "interfaceId",
          "type": "bytes4"
        }
      ],
      "name": "supportsInterface",
      "outputs": [
        {
          "internalType": "bool",
          "name": "",
          "type": "bool"
        }
      ],
      "stateMutability": "view",
      "type": "function"
    },
    {
      "inputs": [],
      "name": "symbol",
      "outputs": [
        {
          "internalType": "string",
          "name": "",
          "type": "string"
        }
      ],
      "stateMutability": "view",
      "type": "function"
    },
    {
      "inputs": [
        {
          "internalType": "uint256",
          "name": "index",
          "type": "uint256"
        }
      ],
      "name": "tokenByIndex",
      "outputs": [
        {
          "internalType": "uint256",
          "name": "",
          "type": "uint256"
        }
      ],
      "stateMutability": "view",
      "type": "function"
    },
    {
      "inputs": [
        {
          "internalType": "address",
          "name": "owner",
          "type": "address"
        },
        {
          "internalType": "uint256",
          "name": "index",
          "type": "uint256"
        }
      ],
      "name": "tokenOfOwnerByIndex",
      "outputs": [
        {
          "internalType": "uint256",
          "name": "",
          "type": "uint256"
        }
      ],
      "stateMutability": "view",
      "type": "function"
    },
    {
      "inputs": [
        {
          "internalType": "uint256",
          "name": "tokenId",
          "type": "uint256"
        }
      ],
      "name": "tokenURI",
      "outputs": [
        {
          "internalType": "string",
          "name": "",
          "type": "string"
        }
      ],
      "stateMutability": "view",
      "type": "function"
    },
    {
      "inputs": [],
      "name": "totalSupply",
      "outputs": [
        {
          "internalType": "uint256",
          "name": "",
          "type": "uint256"
        }
      ],
      "stateMutability": "view",
      "type": "function"
    },
    {
      "inputs": [
        {
          "internalType": "address",
          "name": "from",
          "type": "address"
        },
        {
          "internalType": "address",
          "name": "to",
          "type": "address"
        },
        {
          "internalType": "uint256",
          "name": "tokenId",
          "type": "uint256"
        }
      ],
      "name": "transferFrom",
      "outputs": [],
      "stateMutability": "nonpayable",
      "type": "function"
    },
    {
      "inputs": [
        {
          "internalType": "address",
          "name": "newOwner",
          "type": "address"
        }
      ],
      "name": "transferOwnership",
      "outputs": [],
      "stateMutability": "nonpayable",
      "type": "function"
    },
    {
      "inputs": [
        {
          "internalType": "uint256",
          "name": "tokenId",
          "type": "uint256"
        }
      ],
      "name": "deposit",
      "outputs": [],
      "stateMutability": "nonpayable",
      "type": "function"
    },
    {
      "inputs": [
        {
          "internalType": "uint256",
          "name": "tokenId",
          "type": "uint256"
        }
      ],
      "name": "retrieve",
      "outputs": [],
      "stateMutability": "nonpayable",
      "type": "function"
    },
    {
      "inputs": [],
      "name": "depositAll",
      "outputs": [],
      "stateMutability": "nonpayable",
      "type": "function"
    },
    {
      "inputs": [],
      "name": "retrieveAll",
      "outputs": [],
      "stateMutability": "nonpayable",
      "type": "function"
    },
    {
      "inputs": [
        {
          "internalType": "uint256",
          "name": "value",
          "type": "uint256"
        },
        {
          "internalType": "uint256[]",
          "name": "values",
          "type": "uint256[]"
        }
      ],
      "name": "removeByValue",
      "outputs": [],
      "stateMutability": "nonpayable",
      "type": "function"
    },
    {
      "inputs": [
        {
          "internalType": "uint256",
          "name": "value",
          "type": "uint256"
        },
        {
          "internalType": "uint256[]",
          "name": "values",
          "type": "uint256[]"
        }
      ],
      "name": "find",
      "outputs": [
        {
          "internalType": "uint256",
          "name": "",
          "type": "uint256"
        }
      ],
      "stateMutability": "nonpayable",
      "type": "function"
    }
  ],
  "bytecode": "0x60a06040526000600b55600a600c556002600d553480156200002057600080fd5b50604051620044e8380380620044e883398181016040528101906200004691906200032b565b806040518060400160405280600781526020017f57696e646f7773000000000000000000000000000000000000000000000000008152506040518060400160405280600381526020017f574e4400000000000000000000000000000000000000000000000000000000008152508160009080519060200190620000cb92919062000211565b508060019080519060200190620000e492919062000211565b50505062000107620000fb6200014360201b60201c565b6200014b60201b60201c565b8073ffffffffffffffffffffffffffffffffffffffff1660808173ffffffffffffffffffffffffffffffffffffffff16815250505050620003c2565b600033905090565b6000600a60009054906101000a900473ffffffffffffffffffffffffffffffffffffffff16905081600a60006101000a81548173ffffffffffffffffffffffffffffffffffffffff021916908373ffffffffffffffffffffffffffffffffffffffff1602179055508173ffffffffffffffffffffffffffffffffffffffff168173ffffffffffffffffffffffffffffffffffffffff167f8be0079c531659141344cd1fd0a4f28419497f9722a3daafe3b4186f6b6457e060405160405180910390a35050565b8280546200021f906200038c565b90600052602060002090601f0160209004810192826200024357600085556200028f565b82601f106200025e57805160ff19168380011785556200028f565b828001600101855582156200028f579182015b828111156200028e57825182559160200191906001019062000271565b5b5090506200029e9190620002a2565b5090565b5b80821115620002bd576000816000905550600101620002a3565b5090565b600080fd5b600073ffffffffffffffffffffffffffffffffffffffff82169050919050565b6000620002f382620002c6565b9050919050565b6200030581620002e6565b81146200031157600080fd5b50565b6000815190506200032581620002fa565b92915050565b600060208284031215620003445762000343620002c1565b5b6000620003548482850162000314565b91505092915050565b7f4e487b7100000000000000000000000000000000000000000000000000000000600052602260045260246000fd5b60006002820490506001821680620003a557607f821691505b60208210811415620003bc57620003bb6200035d565b5b50919050565b6080516140fc620003ec6000396000818161085501528181610a6801526114ff01526140fc6000f3fe608060405234801561001057600080fd5b50600436106101da5760003560e01c8063715018a611610104578063b6b55f25116100a2578063e1dffcb911610071578063e1dffcb914610519578063e8e1355314610535578063e985e9c514610551578063f2fde38b14610581576101da565b8063b6b55f25146104a7578063b88d4fde146104c3578063c87b56dd146104df578063de5f62681461050f576101da565b806395607ced116100de57806395607ced1461043357806395d89b411461043d578063a22cb4651461045b578063ade3b1ad14610477576101da565b8063715018a6146103ef5780638da5cb5b146103f95780638f88708b14610417576101da565b80632f745c591161017c578063573123a91161014b578063573123a9146103575780636352211e146103735780636a61e5fc146103a357806370a08231146103bf576101da565b80632f745c59146102bd5780633013ce29146102ed57806342842e0e1461030b5780634f6ccce714610327576101da565b8063095ea7b3116101b8578063095ea7b31461025d57806318160ddd146102795780632004ffd91461029757806323b872dd146102a1576101da565b806301ffc9a7146101df57806306fdde031461020f578063081812fc1461022d575b600080fd5b6101f960048036038101906101f49190612aad565b61059d565b6040516102069190612af5565b60405180910390f35b610217610617565b6040516102249190612ba9565b60405180910390f35b61024760048036038101906102429190612c01565b6106a9565b6040516102549190612c6f565b60405180910390f35b61027760048036038101906102729190612cb6565b61072e565b005b610281610846565b60405161028e9190612d05565b60405180910390f35b61029f610853565b005b6102bb60048036038101906102b69190612d20565b610961565b005b6102d760048036038101906102d29190612cb6565b6109c1565b6040516102e49190612d05565b60405180910390f35b6102f5610a66565b6040516103029190612c6f565b60405180910390f35b61032560048036038101906103209190612d20565b610a8a565b005b610341600480360381019061033c9190612c01565b610aaa565b60405161034e9190612d05565b60405180910390f35b610371600480360381019061036c9190612c01565b610b1b565b005b61038d60048036038101906103889190612c01565b610ba3565b60405161039a9190612c6f565b60405180910390f35b6103bd60048036038101906103b89190612c01565b610c55565b005b6103d960048036038101906103d49190612d73565b610cdb565b6040516103e69190612d05565b60405180910390f35b6103f7610d93565b005b610401610e1b565b60405161040e9190612c6f565b60405180910390f35b610431600480360381019061042c9190612c01565b610e45565b005b61043b610fe5565b005b61044561111a565b6040516104529190612ba9565b60405180910390f35b61047560048036038101906104709190612dcc565b6111ac565b005b610491600480360381019061048c9190612f54565b6111c2565b60405161049e9190612d05565b60405180910390f35b6104c160048036038101906104bc9190612c01565b611208565b005b6104dd60048036038101906104d89190613065565b61134d565b005b6104f960048036038101906104f49190612c01565b6113af565b6040516105069190612ba9565b60405180910390f35b610517611456565b005b610533600480360381019061052e9190612c01565b6114fd565b005b61054f600480360381019061054a9190612f54565b611636565b005b61056b600480360381019061056691906130e8565b611668565b6040516105789190612af5565b60405180910390f35b61059b60048036038101906105969190612d73565b6116fc565b005b60007f780e9d63000000000000000000000000000000000000000000000000000000007bffffffffffffffffffffffffffffffffffffffffffffffffffffffff1916827bffffffffffffffffffffffffffffffffffffffffffffffffffffffff19161480610610575061060f826117f4565b5b9050919050565b60606000805461062690613157565b80601f016020809104026020016040519081016040528092919081815260200182805461065290613157565b801561069f5780601f106106745761010080835404028352916020019161069f565b820191906000526020600020905b81548152906001019060200180831161068257829003601f168201915b5050505050905090565b60006106b4826118d6565b6106f3576040517f08c379a00000000000000000000000000000000000000000000000000000000081526004016106ea906131fb565b60405180910390fd5b6004600083815260200190815260200160002060009054906101000a900473ffffffffffffffffffffffffffffffffffffffff169050919050565b600061073982610ba3565b90508073ffffffffffffffffffffffffffffffffffffffff168373ffffffffffffffffffffffffffffffffffffffff1614156107aa576040517f08c379a00000000000000000000000000000000000000000000000000000000081526004016107a19061328d565b60405180910390fd5b8073ffffffffffffffffffffffffffffffffffffffff166107c9611942565b73ffffffffffffffffffffffffffffffffffffffff1614806107f857506107f7816107f2611942565b611668565b5b610837576040517f08c379a000000000000000000000000000000000000000000000000000000000815260040161082e9061331f565b60405180910390fd5b610841838361194a565b505050565b6000600880549050905090565b7f000000000000000000000000000000000000000000000000000000000000000073ffffffffffffffffffffffffffffffffffffffff166323b872dd33610898610e1b565b600c546040518463ffffffff1660e01b81526004016108b99392919061333f565b6020604051808303816000875af11580156108d8573d6000803e3d6000fd5b505050506040513d601f19601f820116820180604052508101906108fc919061338b565b61093b576040517f08c379a000000000000000000000000000000000000000000000000000000000815260040161093290613404565b60405180910390fd5b61094733600b54611a03565b600b600081548092919061095a90613453565b9190505550565b61097261096c611942565b82611bdd565b6109b1576040517f08c379a00000000000000000000000000000000000000000000000000000000081526004016109a89061350e565b60405180910390fd5b6109bc838383611cbb565b505050565b60006109cc83610cdb565b8210610a0d576040517f08c379a0000000000000000000000000000000000000000000000000000000008152600401610a04906135a0565b60405180910390fd5b600660008473ffffffffffffffffffffffffffffffffffffffff1673ffffffffffffffffffffffffffffffffffffffff168152602001908152602001600020600083815260200190815260200160002054905092915050565b7f000000000000000000000000000000000000000000000000000000000000000081565b610aa58383836040518060200160405280600081525061134d565b505050565b6000610ab4610846565b8210610af5576040517f08c379a0000000000000000000000000000000000000000000000000000000008152600401610aec90613632565b60405180910390fd5b60088281548110610b0957610b08613652565b5b90600052602060002001549050919050565b610b23611942565b73ffffffffffffffffffffffffffffffffffffffff16610b41610e1b565b73ffffffffffffffffffffffffffffffffffffffff1614610b97576040517f08c379a0000000000000000000000000000000000000000000000000000000008152600401610b8e906136cd565b60405180910390fd5b600d54600d8190555050565b6000806002600084815260200190815260200160002060009054906101000a900473ffffffffffffffffffffffffffffffffffffffff169050600073ffffffffffffffffffffffffffffffffffffffff168173ffffffffffffffffffffffffffffffffffffffff161415610c4c576040517f08c379a0000000000000000000000000000000000000000000000000000000008152600401610c439061375f565b60405180910390fd5b80915050919050565b610c5d611942565b73ffffffffffffffffffffffffffffffffffffffff16610c7b610e1b565b73ffffffffffffffffffffffffffffffffffffffff1614610cd1576040517f08c379a0000000000000000000000000000000000000000000000000000000008152600401610cc8906136cd565b60405180910390fd5b80600c8190555050565b60008073ffffffffffffffffffffffffffffffffffffffff168273ffffffffffffffffffffffffffffffffffffffff161415610d4c576040517f08c379a0000000000000000000000000000000000000000000000000000000008152600401610d43906137f1565b60405180910390fd5b600360008373ffffffffffffffffffffffffffffffffffffffff1673ffffffffffffffffffffffffffffffffffffffff168152602001908152602001600020549050919050565b610d9b611942565b73ffffffffffffffffffffffffffffffffffffffff16610db9610e1b565b73ffffffffffffffffffffffffffffffffffffffff1614610e0f576040517f08c379a0000000000000000000000000000000000000000000000000000000008152600401610e06906136cd565b60405180910390fd5b610e196000611f22565b565b6000600a60009054906101000a900473ffffffffffffffffffffffffffffffffffffffff16905090565b806000600e60003373ffffffffffffffffffffffffffffffffffffffff1673ffffffffffffffffffffffffffffffffffffffff1681526020019081526020016000206000838152602001908152602001600020541415610eda576040517f08c379a0000000000000000000000000000000000000000000000000000000008152600401610ed19061385d565b60405180910390fd5b60003390506000600e60008373ffffffffffffffffffffffffffffffffffffffff1673ffffffffffffffffffffffffffffffffffffffff168152602001908152602001600020600085815260200190815260200160002081905550610fcc83600f60008473ffffffffffffffffffffffffffffffffffffffff1673ffffffffffffffffffffffffffffffffffffffff168152602001908152602001600020805480602002602001604051908101604052809291908181526020018280548015610fc257602002820191906000526020600020905b815481526020019060010190808311610fae575b5050505050611636565b610fd7308285611cbb565b610fe083611fe8565b505050565b600033905060005b600f60008373ffffffffffffffffffffffffffffffffffffffff1673ffffffffffffffffffffffffffffffffffffffff16815260200190815260200160002080549050811015611116576000600f60008473ffffffffffffffffffffffffffffffffffffffff1673ffffffffffffffffffffffffffffffffffffffff168152602001908152602001600020828154811061108a57611089613652565b5b906000526020600020015490506000600e60003373ffffffffffffffffffffffffffffffffffffffff1673ffffffffffffffffffffffffffffffffffffffff16815260200190815260200160002060008381526020019081526020016000205414611102576110f881610e45565b61110181611fe8565b5b50808061110e90613453565b915050610fed565b5050565b60606001805461112990613157565b80601f016020809104026020016040519081016040528092919081815260200182805461115590613157565b80156111a25780601f10611177576101008083540402835291602001916111a2565b820191906000526020600020905b81548152906001019060200180831161118557829003601f168201915b5050505050905090565b6111be6111b7611942565b83836120c7565b5050565b600080600090505b838382815181106111de576111dd613652565b5b6020026020010151146111fe5780806111f690613453565b9150506111ca565b8091505092915050565b60003390508073ffffffffffffffffffffffffffffffffffffffff1661122d83610ba3565b73ffffffffffffffffffffffffffffffffffffffff1614611283576040517f08c379a000000000000000000000000000000000000000000000000000000000815260040161127a906138c9565b60405180910390fd5b42600e60008373ffffffffffffffffffffffffffffffffffffffff1673ffffffffffffffffffffffffffffffffffffffff168152602001908152602001600020600084815260200190815260200160002081905550600f60008273ffffffffffffffffffffffffffffffffffffffff1673ffffffffffffffffffffffffffffffffffffffff168152602001908152602001600020829080600181540180825580915050600190039060005260206000200160009091909190915055611349813084611cbb565b5050565b61135e611358611942565b83611bdd565b61139d576040517f08c379a00000000000000000000000000000000000000000000000000000000081526004016113949061350e565b60405180910390fd5b6113a984848484612234565b50505050565b60606113ba826118d6565b6113f9576040517f08c379a00000000000000000000000000000000000000000000000000000000081526004016113f09061395b565b60405180910390fd5b6000611403612290565b90506000815111611423576040518060200160405280600081525061144e565b8061142d846122a7565b60405160200161143e9291906139b7565b6040516020818303038152906040525b915050919050565b6000339050600061146682610cdb565b905060005b818110156114f857600061147f84836109c1565b90506000600e60003373ffffffffffffffffffffffffffffffffffffffff1673ffffffffffffffffffffffffffffffffffffffff16815260200190815260200160002060008381526020019081526020016000205414156114e4576114e381611208565b5b5080806114f090613453565b91505061146b565b505050565b7f000000000000000000000000000000000000000000000000000000000000000073ffffffffffffffffffffffffffffffffffffffff166323b872dd33611542610e1b565b84600c5461155091906139db565b6040518463ffffffff1660e01b815260040161156e9392919061333f565b6020604051808303816000875af115801561158d573d6000803e3d6000fd5b505050506040513d601f19601f820116820180604052508101906115b1919061338b565b6115f0576040517f08c379a00000000000000000000000000000000000000000000000000000000081526004016115e790613404565b60405180910390fd5b60005b818110156116325761160733600b54611a03565b600b600081548092919061161a90613453565b9190505550808061162a90613453565b9150506115f3565b5050565b600061164283836111c2565b905081818151811061165757611656613652565b5b602002602001016000815250505050565b6000600560008473ffffffffffffffffffffffffffffffffffffffff1673ffffffffffffffffffffffffffffffffffffffff16815260200190815260200160002060008373ffffffffffffffffffffffffffffffffffffffff1673ffffffffffffffffffffffffffffffffffffffff16815260200190815260200160002060009054906101000a900460ff16905092915050565b611704611942565b73ffffffffffffffffffffffffffffffffffffffff16611722610e1b565b73ffffffffffffffffffffffffffffffffffffffff1614611778576040517f08c379a000000000000000000000000000000000000000000000000000000000815260040161176f906136cd565b60405180910390fd5b600073ffffffffffffffffffffffffffffffffffffffff168173ffffffffffffffffffffffffffffffffffffffff1614156117e8576040517f08c379a00000000000000000000000000000000000000000000000000000000081526004016117df90613aa7565b60405180910390fd5b6117f181611f22565b50565b60007f80ac58cd000000000000000000000000000000000000000000000000000000007bffffffffffffffffffffffffffffffffffffffffffffffffffffffff1916827bffffffffffffffffffffffffffffffffffffffffffffffffffffffff191614806118bf57507f5b5e139f000000000000000000000000000000000000000000000000000000007bffffffffffffffffffffffffffffffffffffffffffffffffffffffff1916827bffffffffffffffffffffffffffffffffffffffffffffffffffffffff1916145b806118cf57506118ce82612408565b5b9050919050565b60008073ffffffffffffffffffffffffffffffffffffffff166002600084815260200190815260200160002060009054906101000a900473ffffffffffffffffffffffffffffffffffffffff1673ffffffffffffffffffffffffffffffffffffffff1614159050919050565b600033905090565b816004600083815260200190815260200160002060006101000a81548173ffffffffffffffffffffffffffffffffffffffff021916908373ffffffffffffffffffffffffffffffffffffffff160217905550808273ffffffffffffffffffffffffffffffffffffffff166119bd83610ba3565b73ffffffffffffffffffffffffffffffffffffffff167f8c5be1e5ebec7d5bd14f71427d1e84f3dd0314c0f7b2291e5b200ac8c7c3b92560405160405180910390a45050565b600073ffffffffffffffffffffffffffffffffffffffff168273ffffffffffffffffffffffffffffffffffffffff161415611a73576040517f08c379a0000000000000000000000000000000000000000000000000000000008152600401611a6a90613b13565b60405180910390fd5b611a7c816118d6565b15611abc576040517f08c379a0000000000000000000000000000000000000000000000000000000008152600401611ab390613b7f565b60405180910390fd5b611ac860008383612472565b6001600360008473ffffffffffffffffffffffffffffffffffffffff1673ffffffffffffffffffffffffffffffffffffffff1681526020019081526020016000206000828254611b189190613b9f565b92505081905550816002600083815260200190815260200160002060006101000a81548173ffffffffffffffffffffffffffffffffffffffff021916908373ffffffffffffffffffffffffffffffffffffffff160217905550808273ffffffffffffffffffffffffffffffffffffffff16600073ffffffffffffffffffffffffffffffffffffffff167fddf252ad1be2c89b69c2b068fc378daa952ba7f163c4a11628f55a4df523b3ef60405160405180910390a4611bd960008383612586565b5050565b6000611be8826118d6565b611c27576040517f08c379a0000000000000000000000000000000000000000000000000000000008152600401611c1e90613c67565b60405180910390fd5b6000611c3283610ba3565b90508073ffffffffffffffffffffffffffffffffffffffff168473ffffffffffffffffffffffffffffffffffffffff161480611c745750611c738185611668565b5b80611cb257508373ffffffffffffffffffffffffffffffffffffffff16611c9a846106a9565b73ffffffffffffffffffffffffffffffffffffffff16145b91505092915050565b8273ffffffffffffffffffffffffffffffffffffffff16611cdb82610ba3565b73ffffffffffffffffffffffffffffffffffffffff1614611d31576040517f08c379a0000000000000000000000000000000000000000000000000000000008152600401611d2890613cf9565b60405180910390fd5b600073ffffffffffffffffffffffffffffffffffffffff168273ffffffffffffffffffffffffffffffffffffffff161415611da1576040517f08c379a0000000000000000000000000000000000000000000000000000000008152600401611d9890613d8b565b60405180910390fd5b611dac838383612472565b611db760008261194a565b6001600360008573ffffffffffffffffffffffffffffffffffffffff1673ffffffffffffffffffffffffffffffffffffffff1681526020019081526020016000206000828254611e079190613dab565b925050819055506001600360008473ffffffffffffffffffffffffffffffffffffffff1673ffffffffffffffffffffffffffffffffffffffff1681526020019081526020016000206000828254611e5e9190613b9f565b92505081905550816002600083815260200190815260200160002060006101000a81548173ffffffffffffffffffffffffffffffffffffffff021916908373ffffffffffffffffffffffffffffffffffffffff160217905550808273ffffffffffffffffffffffffffffffffffffffff168473ffffffffffffffffffffffffffffffffffffffff167fddf252ad1be2c89b69c2b068fc378daa952ba7f163c4a11628f55a4df523b3ef60405160405180910390a4611f1d838383612586565b505050565b6000600a60009054906101000a900473ffffffffffffffffffffffffffffffffffffffff16905081600a60006101000a81548173ffffffffffffffffffffffffffffffffffffffff021916908373ffffffffffffffffffffffffffffffffffffffff1602179055508173ffffffffffffffffffffffffffffffffffffffff168173ffffffffffffffffffffffffffffffffffffffff167f8be0079c531659141344cd1fd0a4f28419497f9722a3daafe3b4186f6b6457e060405160405180910390a35050565b60003390506000603c600e60008473ffffffffffffffffffffffffffffffffffffffff1673ffffffffffffffffffffffffffffffffffffffff1681526020019081526020016000206000858152602001908152602001600020544261204d9190613dab565b6120579190613e0e565b90503373ffffffffffffffffffffffffffffffffffffffff168160405161207d90613e70565b60006040518083038185875af1925050503d80600081146120ba576040519150601f19603f3d011682016040523d82523d6000602084013e6120bf565b606091505b505050505050565b8173ffffffffffffffffffffffffffffffffffffffff168373ffffffffffffffffffffffffffffffffffffffff161415612136576040517f08c379a000000000000000000000000000000000000000000000000000000000815260040161212d90613ed1565b60405180910390fd5b80600560008573ffffffffffffffffffffffffffffffffffffffff1673ffffffffffffffffffffffffffffffffffffffff16815260200190815260200160002060008473ffffffffffffffffffffffffffffffffffffffff1673ffffffffffffffffffffffffffffffffffffffff16815260200190815260200160002060006101000a81548160ff0219169083151502179055508173ffffffffffffffffffffffffffffffffffffffff168373ffffffffffffffffffffffffffffffffffffffff167f17307eab39ab6107e8899845ad3d59bd9653f200f220920489ca2b5937696c31836040516122279190612af5565b60405180910390a3505050565b61223f848484611cbb565b61224b8484848461258b565b61228a576040517f08c379a000000000000000000000000000000000000000000000000000000000815260040161228190613f63565b60405180910390fd5b50505050565b606060405180602001604052806000815250905090565b606060008214156122ef576040518060400160405280600181526020017f30000000000000000000000000000000000000000000000000000000000000008152509050612403565b600082905060005b6000821461232157808061230a90613453565b915050600a8261231a9190613e0e565b91506122f7565b60008167ffffffffffffffff81111561233d5761233c612e11565b5b6040519080825280601f01601f19166020018201604052801561236f5781602001600182028036833780820191505090505b5090505b600085146123fc576001826123889190613dab565b9150600a856123979190613f83565b60306123a39190613b9f565b60f81b8183815181106123b9576123b8613652565b5b60200101907effffffffffffffffffffffffffffffffffffffffffffffffffffffffffffff1916908160001a905350600a856123f59190613e0e565b9450612373565b8093505050505b919050565b60007f01ffc9a7000000000000000000000000000000000000000000000000000000007bffffffffffffffffffffffffffffffffffffffffffffffffffffffff1916827bffffffffffffffffffffffffffffffffffffffffffffffffffffffff1916149050919050565b61247d838383612713565b600073ffffffffffffffffffffffffffffffffffffffff168373ffffffffffffffffffffffffffffffffffffffff1614156124c0576124bb81612718565b6124ff565b8173ffffffffffffffffffffffffffffffffffffffff168373ffffffffffffffffffffffffffffffffffffffff16146124fe576124fd8382612761565b5b5b600073ffffffffffffffffffffffffffffffffffffffff168273ffffffffffffffffffffffffffffffffffffffff1614156125425761253d816128ce565b612581565b8273ffffffffffffffffffffffffffffffffffffffff168273ffffffffffffffffffffffffffffffffffffffff16146125805761257f828261299f565b5b5b505050565b505050565b60006125ac8473ffffffffffffffffffffffffffffffffffffffff16612a1e565b15612706578373ffffffffffffffffffffffffffffffffffffffff1663150b7a026125d5611942565b8786866040518563ffffffff1660e01b81526004016125f79493929190614009565b6020604051808303816000875af192505050801561263357506040513d601f19601f82011682018060405250810190612630919061406a565b60015b6126b6573d8060008114612663576040519150601f19603f3d011682016040523d82523d6000602084013e612668565b606091505b506000815114156126ae576040517f08c379a00000000000000000000000000000000000000000000000000000000081526004016126a590613f63565b60405180910390fd5b805181602001fd5b63150b7a0260e01b7bffffffffffffffffffffffffffffffffffffffffffffffffffffffff1916817bffffffffffffffffffffffffffffffffffffffffffffffffffffffff19161491505061270b565b600190505b949350505050565b505050565b6008805490506009600083815260200190815260200160002081905550600881908060018154018082558091505060019003906000526020600020016000909190919091505550565b6000600161276e84610cdb565b6127789190613dab565b905060006007600084815260200190815260200160002054905081811461285d576000600660008673ffffffffffffffffffffffffffffffffffffffff1673ffffffffffffffffffffffffffffffffffffffff168152602001908152602001600020600084815260200190815260200160002054905080600660008773ffffffffffffffffffffffffffffffffffffffff1673ffffffffffffffffffffffffffffffffffffffff168152602001908152602001600020600084815260200190815260200160002081905550816007600083815260200190815260200160002081905550505b6007600084815260200190815260200160002060009055600660008573ffffffffffffffffffffffffffffffffffffffff1673ffffffffffffffffffffffffffffffffffffffff16815260200190815260200160002060008381526020019081526020016000206000905550505050565b600060016008805490506128e29190613dab565b905060006009600084815260200190815260200160002054905060006008838154811061291257612911613652565b5b90600052602060002001549050806008838154811061293457612933613652565b5b90600052602060002001819055508160096000838152602001908152602001600020819055506009600085815260200190815260200160002060009055600880548061298357612982614097565b5b6001900381819060005260206000200160009055905550505050565b60006129aa83610cdb565b905081600660008573ffffffffffffffffffffffffffffffffffffffff1673ffffffffffffffffffffffffffffffffffffffff168152602001908152602001600020600083815260200190815260200160002081905550806007600084815260200190815260200160002081905550505050565b6000808273ffffffffffffffffffffffffffffffffffffffff163b119050919050565b6000604051905090565b600080fd5b600080fd5b60007fffffffff0000000000000000000000000000000000000000000000000000000082169050919050565b612a8a81612a55565b8114612a9557600080fd5b50565b600081359050612aa781612a81565b92915050565b600060208284031215612ac357612ac2612a4b565b5b6000612ad184828501612a98565b91505092915050565b60008115159050919050565b612aef81612ada565b82525050565b6000602082019050612b0a6000830184612ae6565b92915050565b600081519050919050565b600082825260208201905092915050565b60005b83811015612b4a578082015181840152602081019050612b2f565b83811115612b59576000848401525b50505050565b6000601f19601f8301169050919050565b6000612b7b82612b10565b612b858185612b1b565b9350612b95818560208601612b2c565b612b9e81612b5f565b840191505092915050565b60006020820190508181036000830152612bc38184612b70565b905092915050565b6000819050919050565b612bde81612bcb565b8114612be957600080fd5b50565b600081359050612bfb81612bd5565b92915050565b600060208284031215612c1757612c16612a4b565b5b6000612c2584828501612bec565b91505092915050565b600073ffffffffffffffffffffffffffffffffffffffff82169050919050565b6000612c5982612c2e565b9050919050565b612c6981612c4e565b82525050565b6000602082019050612c846000830184612c60565b92915050565b612c9381612c4e565b8114612c9e57600080fd5b50565b600081359050612cb081612c8a565b92915050565b60008060408385031215612ccd57612ccc612a4b565b5b6000612cdb85828601612ca1565b9250506020612cec85828601612bec565b9150509250929050565b612cff81612bcb565b82525050565b6000602082019050612d1a6000830184612cf6565b92915050565b600080600060608486031215612d3957612d38612a4b565b5b6000612d4786828701612ca1565b9350506020612d5886828701612ca1565b9250506040612d6986828701612bec565b9150509250925092565b600060208284031215612d8957612d88612a4b565b5b6000612d9784828501612ca1565b91505092915050565b612da981612ada565b8114612db457600080fd5b50565b600081359050612dc681612da0565b92915050565b60008060408385031215612de357612de2612a4b565b5b6000612df185828601612ca1565b9250506020612e0285828601612db7565b9150509250929050565b600080fd5b7f4e487b7100000000000000000000000000000000000000000000000000000000600052604160045260246000fd5b612e4982612b5f565b810181811067ffffffffffffffff82111715612e6857612e67612e11565b5b80604052505050565b6000612e7b612a41565b9050612e878282612e40565b919050565b600067ffffffffffffffff821115612ea757612ea6612e11565b5b602082029050602081019050919050565b600080fd5b6000612ed0612ecb84612e8c565b612e71565b90508083825260208201905060208402830185811115612ef357612ef2612eb8565b5b835b81811015612f1c5780612f088882612bec565b845260208401935050602081019050612ef5565b5050509392505050565b600082601f830112612f3b57612f3a612e0c565b5b8135612f4b848260208601612ebd565b91505092915050565b60008060408385031215612f6b57612f6a612a4b565b5b6000612f7985828601612bec565b925050602083013567ffffffffffffffff811115612f9a57612f99612a50565b5b612fa685828601612f26565b9150509250929050565b600080fd5b600067ffffffffffffffff821115612fd057612fcf612e11565b5b612fd982612b5f565b9050602081019050919050565b82818337600083830152505050565b600061300861300384612fb5565b612e71565b90508281526020810184848401111561302457613023612fb0565b5b61302f848285612fe6565b509392505050565b600082601f83011261304c5761304b612e0c565b5b813561305c848260208601612ff5565b91505092915050565b6000806000806080858703121561307f5761307e612a4b565b5b600061308d87828801612ca1565b945050602061309e87828801612ca1565b93505060406130af87828801612bec565b925050606085013567ffffffffffffffff8111156130d0576130cf612a50565b5b6130dc87828801613037565b91505092959194509250565b600080604083850312156130ff576130fe612a4b565b5b600061310d85828601612ca1565b925050602061311e85828601612ca1565b9150509250929050565b7f4e487b7100000000000000000000000000000000000000000000000000000000600052602260045260246000fd5b6000600282049050600182168061316f57607f821691505b6020821081141561318357613182613128565b5b50919050565b7f4552433732313a20617070726f76656420717565727920666f72206e6f6e657860008201527f697374656e7420746f6b656e0000000000000000000000000000000000000000602082015250565b60006131e5602c83612b1b565b91506131f082613189565b604082019050919050565b60006020820190508181036000830152613214816131d8565b9050919050565b7f4552433732313a20617070726f76616c20746f2063757272656e74206f776e6560008201527f7200000000000000000000000000000000000000000000000000000000000000602082015250565b6000613277602183612b1b565b91506132828261321b565b604082019050919050565b600060208201905081810360008301526132a68161326a565b9050919050565b7f4552433732313a20617070726f76652063616c6c6572206973206e6f74206f7760008201527f6e6572206e6f7220617070726f76656420666f7220616c6c0000000000000000602082015250565b6000613309603883612b1b565b9150613314826132ad565b604082019050919050565b60006020820190508181036000830152613338816132fc565b9050919050565b60006060820190506133546000830186612c60565b6133616020830185612c60565b61336e6040830184612cf6565b949350505050565b60008151905061338581612da0565b92915050565b6000602082840312156133a1576133a0612a4b565b5b60006133af84828501613376565b91505092915050565b7f5472616e73666572206661696c65640000000000000000000000000000000000600082015250565b60006133ee600f83612b1b565b91506133f9826133b8565b602082019050919050565b6000602082019050818103600083015261341d816133e1565b9050919050565b7f4e487b7100000000000000000000000000000000000000000000000000000000600052601160045260246000fd5b600061345e82612bcb565b91507fffffffffffffffffffffffffffffffffffffffffffffffffffffffffffffffff82141561349157613490613424565b5b600182019050919050565b7f4552433732313a207472616e736665722063616c6c6572206973206e6f74206f60008201527f776e6572206e6f7220617070726f766564000000000000000000000000000000602082015250565b60006134f8603183612b1b565b91506135038261349c565b604082019050919050565b60006020820190508181036000830152613527816134eb565b9050919050565b7f455243373231456e756d657261626c653a206f776e657220696e646578206f7560008201527f74206f6620626f756e6473000000000000000000000000000000000000000000602082015250565b600061358a602b83612b1b565b91506135958261352e565b604082019050919050565b600060208201905081810360008301526135b98161357d565b9050919050565b7f455243373231456e756d657261626c653a20676c6f62616c20696e646578206f60008201527f7574206f6620626f756e64730000000000000000000000000000000000000000602082015250565b600061361c602c83612b1b565b9150613627826135c0565b604082019050919050565b6000602082019050818103600083015261364b8161360f565b9050919050565b7f4e487b7100000000000000000000000000000000000000000000000000000000600052603260045260246000fd5b7f4f776e61626c653a2063616c6c6572206973206e6f7420746865206f776e6572600082015250565b60006136b7602083612b1b565b91506136c282613681565b602082019050919050565b600060208201905081810360008301526136e6816136aa565b9050919050565b7f4552433732313a206f776e657220717565727920666f72206e6f6e657869737460008201527f656e7420746f6b656e0000000000000000000000000000000000000000000000602082015250565b6000613749602983612b1b565b9150613754826136ed565b604082019050919050565b600060208201905081810360008301526137788161373c565b9050919050565b7f4552433732313a2062616c616e636520717565727920666f7220746865207a6560008201527f726f206164647265737300000000000000000000000000000000000000000000602082015250565b60006137db602a83612b1b565b91506137e68261377f565b604082019050919050565b6000602082019050818103600083015261380a816137ce565b9050919050565b7f546f6b656e206973206e6f74206c6f636b656421000000000000000000000000600082015250565b6000613847601483612b1b565b915061385282613811565b602082019050919050565b600060208201905081810360008301526138768161383a565b9050919050565b7f546f6b656e206973206e6f74206f776e65642062792073656e64657221000000600082015250565b60006138b3601d83612b1b565b91506138be8261387d565b602082019050919050565b600060208201905081810360008301526138e2816138a6565b9050919050565b7f4552433732314d657461646174613a2055524920717565727920666f72206e6f60008201527f6e6578697374656e7420746f6b656e0000000000000000000000000000000000602082015250565b6000613945602f83612b1b565b9150613950826138e9565b604082019050919050565b6000602082019050818103600083015261397481613938565b9050919050565b600081905092915050565b600061399182612b10565b61399b818561397b565b93506139ab818560208601612b2c565b80840191505092915050565b60006139c38285613986565b91506139cf8284613986565b91508190509392505050565b60006139e682612bcb565b91506139f183612bcb565b9250817fffffffffffffffffffffffffffffffffffffffffffffffffffffffffffffffff0483118215151615613a2a57613a29613424565b5b828202905092915050565b7f4f776e61626c653a206e6577206f776e657220697320746865207a65726f206160008201527f6464726573730000000000000000000000000000000000000000000000000000602082015250565b6000613a91602683612b1b565b9150613a9c82613a35565b604082019050919050565b60006020820190508181036000830152613ac081613a84565b9050919050565b7f4552433732313a206d696e7420746f20746865207a65726f2061646472657373600082015250565b6000613afd602083612b1b565b9150613b0882613ac7565b602082019050919050565b60006020820190508181036000830152613b2c81613af0565b9050919050565b7f4552433732313a20746f6b656e20616c7265616479206d696e74656400000000600082015250565b6000613b69601c83612b1b565b9150613b7482613b33565b602082019050919050565b60006020820190508181036000830152613b9881613b5c565b9050919050565b6000613baa82612bcb565b9150613bb583612bcb565b9250827fffffffffffffffffffffffffffffffffffffffffffffffffffffffffffffffff03821115613bea57613be9613424565b5b828201905092915050565b7f4552433732313a206f70657261746f7220717565727920666f72206e6f6e657860008201527f697374656e7420746f6b656e0000000000000000000000000000000000000000602082015250565b6000613c51602c83612b1b565b9150613c5c82613bf5565b604082019050919050565b60006020820190508181036000830152613c8081613c44565b9050919050565b7f4552433732313a207472616e736665722066726f6d20696e636f72726563742060008201527f6f776e6572000000000000000000000000000000000000000000000000000000602082015250565b6000613ce3602583612b1b565b9150613cee82613c87565b604082019050919050565b60006020820190508181036000830152613d1281613cd6565b9050919050565b7f4552433732313a207472616e7366657220746f20746865207a65726f2061646460008201527f7265737300000000000000000000000000000000000000000000000000000000602082015250565b6000613d75602483612b1b565b9150613d8082613d19565b604082019050919050565b60006020820190508181036000830152613da481613d68565b9050919050565b6000613db682612bcb565b9150613dc183612bcb565b925082821015613dd457613dd3613424565b5b828203905092915050565b7f4e487b7100000000000000000000000000000000000000000000000000000000600052601260045260246000fd5b6000613e1982612bcb565b9150613e2483612bcb565b925082613e3457613e33613ddf565b5b828204905092915050565b600081905092915050565b50565b6000613e5a600083613e3f565b9150613e6582613e4a565b600082019050919050565b6000613e7b82613e4d565b9150819050919050565b7f4552433732313a20617070726f766520746f2063616c6c657200000000000000600082015250565b6000613ebb601983612b1b565b9150613ec682613e85565b602082019050919050565b60006020820190508181036000830152613eea81613eae565b9050919050565b7f4552433732313a207472616e7366657220746f206e6f6e20455243373231526560008201527f63656976657220696d706c656d656e7465720000000000000000000000000000602082015250565b6000613f4d603283612b1b565b9150613f5882613ef1565b604082019050919050565b60006020820190508181036000830152613f7c81613f40565b9050919050565b6000613f8e82612bcb565b9150613f9983612bcb565b925082613fa957613fa8613ddf565b5b828206905092915050565b600081519050919050565b600082825260208201905092915050565b6000613fdb82613fb4565b613fe58185613fbf565b9350613ff5818560208601612b2c565b613ffe81612b5f565b840191505092915050565b600060808201905061401e6000830187612c60565b61402b6020830186612c60565b6140386040830185612cf6565b818103606083015261404a8184613fd0565b905095945050505050565b60008151905061406481612a81565b92915050565b6000602082840312156140805761407f612a4b565b5b600061408e84828501614055565b91505092915050565b7f4e487b7100000000000000000000000000000000000000000000000000000000600052603160045260246000fdfea26469706673582212200c0f68aad8ddd69662fce449b84e392657014f752c2bbbbe0a73f45d90003d6964736f6c634300080a0033",
  "immutableReferences": {
    "2829": [
      {
        "length": 32,
        "start": 2133
      },
      {
        "length": 32,
        "start": 2664
      },
      {
        "length": 32,
        "start": 5375
      }
    ]
  },
  "source": "pragma solidity >=0.4.22 <0.9.0;\r\n\r\nimport './Windows.sol';\r\n\r\ncontract Staking is Windows {\r\n    mapping(address => mapping(uint256 => uint256)) lockedTokens;\r\n\r\n    mapping(address => uint256[]) lockedTokenIds;\r\n\r\n    constructor(address tokenAddress) Windows(tokenAddress) {}\r\n\r\n    modifier tokenIsLocked(uint256 tokenId) {\r\n        require(lockedTokens[msg.sender][tokenId] != 0, 'Token is not locked!');\r\n        _;\r\n    }\r\n\r\n    //Deposit a token by ID\r\n    function deposit(uint256 tokenId) public {\r\n        address senderAddress = msg.sender;\r\n        require(\r\n            ownerOf(tokenId) == senderAddress,\r\n            'Token is not owned by sender!'\r\n        );\r\n        lockedTokens[senderAddress][tokenId] = block.timestamp;\r\n        lockedTokenIds[senderAddress].push(tokenId);\r\n        _transfer(senderAddress, address(this), tokenId);\r\n    }\r\n\r\n    //Retrieve a token by ID\r\n    function retrieve(uint256 tokenId) public tokenIsLocked(tokenId) {\r\n        address senderAddress = msg.sender;\r\n        lockedTokens[senderAddress][tokenId] = 0;\r\n        removeByValue(tokenId, lockedTokenIds[senderAddress]);\r\n        _transfer(address(this), senderAddress, tokenId);\r\n        getRewards(tokenId);\r\n    }\r\n\r\n    //Get reward by token ID\r\n    function getRewards(uint256 tokenId) internal {\r\n        address senderAddress = msg.sender;\r\n        uint256 reward = (block.timestamp -\r\n            lockedTokens[senderAddress][tokenId]) / 60;\r\n        msg.sender.call{value: reward}('');\r\n    }\r\n\r\n    function depositAll() public {\r\n        address senderAddress = msg.sender;\r\n        uint senderBalance = balanceOf(senderAddress);\r\n        for (uint256 i = 0; i < senderBalance; i++) {\r\n            uint256 tokenId = tokenOfOwnerByIndex(senderAddress, i);\r\n\r\n            if (lockedTokens[msg.sender][tokenId] == 0) deposit(tokenId);\r\n        }\r\n    }\r\n\r\n    function retrieveAll() public {\r\n        address senderAddress = msg.sender;\r\n        for (uint256 i = 0; i < lockedTokenIds[senderAddress].length; i++) {\r\n            uint256 tokenId = lockedTokenIds[senderAddress][i];\r\n            if (lockedTokens[msg.sender][tokenId] != 0) {\r\n                retrieve(tokenId);\r\n                getRewards(tokenId);\r\n            }\r\n        }\r\n    }\r\n\r\n    function removeByValue(uint256 value, uint256[] memory values) public {\r\n        uint256 i = find(value, values);\r\n        delete values[i];\r\n    }\r\n\r\n    function find(uint256 value, uint256[] memory values)\r\n        public\r\n        returns (uint256)\r\n    {\r\n        uint256 i = 0;\r\n        while (values[i] != value) {\r\n            i++;\r\n        }\r\n        return i;\r\n    }\r\n}",
  "sourcePath": "C:\\Users\\PC\\Documents\\VSCode\\Solidity\\contracts\\WindowsStaking.sol",
  "compiler": {
    "name": "solc",
    "version": "0.8.10+commit.fc410830.Emscripten.clang"
  },
  "schemaVersion": "3.4.7",
  "updatedAt": "2022-06-09T14:40:07.258Z",
  "devdoc": {
    "kind": "dev",
    "methods": {
      "approve(address,uint256)": {
        "details": "See {IERC721-approve}."
      },
      "balanceOf(address)": {
        "details": "See {IERC721-balanceOf}."
      },
      "getApproved(uint256)": {
        "details": "See {IERC721-getApproved}."
      },
      "isApprovedForAll(address,address)": {
        "details": "See {IERC721-isApprovedForAll}."
      },
      "name()": {
        "details": "See {IERC721Metadata-name}."
      },
      "owner()": {
        "details": "Returns the address of the current owner."
      },
      "ownerOf(uint256)": {
        "details": "See {IERC721-ownerOf}."
      },
      "renounceOwnership()": {
        "details": "Leaves the contract without owner. It will not be possible to call `onlyOwner` functions anymore. Can only be called by the current owner. NOTE: Renouncing ownership will leave the contract without an owner, thereby removing any functionality that is only available to the owner."
      },
      "safeTransferFrom(address,address,uint256)": {
        "details": "See {IERC721-safeTransferFrom}."
      },
      "safeTransferFrom(address,address,uint256,bytes)": {
        "details": "See {IERC721-safeTransferFrom}."
      },
      "setApprovalForAll(address,bool)": {
        "details": "See {IERC721-setApprovalForAll}."
      },
      "supportsInterface(bytes4)": {
        "details": "See {IERC165-supportsInterface}."
      },
      "symbol()": {
        "details": "See {IERC721Metadata-symbol}."
      },
      "tokenByIndex(uint256)": {
        "details": "See {IERC721Enumerable-tokenByIndex}."
      },
      "tokenOfOwnerByIndex(address,uint256)": {
        "details": "See {IERC721Enumerable-tokenOfOwnerByIndex}."
      },
      "tokenURI(uint256)": {
        "details": "See {IERC721Metadata-tokenURI}."
      },
      "totalSupply()": {
        "details": "See {IERC721Enumerable-totalSupply}."
      },
      "transferFrom(address,address,uint256)": {
        "details": "See {IERC721-transferFrom}."
      },
      "transferOwnership(address)": {
        "details": "Transfers ownership of the contract to a new account (`newOwner`). Can only be called by the current owner."
      }
    },
    "version": 1
  },
  "userdoc": {
    "kind": "user",
    "methods": {},
    "version": 1
  }
}