{
  "contractName": "Staking",
  "abi": [
    {
      "inputs": [
        {
          "internalType": "address",
          "name": "tokenAddress",
          "type": "address"
        }
      ],
      "stateMutability": "nonpayable",
      "type": "constructor"
    },
    {
      "anonymous": false,
      "inputs": [
        {
          "indexed": true,
          "internalType": "address",
          "name": "owner",
          "type": "address"
        },
        {
          "indexed": true,
          "internalType": "address",
          "name": "approved",
          "type": "address"
        },
        {
          "indexed": true,
          "internalType": "uint256",
          "name": "tokenId",
          "type": "uint256"
        }
      ],
      "name": "Approval",
      "type": "event"
    },
    {
      "anonymous": false,
      "inputs": [
        {
          "indexed": true,
          "internalType": "address",
          "name": "owner",
          "type": "address"
        },
        {
          "indexed": true,
          "internalType": "address",
          "name": "operator",
          "type": "address"
        },
        {
          "indexed": false,
          "internalType": "bool",
          "name": "approved",
          "type": "bool"
        }
      ],
      "name": "ApprovalForAll",
      "type": "event"
    },
    {
      "anonymous": false,
      "inputs": [
        {
          "indexed": true,
          "internalType": "address",
          "name": "previousOwner",
          "type": "address"
        },
        {
          "indexed": true,
          "internalType": "address",
          "name": "newOwner",
          "type": "address"
        }
      ],
      "name": "OwnershipTransferred",
      "type": "event"
    },
    {
      "anonymous": false,
      "inputs": [
        {
          "indexed": true,
          "internalType": "address",
          "name": "from",
          "type": "address"
        },
        {
          "indexed": true,
          "internalType": "address",
          "name": "to",
          "type": "address"
        },
        {
          "indexed": true,
          "internalType": "uint256",
          "name": "tokenId",
          "type": "uint256"
        }
      ],
      "name": "Transfer",
      "type": "event"
    },
    {
      "anonymous": false,
      "inputs": [
        {
          "indexed": false,
          "internalType": "address",
          "name": "from",
          "type": "address"
        },
        {
          "indexed": false,
          "internalType": "uint256",
          "name": "tokensPaid",
          "type": "uint256"
        },
        {
          "indexed": false,
          "internalType": "uint256",
          "name": "tokenAmout",
          "type": "uint256"
        }
      ],
      "name": "WindowsTransfer",
      "type": "event"
    },
    {
      "inputs": [
        {
          "internalType": "address",
          "name": "to",
          "type": "address"
        },
        {
          "internalType": "uint256",
          "name": "tokenId",
          "type": "uint256"
        }
      ],
      "name": "approve",
      "outputs": [],
      "stateMutability": "nonpayable",
      "type": "function"
    },
    {
      "inputs": [
        {
          "internalType": "address",
          "name": "owner",
          "type": "address"
        }
      ],
      "name": "balanceOf",
      "outputs": [
        {
          "internalType": "uint256",
          "name": "",
          "type": "uint256"
        }
      ],
      "stateMutability": "view",
      "type": "function"
    },
    {
      "inputs": [
        {
          "internalType": "uint256",
          "name": "tokenId",
          "type": "uint256"
        }
      ],
      "name": "getApproved",
      "outputs": [
        {
          "internalType": "address",
          "name": "",
          "type": "address"
        }
      ],
      "stateMutability": "view",
      "type": "function"
    },
    {
      "inputs": [
        {
          "internalType": "address",
          "name": "owner",
          "type": "address"
        },
        {
          "internalType": "address",
          "name": "operator",
          "type": "address"
        }
      ],
      "name": "isApprovedForAll",
      "outputs": [
        {
          "internalType": "bool",
          "name": "",
          "type": "bool"
        }
      ],
      "stateMutability": "view",
      "type": "function"
    },
    {
      "inputs": [
        {
          "internalType": "uint256",
          "name": "amount",
          "type": "uint256"
        }
      ],
      "name": "mintMultipleTokens",
      "outputs": [],
      "stateMutability": "nonpayable",
      "type": "function"
    },
    {
      "inputs": [],
      "name": "mintToken",
      "outputs": [],
      "stateMutability": "nonpayable",
      "type": "function"
    },
    {
      "inputs": [],
      "name": "name",
      "outputs": [
        {
          "internalType": "string",
          "name": "",
          "type": "string"
        }
      ],
      "stateMutability": "view",
      "type": "function"
    },
    {
      "inputs": [],
      "name": "owner",
      "outputs": [
        {
          "internalType": "address",
          "name": "",
          "type": "address"
        }
      ],
      "stateMutability": "view",
      "type": "function"
    },
    {
      "inputs": [
        {
          "internalType": "uint256",
          "name": "tokenId",
          "type": "uint256"
        }
      ],
      "name": "ownerOf",
      "outputs": [
        {
          "internalType": "address",
          "name": "",
          "type": "address"
        }
      ],
      "stateMutability": "view",
      "type": "function"
    },
    {
      "inputs": [],
      "name": "paymentToken",
      "outputs": [
        {
          "internalType": "address",
          "name": "",
          "type": "address"
        }
      ],
      "stateMutability": "view",
      "type": "function"
    },
    {
      "inputs": [],
      "name": "renounceOwnership",
      "outputs": [],
      "stateMutability": "nonpayable",
      "type": "function"
    },
    {
      "inputs": [
        {
          "internalType": "address",
          "name": "from",
          "type": "address"
        },
        {
          "internalType": "address",
          "name": "to",
          "type": "address"
        },
        {
          "internalType": "uint256",
          "name": "tokenId",
          "type": "uint256"
        }
      ],
      "name": "safeTransferFrom",
      "outputs": [],
      "stateMutability": "nonpayable",
      "type": "function"
    },
    {
      "inputs": [
        {
          "internalType": "address",
          "name": "from",
          "type": "address"
        },
        {
          "internalType": "address",
          "name": "to",
          "type": "address"
        },
        {
          "internalType": "uint256",
          "name": "tokenId",
          "type": "uint256"
        },
        {
          "internalType": "bytes",
          "name": "_data",
          "type": "bytes"
        }
      ],
      "name": "safeTransferFrom",
      "outputs": [],
      "stateMutability": "nonpayable",
      "type": "function"
    },
    {
      "inputs": [
        {
          "internalType": "address",
          "name": "operator",
          "type": "address"
        },
        {
          "internalType": "bool",
          "name": "approved",
          "type": "bool"
        }
      ],
      "name": "setApprovalForAll",
      "outputs": [],
      "stateMutability": "nonpayable",
      "type": "function"
    },
    {
      "inputs": [
        {
          "internalType": "bool",
          "name": "newMintLocked",
          "type": "bool"
        }
      ],
      "name": "setIsMintEnabled",
      "outputs": [],
      "stateMutability": "nonpayable",
      "type": "function"
    },
    {
      "inputs": [
        {
          "internalType": "uint256",
          "name": "newTokenPrice",
          "type": "uint256"
        }
      ],
      "name": "setTokenPrice",
      "outputs": [],
      "stateMutability": "nonpayable",
      "type": "function"
    },
    {
      "inputs": [
        {
          "internalType": "uint256",
          "name": "newTokenPriceRebate",
          "type": "uint256"
        }
      ],
      "name": "setTokenPriceRebate",
      "outputs": [],
      "stateMutability": "nonpayable",
      "type": "function"
    },
    {
      "inputs": [
        {
          "internalType": "bytes4",
          "name": "interfaceId",
          "type": "bytes4"
        }
      ],
      "name": "supportsInterface",
      "outputs": [
        {
          "internalType": "bool",
          "name": "",
          "type": "bool"
        }
      ],
      "stateMutability": "view",
      "type": "function"
    },
    {
      "inputs": [],
      "name": "symbol",
      "outputs": [
        {
          "internalType": "string",
          "name": "",
          "type": "string"
        }
      ],
      "stateMutability": "view",
      "type": "function"
    },
    {
      "inputs": [
        {
          "internalType": "uint256",
          "name": "index",
          "type": "uint256"
        }
      ],
      "name": "tokenByIndex",
      "outputs": [
        {
          "internalType": "uint256",
          "name": "",
          "type": "uint256"
        }
      ],
      "stateMutability": "view",
      "type": "function"
    },
    {
      "inputs": [
        {
          "internalType": "address",
          "name": "owner",
          "type": "address"
        },
        {
          "internalType": "uint256",
          "name": "index",
          "type": "uint256"
        }
      ],
      "name": "tokenOfOwnerByIndex",
      "outputs": [
        {
          "internalType": "uint256",
          "name": "",
          "type": "uint256"
        }
      ],
      "stateMutability": "view",
      "type": "function"
    },
    {
      "inputs": [
        {
          "internalType": "uint256",
          "name": "tokenId",
          "type": "uint256"
        }
      ],
      "name": "tokenURI",
      "outputs": [
        {
          "internalType": "string",
          "name": "",
          "type": "string"
        }
      ],
      "stateMutability": "view",
      "type": "function"
    },
    {
      "inputs": [],
      "name": "totalSupply",
      "outputs": [
        {
          "internalType": "uint256",
          "name": "",
          "type": "uint256"
        }
      ],
      "stateMutability": "view",
      "type": "function"
    },
    {
      "inputs": [
        {
          "internalType": "address",
          "name": "from",
          "type": "address"
        },
        {
          "internalType": "address",
          "name": "to",
          "type": "address"
        },
        {
          "internalType": "uint256",
          "name": "tokenId",
          "type": "uint256"
        }
      ],
      "name": "transferFrom",
      "outputs": [],
      "stateMutability": "nonpayable",
      "type": "function"
    },
    {
      "inputs": [
        {
          "internalType": "address",
          "name": "newOwner",
          "type": "address"
        }
      ],
      "name": "transferOwnership",
      "outputs": [],
      "stateMutability": "nonpayable",
      "type": "function"
    },
    {
      "inputs": [
        {
          "internalType": "uint256",
          "name": "tokenId",
          "type": "uint256"
        }
      ],
      "name": "deposit",
      "outputs": [],
      "stateMutability": "nonpayable",
      "type": "function"
    },
    {
      "inputs": [
        {
          "internalType": "uint256",
          "name": "tokenId",
          "type": "uint256"
        }
      ],
      "name": "retrieve",
      "outputs": [],
      "stateMutability": "nonpayable",
      "type": "function"
    },
    {
      "inputs": [],
      "name": "depositAll",
      "outputs": [],
      "stateMutability": "nonpayable",
      "type": "function"
    },
    {
      "inputs": [],
      "name": "retrieveAll",
      "outputs": [],
      "stateMutability": "nonpayable",
      "type": "function"
    },
    {
      "inputs": [
        {
          "internalType": "uint256",
          "name": "value",
          "type": "uint256"
        },
        {
          "internalType": "uint256[]",
          "name": "values",
          "type": "uint256[]"
        }
      ],
      "name": "removeByValue",
      "outputs": [],
      "stateMutability": "nonpayable",
      "type": "function"
    },
    {
      "inputs": [
        {
          "internalType": "uint256",
          "name": "value",
          "type": "uint256"
        },
        {
          "internalType": "uint256[]",
          "name": "values",
          "type": "uint256[]"
        }
      ],
      "name": "find",
      "outputs": [
        {
          "internalType": "uint256",
          "name": "",
          "type": "uint256"
        }
      ],
      "stateMutability": "nonpayable",
      "type": "function"
    }
  ],
  "bytecode": "0x60a06040526000600b55600a600c556001600d556001600e60006101000a81548160ff0219169083151502179055503480156200003b57600080fd5b506040516200475d3803806200475d833981810160405281019062000061919062000346565b806040518060400160405280600781526020017f57696e646f7773000000000000000000000000000000000000000000000000008152506040518060400160405280600381526020017f574e4400000000000000000000000000000000000000000000000000000000008152508160009080519060200190620000e69291906200022c565b508060019080519060200190620000ff9291906200022c565b50505062000122620001166200015e60201b60201c565b6200016660201b60201c565b8073ffffffffffffffffffffffffffffffffffffffff1660808173ffffffffffffffffffffffffffffffffffffffff16815250505050620003dd565b600033905090565b6000600a60009054906101000a900473ffffffffffffffffffffffffffffffffffffffff16905081600a60006101000a81548173ffffffffffffffffffffffffffffffffffffffff021916908373ffffffffffffffffffffffffffffffffffffffff1602179055508173ffffffffffffffffffffffffffffffffffffffff168173ffffffffffffffffffffffffffffffffffffffff167f8be0079c531659141344cd1fd0a4f28419497f9722a3daafe3b4186f6b6457e060405160405180910390a35050565b8280546200023a90620003a7565b90600052602060002090601f0160209004810192826200025e5760008555620002aa565b82601f106200027957805160ff1916838001178555620002aa565b82800160010185558215620002aa579182015b82811115620002a95782518255916020019190600101906200028c565b5b509050620002b99190620002bd565b5090565b5b80821115620002d8576000816000905550600101620002be565b5090565b600080fd5b600073ffffffffffffffffffffffffffffffffffffffff82169050919050565b60006200030e82620002e1565b9050919050565b620003208162000301565b81146200032c57600080fd5b50565b600081519050620003408162000315565b92915050565b6000602082840312156200035f576200035e620002dc565b5b60006200036f848285016200032f565b91505092915050565b7f4e487b7100000000000000000000000000000000000000000000000000000000600052602260045260246000fd5b60006002820490506001821680620003c057607f821691505b60208210811415620003d757620003d662000378565b5b50919050565b608051614356620004076000396000818161087c01528181610a74015261161401526143566000f3fe608060405234801561001057600080fd5b50600436106101e55760003560e01c806370a082311161010f578063b6b55f25116100a2578063e1dffcb911610071578063e1dffcb914610540578063e8e135531461055c578063e985e9c514610578578063f2fde38b146105a8576101e5565b8063b6b55f25146104ce578063b88d4fde146104ea578063c87b56dd14610506578063de5f626814610536576101e5565b806395607ced116100de57806395607ced1461045a57806395d89b4114610464578063a22cb46514610482578063ade3b1ad1461049e576101e5565b806370a08231146103e6578063715018a6146104165780638da5cb5b146104205780638f88708b1461043e576101e5565b80632f745c59116101875780634f6ccce7116101565780634f6ccce71461034e578063573123a91461037e5780636352211e1461039a5780636a61e5fc146103ca576101e5565b80632f745c59146102c85780633013ce29146102f857806342842e0e146103165780634de8bcfb14610332576101e5565b8063095ea7b3116101c3578063095ea7b31461026857806318160ddd146102845780632004ffd9146102a257806323b872dd146102ac576101e5565b806301ffc9a7146101ea57806306fdde031461021a578063081812fc14610238575b600080fd5b61020460048036038101906101ff9190612c11565b6105c4565b6040516102119190612c59565b60405180910390f35b61022261063e565b60405161022f9190612d0d565b60405180910390f35b610252600480360381019061024d9190612d65565b6106d0565b60405161025f9190612dd3565b60405180910390f35b610282600480360381019061027d9190612e1a565b610755565b005b61028c61086d565b6040516102999190612e69565b60405180910390f35b6102aa61087a565b005b6102c660048036038101906102c19190612e84565b61096d565b005b6102e260048036038101906102dd9190612e1a565b6109cd565b6040516102ef9190612e69565b60405180910390f35b610300610a72565b60405161030d9190612dd3565b60405180910390f35b610330600480360381019061032b9190612e84565b610a96565b005b61034c60048036038101906103479190612f03565b610ab6565b005b61036860048036038101906103639190612d65565b610b4f565b6040516103759190612e69565b60405180910390f35b61039860048036038101906103939190612d65565b610bc0565b005b6103b460048036038101906103af9190612d65565b610c46565b6040516103c19190612dd3565b60405180910390f35b6103e460048036038101906103df9190612d65565b610cf8565b005b61040060048036038101906103fb9190612f30565b610d7e565b60405161040d9190612e69565b60405180910390f35b61041e610e36565b005b610428610ebe565b6040516104359190612dd3565b60405180910390f35b61045860048036038101906104539190612d65565b610ee8565b005b610462611088565b005b61046c6111bd565b6040516104799190612d0d565b60405180910390f35b61049c60048036038101906104979190612f5d565b61124f565b005b6104b860048036038101906104b391906130e5565b611265565b6040516104c59190612e69565b60405180910390f35b6104e860048036038101906104e39190612d65565b6112ab565b005b61050460048036038101906104ff91906131f6565b6113f0565b005b610520600480360381019061051b9190612d65565b611452565b60405161052d9190612d0d565b60405180910390f35b61053e6114f9565b005b61055a60048036038101906105559190612d65565b6115a0565b005b610576600480360381019061057191906130e5565b611724565b005b610592600480360381019061058d9190613279565b611756565b60405161059f9190612c59565b60405180910390f35b6105c260048036038101906105bd9190612f30565b6117ea565b005b60007f780e9d63000000000000000000000000000000000000000000000000000000007bffffffffffffffffffffffffffffffffffffffffffffffffffffffff1916827bffffffffffffffffffffffffffffffffffffffffffffffffffffffff191614806106375750610636826118e2565b5b9050919050565b60606000805461064d906132e8565b80601f0160208091040260200160405190810160405280929190818152602001828054610679906132e8565b80156106c65780601f1061069b576101008083540402835291602001916106c6565b820191906000526020600020905b8154815290600101906020018083116106a957829003601f168201915b5050505050905090565b60006106db826119c4565b61071a576040517f08c379a00000000000000000000000000000000000000000000000000000000081526004016107119061338c565b60405180910390fd5b6004600083815260200190815260200160002060009054906101000a900473ffffffffffffffffffffffffffffffffffffffff169050919050565b600061076082610c46565b90508073ffffffffffffffffffffffffffffffffffffffff168373ffffffffffffffffffffffffffffffffffffffff1614156107d1576040517f08c379a00000000000000000000000000000000000000000000000000000000081526004016107c89061341e565b60405180910390fd5b8073ffffffffffffffffffffffffffffffffffffffff166107f0611a30565b73ffffffffffffffffffffffffffffffffffffffff16148061081f575061081e81610819611a30565b611756565b5b61085e576040517f08c379a0000000000000000000000000000000000000000000000000000000008152600401610855906134b0565b60405180910390fd5b6108688383611a38565b505050565b6000600880549050905090565b7f000000000000000000000000000000000000000000000000000000000000000073ffffffffffffffffffffffffffffffffffffffff166323b872dd336108bf610ebe565b600c546040518463ffffffff1660e01b81526004016108e0939291906134d0565b6020604051808303816000875af11580156108ff573d6000803e3d6000fd5b505050506040513d601f19601f82011682018060405250810190610923919061351c565b610962576040517f08c379a000000000000000000000000000000000000000000000000000000000815260040161095990613595565b60405180910390fd5b61096b33611af1565b565b61097e610978611a30565b82611b67565b6109bd576040517f08c379a00000000000000000000000000000000000000000000000000000000081526004016109b490613627565b60405180910390fd5b6109c8838383611c45565b505050565b60006109d883610d7e565b8210610a19576040517f08c379a0000000000000000000000000000000000000000000000000000000008152600401610a10906136b9565b60405180910390fd5b600660008473ffffffffffffffffffffffffffffffffffffffff1673ffffffffffffffffffffffffffffffffffffffff168152602001908152602001600020600083815260200190815260200160002054905092915050565b7f000000000000000000000000000000000000000000000000000000000000000081565b610ab1838383604051806020016040528060008152506113f0565b505050565b610abe611a30565b73ffffffffffffffffffffffffffffffffffffffff16610adc610ebe565b73ffffffffffffffffffffffffffffffffffffffff1614610b32576040517f08c379a0000000000000000000000000000000000000000000000000000000008152600401610b2990613725565b60405180910390fd5b80600e60006101000a81548160ff02191690831515021790555050565b6000610b5961086d565b8210610b9a576040517f08c379a0000000000000000000000000000000000000000000000000000000008152600401610b91906137b7565b60405180910390fd5b60088281548110610bae57610bad6137d7565b5b90600052602060002001549050919050565b610bc8611a30565b73ffffffffffffffffffffffffffffffffffffffff16610be6610ebe565b73ffffffffffffffffffffffffffffffffffffffff1614610c3c576040517f08c379a0000000000000000000000000000000000000000000000000000000008152600401610c3390613725565b60405180910390fd5b80600d8190555050565b6000806002600084815260200190815260200160002060009054906101000a900473ffffffffffffffffffffffffffffffffffffffff169050600073ffffffffffffffffffffffffffffffffffffffff168173ffffffffffffffffffffffffffffffffffffffff161415610cef576040517f08c379a0000000000000000000000000000000000000000000000000000000008152600401610ce690613878565b60405180910390fd5b80915050919050565b610d00611a30565b73ffffffffffffffffffffffffffffffffffffffff16610d1e610ebe565b73ffffffffffffffffffffffffffffffffffffffff1614610d74576040517f08c379a0000000000000000000000000000000000000000000000000000000008152600401610d6b90613725565b60405180910390fd5b80600c8190555050565b60008073ffffffffffffffffffffffffffffffffffffffff168273ffffffffffffffffffffffffffffffffffffffff161415610def576040517f08c379a0000000000000000000000000000000000000000000000000000000008152600401610de69061390a565b60405180910390fd5b600360008373ffffffffffffffffffffffffffffffffffffffff1673ffffffffffffffffffffffffffffffffffffffff168152602001908152602001600020549050919050565b610e3e611a30565b73ffffffffffffffffffffffffffffffffffffffff16610e5c610ebe565b73ffffffffffffffffffffffffffffffffffffffff1614610eb2576040517f08c379a0000000000000000000000000000000000000000000000000000000008152600401610ea990613725565b60405180910390fd5b610ebc6000611eac565b565b6000600a60009054906101000a900473ffffffffffffffffffffffffffffffffffffffff16905090565b806000600f60003373ffffffffffffffffffffffffffffffffffffffff1673ffffffffffffffffffffffffffffffffffffffff1681526020019081526020016000206000838152602001908152602001600020541415610f7d576040517f08c379a0000000000000000000000000000000000000000000000000000000008152600401610f7490613976565b60405180910390fd5b60003390506000600f60008373ffffffffffffffffffffffffffffffffffffffff1673ffffffffffffffffffffffffffffffffffffffff16815260200190815260200160002060008581526020019081526020016000208190555061106f83601060008473ffffffffffffffffffffffffffffffffffffffff1673ffffffffffffffffffffffffffffffffffffffff16815260200190815260200160002080548060200260200160405190810160405280929190818152602001828054801561106557602002820191906000526020600020905b815481526020019060010190808311611051575b5050505050611724565b61107a308285611c45565b61108383611f72565b505050565b600033905060005b601060008373ffffffffffffffffffffffffffffffffffffffff1673ffffffffffffffffffffffffffffffffffffffff168152602001908152602001600020805490508110156111b9576000601060008473ffffffffffffffffffffffffffffffffffffffff1673ffffffffffffffffffffffffffffffffffffffff168152602001908152602001600020828154811061112d5761112c6137d7565b5b906000526020600020015490506000600f60003373ffffffffffffffffffffffffffffffffffffffff1673ffffffffffffffffffffffffffffffffffffffff168152602001908152602001600020600083815260200190815260200160002054146111a55761119b81610ee8565b6111a481611f72565b5b5080806111b1906139c5565b915050611090565b5050565b6060600180546111cc906132e8565b80601f01602080910402602001604051908101604052809291908181526020018280546111f8906132e8565b80156112455780601f1061121a57610100808354040283529160200191611245565b820191906000526020600020905b81548152906001019060200180831161122857829003601f168201915b5050505050905090565b61126161125a611a30565b8383612051565b5050565b600080600090505b83838281518110611281576112806137d7565b5b6020026020010151146112a1578080611299906139c5565b91505061126d565b8091505092915050565b60003390508073ffffffffffffffffffffffffffffffffffffffff166112d083610c46565b73ffffffffffffffffffffffffffffffffffffffff1614611326576040517f08c379a000000000000000000000000000000000000000000000000000000000815260040161131d90613a5a565b60405180910390fd5b42600f60008373ffffffffffffffffffffffffffffffffffffffff1673ffffffffffffffffffffffffffffffffffffffff168152602001908152602001600020600084815260200190815260200160002081905550601060008273ffffffffffffffffffffffffffffffffffffffff1673ffffffffffffffffffffffffffffffffffffffff1681526020019081526020016000208290806001815401808255809150506001900390600052602060002001600090919091909150556113ec813084611c45565b5050565b6114016113fb611a30565b83611b67565b611440576040517f08c379a000000000000000000000000000000000000000000000000000000000815260040161143790613627565b60405180910390fd5b61144c848484846121be565b50505050565b606061145d826119c4565b61149c576040517f08c379a000000000000000000000000000000000000000000000000000000000815260040161149390613aec565b60405180910390fd5b60006114a661221a565b905060008151116114c657604051806020016040528060008152506114f1565b806114d084612231565b6040516020016114e1929190613b48565b6040516020818303038152906040525b915050919050565b6000339050600061150982610d7e565b905060005b8181101561159b57600061152284836109cd565b90506000600f60003373ffffffffffffffffffffffffffffffffffffffff1673ffffffffffffffffffffffffffffffffffffffff168152602001908152602001600020600083815260200190815260200160002054141561158757611586816112ab565b5b508080611593906139c5565b91505061150e565b505050565b600081600c546115b09190613b6c565b905060018211156116125781600d546115c99190613b6c565b816115d49190613bc6565b90507fc3cc39c86897fb7a4ac1f7ba92c3d74ae297500954266ed38695733f254ae6e433828460405161160993929190613bfa565b60405180910390a15b7f000000000000000000000000000000000000000000000000000000000000000073ffffffffffffffffffffffffffffffffffffffff166323b872dd33611657610ebe565b846040518463ffffffff1660e01b8152600401611676939291906134d0565b6020604051808303816000875af1158015611695573d6000803e3d6000fd5b505050506040513d601f19601f820116820180604052508101906116b9919061351c565b6116f8576040517f08c379a00000000000000000000000000000000000000000000000000000000081526004016116ef90613595565b60405180910390fd5b60005b8281101561171f5761170c33611af1565b8080611717906139c5565b9150506116fb565b505050565b60006117308383611265565b9050818181518110611745576117446137d7565b5b602002602001016000815250505050565b6000600560008473ffffffffffffffffffffffffffffffffffffffff1673ffffffffffffffffffffffffffffffffffffffff16815260200190815260200160002060008373ffffffffffffffffffffffffffffffffffffffff1673ffffffffffffffffffffffffffffffffffffffff16815260200190815260200160002060009054906101000a900460ff16905092915050565b6117f2611a30565b73ffffffffffffffffffffffffffffffffffffffff16611810610ebe565b73ffffffffffffffffffffffffffffffffffffffff1614611866576040517f08c379a000000000000000000000000000000000000000000000000000000000815260040161185d90613725565b60405180910390fd5b600073ffffffffffffffffffffffffffffffffffffffff168173ffffffffffffffffffffffffffffffffffffffff1614156118d6576040517f08c379a00000000000000000000000000000000000000000000000000000000081526004016118cd90613ca3565b60405180910390fd5b6118df81611eac565b50565b60007f80ac58cd000000000000000000000000000000000000000000000000000000007bffffffffffffffffffffffffffffffffffffffffffffffffffffffff1916827bffffffffffffffffffffffffffffffffffffffffffffffffffffffff191614806119ad57507f5b5e139f000000000000000000000000000000000000000000000000000000007bffffffffffffffffffffffffffffffffffffffffffffffffffffffff1916827bffffffffffffffffffffffffffffffffffffffffffffffffffffffff1916145b806119bd57506119bc82612392565b5b9050919050565b60008073ffffffffffffffffffffffffffffffffffffffff166002600084815260200190815260200160002060009054906101000a900473ffffffffffffffffffffffffffffffffffffffff1673ffffffffffffffffffffffffffffffffffffffff1614159050919050565b600033905090565b816004600083815260200190815260200160002060006101000a81548173ffffffffffffffffffffffffffffffffffffffff021916908373ffffffffffffffffffffffffffffffffffffffff160217905550808273ffffffffffffffffffffffffffffffffffffffff16611aab83610c46565b73ffffffffffffffffffffffffffffffffffffffff167f8c5be1e5ebec7d5bd14f71427d1e84f3dd0314c0f7b2291e5b200ac8c7c3b92560405160405180910390a45050565b600e60009054906101000a900460ff16611b40576040517f08c379a0000000000000000000000000000000000000000000000000000000008152600401611b3790613d35565b60405180910390fd5b611b4c81600b546123fc565b600b6000815480929190611b5f906139c5565b919050555050565b6000611b72826119c4565b611bb1576040517f08c379a0000000000000000000000000000000000000000000000000000000008152600401611ba890613dc7565b60405180910390fd5b6000611bbc83610c46565b90508073ffffffffffffffffffffffffffffffffffffffff168473ffffffffffffffffffffffffffffffffffffffff161480611bfe5750611bfd8185611756565b5b80611c3c57508373ffffffffffffffffffffffffffffffffffffffff16611c24846106d0565b73ffffffffffffffffffffffffffffffffffffffff16145b91505092915050565b8273ffffffffffffffffffffffffffffffffffffffff16611c6582610c46565b73ffffffffffffffffffffffffffffffffffffffff1614611cbb576040517f08c379a0000000000000000000000000000000000000000000000000000000008152600401611cb290613e59565b60405180910390fd5b600073ffffffffffffffffffffffffffffffffffffffff168273ffffffffffffffffffffffffffffffffffffffff161415611d2b576040517f08c379a0000000000000000000000000000000000000000000000000000000008152600401611d2290613eeb565b60405180910390fd5b611d368383836125d6565b611d41600082611a38565b6001600360008573ffffffffffffffffffffffffffffffffffffffff1673ffffffffffffffffffffffffffffffffffffffff1681526020019081526020016000206000828254611d919190613bc6565b925050819055506001600360008473ffffffffffffffffffffffffffffffffffffffff1673ffffffffffffffffffffffffffffffffffffffff1681526020019081526020016000206000828254611de89190613f0b565b92505081905550816002600083815260200190815260200160002060006101000a81548173ffffffffffffffffffffffffffffffffffffffff021916908373ffffffffffffffffffffffffffffffffffffffff160217905550808273ffffffffffffffffffffffffffffffffffffffff168473ffffffffffffffffffffffffffffffffffffffff167fddf252ad1be2c89b69c2b068fc378daa952ba7f163c4a11628f55a4df523b3ef60405160405180910390a4611ea78383836126ea565b505050565b6000600a60009054906101000a900473ffffffffffffffffffffffffffffffffffffffff16905081600a60006101000a81548173ffffffffffffffffffffffffffffffffffffffff021916908373ffffffffffffffffffffffffffffffffffffffff1602179055508173ffffffffffffffffffffffffffffffffffffffff168173ffffffffffffffffffffffffffffffffffffffff167f8be0079c531659141344cd1fd0a4f28419497f9722a3daafe3b4186f6b6457e060405160405180910390a35050565b60003390506000603c600f60008473ffffffffffffffffffffffffffffffffffffffff1673ffffffffffffffffffffffffffffffffffffffff16815260200190815260200160002060008581526020019081526020016000205442611fd79190613bc6565b611fe19190613f90565b90503373ffffffffffffffffffffffffffffffffffffffff168160405161200790613ff2565b60006040518083038185875af1925050503d8060008114612044576040519150601f19603f3d011682016040523d82523d6000602084013e612049565b606091505b505050505050565b8173ffffffffffffffffffffffffffffffffffffffff168373ffffffffffffffffffffffffffffffffffffffff1614156120c0576040517f08c379a00000000000000000000000000000000000000000000000000000000081526004016120b790614053565b60405180910390fd5b80600560008573ffffffffffffffffffffffffffffffffffffffff1673ffffffffffffffffffffffffffffffffffffffff16815260200190815260200160002060008473ffffffffffffffffffffffffffffffffffffffff1673ffffffffffffffffffffffffffffffffffffffff16815260200190815260200160002060006101000a81548160ff0219169083151502179055508173ffffffffffffffffffffffffffffffffffffffff168373ffffffffffffffffffffffffffffffffffffffff167f17307eab39ab6107e8899845ad3d59bd9653f200f220920489ca2b5937696c31836040516121b19190612c59565b60405180910390a3505050565b6121c9848484611c45565b6121d5848484846126ef565b612214576040517f08c379a000000000000000000000000000000000000000000000000000000000815260040161220b906140e5565b60405180910390fd5b50505050565b606060405180602001604052806000815250905090565b60606000821415612279576040518060400160405280600181526020017f3000000000000000000000000000000000000000000000000000000000000000815250905061238d565b600082905060005b600082146122ab578080612294906139c5565b915050600a826122a49190613f90565b9150612281565b60008167ffffffffffffffff8111156122c7576122c6612fa2565b5b6040519080825280601f01601f1916602001820160405280156122f95781602001600182028036833780820191505090505b5090505b60008514612386576001826123129190613bc6565b9150600a856123219190614105565b603061232d9190613f0b565b60f81b818381518110612343576123426137d7565b5b60200101907effffffffffffffffffffffffffffffffffffffffffffffffffffffffffffff1916908160001a905350600a8561237f9190613f90565b94506122fd565b8093505050505b919050565b60007f01ffc9a7000000000000000000000000000000000000000000000000000000007bffffffffffffffffffffffffffffffffffffffffffffffffffffffff1916827bffffffffffffffffffffffffffffffffffffffffffffffffffffffff1916149050919050565b600073ffffffffffffffffffffffffffffffffffffffff168273ffffffffffffffffffffffffffffffffffffffff16141561246c576040517f08c379a000000000000000000000000000000000000000000000000000000000815260040161246390614182565b60405180910390fd5b612475816119c4565b156124b5576040517f08c379a00000000000000000000000000000000000000000000000000000000081526004016124ac906141ee565b60405180910390fd5b6124c1600083836125d6565b6001600360008473ffffffffffffffffffffffffffffffffffffffff1673ffffffffffffffffffffffffffffffffffffffff16815260200190815260200160002060008282546125119190613f0b565b92505081905550816002600083815260200190815260200160002060006101000a81548173ffffffffffffffffffffffffffffffffffffffff021916908373ffffffffffffffffffffffffffffffffffffffff160217905550808273ffffffffffffffffffffffffffffffffffffffff16600073ffffffffffffffffffffffffffffffffffffffff167fddf252ad1be2c89b69c2b068fc378daa952ba7f163c4a11628f55a4df523b3ef60405160405180910390a46125d2600083836126ea565b5050565b6125e1838383612877565b600073ffffffffffffffffffffffffffffffffffffffff168373ffffffffffffffffffffffffffffffffffffffff1614156126245761261f8161287c565b612663565b8173ffffffffffffffffffffffffffffffffffffffff168373ffffffffffffffffffffffffffffffffffffffff16146126625761266183826128c5565b5b5b600073ffffffffffffffffffffffffffffffffffffffff168273ffffffffffffffffffffffffffffffffffffffff1614156126a6576126a181612a32565b6126e5565b8273ffffffffffffffffffffffffffffffffffffffff168273ffffffffffffffffffffffffffffffffffffffff16146126e4576126e38282612b03565b5b5b505050565b505050565b60006127108473ffffffffffffffffffffffffffffffffffffffff16612b82565b1561286a578373ffffffffffffffffffffffffffffffffffffffff1663150b7a02612739611a30565b8786866040518563ffffffff1660e01b815260040161275b9493929190614263565b6020604051808303816000875af192505050801561279757506040513d601f19601f8201168201806040525081019061279491906142c4565b60015b61281a573d80600081146127c7576040519150601f19603f3d011682016040523d82523d6000602084013e6127cc565b606091505b50600081511415612812576040517f08c379a0000000000000000000000000000000000000000000000000000000008152600401612809906140e5565b60405180910390fd5b805181602001fd5b63150b7a0260e01b7bffffffffffffffffffffffffffffffffffffffffffffffffffffffff1916817bffffffffffffffffffffffffffffffffffffffffffffffffffffffff19161491505061286f565b600190505b949350505050565b505050565b6008805490506009600083815260200190815260200160002081905550600881908060018154018082558091505060019003906000526020600020016000909190919091505550565b600060016128d284610d7e565b6128dc9190613bc6565b90506000600760008481526020019081526020016000205490508181146129c1576000600660008673ffffffffffffffffffffffffffffffffffffffff1673ffffffffffffffffffffffffffffffffffffffff168152602001908152602001600020600084815260200190815260200160002054905080600660008773ffffffffffffffffffffffffffffffffffffffff1673ffffffffffffffffffffffffffffffffffffffff168152602001908152602001600020600084815260200190815260200160002081905550816007600083815260200190815260200160002081905550505b6007600084815260200190815260200160002060009055600660008573ffffffffffffffffffffffffffffffffffffffff1673ffffffffffffffffffffffffffffffffffffffff16815260200190815260200160002060008381526020019081526020016000206000905550505050565b60006001600880549050612a469190613bc6565b9050600060096000848152602001908152602001600020549050600060088381548110612a7657612a756137d7565b5b906000526020600020015490508060088381548110612a9857612a976137d7565b5b906000526020600020018190555081600960008381526020019081526020016000208190555060096000858152602001908152602001600020600090556008805480612ae757612ae66142f1565b5b6001900381819060005260206000200160009055905550505050565b6000612b0e83610d7e565b905081600660008573ffffffffffffffffffffffffffffffffffffffff1673ffffffffffffffffffffffffffffffffffffffff168152602001908152602001600020600083815260200190815260200160002081905550806007600084815260200190815260200160002081905550505050565b6000808273ffffffffffffffffffffffffffffffffffffffff163b119050919050565b6000604051905090565b600080fd5b600080fd5b60007fffffffff0000000000000000000000000000000000000000000000000000000082169050919050565b612bee81612bb9565b8114612bf957600080fd5b50565b600081359050612c0b81612be5565b92915050565b600060208284031215612c2757612c26612baf565b5b6000612c3584828501612bfc565b91505092915050565b60008115159050919050565b612c5381612c3e565b82525050565b6000602082019050612c6e6000830184612c4a565b92915050565b600081519050919050565b600082825260208201905092915050565b60005b83811015612cae578082015181840152602081019050612c93565b83811115612cbd576000848401525b50505050565b6000601f19601f8301169050919050565b6000612cdf82612c74565b612ce98185612c7f565b9350612cf9818560208601612c90565b612d0281612cc3565b840191505092915050565b60006020820190508181036000830152612d278184612cd4565b905092915050565b6000819050919050565b612d4281612d2f565b8114612d4d57600080fd5b50565b600081359050612d5f81612d39565b92915050565b600060208284031215612d7b57612d7a612baf565b5b6000612d8984828501612d50565b91505092915050565b600073ffffffffffffffffffffffffffffffffffffffff82169050919050565b6000612dbd82612d92565b9050919050565b612dcd81612db2565b82525050565b6000602082019050612de86000830184612dc4565b92915050565b612df781612db2565b8114612e0257600080fd5b50565b600081359050612e1481612dee565b92915050565b60008060408385031215612e3157612e30612baf565b5b6000612e3f85828601612e05565b9250506020612e5085828601612d50565b9150509250929050565b612e6381612d2f565b82525050565b6000602082019050612e7e6000830184612e5a565b92915050565b600080600060608486031215612e9d57612e9c612baf565b5b6000612eab86828701612e05565b9350506020612ebc86828701612e05565b9250506040612ecd86828701612d50565b9150509250925092565b612ee081612c3e565b8114612eeb57600080fd5b50565b600081359050612efd81612ed7565b92915050565b600060208284031215612f1957612f18612baf565b5b6000612f2784828501612eee565b91505092915050565b600060208284031215612f4657612f45612baf565b5b6000612f5484828501612e05565b91505092915050565b60008060408385031215612f7457612f73612baf565b5b6000612f8285828601612e05565b9250506020612f9385828601612eee565b9150509250929050565b600080fd5b7f4e487b7100000000000000000000000000000000000000000000000000000000600052604160045260246000fd5b612fda82612cc3565b810181811067ffffffffffffffff82111715612ff957612ff8612fa2565b5b80604052505050565b600061300c612ba5565b90506130188282612fd1565b919050565b600067ffffffffffffffff82111561303857613037612fa2565b5b602082029050602081019050919050565b600080fd5b600061306161305c8461301d565b613002565b9050808382526020820190506020840283018581111561308457613083613049565b5b835b818110156130ad57806130998882612d50565b845260208401935050602081019050613086565b5050509392505050565b600082601f8301126130cc576130cb612f9d565b5b81356130dc84826020860161304e565b91505092915050565b600080604083850312156130fc576130fb612baf565b5b600061310a85828601612d50565b925050602083013567ffffffffffffffff81111561312b5761312a612bb4565b5b613137858286016130b7565b9150509250929050565b600080fd5b600067ffffffffffffffff82111561316157613160612fa2565b5b61316a82612cc3565b9050602081019050919050565b82818337600083830152505050565b600061319961319484613146565b613002565b9050828152602081018484840111156131b5576131b4613141565b5b6131c0848285613177565b509392505050565b600082601f8301126131dd576131dc612f9d565b5b81356131ed848260208601613186565b91505092915050565b600080600080608085870312156132105761320f612baf565b5b600061321e87828801612e05565b945050602061322f87828801612e05565b935050604061324087828801612d50565b925050606085013567ffffffffffffffff81111561326157613260612bb4565b5b61326d878288016131c8565b91505092959194509250565b600080604083850312156132905761328f612baf565b5b600061329e85828601612e05565b92505060206132af85828601612e05565b9150509250929050565b7f4e487b7100000000000000000000000000000000000000000000000000000000600052602260045260246000fd5b6000600282049050600182168061330057607f821691505b60208210811415613314576133136132b9565b5b50919050565b7f4552433732313a20617070726f76656420717565727920666f72206e6f6e657860008201527f697374656e7420746f6b656e0000000000000000000000000000000000000000602082015250565b6000613376602c83612c7f565b91506133818261331a565b604082019050919050565b600060208201905081810360008301526133a581613369565b9050919050565b7f4552433732313a20617070726f76616c20746f2063757272656e74206f776e6560008201527f7200000000000000000000000000000000000000000000000000000000000000602082015250565b6000613408602183612c7f565b9150613413826133ac565b604082019050919050565b60006020820190508181036000830152613437816133fb565b9050919050565b7f4552433732313a20617070726f76652063616c6c6572206973206e6f74206f7760008201527f6e6572206e6f7220617070726f76656420666f7220616c6c0000000000000000602082015250565b600061349a603883612c7f565b91506134a58261343e565b604082019050919050565b600060208201905081810360008301526134c98161348d565b9050919050565b60006060820190506134e56000830186612dc4565b6134f26020830185612dc4565b6134ff6040830184612e5a565b949350505050565b60008151905061351681612ed7565b92915050565b60006020828403121561353257613531612baf565b5b600061354084828501613507565b91505092915050565b7f5472616e73666572206661696c65640000000000000000000000000000000000600082015250565b600061357f600f83612c7f565b915061358a82613549565b602082019050919050565b600060208201905081810360008301526135ae81613572565b9050919050565b7f4552433732313a207472616e736665722063616c6c6572206973206e6f74206f60008201527f776e6572206e6f7220617070726f766564000000000000000000000000000000602082015250565b6000613611603183612c7f565b915061361c826135b5565b604082019050919050565b6000602082019050818103600083015261364081613604565b9050919050565b7f455243373231456e756d657261626c653a206f776e657220696e646578206f7560008201527f74206f6620626f756e6473000000000000000000000000000000000000000000602082015250565b60006136a3602b83612c7f565b91506136ae82613647565b604082019050919050565b600060208201905081810360008301526136d281613696565b9050919050565b7f4f776e61626c653a2063616c6c6572206973206e6f7420746865206f776e6572600082015250565b600061370f602083612c7f565b915061371a826136d9565b602082019050919050565b6000602082019050818103600083015261373e81613702565b9050919050565b7f455243373231456e756d657261626c653a20676c6f62616c20696e646578206f60008201527f7574206f6620626f756e64730000000000000000000000000000000000000000602082015250565b60006137a1602c83612c7f565b91506137ac82613745565b604082019050919050565b600060208201905081810360008301526137d081613794565b9050919050565b7f4e487b7100000000000000000000000000000000000000000000000000000000600052603260045260246000fd5b7f4552433732313a206f776e657220717565727920666f72206e6f6e657869737460008201527f656e7420746f6b656e0000000000000000000000000000000000000000000000602082015250565b6000613862602983612c7f565b915061386d82613806565b604082019050919050565b6000602082019050818103600083015261389181613855565b9050919050565b7f4552433732313a2062616c616e636520717565727920666f7220746865207a6560008201527f726f206164647265737300000000000000000000000000000000000000000000602082015250565b60006138f4602a83612c7f565b91506138ff82613898565b604082019050919050565b60006020820190508181036000830152613923816138e7565b9050919050565b7f546f6b656e206973206e6f74206c6f636b656421000000000000000000000000600082015250565b6000613960601483612c7f565b915061396b8261392a565b602082019050919050565b6000602082019050818103600083015261398f81613953565b9050919050565b7f4e487b7100000000000000000000000000000000000000000000000000000000600052601160045260246000fd5b60006139d082612d2f565b91507fffffffffffffffffffffffffffffffffffffffffffffffffffffffffffffffff821415613a0357613a02613996565b5b600182019050919050565b7f546f6b656e206973206e6f74206f776e65642062792073656e64657221000000600082015250565b6000613a44601d83612c7f565b9150613a4f82613a0e565b602082019050919050565b60006020820190508181036000830152613a7381613a37565b9050919050565b7f4552433732314d657461646174613a2055524920717565727920666f72206e6f60008201527f6e6578697374656e7420746f6b656e0000000000000000000000000000000000602082015250565b6000613ad6602f83612c7f565b9150613ae182613a7a565b604082019050919050565b60006020820190508181036000830152613b0581613ac9565b9050919050565b600081905092915050565b6000613b2282612c74565b613b2c8185613b0c565b9350613b3c818560208601612c90565b80840191505092915050565b6000613b548285613b17565b9150613b608284613b17565b91508190509392505050565b6000613b7782612d2f565b9150613b8283612d2f565b9250817fffffffffffffffffffffffffffffffffffffffffffffffffffffffffffffffff0483118215151615613bbb57613bba613996565b5b828202905092915050565b6000613bd182612d2f565b9150613bdc83612d2f565b925082821015613bef57613bee613996565b5b828203905092915050565b6000606082019050613c0f6000830186612dc4565b613c1c6020830185612e5a565b613c296040830184612e5a565b949350505050565b7f4f776e61626c653a206e6577206f776e657220697320746865207a65726f206160008201527f6464726573730000000000000000000000000000000000000000000000000000602082015250565b6000613c8d602683612c7f565b9150613c9882613c31565b604082019050919050565b60006020820190508181036000830152613cbc81613c80565b9050919050565b7f4d696e74206973206e6f20656e61626c652061742074686973206d6f6d656e7460008201527f2100000000000000000000000000000000000000000000000000000000000000602082015250565b6000613d1f602183612c7f565b9150613d2a82613cc3565b604082019050919050565b60006020820190508181036000830152613d4e81613d12565b9050919050565b7f4552433732313a206f70657261746f7220717565727920666f72206e6f6e657860008201527f697374656e7420746f6b656e0000000000000000000000000000000000000000602082015250565b6000613db1602c83612c7f565b9150613dbc82613d55565b604082019050919050565b60006020820190508181036000830152613de081613da4565b9050919050565b7f4552433732313a207472616e736665722066726f6d20696e636f72726563742060008201527f6f776e6572000000000000000000000000000000000000000000000000000000602082015250565b6000613e43602583612c7f565b9150613e4e82613de7565b604082019050919050565b60006020820190508181036000830152613e7281613e36565b9050919050565b7f4552433732313a207472616e7366657220746f20746865207a65726f2061646460008201527f7265737300000000000000000000000000000000000000000000000000000000602082015250565b6000613ed5602483612c7f565b9150613ee082613e79565b604082019050919050565b60006020820190508181036000830152613f0481613ec8565b9050919050565b6000613f1682612d2f565b9150613f2183612d2f565b9250827fffffffffffffffffffffffffffffffffffffffffffffffffffffffffffffffff03821115613f5657613f55613996565b5b828201905092915050565b7f4e487b7100000000000000000000000000000000000000000000000000000000600052601260045260246000fd5b6000613f9b82612d2f565b9150613fa683612d2f565b925082613fb657613fb5613f61565b5b828204905092915050565b600081905092915050565b50565b6000613fdc600083613fc1565b9150613fe782613fcc565b600082019050919050565b6000613ffd82613fcf565b9150819050919050565b7f4552433732313a20617070726f766520746f2063616c6c657200000000000000600082015250565b600061403d601983612c7f565b915061404882614007565b602082019050919050565b6000602082019050818103600083015261406c81614030565b9050919050565b7f4552433732313a207472616e7366657220746f206e6f6e20455243373231526560008201527f63656976657220696d706c656d656e7465720000000000000000000000000000602082015250565b60006140cf603283612c7f565b91506140da82614073565b604082019050919050565b600060208201905081810360008301526140fe816140c2565b9050919050565b600061411082612d2f565b915061411b83612d2f565b92508261412b5761412a613f61565b5b828206905092915050565b7f4552433732313a206d696e7420746f20746865207a65726f2061646472657373600082015250565b600061416c602083612c7f565b915061417782614136565b602082019050919050565b6000602082019050818103600083015261419b8161415f565b9050919050565b7f4552433732313a20746f6b656e20616c7265616479206d696e74656400000000600082015250565b60006141d8601c83612c7f565b91506141e3826141a2565b602082019050919050565b60006020820190508181036000830152614207816141cb565b9050919050565b600081519050919050565b600082825260208201905092915050565b60006142358261420e565b61423f8185614219565b935061424f818560208601612c90565b61425881612cc3565b840191505092915050565b60006080820190506142786000830187612dc4565b6142856020830186612dc4565b6142926040830185612e5a565b81810360608301526142a4818461422a565b905095945050505050565b6000815190506142be81612be5565b92915050565b6000602082840312156142da576142d9612baf565b5b60006142e8848285016142af565b91505092915050565b7f4e487b7100000000000000000000000000000000000000000000000000000000600052603160045260246000fdfea26469706673582212209ace92354efa1d3702ff2c6b9ee46bd1bdbf2cc075e8c09b70e84e1d3985262964736f6c634300080a0033",
  "immutableReferences": {
    "3041": [
      {
        "length": 32,
        "start": 2172
      },
      {
        "length": 32,
        "start": 2676
      },
      {
        "length": 32,
        "start": 5652
      }
    ]
  },
  "source": "pragma solidity >=0.4.22 <0.9.0;\r\n\r\nimport './Windows.sol';\r\n\r\ncontract Staking is Windows {\r\n    mapping(address => mapping(uint256 => uint256)) lockedTokens;\r\n\r\n    mapping(address => uint256[]) lockedTokenIds;\r\n\r\n    constructor(address tokenAddress) Windows(tokenAddress) {}\r\n\r\n    modifier tokenIsLocked(uint256 tokenId) {\r\n        require(lockedTokens[msg.sender][tokenId] != 0, 'Token is not locked!');\r\n        _;\r\n    }\r\n\r\n    //Deposit a token by ID\r\n    function deposit(uint256 tokenId) public {\r\n        address senderAddress = msg.sender;\r\n        require(\r\n            ownerOf(tokenId) == senderAddress,\r\n            'Token is not owned by sender!'\r\n        );\r\n        lockedTokens[senderAddress][tokenId] = block.timestamp;\r\n        lockedTokenIds[senderAddress].push(tokenId);\r\n        _transfer(senderAddress, address(this), tokenId);\r\n    }\r\n\r\n    //Retrieve a token by ID\r\n    function retrieve(uint256 tokenId) public tokenIsLocked(tokenId) {\r\n        address senderAddress = msg.sender;\r\n        lockedTokens[senderAddress][tokenId] = 0;\r\n        removeByValue(tokenId, lockedTokenIds[senderAddress]);\r\n        _transfer(address(this), senderAddress, tokenId);\r\n        getRewards(tokenId);\r\n    }\r\n\r\n    //Get reward by token ID\r\n    function getRewards(uint256 tokenId) internal {\r\n        address senderAddress = msg.sender;\r\n        uint256 reward = (block.timestamp -\r\n            lockedTokens[senderAddress][tokenId]) / 60;\r\n        msg.sender.call{value: reward}('');\r\n    }\r\n\r\n    function depositAll() public {\r\n        address senderAddress = msg.sender;\r\n        uint senderBalance = balanceOf(senderAddress);\r\n        for (uint256 i = 0; i < senderBalance; i++) {\r\n            uint256 tokenId = tokenOfOwnerByIndex(senderAddress, i);\r\n\r\n            if (lockedTokens[msg.sender][tokenId] == 0) deposit(tokenId);\r\n        }\r\n    }\r\n\r\n    function retrieveAll() public {\r\n        address senderAddress = msg.sender;\r\n        for (uint256 i = 0; i < lockedTokenIds[senderAddress].length; i++) {\r\n            uint256 tokenId = lockedTokenIds[senderAddress][i];\r\n            if (lockedTokens[msg.sender][tokenId] != 0) {\r\n                retrieve(tokenId);\r\n                getRewards(tokenId);\r\n            }\r\n        }\r\n    }\r\n\r\n    function removeByValue(uint256 value, uint256[] memory values) public {\r\n        uint256 i = find(value, values);\r\n        delete values[i];\r\n    }\r\n\r\n    function find(uint256 value, uint256[] memory values)\r\n        public\r\n        returns (uint256)\r\n    {\r\n        uint256 i = 0;\r\n        while (values[i] != value) {\r\n            i++;\r\n        }\r\n        return i;\r\n    }\r\n}",
  "sourcePath": "C:\\Users\\itrmi\\OneDrive\\Documentos\\Gabriel\\VSCode\\Truffle-Project\\contracts\\WindowsStaking.sol",
  "compiler": {
    "name": "solc",
    "version": "0.8.10+commit.fc410830.Emscripten.clang"
  },
  "schemaVersion": "3.4.7",
  "updatedAt": "2022-06-10T17:33:55.011Z",
  "devdoc": {
    "kind": "dev",
    "methods": {
      "approve(address,uint256)": {
        "details": "See {IERC721-approve}."
      },
      "balanceOf(address)": {
        "details": "See {IERC721-balanceOf}."
      },
      "getApproved(uint256)": {
        "details": "See {IERC721-getApproved}."
      },
      "isApprovedForAll(address,address)": {
        "details": "See {IERC721-isApprovedForAll}."
      },
      "name()": {
        "details": "See {IERC721Metadata-name}."
      },
      "owner()": {
        "details": "Returns the address of the current owner."
      },
      "ownerOf(uint256)": {
        "details": "See {IERC721-ownerOf}."
      },
      "renounceOwnership()": {
        "details": "Leaves the contract without owner. It will not be possible to call `onlyOwner` functions anymore. Can only be called by the current owner. NOTE: Renouncing ownership will leave the contract without an owner, thereby removing any functionality that is only available to the owner."
      },
      "safeTransferFrom(address,address,uint256)": {
        "details": "See {IERC721-safeTransferFrom}."
      },
      "safeTransferFrom(address,address,uint256,bytes)": {
        "details": "See {IERC721-safeTransferFrom}."
      },
      "setApprovalForAll(address,bool)": {
        "details": "See {IERC721-setApprovalForAll}."
      },
      "supportsInterface(bytes4)": {
        "details": "See {IERC165-supportsInterface}."
      },
      "symbol()": {
        "details": "See {IERC721Metadata-symbol}."
      },
      "tokenByIndex(uint256)": {
        "details": "See {IERC721Enumerable-tokenByIndex}."
      },
      "tokenOfOwnerByIndex(address,uint256)": {
        "details": "See {IERC721Enumerable-tokenOfOwnerByIndex}."
      },
      "tokenURI(uint256)": {
        "details": "See {IERC721Metadata-tokenURI}."
      },
      "totalSupply()": {
        "details": "See {IERC721Enumerable-totalSupply}."
      },
      "transferFrom(address,address,uint256)": {
        "details": "See {IERC721-transferFrom}."
      },
      "transferOwnership(address)": {
        "details": "Transfers ownership of the contract to a new account (`newOwner`). Can only be called by the current owner."
      }
    },
    "version": 1
  },
  "userdoc": {
    "kind": "user",
    "methods": {},
    "version": 1
  }
}