{
  "contractName": "Staking",
  "abi": [
    {
      "inputs": [
        {
          "internalType": "address",
          "name": "tokenAddress",
          "type": "address"
        }
      ],
      "stateMutability": "nonpayable",
      "type": "constructor"
    },
    {
      "anonymous": false,
      "inputs": [
        {
          "indexed": true,
          "internalType": "address",
          "name": "owner",
          "type": "address"
        },
        {
          "indexed": true,
          "internalType": "address",
          "name": "approved",
          "type": "address"
        },
        {
          "indexed": true,
          "internalType": "uint256",
          "name": "tokenId",
          "type": "uint256"
        }
      ],
      "name": "Approval",
      "type": "event"
    },
    {
      "anonymous": false,
      "inputs": [
        {
          "indexed": true,
          "internalType": "address",
          "name": "owner",
          "type": "address"
        },
        {
          "indexed": true,
          "internalType": "address",
          "name": "operator",
          "type": "address"
        },
        {
          "indexed": false,
          "internalType": "bool",
          "name": "approved",
          "type": "bool"
        }
      ],
      "name": "ApprovalForAll",
      "type": "event"
    },
    {
      "anonymous": false,
      "inputs": [
        {
          "indexed": true,
          "internalType": "address",
          "name": "previousOwner",
          "type": "address"
        },
        {
          "indexed": true,
          "internalType": "address",
          "name": "newOwner",
          "type": "address"
        }
      ],
      "name": "OwnershipTransferred",
      "type": "event"
    },
    {
      "anonymous": false,
      "inputs": [
        {
          "indexed": true,
          "internalType": "address",
          "name": "from",
          "type": "address"
        },
        {
          "indexed": true,
          "internalType": "address",
          "name": "to",
          "type": "address"
        },
        {
          "indexed": true,
          "internalType": "uint256",
          "name": "tokenId",
          "type": "uint256"
        }
      ],
      "name": "Transfer",
      "type": "event"
    },
    {
      "inputs": [
        {
          "internalType": "address",
          "name": "to",
          "type": "address"
        },
        {
          "internalType": "uint256",
          "name": "tokenId",
          "type": "uint256"
        }
      ],
      "name": "approve",
      "outputs": [],
      "stateMutability": "nonpayable",
      "type": "function"
    },
    {
      "inputs": [
        {
          "internalType": "address",
          "name": "owner",
          "type": "address"
        }
      ],
      "name": "balanceOf",
      "outputs": [
        {
          "internalType": "uint256",
          "name": "",
          "type": "uint256"
        }
      ],
      "stateMutability": "view",
      "type": "function",
      "constant": true
    },
    {
      "inputs": [
        {
          "internalType": "uint256",
          "name": "tokenId",
          "type": "uint256"
        }
      ],
      "name": "getApproved",
      "outputs": [
        {
          "internalType": "address",
          "name": "",
          "type": "address"
        }
      ],
      "stateMutability": "view",
      "type": "function",
      "constant": true
    },
    {
      "inputs": [
        {
          "internalType": "address",
          "name": "owner",
          "type": "address"
        },
        {
          "internalType": "address",
          "name": "operator",
          "type": "address"
        }
      ],
      "name": "isApprovedForAll",
      "outputs": [
        {
          "internalType": "bool",
          "name": "",
          "type": "bool"
        }
      ],
      "stateMutability": "view",
      "type": "function",
      "constant": true
    },
    {
      "inputs": [
        {
          "internalType": "uint256",
          "name": "amount",
          "type": "uint256"
        }
      ],
      "name": "mintMultipleTokens",
      "outputs": [],
      "stateMutability": "nonpayable",
      "type": "function"
    },
    {
      "inputs": [],
      "name": "mintToken",
      "outputs": [],
      "stateMutability": "nonpayable",
      "type": "function"
    },
    {
      "inputs": [],
      "name": "name",
      "outputs": [
        {
          "internalType": "string",
          "name": "",
          "type": "string"
        }
      ],
      "stateMutability": "view",
      "type": "function",
      "constant": true
    },
    {
      "inputs": [],
      "name": "owner",
      "outputs": [
        {
          "internalType": "address",
          "name": "",
          "type": "address"
        }
      ],
      "stateMutability": "view",
      "type": "function",
      "constant": true
    },
    {
      "inputs": [
        {
          "internalType": "uint256",
          "name": "tokenId",
          "type": "uint256"
        }
      ],
      "name": "ownerOf",
      "outputs": [
        {
          "internalType": "address",
          "name": "",
          "type": "address"
        }
      ],
      "stateMutability": "view",
      "type": "function",
      "constant": true
    },
    {
      "inputs": [],
      "name": "paymentToken",
      "outputs": [
        {
          "internalType": "address",
          "name": "",
          "type": "address"
        }
      ],
      "stateMutability": "view",
      "type": "function",
      "constant": true
    },
    {
      "inputs": [],
      "name": "renounceOwnership",
      "outputs": [],
      "stateMutability": "nonpayable",
      "type": "function"
    },
    {
      "inputs": [
        {
          "internalType": "address",
          "name": "from",
          "type": "address"
        },
        {
          "internalType": "address",
          "name": "to",
          "type": "address"
        },
        {
          "internalType": "uint256",
          "name": "tokenId",
          "type": "uint256"
        }
      ],
      "name": "safeTransferFrom",
      "outputs": [],
      "stateMutability": "nonpayable",
      "type": "function"
    },
    {
      "inputs": [
        {
          "internalType": "address",
          "name": "from",
          "type": "address"
        },
        {
          "internalType": "address",
          "name": "to",
          "type": "address"
        },
        {
          "internalType": "uint256",
          "name": "tokenId",
          "type": "uint256"
        },
        {
          "internalType": "bytes",
          "name": "_data",
          "type": "bytes"
        }
      ],
      "name": "safeTransferFrom",
      "outputs": [],
      "stateMutability": "nonpayable",
      "type": "function"
    },
    {
      "inputs": [
        {
          "internalType": "address",
          "name": "operator",
          "type": "address"
        },
        {
          "internalType": "bool",
          "name": "approved",
          "type": "bool"
        }
      ],
      "name": "setApprovalForAll",
      "outputs": [],
      "stateMutability": "nonpayable",
      "type": "function"
    },
    {
      "inputs": [
        {
          "internalType": "uint256",
          "name": "newTokenPrice",
          "type": "uint256"
        }
      ],
      "name": "setTokenPrice",
      "outputs": [],
      "stateMutability": "nonpayable",
      "type": "function"
    },
    {
      "inputs": [
        {
          "internalType": "bytes4",
          "name": "interfaceId",
          "type": "bytes4"
        }
      ],
      "name": "supportsInterface",
      "outputs": [
        {
          "internalType": "bool",
          "name": "",
          "type": "bool"
        }
      ],
      "stateMutability": "view",
      "type": "function",
      "constant": true
    },
    {
      "inputs": [],
      "name": "symbol",
      "outputs": [
        {
          "internalType": "string",
          "name": "",
          "type": "string"
        }
      ],
      "stateMutability": "view",
      "type": "function",
      "constant": true
    },
    {
      "inputs": [
        {
          "internalType": "uint256",
          "name": "index",
          "type": "uint256"
        }
      ],
      "name": "tokenByIndex",
      "outputs": [
        {
          "internalType": "uint256",
          "name": "",
          "type": "uint256"
        }
      ],
      "stateMutability": "view",
      "type": "function",
      "constant": true
    },
    {
      "inputs": [
        {
          "internalType": "address",
          "name": "owner",
          "type": "address"
        },
        {
          "internalType": "uint256",
          "name": "index",
          "type": "uint256"
        }
      ],
      "name": "tokenOfOwnerByIndex",
      "outputs": [
        {
          "internalType": "uint256",
          "name": "",
          "type": "uint256"
        }
      ],
      "stateMutability": "view",
      "type": "function",
      "constant": true
    },
    {
      "inputs": [
        {
          "internalType": "uint256",
          "name": "tokenId",
          "type": "uint256"
        }
      ],
      "name": "tokenURI",
      "outputs": [
        {
          "internalType": "string",
          "name": "",
          "type": "string"
        }
      ],
      "stateMutability": "view",
      "type": "function",
      "constant": true
    },
    {
      "inputs": [],
      "name": "totalSupply",
      "outputs": [
        {
          "internalType": "uint256",
          "name": "",
          "type": "uint256"
        }
      ],
      "stateMutability": "view",
      "type": "function",
      "constant": true
    },
    {
      "inputs": [
        {
          "internalType": "address",
          "name": "from",
          "type": "address"
        },
        {
          "internalType": "address",
          "name": "to",
          "type": "address"
        },
        {
          "internalType": "uint256",
          "name": "tokenId",
          "type": "uint256"
        }
      ],
      "name": "transferFrom",
      "outputs": [],
      "stateMutability": "nonpayable",
      "type": "function"
    },
    {
      "inputs": [
        {
          "internalType": "address",
          "name": "newOwner",
          "type": "address"
        }
      ],
      "name": "transferOwnership",
      "outputs": [],
      "stateMutability": "nonpayable",
      "type": "function"
    },
    {
      "inputs": [
        {
          "internalType": "uint256",
          "name": "tokenId",
          "type": "uint256"
        }
      ],
      "name": "deposit",
      "outputs": [],
      "stateMutability": "nonpayable",
      "type": "function"
    },
    {
      "inputs": [
        {
          "internalType": "uint256",
          "name": "tokenId",
          "type": "uint256"
        }
      ],
      "name": "retrieve",
      "outputs": [],
      "stateMutability": "nonpayable",
      "type": "function"
    },
    {
      "inputs": [],
      "name": "depositAll",
      "outputs": [],
      "stateMutability": "nonpayable",
      "type": "function"
    },
    {
      "inputs": [],
      "name": "retrieveAll",
      "outputs": [],
      "stateMutability": "nonpayable",
      "type": "function"
    },
    {
      "inputs": [
        {
          "internalType": "uint256",
          "name": "value",
          "type": "uint256"
        },
        {
          "internalType": "uint256[]",
          "name": "values",
          "type": "uint256[]"
        }
      ],
      "name": "removeByValue",
      "outputs": [],
      "stateMutability": "nonpayable",
      "type": "function"
    },
    {
      "inputs": [
        {
          "internalType": "uint256",
          "name": "value",
          "type": "uint256"
        },
        {
          "internalType": "uint256[]",
          "name": "values",
          "type": "uint256[]"
        }
      ],
      "name": "find",
      "outputs": [
        {
          "internalType": "uint256",
          "name": "",
          "type": "uint256"
        }
      ],
      "stateMutability": "nonpayable",
      "type": "function"
    }
  ],
  "bytecode": "0x60a06040526000600b55600a600c553480156200001b57600080fd5b506040516200441c3803806200441c833981810160405281019062000041919062000326565b806040518060400160405280600781526020017f57696e646f7773000000000000000000000000000000000000000000000000008152506040518060400160405280600381526020017f574e4400000000000000000000000000000000000000000000000000000000008152508160009080519060200190620000c69291906200020c565b508060019080519060200190620000df9291906200020c565b50505062000102620000f66200013e60201b60201c565b6200014660201b60201c565b8073ffffffffffffffffffffffffffffffffffffffff1660808173ffffffffffffffffffffffffffffffffffffffff16815250505050620003bd565b600033905090565b6000600a60009054906101000a900473ffffffffffffffffffffffffffffffffffffffff16905081600a60006101000a81548173ffffffffffffffffffffffffffffffffffffffff021916908373ffffffffffffffffffffffffffffffffffffffff1602179055508173ffffffffffffffffffffffffffffffffffffffff168173ffffffffffffffffffffffffffffffffffffffff167f8be0079c531659141344cd1fd0a4f28419497f9722a3daafe3b4186f6b6457e060405160405180910390a35050565b8280546200021a9062000387565b90600052602060002090601f0160209004810192826200023e57600085556200028a565b82601f106200025957805160ff19168380011785556200028a565b828001600101855582156200028a579182015b82811115620002895782518255916020019190600101906200026c565b5b5090506200029991906200029d565b5090565b5b80821115620002b85760008160009055506001016200029e565b5090565b600080fd5b600073ffffffffffffffffffffffffffffffffffffffff82169050919050565b6000620002ee82620002c1565b9050919050565b6200030081620002e1565b81146200030c57600080fd5b50565b6000815190506200032081620002f5565b92915050565b6000602082840312156200033f576200033e620002bc565b5b60006200034f848285016200030f565b91505092915050565b7f4e487b7100000000000000000000000000000000000000000000000000000000600052602260045260246000fd5b60006002820490506001821680620003a057607f821691505b60208210811415620003b757620003b662000358565b5b50919050565b608051614035620003e76000396000818161082e01528181610a41015261145001526140356000f3fe608060405234801561001057600080fd5b50600436106101cf5760003560e01c8063715018a611610104578063b6b55f25116100a2578063e1dffcb911610071578063e1dffcb9146104f2578063e8e135531461050e578063e985e9c51461052a578063f2fde38b1461055a576101cf565b8063b6b55f2514610480578063b88d4fde1461049c578063c87b56dd146104b8578063de5f6268146104e8576101cf565b806395607ced116100de57806395607ced1461040c57806395d89b4114610416578063a22cb46514610434578063ade3b1ad14610450576101cf565b8063715018a6146103c85780638da5cb5b146103d25780638f88708b146103f0576101cf565b80632f745c59116101715780634f6ccce71161014b5780634f6ccce71461031c5780636352211e1461034c5780636a61e5fc1461037c57806370a0823114610398576101cf565b80632f745c59146102b25780633013ce29146102e257806342842e0e14610300576101cf565b8063095ea7b3116101ad578063095ea7b31461025257806318160ddd1461026e5780632004ffd91461028c57806323b872dd14610296576101cf565b806301ffc9a7146101d457806306fdde0314610204578063081812fc14610222575b600080fd5b6101ee60048036038101906101e991906129e6565b610576565b6040516101fb9190612a2e565b60405180910390f35b61020c6105f0565b6040516102199190612ae2565b60405180910390f35b61023c60048036038101906102379190612b3a565b610682565b6040516102499190612ba8565b60405180910390f35b61026c60048036038101906102679190612bef565b610707565b005b61027661081f565b6040516102839190612c3e565b60405180910390f35b61029461082c565b005b6102b060048036038101906102ab9190612c59565b61093a565b005b6102cc60048036038101906102c79190612bef565b61099a565b6040516102d99190612c3e565b60405180910390f35b6102ea610a3f565b6040516102f79190612ba8565b60405180910390f35b61031a60048036038101906103159190612c59565b610a63565b005b61033660048036038101906103319190612b3a565b610a83565b6040516103439190612c3e565b60405180910390f35b61036660048036038101906103619190612b3a565b610af4565b6040516103739190612ba8565b60405180910390f35b61039660048036038101906103919190612b3a565b610ba6565b005b6103b260048036038101906103ad9190612cac565b610c2c565b6040516103bf9190612c3e565b60405180910390f35b6103d0610ce4565b005b6103da610d6c565b6040516103e79190612ba8565b60405180910390f35b61040a60048036038101906104059190612b3a565b610d96565b005b610414610f36565b005b61041e61106b565b60405161042b9190612ae2565b60405180910390f35b61044e60048036038101906104499190612d05565b6110fd565b005b61046a60048036038101906104659190612e8d565b611113565b6040516104779190612c3e565b60405180910390f35b61049a60048036038101906104959190612b3a565b611159565b005b6104b660048036038101906104b19190612f9e565b61129e565b005b6104d260048036038101906104cd9190612b3a565b611300565b6040516104df9190612ae2565b60405180910390f35b6104f06113a7565b005b61050c60048036038101906105079190612b3a565b61144e565b005b61052860048036038101906105239190612e8d565b61156f565b005b610544600480360381019061053f9190613021565b6115a1565b6040516105519190612a2e565b60405180910390f35b610574600480360381019061056f9190612cac565b611635565b005b60007f780e9d63000000000000000000000000000000000000000000000000000000007bffffffffffffffffffffffffffffffffffffffffffffffffffffffff1916827bffffffffffffffffffffffffffffffffffffffffffffffffffffffff191614806105e957506105e88261172d565b5b9050919050565b6060600080546105ff90613090565b80601f016020809104026020016040519081016040528092919081815260200182805461062b90613090565b80156106785780601f1061064d57610100808354040283529160200191610678565b820191906000526020600020905b81548152906001019060200180831161065b57829003601f168201915b5050505050905090565b600061068d8261180f565b6106cc576040517f08c379a00000000000000000000000000000000000000000000000000000000081526004016106c390613134565b60405180910390fd5b6004600083815260200190815260200160002060009054906101000a900473ffffffffffffffffffffffffffffffffffffffff169050919050565b600061071282610af4565b90508073ffffffffffffffffffffffffffffffffffffffff168373ffffffffffffffffffffffffffffffffffffffff161415610783576040517f08c379a000000000000000000000000000000000000000000000000000000000815260040161077a906131c6565b60405180910390fd5b8073ffffffffffffffffffffffffffffffffffffffff166107a261187b565b73ffffffffffffffffffffffffffffffffffffffff1614806107d157506107d0816107cb61187b565b6115a1565b5b610810576040517f08c379a000000000000000000000000000000000000000000000000000000000815260040161080790613258565b60405180910390fd5b61081a8383611883565b505050565b6000600880549050905090565b7f000000000000000000000000000000000000000000000000000000000000000073ffffffffffffffffffffffffffffffffffffffff166323b872dd33610871610d6c565b600c546040518463ffffffff1660e01b815260040161089293929190613278565b6020604051808303816000875af11580156108b1573d6000803e3d6000fd5b505050506040513d601f19601f820116820180604052508101906108d591906132c4565b610914576040517f08c379a000000000000000000000000000000000000000000000000000000000815260040161090b9061333d565b60405180910390fd5b61092033600b5461193c565b600b60008154809291906109339061338c565b9190505550565b61094b61094561187b565b82611b16565b61098a576040517f08c379a000000000000000000000000000000000000000000000000000000000815260040161098190613447565b60405180910390fd5b610995838383611bf4565b505050565b60006109a583610c2c565b82106109e6576040517f08c379a00000000000000000000000000000000000000000000000000000000081526004016109dd906134d9565b60405180910390fd5b600660008473ffffffffffffffffffffffffffffffffffffffff1673ffffffffffffffffffffffffffffffffffffffff168152602001908152602001600020600083815260200190815260200160002054905092915050565b7f000000000000000000000000000000000000000000000000000000000000000081565b610a7e8383836040518060200160405280600081525061129e565b505050565b6000610a8d61081f565b8210610ace576040517f08c379a0000000000000000000000000000000000000000000000000000000008152600401610ac59061356b565b60405180910390fd5b60088281548110610ae257610ae161358b565b5b90600052602060002001549050919050565b6000806002600084815260200190815260200160002060009054906101000a900473ffffffffffffffffffffffffffffffffffffffff169050600073ffffffffffffffffffffffffffffffffffffffff168173ffffffffffffffffffffffffffffffffffffffff161415610b9d576040517f08c379a0000000000000000000000000000000000000000000000000000000008152600401610b949061362c565b60405180910390fd5b80915050919050565b610bae61187b565b73ffffffffffffffffffffffffffffffffffffffff16610bcc610d6c565b73ffffffffffffffffffffffffffffffffffffffff1614610c22576040517f08c379a0000000000000000000000000000000000000000000000000000000008152600401610c1990613698565b60405180910390fd5b80600c8190555050565b60008073ffffffffffffffffffffffffffffffffffffffff168273ffffffffffffffffffffffffffffffffffffffff161415610c9d576040517f08c379a0000000000000000000000000000000000000000000000000000000008152600401610c949061372a565b60405180910390fd5b600360008373ffffffffffffffffffffffffffffffffffffffff1673ffffffffffffffffffffffffffffffffffffffff168152602001908152602001600020549050919050565b610cec61187b565b73ffffffffffffffffffffffffffffffffffffffff16610d0a610d6c565b73ffffffffffffffffffffffffffffffffffffffff1614610d60576040517f08c379a0000000000000000000000000000000000000000000000000000000008152600401610d5790613698565b60405180910390fd5b610d6a6000611e5b565b565b6000600a60009054906101000a900473ffffffffffffffffffffffffffffffffffffffff16905090565b806000600d60003373ffffffffffffffffffffffffffffffffffffffff1673ffffffffffffffffffffffffffffffffffffffff1681526020019081526020016000206000838152602001908152602001600020541415610e2b576040517f08c379a0000000000000000000000000000000000000000000000000000000008152600401610e2290613796565b60405180910390fd5b60003390506000600d60008373ffffffffffffffffffffffffffffffffffffffff1673ffffffffffffffffffffffffffffffffffffffff168152602001908152602001600020600085815260200190815260200160002081905550610f1d83600e60008473ffffffffffffffffffffffffffffffffffffffff1673ffffffffffffffffffffffffffffffffffffffff168152602001908152602001600020805480602002602001604051908101604052809291908181526020018280548015610f1357602002820191906000526020600020905b815481526020019060010190808311610eff575b505050505061156f565b610f28308285611bf4565b610f3183611f21565b505050565b600033905060005b600e60008373ffffffffffffffffffffffffffffffffffffffff1673ffffffffffffffffffffffffffffffffffffffff16815260200190815260200160002080549050811015611067576000600e60008473ffffffffffffffffffffffffffffffffffffffff1673ffffffffffffffffffffffffffffffffffffffff1681526020019081526020016000208281548110610fdb57610fda61358b565b5b906000526020600020015490506000600d60003373ffffffffffffffffffffffffffffffffffffffff1673ffffffffffffffffffffffffffffffffffffffff168152602001908152602001600020600083815260200190815260200160002054146110535761104981610d96565b61105281611f21565b5b50808061105f9061338c565b915050610f3e565b5050565b60606001805461107a90613090565b80601f01602080910402602001604051908101604052809291908181526020018280546110a690613090565b80156110f35780601f106110c8576101008083540402835291602001916110f3565b820191906000526020600020905b8154815290600101906020018083116110d657829003601f168201915b5050505050905090565b61110f61110861187b565b8383612000565b5050565b600080600090505b8383828151811061112f5761112e61358b565b5b60200260200101511461114f5780806111479061338c565b91505061111b565b8091505092915050565b60003390508073ffffffffffffffffffffffffffffffffffffffff1661117e83610af4565b73ffffffffffffffffffffffffffffffffffffffff16146111d4576040517f08c379a00000000000000000000000000000000000000000000000000000000081526004016111cb90613802565b60405180910390fd5b42600d60008373ffffffffffffffffffffffffffffffffffffffff1673ffffffffffffffffffffffffffffffffffffffff168152602001908152602001600020600084815260200190815260200160002081905550600e60008273ffffffffffffffffffffffffffffffffffffffff1673ffffffffffffffffffffffffffffffffffffffff16815260200190815260200160002082908060018154018082558091505060019003906000526020600020016000909190919091505561129a813084611bf4565b5050565b6112af6112a961187b565b83611b16565b6112ee576040517f08c379a00000000000000000000000000000000000000000000000000000000081526004016112e590613447565b60405180910390fd5b6112fa8484848461216d565b50505050565b606061130b8261180f565b61134a576040517f08c379a000000000000000000000000000000000000000000000000000000000815260040161134190613894565b60405180910390fd5b60006113546121c9565b90506000815111611374576040518060200160405280600081525061139f565b8061137e846121e0565b60405160200161138f9291906138f0565b6040516020818303038152906040525b915050919050565b600033905060006113b782610c2c565b905060005b818110156114495760006113d0848361099a565b90506000600d60003373ffffffffffffffffffffffffffffffffffffffff1673ffffffffffffffffffffffffffffffffffffffff16815260200190815260200160002060008381526020019081526020016000205414156114355761143481611159565b5b5080806114419061338c565b9150506113bc565b505050565b7f000000000000000000000000000000000000000000000000000000000000000073ffffffffffffffffffffffffffffffffffffffff166323b872dd33611493610d6c565b84600c546114a19190613914565b6040518463ffffffff1660e01b81526004016114bf93929190613278565b6020604051808303816000875af11580156114de573d6000803e3d6000fd5b505050506040513d601f19601f8201168201806040525081019061150291906132c4565b611541576040517f08c379a00000000000000000000000000000000000000000000000000000000081526004016115389061333d565b60405180910390fd5b60005b8181101561156b5761155833600b5461193c565b80806115639061338c565b915050611544565b5050565b600061157b8383611113565b90508181815181106115905761158f61358b565b5b602002602001016000815250505050565b6000600560008473ffffffffffffffffffffffffffffffffffffffff1673ffffffffffffffffffffffffffffffffffffffff16815260200190815260200160002060008373ffffffffffffffffffffffffffffffffffffffff1673ffffffffffffffffffffffffffffffffffffffff16815260200190815260200160002060009054906101000a900460ff16905092915050565b61163d61187b565b73ffffffffffffffffffffffffffffffffffffffff1661165b610d6c565b73ffffffffffffffffffffffffffffffffffffffff16146116b1576040517f08c379a00000000000000000000000000000000000000000000000000000000081526004016116a890613698565b60405180910390fd5b600073ffffffffffffffffffffffffffffffffffffffff168173ffffffffffffffffffffffffffffffffffffffff161415611721576040517f08c379a0000000000000000000000000000000000000000000000000000000008152600401611718906139e0565b60405180910390fd5b61172a81611e5b565b50565b60007f80ac58cd000000000000000000000000000000000000000000000000000000007bffffffffffffffffffffffffffffffffffffffffffffffffffffffff1916827bffffffffffffffffffffffffffffffffffffffffffffffffffffffff191614806117f857507f5b5e139f000000000000000000000000000000000000000000000000000000007bffffffffffffffffffffffffffffffffffffffffffffffffffffffff1916827bffffffffffffffffffffffffffffffffffffffffffffffffffffffff1916145b80611808575061180782612341565b5b9050919050565b60008073ffffffffffffffffffffffffffffffffffffffff166002600084815260200190815260200160002060009054906101000a900473ffffffffffffffffffffffffffffffffffffffff1673ffffffffffffffffffffffffffffffffffffffff1614159050919050565b600033905090565b816004600083815260200190815260200160002060006101000a81548173ffffffffffffffffffffffffffffffffffffffff021916908373ffffffffffffffffffffffffffffffffffffffff160217905550808273ffffffffffffffffffffffffffffffffffffffff166118f683610af4565b73ffffffffffffffffffffffffffffffffffffffff167f8c5be1e5ebec7d5bd14f71427d1e84f3dd0314c0f7b2291e5b200ac8c7c3b92560405160405180910390a45050565b600073ffffffffffffffffffffffffffffffffffffffff168273ffffffffffffffffffffffffffffffffffffffff1614156119ac576040517f08c379a00000000000000000000000000000000000000000000000000000000081526004016119a390613a4c565b60405180910390fd5b6119b58161180f565b156119f5576040517f08c379a00000000000000000000000000000000000000000000000000000000081526004016119ec90613ab8565b60405180910390fd5b611a01600083836123ab565b6001600360008473ffffffffffffffffffffffffffffffffffffffff1673ffffffffffffffffffffffffffffffffffffffff1681526020019081526020016000206000828254611a519190613ad8565b92505081905550816002600083815260200190815260200160002060006101000a81548173ffffffffffffffffffffffffffffffffffffffff021916908373ffffffffffffffffffffffffffffffffffffffff160217905550808273ffffffffffffffffffffffffffffffffffffffff16600073ffffffffffffffffffffffffffffffffffffffff167fddf252ad1be2c89b69c2b068fc378daa952ba7f163c4a11628f55a4df523b3ef60405160405180910390a4611b12600083836124bf565b5050565b6000611b218261180f565b611b60576040517f08c379a0000000000000000000000000000000000000000000000000000000008152600401611b5790613ba0565b60405180910390fd5b6000611b6b83610af4565b90508073ffffffffffffffffffffffffffffffffffffffff168473ffffffffffffffffffffffffffffffffffffffff161480611bad5750611bac81856115a1565b5b80611beb57508373ffffffffffffffffffffffffffffffffffffffff16611bd384610682565b73ffffffffffffffffffffffffffffffffffffffff16145b91505092915050565b8273ffffffffffffffffffffffffffffffffffffffff16611c1482610af4565b73ffffffffffffffffffffffffffffffffffffffff1614611c6a576040517f08c379a0000000000000000000000000000000000000000000000000000000008152600401611c6190613c32565b60405180910390fd5b600073ffffffffffffffffffffffffffffffffffffffff168273ffffffffffffffffffffffffffffffffffffffff161415611cda576040517f08c379a0000000000000000000000000000000000000000000000000000000008152600401611cd190613cc4565b60405180910390fd5b611ce58383836123ab565b611cf0600082611883565b6001600360008573ffffffffffffffffffffffffffffffffffffffff1673ffffffffffffffffffffffffffffffffffffffff1681526020019081526020016000206000828254611d409190613ce4565b925050819055506001600360008473ffffffffffffffffffffffffffffffffffffffff1673ffffffffffffffffffffffffffffffffffffffff1681526020019081526020016000206000828254611d979190613ad8565b92505081905550816002600083815260200190815260200160002060006101000a81548173ffffffffffffffffffffffffffffffffffffffff021916908373ffffffffffffffffffffffffffffffffffffffff160217905550808273ffffffffffffffffffffffffffffffffffffffff168473ffffffffffffffffffffffffffffffffffffffff167fddf252ad1be2c89b69c2b068fc378daa952ba7f163c4a11628f55a4df523b3ef60405160405180910390a4611e568383836124bf565b505050565b6000600a60009054906101000a900473ffffffffffffffffffffffffffffffffffffffff16905081600a60006101000a81548173ffffffffffffffffffffffffffffffffffffffff021916908373ffffffffffffffffffffffffffffffffffffffff1602179055508173ffffffffffffffffffffffffffffffffffffffff168173ffffffffffffffffffffffffffffffffffffffff167f8be0079c531659141344cd1fd0a4f28419497f9722a3daafe3b4186f6b6457e060405160405180910390a35050565b60003390506000603c600d60008473ffffffffffffffffffffffffffffffffffffffff1673ffffffffffffffffffffffffffffffffffffffff16815260200190815260200160002060008581526020019081526020016000205442611f869190613ce4565b611f909190613d47565b90503373ffffffffffffffffffffffffffffffffffffffff1681604051611fb690613da9565b60006040518083038185875af1925050503d8060008114611ff3576040519150601f19603f3d011682016040523d82523d6000602084013e611ff8565b606091505b505050505050565b8173ffffffffffffffffffffffffffffffffffffffff168373ffffffffffffffffffffffffffffffffffffffff16141561206f576040517f08c379a000000000000000000000000000000000000000000000000000000000815260040161206690613e0a565b60405180910390fd5b80600560008573ffffffffffffffffffffffffffffffffffffffff1673ffffffffffffffffffffffffffffffffffffffff16815260200190815260200160002060008473ffffffffffffffffffffffffffffffffffffffff1673ffffffffffffffffffffffffffffffffffffffff16815260200190815260200160002060006101000a81548160ff0219169083151502179055508173ffffffffffffffffffffffffffffffffffffffff168373ffffffffffffffffffffffffffffffffffffffff167f17307eab39ab6107e8899845ad3d59bd9653f200f220920489ca2b5937696c31836040516121609190612a2e565b60405180910390a3505050565b612178848484611bf4565b612184848484846124c4565b6121c3576040517f08c379a00000000000000000000000000000000000000000000000000000000081526004016121ba90613e9c565b60405180910390fd5b50505050565b606060405180602001604052806000815250905090565b60606000821415612228576040518060400160405280600181526020017f3000000000000000000000000000000000000000000000000000000000000000815250905061233c565b600082905060005b6000821461225a5780806122439061338c565b915050600a826122539190613d47565b9150612230565b60008167ffffffffffffffff81111561227657612275612d4a565b5b6040519080825280601f01601f1916602001820160405280156122a85781602001600182028036833780820191505090505b5090505b60008514612335576001826122c19190613ce4565b9150600a856122d09190613ebc565b60306122dc9190613ad8565b60f81b8183815181106122f2576122f161358b565b5b60200101907effffffffffffffffffffffffffffffffffffffffffffffffffffffffffffff1916908160001a905350600a8561232e9190613d47565b94506122ac565b8093505050505b919050565b60007f01ffc9a7000000000000000000000000000000000000000000000000000000007bffffffffffffffffffffffffffffffffffffffffffffffffffffffff1916827bffffffffffffffffffffffffffffffffffffffffffffffffffffffff1916149050919050565b6123b683838361264c565b600073ffffffffffffffffffffffffffffffffffffffff168373ffffffffffffffffffffffffffffffffffffffff1614156123f9576123f481612651565b612438565b8173ffffffffffffffffffffffffffffffffffffffff168373ffffffffffffffffffffffffffffffffffffffff161461243757612436838261269a565b5b5b600073ffffffffffffffffffffffffffffffffffffffff168273ffffffffffffffffffffffffffffffffffffffff16141561247b5761247681612807565b6124ba565b8273ffffffffffffffffffffffffffffffffffffffff168273ffffffffffffffffffffffffffffffffffffffff16146124b9576124b882826128d8565b5b5b505050565b505050565b60006124e58473ffffffffffffffffffffffffffffffffffffffff16612957565b1561263f578373ffffffffffffffffffffffffffffffffffffffff1663150b7a0261250e61187b565b8786866040518563ffffffff1660e01b81526004016125309493929190613f42565b6020604051808303816000875af192505050801561256c57506040513d601f19601f820116820180604052508101906125699190613fa3565b60015b6125ef573d806000811461259c576040519150601f19603f3d011682016040523d82523d6000602084013e6125a1565b606091505b506000815114156125e7576040517f08c379a00000000000000000000000000000000000000000000000000000000081526004016125de90613e9c565b60405180910390fd5b805181602001fd5b63150b7a0260e01b7bffffffffffffffffffffffffffffffffffffffffffffffffffffffff1916817bffffffffffffffffffffffffffffffffffffffffffffffffffffffff191614915050612644565b600190505b949350505050565b505050565b6008805490506009600083815260200190815260200160002081905550600881908060018154018082558091505060019003906000526020600020016000909190919091505550565b600060016126a784610c2c565b6126b19190613ce4565b9050600060076000848152602001908152602001600020549050818114612796576000600660008673ffffffffffffffffffffffffffffffffffffffff1673ffffffffffffffffffffffffffffffffffffffff168152602001908152602001600020600084815260200190815260200160002054905080600660008773ffffffffffffffffffffffffffffffffffffffff1673ffffffffffffffffffffffffffffffffffffffff168152602001908152602001600020600084815260200190815260200160002081905550816007600083815260200190815260200160002081905550505b6007600084815260200190815260200160002060009055600660008573ffffffffffffffffffffffffffffffffffffffff1673ffffffffffffffffffffffffffffffffffffffff16815260200190815260200160002060008381526020019081526020016000206000905550505050565b6000600160088054905061281b9190613ce4565b905060006009600084815260200190815260200160002054905060006008838154811061284b5761284a61358b565b5b90600052602060002001549050806008838154811061286d5761286c61358b565b5b9060005260206000200181905550816009600083815260200190815260200160002081905550600960008581526020019081526020016000206000905560088054806128bc576128bb613fd0565b5b6001900381819060005260206000200160009055905550505050565b60006128e383610c2c565b905081600660008573ffffffffffffffffffffffffffffffffffffffff1673ffffffffffffffffffffffffffffffffffffffff168152602001908152602001600020600083815260200190815260200160002081905550806007600084815260200190815260200160002081905550505050565b6000808273ffffffffffffffffffffffffffffffffffffffff163b119050919050565b6000604051905090565b600080fd5b600080fd5b60007fffffffff0000000000000000000000000000000000000000000000000000000082169050919050565b6129c38161298e565b81146129ce57600080fd5b50565b6000813590506129e0816129ba565b92915050565b6000602082840312156129fc576129fb612984565b5b6000612a0a848285016129d1565b91505092915050565b60008115159050919050565b612a2881612a13565b82525050565b6000602082019050612a436000830184612a1f565b92915050565b600081519050919050565b600082825260208201905092915050565b60005b83811015612a83578082015181840152602081019050612a68565b83811115612a92576000848401525b50505050565b6000601f19601f8301169050919050565b6000612ab482612a49565b612abe8185612a54565b9350612ace818560208601612a65565b612ad781612a98565b840191505092915050565b60006020820190508181036000830152612afc8184612aa9565b905092915050565b6000819050919050565b612b1781612b04565b8114612b2257600080fd5b50565b600081359050612b3481612b0e565b92915050565b600060208284031215612b5057612b4f612984565b5b6000612b5e84828501612b25565b91505092915050565b600073ffffffffffffffffffffffffffffffffffffffff82169050919050565b6000612b9282612b67565b9050919050565b612ba281612b87565b82525050565b6000602082019050612bbd6000830184612b99565b92915050565b612bcc81612b87565b8114612bd757600080fd5b50565b600081359050612be981612bc3565b92915050565b60008060408385031215612c0657612c05612984565b5b6000612c1485828601612bda565b9250506020612c2585828601612b25565b9150509250929050565b612c3881612b04565b82525050565b6000602082019050612c536000830184612c2f565b92915050565b600080600060608486031215612c7257612c71612984565b5b6000612c8086828701612bda565b9350506020612c9186828701612bda565b9250506040612ca286828701612b25565b9150509250925092565b600060208284031215612cc257612cc1612984565b5b6000612cd084828501612bda565b91505092915050565b612ce281612a13565b8114612ced57600080fd5b50565b600081359050612cff81612cd9565b92915050565b60008060408385031215612d1c57612d1b612984565b5b6000612d2a85828601612bda565b9250506020612d3b85828601612cf0565b9150509250929050565b600080fd5b7f4e487b7100000000000000000000000000000000000000000000000000000000600052604160045260246000fd5b612d8282612a98565b810181811067ffffffffffffffff82111715612da157612da0612d4a565b5b80604052505050565b6000612db461297a565b9050612dc08282612d79565b919050565b600067ffffffffffffffff821115612de057612ddf612d4a565b5b602082029050602081019050919050565b600080fd5b6000612e09612e0484612dc5565b612daa565b90508083825260208201905060208402830185811115612e2c57612e2b612df1565b5b835b81811015612e555780612e418882612b25565b845260208401935050602081019050612e2e565b5050509392505050565b600082601f830112612e7457612e73612d45565b5b8135612e84848260208601612df6565b91505092915050565b60008060408385031215612ea457612ea3612984565b5b6000612eb285828601612b25565b925050602083013567ffffffffffffffff811115612ed357612ed2612989565b5b612edf85828601612e5f565b9150509250929050565b600080fd5b600067ffffffffffffffff821115612f0957612f08612d4a565b5b612f1282612a98565b9050602081019050919050565b82818337600083830152505050565b6000612f41612f3c84612eee565b612daa565b905082815260208101848484011115612f5d57612f5c612ee9565b5b612f68848285612f1f565b509392505050565b600082601f830112612f8557612f84612d45565b5b8135612f95848260208601612f2e565b91505092915050565b60008060008060808587031215612fb857612fb7612984565b5b6000612fc687828801612bda565b9450506020612fd787828801612bda565b9350506040612fe887828801612b25565b925050606085013567ffffffffffffffff81111561300957613008612989565b5b61301587828801612f70565b91505092959194509250565b6000806040838503121561303857613037612984565b5b600061304685828601612bda565b925050602061305785828601612bda565b9150509250929050565b7f4e487b7100000000000000000000000000000000000000000000000000000000600052602260045260246000fd5b600060028204905060018216806130a857607f821691505b602082108114156130bc576130bb613061565b5b50919050565b7f4552433732313a20617070726f76656420717565727920666f72206e6f6e657860008201527f697374656e7420746f6b656e0000000000000000000000000000000000000000602082015250565b600061311e602c83612a54565b9150613129826130c2565b604082019050919050565b6000602082019050818103600083015261314d81613111565b9050919050565b7f4552433732313a20617070726f76616c20746f2063757272656e74206f776e6560008201527f7200000000000000000000000000000000000000000000000000000000000000602082015250565b60006131b0602183612a54565b91506131bb82613154565b604082019050919050565b600060208201905081810360008301526131df816131a3565b9050919050565b7f4552433732313a20617070726f76652063616c6c6572206973206e6f74206f7760008201527f6e6572206e6f7220617070726f76656420666f7220616c6c0000000000000000602082015250565b6000613242603883612a54565b915061324d826131e6565b604082019050919050565b6000602082019050818103600083015261327181613235565b9050919050565b600060608201905061328d6000830186612b99565b61329a6020830185612b99565b6132a76040830184612c2f565b949350505050565b6000815190506132be81612cd9565b92915050565b6000602082840312156132da576132d9612984565b5b60006132e8848285016132af565b91505092915050565b7f5472616e73666572206661696c65640000000000000000000000000000000000600082015250565b6000613327600f83612a54565b9150613332826132f1565b602082019050919050565b600060208201905081810360008301526133568161331a565b9050919050565b7f4e487b7100000000000000000000000000000000000000000000000000000000600052601160045260246000fd5b600061339782612b04565b91507fffffffffffffffffffffffffffffffffffffffffffffffffffffffffffffffff8214156133ca576133c961335d565b5b600182019050919050565b7f4552433732313a207472616e736665722063616c6c6572206973206e6f74206f60008201527f776e6572206e6f7220617070726f766564000000000000000000000000000000602082015250565b6000613431603183612a54565b915061343c826133d5565b604082019050919050565b6000602082019050818103600083015261346081613424565b9050919050565b7f455243373231456e756d657261626c653a206f776e657220696e646578206f7560008201527f74206f6620626f756e6473000000000000000000000000000000000000000000602082015250565b60006134c3602b83612a54565b91506134ce82613467565b604082019050919050565b600060208201905081810360008301526134f2816134b6565b9050919050565b7f455243373231456e756d657261626c653a20676c6f62616c20696e646578206f60008201527f7574206f6620626f756e64730000000000000000000000000000000000000000602082015250565b6000613555602c83612a54565b9150613560826134f9565b604082019050919050565b6000602082019050818103600083015261358481613548565b9050919050565b7f4e487b7100000000000000000000000000000000000000000000000000000000600052603260045260246000fd5b7f4552433732313a206f776e657220717565727920666f72206e6f6e657869737460008201527f656e7420746f6b656e0000000000000000000000000000000000000000000000602082015250565b6000613616602983612a54565b9150613621826135ba565b604082019050919050565b6000602082019050818103600083015261364581613609565b9050919050565b7f4f776e61626c653a2063616c6c6572206973206e6f7420746865206f776e6572600082015250565b6000613682602083612a54565b915061368d8261364c565b602082019050919050565b600060208201905081810360008301526136b181613675565b9050919050565b7f4552433732313a2062616c616e636520717565727920666f7220746865207a6560008201527f726f206164647265737300000000000000000000000000000000000000000000602082015250565b6000613714602a83612a54565b915061371f826136b8565b604082019050919050565b6000602082019050818103600083015261374381613707565b9050919050565b7f546f6b656e206973206e6f74206c6f636b656421000000000000000000000000600082015250565b6000613780601483612a54565b915061378b8261374a565b602082019050919050565b600060208201905081810360008301526137af81613773565b9050919050565b7f546f6b656e206973206e6f74206f776e65642062792073656e64657221000000600082015250565b60006137ec601d83612a54565b91506137f7826137b6565b602082019050919050565b6000602082019050818103600083015261381b816137df565b9050919050565b7f4552433732314d657461646174613a2055524920717565727920666f72206e6f60008201527f6e6578697374656e7420746f6b656e0000000000000000000000000000000000602082015250565b600061387e602f83612a54565b915061388982613822565b604082019050919050565b600060208201905081810360008301526138ad81613871565b9050919050565b600081905092915050565b60006138ca82612a49565b6138d481856138b4565b93506138e4818560208601612a65565b80840191505092915050565b60006138fc82856138bf565b915061390882846138bf565b91508190509392505050565b600061391f82612b04565b915061392a83612b04565b9250817fffffffffffffffffffffffffffffffffffffffffffffffffffffffffffffffff04831182151516156139635761396261335d565b5b828202905092915050565b7f4f776e61626c653a206e6577206f776e657220697320746865207a65726f206160008201527f6464726573730000000000000000000000000000000000000000000000000000602082015250565b60006139ca602683612a54565b91506139d58261396e565b604082019050919050565b600060208201905081810360008301526139f9816139bd565b9050919050565b7f4552433732313a206d696e7420746f20746865207a65726f2061646472657373600082015250565b6000613a36602083612a54565b9150613a4182613a00565b602082019050919050565b60006020820190508181036000830152613a6581613a29565b9050919050565b7f4552433732313a20746f6b656e20616c7265616479206d696e74656400000000600082015250565b6000613aa2601c83612a54565b9150613aad82613a6c565b602082019050919050565b60006020820190508181036000830152613ad181613a95565b9050919050565b6000613ae382612b04565b9150613aee83612b04565b9250827fffffffffffffffffffffffffffffffffffffffffffffffffffffffffffffffff03821115613b2357613b2261335d565b5b828201905092915050565b7f4552433732313a206f70657261746f7220717565727920666f72206e6f6e657860008201527f697374656e7420746f6b656e0000000000000000000000000000000000000000602082015250565b6000613b8a602c83612a54565b9150613b9582613b2e565b604082019050919050565b60006020820190508181036000830152613bb981613b7d565b9050919050565b7f4552433732313a207472616e736665722066726f6d20696e636f72726563742060008201527f6f776e6572000000000000000000000000000000000000000000000000000000602082015250565b6000613c1c602583612a54565b9150613c2782613bc0565b604082019050919050565b60006020820190508181036000830152613c4b81613c0f565b9050919050565b7f4552433732313a207472616e7366657220746f20746865207a65726f2061646460008201527f7265737300000000000000000000000000000000000000000000000000000000602082015250565b6000613cae602483612a54565b9150613cb982613c52565b604082019050919050565b60006020820190508181036000830152613cdd81613ca1565b9050919050565b6000613cef82612b04565b9150613cfa83612b04565b925082821015613d0d57613d0c61335d565b5b828203905092915050565b7f4e487b7100000000000000000000000000000000000000000000000000000000600052601260045260246000fd5b6000613d5282612b04565b9150613d5d83612b04565b925082613d6d57613d6c613d18565b5b828204905092915050565b600081905092915050565b50565b6000613d93600083613d78565b9150613d9e82613d83565b600082019050919050565b6000613db482613d86565b9150819050919050565b7f4552433732313a20617070726f766520746f2063616c6c657200000000000000600082015250565b6000613df4601983612a54565b9150613dff82613dbe565b602082019050919050565b60006020820190508181036000830152613e2381613de7565b9050919050565b7f4552433732313a207472616e7366657220746f206e6f6e20455243373231526560008201527f63656976657220696d706c656d656e7465720000000000000000000000000000602082015250565b6000613e86603283612a54565b9150613e9182613e2a565b604082019050919050565b60006020820190508181036000830152613eb581613e79565b9050919050565b6000613ec782612b04565b9150613ed283612b04565b925082613ee257613ee1613d18565b5b828206905092915050565b600081519050919050565b600082825260208201905092915050565b6000613f1482613eed565b613f1e8185613ef8565b9350613f2e818560208601612a65565b613f3781612a98565b840191505092915050565b6000608082019050613f576000830187612b99565b613f646020830186612b99565b613f716040830185612c2f565b8181036060830152613f838184613f09565b905095945050505050565b600081519050613f9d816129ba565b92915050565b600060208284031215613fb957613fb8612984565b5b6000613fc784828501613f8e565b91505092915050565b7f4e487b7100000000000000000000000000000000000000000000000000000000600052603160045260246000fdfea2646970667358221220b57148a1eeec4df062e05a3e15dacd4053826e859fdd529939f0de7b98ebe60d64736f6c634300080a0033",
  "immutableReferences": {
    "2869": [
      {
        "length": 32,
        "start": 2094
      },
      {
        "length": 32,
        "start": 2625
      },
      {
        "length": 32,
        "start": 5200
      }
    ]
  },
  "source": "pragma solidity >=0.4.22 <0.9.0;\r\n\r\nimport './Windows.sol';\r\n\r\ncontract Staking is Windows {\r\n    mapping(address => mapping(uint256 => uint256)) lockedTokens;\r\n\r\n    mapping(address => uint256[]) lockedTokenIds;\r\n\r\n    constructor(address tokenAddress) Windows(tokenAddress) {}\r\n\r\n    modifier tokenIsLocked(uint256 tokenId) {\r\n        require(lockedTokens[msg.sender][tokenId] != 0, 'Token is not locked!');\r\n        _;\r\n    }\r\n\r\n    //Deposit a token by ID\r\n    function deposit(uint256 tokenId) public {\r\n        address senderAddress = msg.sender;\r\n        require(\r\n            ownerOf(tokenId) == senderAddress,\r\n            'Token is not owned by sender!'\r\n        );\r\n        lockedTokens[senderAddress][tokenId] = block.timestamp;\r\n        lockedTokenIds[senderAddress].push(tokenId);\r\n        _transfer(senderAddress, address(this), tokenId);\r\n    }\r\n\r\n    //Retrieve a token by ID\r\n    function retrieve(uint256 tokenId) public tokenIsLocked(tokenId) {\r\n        address senderAddress = msg.sender;\r\n        lockedTokens[senderAddress][tokenId] = 0;\r\n        removeByValue(tokenId, lockedTokenIds[senderAddress]);\r\n        _transfer(address(this), senderAddress, tokenId);\r\n        getRewards(tokenId);\r\n    }\r\n\r\n    //Get reward by token ID\r\n    function getRewards(uint256 tokenId) internal {\r\n        address senderAddress = msg.sender;\r\n        uint256 reward = (block.timestamp -\r\n            lockedTokens[senderAddress][tokenId]) / 60;\r\n        msg.sender.call{value: reward}('');\r\n    }\r\n\r\n    function depositAll() public {\r\n        address senderAddress = msg.sender;\r\n        uint senderBalance = balanceOf(senderAddress);\r\n        for (uint256 i = 0; i < senderBalance; i++) {\r\n            uint256 tokenId = tokenOfOwnerByIndex(senderAddress, i);\r\n\r\n            if (lockedTokens[msg.sender][tokenId] == 0) deposit(tokenId);\r\n        }\r\n    }\r\n\r\n    function retrieveAll() public {\r\n        address senderAddress = msg.sender;\r\n        for (uint256 i = 0; i < lockedTokenIds[senderAddress].length; i++) {\r\n            uint256 tokenId = lockedTokenIds[senderAddress][i];\r\n            if (lockedTokens[msg.sender][tokenId] != 0) {\r\n                retrieve(tokenId);\r\n                getRewards(tokenId);\r\n            }\r\n        }\r\n    }\r\n\r\n    function removeByValue(uint256 value, uint256[] memory values) public {\r\n        uint256 i = find(value, values);\r\n        delete values[i];\r\n    }\r\n\r\n    function find(uint256 value, uint256[] memory values)\r\n        public\r\n        returns (uint256)\r\n    {\r\n        uint256 i = 0;\r\n        while (values[i] != value) {\r\n            i++;\r\n        }\r\n        return i;\r\n    }\r\n}",
  "sourcePath": "C:\\Users\\PC\\Documents\\VSCode\\Solidity\\contracts\\WindowsStaking.sol",
  "compiler": {
    "name": "solc",
    "version": "0.8.10+commit.fc410830.Emscripten.clang"
  },
  "schemaVersion": "3.4.7",
  "updatedAt": "2022-06-09T00:50:09.555Z",
  "networkType": "ethereum",
  "devdoc": {
    "kind": "dev",
    "methods": {
      "approve(address,uint256)": {
        "details": "See {IERC721-approve}."
      },
      "balanceOf(address)": {
        "details": "See {IERC721-balanceOf}."
      },
      "getApproved(uint256)": {
        "details": "See {IERC721-getApproved}."
      },
      "isApprovedForAll(address,address)": {
        "details": "See {IERC721-isApprovedForAll}."
      },
      "name()": {
        "details": "See {IERC721Metadata-name}."
      },
      "owner()": {
        "details": "Returns the address of the current owner."
      },
      "ownerOf(uint256)": {
        "details": "See {IERC721-ownerOf}."
      },
      "renounceOwnership()": {
        "details": "Leaves the contract without owner. It will not be possible to call `onlyOwner` functions anymore. Can only be called by the current owner. NOTE: Renouncing ownership will leave the contract without an owner, thereby removing any functionality that is only available to the owner."
      },
      "safeTransferFrom(address,address,uint256)": {
        "details": "See {IERC721-safeTransferFrom}."
      },
      "safeTransferFrom(address,address,uint256,bytes)": {
        "details": "See {IERC721-safeTransferFrom}."
      },
      "setApprovalForAll(address,bool)": {
        "details": "See {IERC721-setApprovalForAll}."
      },
      "supportsInterface(bytes4)": {
        "details": "See {IERC165-supportsInterface}."
      },
      "symbol()": {
        "details": "See {IERC721Metadata-symbol}."
      },
      "tokenByIndex(uint256)": {
        "details": "See {IERC721Enumerable-tokenByIndex}."
      },
      "tokenOfOwnerByIndex(address,uint256)": {
        "details": "See {IERC721Enumerable-tokenOfOwnerByIndex}."
      },
      "tokenURI(uint256)": {
        "details": "See {IERC721Metadata-tokenURI}."
      },
      "totalSupply()": {
        "details": "See {IERC721Enumerable-totalSupply}."
      },
      "transferFrom(address,address,uint256)": {
        "details": "See {IERC721-transferFrom}."
      },
      "transferOwnership(address)": {
        "details": "Transfers ownership of the contract to a new account (`newOwner`). Can only be called by the current owner."
      }
    },
    "version": 1
  },
  "userdoc": {
    "kind": "user",
    "methods": {},
    "version": 1
  }
}