{
  "contractName": "Staking",
  "abi": [
    {
      "inputs": [
        {
          "internalType": "address",
          "name": "tokenAddress",
          "type": "address"
        }
      ],
      "stateMutability": "nonpayable",
      "type": "constructor"
    },
    {
      "anonymous": false,
      "inputs": [
        {
          "indexed": true,
          "internalType": "address",
          "name": "owner",
          "type": "address"
        },
        {
          "indexed": true,
          "internalType": "address",
          "name": "approved",
          "type": "address"
        },
        {
          "indexed": true,
          "internalType": "uint256",
          "name": "tokenId",
          "type": "uint256"
        }
      ],
      "name": "Approval",
      "type": "event"
    },
    {
      "anonymous": false,
      "inputs": [
        {
          "indexed": true,
          "internalType": "address",
          "name": "owner",
          "type": "address"
        },
        {
          "indexed": true,
          "internalType": "address",
          "name": "operator",
          "type": "address"
        },
        {
          "indexed": false,
          "internalType": "bool",
          "name": "approved",
          "type": "bool"
        }
      ],
      "name": "ApprovalForAll",
      "type": "event"
    },
    {
      "anonymous": false,
      "inputs": [
        {
          "indexed": true,
          "internalType": "address",
          "name": "previousOwner",
          "type": "address"
        },
        {
          "indexed": true,
          "internalType": "address",
          "name": "newOwner",
          "type": "address"
        }
      ],
      "name": "OwnershipTransferred",
      "type": "event"
    },
    {
      "anonymous": false,
      "inputs": [
        {
          "indexed": true,
          "internalType": "address",
          "name": "from",
          "type": "address"
        },
        {
          "indexed": true,
          "internalType": "address",
          "name": "to",
          "type": "address"
        },
        {
          "indexed": true,
          "internalType": "uint256",
          "name": "tokenId",
          "type": "uint256"
        }
      ],
      "name": "Transfer",
      "type": "event"
    },
    {
      "inputs": [
        {
          "internalType": "address",
          "name": "to",
          "type": "address"
        },
        {
          "internalType": "uint256",
          "name": "tokenId",
          "type": "uint256"
        }
      ],
      "name": "approve",
      "outputs": [],
      "stateMutability": "nonpayable",
      "type": "function"
    },
    {
      "inputs": [
        {
          "internalType": "address",
          "name": "owner",
          "type": "address"
        }
      ],
      "name": "balanceOf",
      "outputs": [
        {
          "internalType": "uint256",
          "name": "",
          "type": "uint256"
        }
      ],
      "stateMutability": "view",
      "type": "function",
      "constant": true
    },
    {
      "inputs": [
        {
          "internalType": "uint256",
          "name": "tokenId",
          "type": "uint256"
        }
      ],
      "name": "getApproved",
      "outputs": [
        {
          "internalType": "address",
          "name": "",
          "type": "address"
        }
      ],
      "stateMutability": "view",
      "type": "function",
      "constant": true
    },
    {
      "inputs": [
        {
          "internalType": "address",
          "name": "owner",
          "type": "address"
        },
        {
          "internalType": "address",
          "name": "operator",
          "type": "address"
        }
      ],
      "name": "isApprovedForAll",
      "outputs": [
        {
          "internalType": "bool",
          "name": "",
          "type": "bool"
        }
      ],
      "stateMutability": "view",
      "type": "function",
      "constant": true
    },
    {
      "inputs": [
        {
          "internalType": "uint256",
          "name": "amount",
          "type": "uint256"
        }
      ],
      "name": "mintMultipleTokens",
      "outputs": [],
      "stateMutability": "nonpayable",
      "type": "function"
    },
    {
      "inputs": [],
      "name": "mintToken",
      "outputs": [],
      "stateMutability": "nonpayable",
      "type": "function"
    },
    {
      "inputs": [],
      "name": "name",
      "outputs": [
        {
          "internalType": "string",
          "name": "",
          "type": "string"
        }
      ],
      "stateMutability": "view",
      "type": "function",
      "constant": true
    },
    {
      "inputs": [],
      "name": "owner",
      "outputs": [
        {
          "internalType": "address",
          "name": "",
          "type": "address"
        }
      ],
      "stateMutability": "view",
      "type": "function",
      "constant": true
    },
    {
      "inputs": [
        {
          "internalType": "uint256",
          "name": "tokenId",
          "type": "uint256"
        }
      ],
      "name": "ownerOf",
      "outputs": [
        {
          "internalType": "address",
          "name": "",
          "type": "address"
        }
      ],
      "stateMutability": "view",
      "type": "function",
      "constant": true
    },
    {
      "inputs": [],
      "name": "paymentToken",
      "outputs": [
        {
          "internalType": "address",
          "name": "",
          "type": "address"
        }
      ],
      "stateMutability": "view",
      "type": "function",
      "constant": true
    },
    {
      "inputs": [],
      "name": "renounceOwnership",
      "outputs": [],
      "stateMutability": "nonpayable",
      "type": "function"
    },
    {
      "inputs": [
        {
          "internalType": "address",
          "name": "from",
          "type": "address"
        },
        {
          "internalType": "address",
          "name": "to",
          "type": "address"
        },
        {
          "internalType": "uint256",
          "name": "tokenId",
          "type": "uint256"
        }
      ],
      "name": "safeTransferFrom",
      "outputs": [],
      "stateMutability": "nonpayable",
      "type": "function"
    },
    {
      "inputs": [
        {
          "internalType": "address",
          "name": "from",
          "type": "address"
        },
        {
          "internalType": "address",
          "name": "to",
          "type": "address"
        },
        {
          "internalType": "uint256",
          "name": "tokenId",
          "type": "uint256"
        },
        {
          "internalType": "bytes",
          "name": "_data",
          "type": "bytes"
        }
      ],
      "name": "safeTransferFrom",
      "outputs": [],
      "stateMutability": "nonpayable",
      "type": "function"
    },
    {
      "inputs": [
        {
          "internalType": "address",
          "name": "operator",
          "type": "address"
        },
        {
          "internalType": "bool",
          "name": "approved",
          "type": "bool"
        }
      ],
      "name": "setApprovalForAll",
      "outputs": [],
      "stateMutability": "nonpayable",
      "type": "function"
    },
    {
      "inputs": [
        {
          "internalType": "uint256",
          "name": "newTokenPrice",
          "type": "uint256"
        }
      ],
      "name": "setTokenPrice",
      "outputs": [],
      "stateMutability": "nonpayable",
      "type": "function"
    },
    {
      "inputs": [
        {
          "internalType": "bytes4",
          "name": "interfaceId",
          "type": "bytes4"
        }
      ],
      "name": "supportsInterface",
      "outputs": [
        {
          "internalType": "bool",
          "name": "",
          "type": "bool"
        }
      ],
      "stateMutability": "view",
      "type": "function",
      "constant": true
    },
    {
      "inputs": [],
      "name": "symbol",
      "outputs": [
        {
          "internalType": "string",
          "name": "",
          "type": "string"
        }
      ],
      "stateMutability": "view",
      "type": "function",
      "constant": true
    },
    {
      "inputs": [
        {
          "internalType": "uint256",
          "name": "index",
          "type": "uint256"
        }
      ],
      "name": "tokenByIndex",
      "outputs": [
        {
          "internalType": "uint256",
          "name": "",
          "type": "uint256"
        }
      ],
      "stateMutability": "view",
      "type": "function",
      "constant": true
    },
    {
      "inputs": [
        {
          "internalType": "address",
          "name": "owner",
          "type": "address"
        },
        {
          "internalType": "uint256",
          "name": "index",
          "type": "uint256"
        }
      ],
      "name": "tokenOfOwnerByIndex",
      "outputs": [
        {
          "internalType": "uint256",
          "name": "",
          "type": "uint256"
        }
      ],
      "stateMutability": "view",
      "type": "function",
      "constant": true
    },
    {
      "inputs": [
        {
          "internalType": "uint256",
          "name": "tokenId",
          "type": "uint256"
        }
      ],
      "name": "tokenURI",
      "outputs": [
        {
          "internalType": "string",
          "name": "",
          "type": "string"
        }
      ],
      "stateMutability": "view",
      "type": "function",
      "constant": true
    },
    {
      "inputs": [],
      "name": "totalSupply",
      "outputs": [
        {
          "internalType": "uint256",
          "name": "",
          "type": "uint256"
        }
      ],
      "stateMutability": "view",
      "type": "function",
      "constant": true
    },
    {
      "inputs": [
        {
          "internalType": "address",
          "name": "from",
          "type": "address"
        },
        {
          "internalType": "address",
          "name": "to",
          "type": "address"
        },
        {
          "internalType": "uint256",
          "name": "tokenId",
          "type": "uint256"
        }
      ],
      "name": "transferFrom",
      "outputs": [],
      "stateMutability": "nonpayable",
      "type": "function"
    },
    {
      "inputs": [
        {
          "internalType": "address",
          "name": "newOwner",
          "type": "address"
        }
      ],
      "name": "transferOwnership",
      "outputs": [],
      "stateMutability": "nonpayable",
      "type": "function"
    },
    {
      "inputs": [
        {
          "internalType": "uint256",
          "name": "tokenId",
          "type": "uint256"
        }
      ],
      "name": "deposit",
      "outputs": [],
      "stateMutability": "nonpayable",
      "type": "function"
    },
    {
      "inputs": [
        {
          "internalType": "uint256",
          "name": "tokenId",
          "type": "uint256"
        }
      ],
      "name": "retrieve",
      "outputs": [],
      "stateMutability": "nonpayable",
      "type": "function"
    },
    {
      "inputs": [],
      "name": "depositAll",
      "outputs": [],
      "stateMutability": "nonpayable",
      "type": "function"
    },
    {
      "inputs": [],
      "name": "retrieveAll",
      "outputs": [],
      "stateMutability": "nonpayable",
      "type": "function"
    },
    {
      "inputs": [
        {
          "internalType": "uint256",
          "name": "value",
          "type": "uint256"
        },
        {
          "internalType": "uint256[]",
          "name": "values",
          "type": "uint256[]"
        }
      ],
      "name": "removeByValue",
      "outputs": [],
      "stateMutability": "nonpayable",
      "type": "function"
    },
    {
      "inputs": [
        {
          "internalType": "uint256",
          "name": "value",
          "type": "uint256"
        },
        {
          "internalType": "uint256[]",
          "name": "values",
          "type": "uint256[]"
        }
      ],
      "name": "find",
      "outputs": [
        {
          "internalType": "uint256",
          "name": "",
          "type": "uint256"
        }
      ],
      "stateMutability": "nonpayable",
      "type": "function"
    }
  ],
  "bytecode": "0x60a06040526000600b55600a600c553480156200001b57600080fd5b50604051620045a2380380620045a2833981810160405281019062000041919062000326565b806040518060400160405280600781526020017f57696e646f7773000000000000000000000000000000000000000000000000008152506040518060400160405280600381526020017f574e4400000000000000000000000000000000000000000000000000000000008152508160009080519060200190620000c69291906200020c565b508060019080519060200190620000df9291906200020c565b50505062000102620000f66200013e60201b60201c565b6200014660201b60201c565b8073ffffffffffffffffffffffffffffffffffffffff1660808173ffffffffffffffffffffffffffffffffffffffff16815250505050620003bd565b600033905090565b6000600a60009054906101000a900473ffffffffffffffffffffffffffffffffffffffff16905081600a60006101000a81548173ffffffffffffffffffffffffffffffffffffffff021916908373ffffffffffffffffffffffffffffffffffffffff1602179055508173ffffffffffffffffffffffffffffffffffffffff168173ffffffffffffffffffffffffffffffffffffffff167f8be0079c531659141344cd1fd0a4f28419497f9722a3daafe3b4186f6b6457e060405160405180910390a35050565b8280546200021a9062000387565b90600052602060002090601f0160209004810192826200023e57600085556200028a565b82601f106200025957805160ff19168380011785556200028a565b828001600101855582156200028a579182015b82811115620002895782518255916020019190600101906200026c565b5b5090506200029991906200029d565b5090565b5b80821115620002b85760008160009055506001016200029e565b5090565b600080fd5b600073ffffffffffffffffffffffffffffffffffffffff82169050919050565b6000620002ee82620002c1565b9050919050565b6200030081620002e1565b81146200030c57600080fd5b50565b6000815190506200032081620002f5565b92915050565b6000602082840312156200033f576200033e620002bc565b5b60006200034f848285016200030f565b91505092915050565b7f4e487b7100000000000000000000000000000000000000000000000000000000600052602260045260246000fd5b60006002820490506001821680620003a057607f821691505b60208210811415620003b757620003b662000358565b5b50919050565b6080516141b4620003ee6000396000818161082e01528181610a4101528181611450015261153a01526141b46000f3fe608060405234801561001057600080fd5b50600436106101cf5760003560e01c8063715018a611610104578063b6b55f25116100a2578063e1dffcb911610071578063e1dffcb9146104f2578063e8e135531461050e578063e985e9c51461052a578063f2fde38b1461055a576101cf565b8063b6b55f2514610480578063b88d4fde1461049c578063c87b56dd146104b8578063de5f6268146104e8576101cf565b806395607ced116100de57806395607ced1461040c57806395d89b4114610416578063a22cb46514610434578063ade3b1ad14610450576101cf565b8063715018a6146103c85780638da5cb5b146103d25780638f88708b146103f0576101cf565b80632f745c59116101715780634f6ccce71161014b5780634f6ccce71461031c5780636352211e1461034c5780636a61e5fc1461037c57806370a0823114610398576101cf565b80632f745c59146102b25780633013ce29146102e257806342842e0e14610300576101cf565b8063095ea7b3116101ad578063095ea7b31461025257806318160ddd1461026e5780632004ffd91461028c57806323b872dd14610296576101cf565b806301ffc9a7146101d457806306fdde0314610204578063081812fc14610222575b600080fd5b6101ee60048036038101906101e99190612ad0565b610576565b6040516101fb9190612b18565b60405180910390f35b61020c6105f0565b6040516102199190612bcc565b60405180910390f35b61023c60048036038101906102379190612c24565b610682565b6040516102499190612c92565b60405180910390f35b61026c60048036038101906102679190612cd9565b610707565b005b61027661081f565b6040516102839190612d28565b60405180910390f35b61029461082c565b005b6102b060048036038101906102ab9190612d43565b61093a565b005b6102cc60048036038101906102c79190612cd9565b61099a565b6040516102d99190612d28565b60405180910390f35b6102ea610a3f565b6040516102f79190612c92565b60405180910390f35b61031a60048036038101906103159190612d43565b610a63565b005b61033660048036038101906103319190612c24565b610a83565b6040516103439190612d28565b60405180910390f35b61036660048036038101906103619190612c24565b610af4565b6040516103739190612c92565b60405180910390f35b61039660048036038101906103919190612c24565b610ba6565b005b6103b260048036038101906103ad9190612d96565b610c2c565b6040516103bf9190612d28565b60405180910390f35b6103d0610ce4565b005b6103da610d6c565b6040516103e79190612c92565b60405180910390f35b61040a60048036038101906104059190612c24565b610d96565b005b610414610f36565b005b61041e61106b565b60405161042b9190612bcc565b60405180910390f35b61044e60048036038101906104499190612def565b6110fd565b005b61046a60048036038101906104659190612f77565b611113565b6040516104779190612d28565b60405180910390f35b61049a60048036038101906104959190612c24565b611159565b005b6104b660048036038101906104b19190613088565b61129e565b005b6104d260048036038101906104cd9190612c24565b611300565b6040516104df9190612bcc565b60405180910390f35b6104f06113a7565b005b61050c60048036038101906105079190612c24565b61144e565b005b61052860048036038101906105239190612f77565b611659565b005b610544600480360381019061053f919061310b565b61168b565b6040516105519190612b18565b60405180910390f35b610574600480360381019061056f9190612d96565b61171f565b005b60007f780e9d63000000000000000000000000000000000000000000000000000000007bffffffffffffffffffffffffffffffffffffffffffffffffffffffff1916827bffffffffffffffffffffffffffffffffffffffffffffffffffffffff191614806105e957506105e882611817565b5b9050919050565b6060600080546105ff9061317a565b80601f016020809104026020016040519081016040528092919081815260200182805461062b9061317a565b80156106785780601f1061064d57610100808354040283529160200191610678565b820191906000526020600020905b81548152906001019060200180831161065b57829003601f168201915b5050505050905090565b600061068d826118f9565b6106cc576040517f08c379a00000000000000000000000000000000000000000000000000000000081526004016106c39061321e565b60405180910390fd5b6004600083815260200190815260200160002060009054906101000a900473ffffffffffffffffffffffffffffffffffffffff169050919050565b600061071282610af4565b90508073ffffffffffffffffffffffffffffffffffffffff168373ffffffffffffffffffffffffffffffffffffffff161415610783576040517f08c379a000000000000000000000000000000000000000000000000000000000815260040161077a906132b0565b60405180910390fd5b8073ffffffffffffffffffffffffffffffffffffffff166107a2611965565b73ffffffffffffffffffffffffffffffffffffffff1614806107d157506107d0816107cb611965565b61168b565b5b610810576040517f08c379a000000000000000000000000000000000000000000000000000000000815260040161080790613342565b60405180910390fd5b61081a838361196d565b505050565b6000600880549050905090565b7f000000000000000000000000000000000000000000000000000000000000000073ffffffffffffffffffffffffffffffffffffffff166323b872dd33610871610d6c565b600c546040518463ffffffff1660e01b815260040161089293929190613362565b6020604051808303816000875af11580156108b1573d6000803e3d6000fd5b505050506040513d601f19601f820116820180604052508101906108d591906133ae565b610914576040517f08c379a000000000000000000000000000000000000000000000000000000000815260040161090b90613427565b60405180910390fd5b61092033600b54611a26565b600b600081548092919061093390613476565b9190505550565b61094b610945611965565b82611c00565b61098a576040517f08c379a000000000000000000000000000000000000000000000000000000000815260040161098190613531565b60405180910390fd5b610995838383611cde565b505050565b60006109a583610c2c565b82106109e6576040517f08c379a00000000000000000000000000000000000000000000000000000000081526004016109dd906135c3565b60405180910390fd5b600660008473ffffffffffffffffffffffffffffffffffffffff1673ffffffffffffffffffffffffffffffffffffffff168152602001908152602001600020600083815260200190815260200160002054905092915050565b7f000000000000000000000000000000000000000000000000000000000000000081565b610a7e8383836040518060200160405280600081525061129e565b505050565b6000610a8d61081f565b8210610ace576040517f08c379a0000000000000000000000000000000000000000000000000000000008152600401610ac590613655565b60405180910390fd5b60088281548110610ae257610ae1613675565b5b90600052602060002001549050919050565b6000806002600084815260200190815260200160002060009054906101000a900473ffffffffffffffffffffffffffffffffffffffff169050600073ffffffffffffffffffffffffffffffffffffffff168173ffffffffffffffffffffffffffffffffffffffff161415610b9d576040517f08c379a0000000000000000000000000000000000000000000000000000000008152600401610b9490613716565b60405180910390fd5b80915050919050565b610bae611965565b73ffffffffffffffffffffffffffffffffffffffff16610bcc610d6c565b73ffffffffffffffffffffffffffffffffffffffff1614610c22576040517f08c379a0000000000000000000000000000000000000000000000000000000008152600401610c1990613782565b60405180910390fd5b80600c8190555050565b60008073ffffffffffffffffffffffffffffffffffffffff168273ffffffffffffffffffffffffffffffffffffffff161415610c9d576040517f08c379a0000000000000000000000000000000000000000000000000000000008152600401610c9490613814565b60405180910390fd5b600360008373ffffffffffffffffffffffffffffffffffffffff1673ffffffffffffffffffffffffffffffffffffffff168152602001908152602001600020549050919050565b610cec611965565b73ffffffffffffffffffffffffffffffffffffffff16610d0a610d6c565b73ffffffffffffffffffffffffffffffffffffffff1614610d60576040517f08c379a0000000000000000000000000000000000000000000000000000000008152600401610d5790613782565b60405180910390fd5b610d6a6000611f45565b565b6000600a60009054906101000a900473ffffffffffffffffffffffffffffffffffffffff16905090565b806000600d60003373ffffffffffffffffffffffffffffffffffffffff1673ffffffffffffffffffffffffffffffffffffffff1681526020019081526020016000206000838152602001908152602001600020541415610e2b576040517f08c379a0000000000000000000000000000000000000000000000000000000008152600401610e2290613880565b60405180910390fd5b60003390506000600d60008373ffffffffffffffffffffffffffffffffffffffff1673ffffffffffffffffffffffffffffffffffffffff168152602001908152602001600020600085815260200190815260200160002081905550610f1d83600e60008473ffffffffffffffffffffffffffffffffffffffff1673ffffffffffffffffffffffffffffffffffffffff168152602001908152602001600020805480602002602001604051908101604052809291908181526020018280548015610f1357602002820191906000526020600020905b815481526020019060010190808311610eff575b5050505050611659565b610f28308285611cde565b610f318361200b565b505050565b600033905060005b600e60008373ffffffffffffffffffffffffffffffffffffffff1673ffffffffffffffffffffffffffffffffffffffff16815260200190815260200160002080549050811015611067576000600e60008473ffffffffffffffffffffffffffffffffffffffff1673ffffffffffffffffffffffffffffffffffffffff1681526020019081526020016000208281548110610fdb57610fda613675565b5b906000526020600020015490506000600d60003373ffffffffffffffffffffffffffffffffffffffff1673ffffffffffffffffffffffffffffffffffffffff168152602001908152602001600020600083815260200190815260200160002054146110535761104981610d96565b6110528161200b565b5b50808061105f90613476565b915050610f3e565b5050565b60606001805461107a9061317a565b80601f01602080910402602001604051908101604052809291908181526020018280546110a69061317a565b80156110f35780601f106110c8576101008083540402835291602001916110f3565b820191906000526020600020905b8154815290600101906020018083116110d657829003601f168201915b5050505050905090565b61110f611108611965565b83836120ea565b5050565b600080600090505b8383828151811061112f5761112e613675565b5b60200260200101511461114f57808061114790613476565b91505061111b565b8091505092915050565b60003390508073ffffffffffffffffffffffffffffffffffffffff1661117e83610af4565b73ffffffffffffffffffffffffffffffffffffffff16146111d4576040517f08c379a00000000000000000000000000000000000000000000000000000000081526004016111cb906138ec565b60405180910390fd5b42600d60008373ffffffffffffffffffffffffffffffffffffffff1673ffffffffffffffffffffffffffffffffffffffff168152602001908152602001600020600084815260200190815260200160002081905550600e60008273ffffffffffffffffffffffffffffffffffffffff1673ffffffffffffffffffffffffffffffffffffffff16815260200190815260200160002082908060018154018082558091505060019003906000526020600020016000909190919091505561129a813084611cde565b5050565b6112af6112a9611965565b83611c00565b6112ee576040517f08c379a00000000000000000000000000000000000000000000000000000000081526004016112e590613531565b60405180910390fd5b6112fa84848484612257565b50505050565b606061130b826118f9565b61134a576040517f08c379a00000000000000000000000000000000000000000000000000000000081526004016113419061397e565b60405180910390fd5b60006113546122b3565b90506000815111611374576040518060200160405280600081525061139f565b8061137e846122ca565b60405160200161138f9291906139da565b6040516020818303038152906040525b915050919050565b600033905060006113b782610c2c565b905060005b818110156114495760006113d0848361099a565b90506000600d60003373ffffffffffffffffffffffffffffffffffffffff1673ffffffffffffffffffffffffffffffffffffffff16815260200190815260200160002060008381526020019081526020016000205414156114355761143481611159565b5b50808061144190613476565b9150506113bc565b505050565b7f000000000000000000000000000000000000000000000000000000000000000073ffffffffffffffffffffffffffffffffffffffff1663095ea7b33383600c5461149991906139fe565b6040518363ffffffff1660e01b81526004016114b6929190613a58565b6020604051808303816000875af11580156114d5573d6000803e3d6000fd5b505050506040513d601f19601f820116820180604052508101906114f991906133ae565b611538576040517f08c379a000000000000000000000000000000000000000000000000000000000815260040161152f90613acd565b60405180910390fd5b7f000000000000000000000000000000000000000000000000000000000000000073ffffffffffffffffffffffffffffffffffffffff166323b872dd3361157d610d6c565b84600c5461158b91906139fe565b6040518463ffffffff1660e01b81526004016115a993929190613362565b6020604051808303816000875af11580156115c8573d6000803e3d6000fd5b505050506040513d601f19601f820116820180604052508101906115ec91906133ae565b61162b576040517f08c379a000000000000000000000000000000000000000000000000000000000815260040161162290613427565b60405180910390fd5b60005b818110156116555761164233600b54611a26565b808061164d90613476565b91505061162e565b5050565b60006116658383611113565b905081818151811061167a57611679613675565b5b602002602001016000815250505050565b6000600560008473ffffffffffffffffffffffffffffffffffffffff1673ffffffffffffffffffffffffffffffffffffffff16815260200190815260200160002060008373ffffffffffffffffffffffffffffffffffffffff1673ffffffffffffffffffffffffffffffffffffffff16815260200190815260200160002060009054906101000a900460ff16905092915050565b611727611965565b73ffffffffffffffffffffffffffffffffffffffff16611745610d6c565b73ffffffffffffffffffffffffffffffffffffffff161461179b576040517f08c379a000000000000000000000000000000000000000000000000000000000815260040161179290613782565b60405180910390fd5b600073ffffffffffffffffffffffffffffffffffffffff168173ffffffffffffffffffffffffffffffffffffffff16141561180b576040517f08c379a000000000000000000000000000000000000000000000000000000000815260040161180290613b5f565b60405180910390fd5b61181481611f45565b50565b60007f80ac58cd000000000000000000000000000000000000000000000000000000007bffffffffffffffffffffffffffffffffffffffffffffffffffffffff1916827bffffffffffffffffffffffffffffffffffffffffffffffffffffffff191614806118e257507f5b5e139f000000000000000000000000000000000000000000000000000000007bffffffffffffffffffffffffffffffffffffffffffffffffffffffff1916827bffffffffffffffffffffffffffffffffffffffffffffffffffffffff1916145b806118f257506118f18261242b565b5b9050919050565b60008073ffffffffffffffffffffffffffffffffffffffff166002600084815260200190815260200160002060009054906101000a900473ffffffffffffffffffffffffffffffffffffffff1673ffffffffffffffffffffffffffffffffffffffff1614159050919050565b600033905090565b816004600083815260200190815260200160002060006101000a81548173ffffffffffffffffffffffffffffffffffffffff021916908373ffffffffffffffffffffffffffffffffffffffff160217905550808273ffffffffffffffffffffffffffffffffffffffff166119e083610af4565b73ffffffffffffffffffffffffffffffffffffffff167f8c5be1e5ebec7d5bd14f71427d1e84f3dd0314c0f7b2291e5b200ac8c7c3b92560405160405180910390a45050565b600073ffffffffffffffffffffffffffffffffffffffff168273ffffffffffffffffffffffffffffffffffffffff161415611a96576040517f08c379a0000000000000000000000000000000000000000000000000000000008152600401611a8d90613bcb565b60405180910390fd5b611a9f816118f9565b15611adf576040517f08c379a0000000000000000000000000000000000000000000000000000000008152600401611ad690613c37565b60405180910390fd5b611aeb60008383612495565b6001600360008473ffffffffffffffffffffffffffffffffffffffff1673ffffffffffffffffffffffffffffffffffffffff1681526020019081526020016000206000828254611b3b9190613c57565b92505081905550816002600083815260200190815260200160002060006101000a81548173ffffffffffffffffffffffffffffffffffffffff021916908373ffffffffffffffffffffffffffffffffffffffff160217905550808273ffffffffffffffffffffffffffffffffffffffff16600073ffffffffffffffffffffffffffffffffffffffff167fddf252ad1be2c89b69c2b068fc378daa952ba7f163c4a11628f55a4df523b3ef60405160405180910390a4611bfc600083836125a9565b5050565b6000611c0b826118f9565b611c4a576040517f08c379a0000000000000000000000000000000000000000000000000000000008152600401611c4190613d1f565b60405180910390fd5b6000611c5583610af4565b90508073ffffffffffffffffffffffffffffffffffffffff168473ffffffffffffffffffffffffffffffffffffffff161480611c975750611c96818561168b565b5b80611cd557508373ffffffffffffffffffffffffffffffffffffffff16611cbd84610682565b73ffffffffffffffffffffffffffffffffffffffff16145b91505092915050565b8273ffffffffffffffffffffffffffffffffffffffff16611cfe82610af4565b73ffffffffffffffffffffffffffffffffffffffff1614611d54576040517f08c379a0000000000000000000000000000000000000000000000000000000008152600401611d4b90613db1565b60405180910390fd5b600073ffffffffffffffffffffffffffffffffffffffff168273ffffffffffffffffffffffffffffffffffffffff161415611dc4576040517f08c379a0000000000000000000000000000000000000000000000000000000008152600401611dbb90613e43565b60405180910390fd5b611dcf838383612495565b611dda60008261196d565b6001600360008573ffffffffffffffffffffffffffffffffffffffff1673ffffffffffffffffffffffffffffffffffffffff1681526020019081526020016000206000828254611e2a9190613e63565b925050819055506001600360008473ffffffffffffffffffffffffffffffffffffffff1673ffffffffffffffffffffffffffffffffffffffff1681526020019081526020016000206000828254611e819190613c57565b92505081905550816002600083815260200190815260200160002060006101000a81548173ffffffffffffffffffffffffffffffffffffffff021916908373ffffffffffffffffffffffffffffffffffffffff160217905550808273ffffffffffffffffffffffffffffffffffffffff168473ffffffffffffffffffffffffffffffffffffffff167fddf252ad1be2c89b69c2b068fc378daa952ba7f163c4a11628f55a4df523b3ef60405160405180910390a4611f408383836125a9565b505050565b6000600a60009054906101000a900473ffffffffffffffffffffffffffffffffffffffff16905081600a60006101000a81548173ffffffffffffffffffffffffffffffffffffffff021916908373ffffffffffffffffffffffffffffffffffffffff1602179055508173ffffffffffffffffffffffffffffffffffffffff168173ffffffffffffffffffffffffffffffffffffffff167f8be0079c531659141344cd1fd0a4f28419497f9722a3daafe3b4186f6b6457e060405160405180910390a35050565b60003390506000603c600d60008473ffffffffffffffffffffffffffffffffffffffff1673ffffffffffffffffffffffffffffffffffffffff168152602001908152602001600020600085815260200190815260200160002054426120709190613e63565b61207a9190613ec6565b90503373ffffffffffffffffffffffffffffffffffffffff16816040516120a090613f28565b60006040518083038185875af1925050503d80600081146120dd576040519150601f19603f3d011682016040523d82523d6000602084013e6120e2565b606091505b505050505050565b8173ffffffffffffffffffffffffffffffffffffffff168373ffffffffffffffffffffffffffffffffffffffff161415612159576040517f08c379a000000000000000000000000000000000000000000000000000000000815260040161215090613f89565b60405180910390fd5b80600560008573ffffffffffffffffffffffffffffffffffffffff1673ffffffffffffffffffffffffffffffffffffffff16815260200190815260200160002060008473ffffffffffffffffffffffffffffffffffffffff1673ffffffffffffffffffffffffffffffffffffffff16815260200190815260200160002060006101000a81548160ff0219169083151502179055508173ffffffffffffffffffffffffffffffffffffffff168373ffffffffffffffffffffffffffffffffffffffff167f17307eab39ab6107e8899845ad3d59bd9653f200f220920489ca2b5937696c318360405161224a9190612b18565b60405180910390a3505050565b612262848484611cde565b61226e848484846125ae565b6122ad576040517f08c379a00000000000000000000000000000000000000000000000000000000081526004016122a49061401b565b60405180910390fd5b50505050565b606060405180602001604052806000815250905090565b60606000821415612312576040518060400160405280600181526020017f30000000000000000000000000000000000000000000000000000000000000008152509050612426565b600082905060005b6000821461234457808061232d90613476565b915050600a8261233d9190613ec6565b915061231a565b60008167ffffffffffffffff8111156123605761235f612e34565b5b6040519080825280601f01601f1916602001820160405280156123925781602001600182028036833780820191505090505b5090505b6000851461241f576001826123ab9190613e63565b9150600a856123ba919061403b565b60306123c69190613c57565b60f81b8183815181106123dc576123db613675565b5b60200101907effffffffffffffffffffffffffffffffffffffffffffffffffffffffffffff1916908160001a905350600a856124189190613ec6565b9450612396565b8093505050505b919050565b60007f01ffc9a7000000000000000000000000000000000000000000000000000000007bffffffffffffffffffffffffffffffffffffffffffffffffffffffff1916827bffffffffffffffffffffffffffffffffffffffffffffffffffffffff1916149050919050565b6124a0838383612736565b600073ffffffffffffffffffffffffffffffffffffffff168373ffffffffffffffffffffffffffffffffffffffff1614156124e3576124de8161273b565b612522565b8173ffffffffffffffffffffffffffffffffffffffff168373ffffffffffffffffffffffffffffffffffffffff1614612521576125208382612784565b5b5b600073ffffffffffffffffffffffffffffffffffffffff168273ffffffffffffffffffffffffffffffffffffffff16141561256557612560816128f1565b6125a4565b8273ffffffffffffffffffffffffffffffffffffffff168273ffffffffffffffffffffffffffffffffffffffff16146125a3576125a282826129c2565b5b5b505050565b505050565b60006125cf8473ffffffffffffffffffffffffffffffffffffffff16612a41565b15612729578373ffffffffffffffffffffffffffffffffffffffff1663150b7a026125f8611965565b8786866040518563ffffffff1660e01b815260040161261a94939291906140c1565b6020604051808303816000875af192505050801561265657506040513d601f19601f820116820180604052508101906126539190614122565b60015b6126d9573d8060008114612686576040519150601f19603f3d011682016040523d82523d6000602084013e61268b565b606091505b506000815114156126d1576040517f08c379a00000000000000000000000000000000000000000000000000000000081526004016126c89061401b565b60405180910390fd5b805181602001fd5b63150b7a0260e01b7bffffffffffffffffffffffffffffffffffffffffffffffffffffffff1916817bffffffffffffffffffffffffffffffffffffffffffffffffffffffff19161491505061272e565b600190505b949350505050565b505050565b6008805490506009600083815260200190815260200160002081905550600881908060018154018082558091505060019003906000526020600020016000909190919091505550565b6000600161279184610c2c565b61279b9190613e63565b9050600060076000848152602001908152602001600020549050818114612880576000600660008673ffffffffffffffffffffffffffffffffffffffff1673ffffffffffffffffffffffffffffffffffffffff168152602001908152602001600020600084815260200190815260200160002054905080600660008773ffffffffffffffffffffffffffffffffffffffff1673ffffffffffffffffffffffffffffffffffffffff168152602001908152602001600020600084815260200190815260200160002081905550816007600083815260200190815260200160002081905550505b6007600084815260200190815260200160002060009055600660008573ffffffffffffffffffffffffffffffffffffffff1673ffffffffffffffffffffffffffffffffffffffff16815260200190815260200160002060008381526020019081526020016000206000905550505050565b600060016008805490506129059190613e63565b905060006009600084815260200190815260200160002054905060006008838154811061293557612934613675565b5b90600052602060002001549050806008838154811061295757612956613675565b5b9060005260206000200181905550816009600083815260200190815260200160002081905550600960008581526020019081526020016000206000905560088054806129a6576129a561414f565b5b6001900381819060005260206000200160009055905550505050565b60006129cd83610c2c565b905081600660008573ffffffffffffffffffffffffffffffffffffffff1673ffffffffffffffffffffffffffffffffffffffff168152602001908152602001600020600083815260200190815260200160002081905550806007600084815260200190815260200160002081905550505050565b6000808273ffffffffffffffffffffffffffffffffffffffff163b119050919050565b6000604051905090565b600080fd5b600080fd5b60007fffffffff0000000000000000000000000000000000000000000000000000000082169050919050565b612aad81612a78565b8114612ab857600080fd5b50565b600081359050612aca81612aa4565b92915050565b600060208284031215612ae657612ae5612a6e565b5b6000612af484828501612abb565b91505092915050565b60008115159050919050565b612b1281612afd565b82525050565b6000602082019050612b2d6000830184612b09565b92915050565b600081519050919050565b600082825260208201905092915050565b60005b83811015612b6d578082015181840152602081019050612b52565b83811115612b7c576000848401525b50505050565b6000601f19601f8301169050919050565b6000612b9e82612b33565b612ba88185612b3e565b9350612bb8818560208601612b4f565b612bc181612b82565b840191505092915050565b60006020820190508181036000830152612be68184612b93565b905092915050565b6000819050919050565b612c0181612bee565b8114612c0c57600080fd5b50565b600081359050612c1e81612bf8565b92915050565b600060208284031215612c3a57612c39612a6e565b5b6000612c4884828501612c0f565b91505092915050565b600073ffffffffffffffffffffffffffffffffffffffff82169050919050565b6000612c7c82612c51565b9050919050565b612c8c81612c71565b82525050565b6000602082019050612ca76000830184612c83565b92915050565b612cb681612c71565b8114612cc157600080fd5b50565b600081359050612cd381612cad565b92915050565b60008060408385031215612cf057612cef612a6e565b5b6000612cfe85828601612cc4565b9250506020612d0f85828601612c0f565b9150509250929050565b612d2281612bee565b82525050565b6000602082019050612d3d6000830184612d19565b92915050565b600080600060608486031215612d5c57612d5b612a6e565b5b6000612d6a86828701612cc4565b9350506020612d7b86828701612cc4565b9250506040612d8c86828701612c0f565b9150509250925092565b600060208284031215612dac57612dab612a6e565b5b6000612dba84828501612cc4565b91505092915050565b612dcc81612afd565b8114612dd757600080fd5b50565b600081359050612de981612dc3565b92915050565b60008060408385031215612e0657612e05612a6e565b5b6000612e1485828601612cc4565b9250506020612e2585828601612dda565b9150509250929050565b600080fd5b7f4e487b7100000000000000000000000000000000000000000000000000000000600052604160045260246000fd5b612e6c82612b82565b810181811067ffffffffffffffff82111715612e8b57612e8a612e34565b5b80604052505050565b6000612e9e612a64565b9050612eaa8282612e63565b919050565b600067ffffffffffffffff821115612eca57612ec9612e34565b5b602082029050602081019050919050565b600080fd5b6000612ef3612eee84612eaf565b612e94565b90508083825260208201905060208402830185811115612f1657612f15612edb565b5b835b81811015612f3f5780612f2b8882612c0f565b845260208401935050602081019050612f18565b5050509392505050565b600082601f830112612f5e57612f5d612e2f565b5b8135612f6e848260208601612ee0565b91505092915050565b60008060408385031215612f8e57612f8d612a6e565b5b6000612f9c85828601612c0f565b925050602083013567ffffffffffffffff811115612fbd57612fbc612a73565b5b612fc985828601612f49565b9150509250929050565b600080fd5b600067ffffffffffffffff821115612ff357612ff2612e34565b5b612ffc82612b82565b9050602081019050919050565b82818337600083830152505050565b600061302b61302684612fd8565b612e94565b90508281526020810184848401111561304757613046612fd3565b5b613052848285613009565b509392505050565b600082601f83011261306f5761306e612e2f565b5b813561307f848260208601613018565b91505092915050565b600080600080608085870312156130a2576130a1612a6e565b5b60006130b087828801612cc4565b94505060206130c187828801612cc4565b93505060406130d287828801612c0f565b925050606085013567ffffffffffffffff8111156130f3576130f2612a73565b5b6130ff8782880161305a565b91505092959194509250565b6000806040838503121561312257613121612a6e565b5b600061313085828601612cc4565b925050602061314185828601612cc4565b9150509250929050565b7f4e487b7100000000000000000000000000000000000000000000000000000000600052602260045260246000fd5b6000600282049050600182168061319257607f821691505b602082108114156131a6576131a561314b565b5b50919050565b7f4552433732313a20617070726f76656420717565727920666f72206e6f6e657860008201527f697374656e7420746f6b656e0000000000000000000000000000000000000000602082015250565b6000613208602c83612b3e565b9150613213826131ac565b604082019050919050565b60006020820190508181036000830152613237816131fb565b9050919050565b7f4552433732313a20617070726f76616c20746f2063757272656e74206f776e6560008201527f7200000000000000000000000000000000000000000000000000000000000000602082015250565b600061329a602183612b3e565b91506132a58261323e565b604082019050919050565b600060208201905081810360008301526132c98161328d565b9050919050565b7f4552433732313a20617070726f76652063616c6c6572206973206e6f74206f7760008201527f6e6572206e6f7220617070726f76656420666f7220616c6c0000000000000000602082015250565b600061332c603883612b3e565b9150613337826132d0565b604082019050919050565b6000602082019050818103600083015261335b8161331f565b9050919050565b60006060820190506133776000830186612c83565b6133846020830185612c83565b6133916040830184612d19565b949350505050565b6000815190506133a881612dc3565b92915050565b6000602082840312156133c4576133c3612a6e565b5b60006133d284828501613399565b91505092915050565b7f5472616e73666572206661696c65640000000000000000000000000000000000600082015250565b6000613411600f83612b3e565b915061341c826133db565b602082019050919050565b6000602082019050818103600083015261344081613404565b9050919050565b7f4e487b7100000000000000000000000000000000000000000000000000000000600052601160045260246000fd5b600061348182612bee565b91507fffffffffffffffffffffffffffffffffffffffffffffffffffffffffffffffff8214156134b4576134b3613447565b5b600182019050919050565b7f4552433732313a207472616e736665722063616c6c6572206973206e6f74206f60008201527f776e6572206e6f7220617070726f766564000000000000000000000000000000602082015250565b600061351b603183612b3e565b9150613526826134bf565b604082019050919050565b6000602082019050818103600083015261354a8161350e565b9050919050565b7f455243373231456e756d657261626c653a206f776e657220696e646578206f7560008201527f74206f6620626f756e6473000000000000000000000000000000000000000000602082015250565b60006135ad602b83612b3e565b91506135b882613551565b604082019050919050565b600060208201905081810360008301526135dc816135a0565b9050919050565b7f455243373231456e756d657261626c653a20676c6f62616c20696e646578206f60008201527f7574206f6620626f756e64730000000000000000000000000000000000000000602082015250565b600061363f602c83612b3e565b915061364a826135e3565b604082019050919050565b6000602082019050818103600083015261366e81613632565b9050919050565b7f4e487b7100000000000000000000000000000000000000000000000000000000600052603260045260246000fd5b7f4552433732313a206f776e657220717565727920666f72206e6f6e657869737460008201527f656e7420746f6b656e0000000000000000000000000000000000000000000000602082015250565b6000613700602983612b3e565b915061370b826136a4565b604082019050919050565b6000602082019050818103600083015261372f816136f3565b9050919050565b7f4f776e61626c653a2063616c6c6572206973206e6f7420746865206f776e6572600082015250565b600061376c602083612b3e565b915061377782613736565b602082019050919050565b6000602082019050818103600083015261379b8161375f565b9050919050565b7f4552433732313a2062616c616e636520717565727920666f7220746865207a6560008201527f726f206164647265737300000000000000000000000000000000000000000000602082015250565b60006137fe602a83612b3e565b9150613809826137a2565b604082019050919050565b6000602082019050818103600083015261382d816137f1565b9050919050565b7f546f6b656e206973206e6f74206c6f636b656421000000000000000000000000600082015250565b600061386a601483612b3e565b915061387582613834565b602082019050919050565b600060208201905081810360008301526138998161385d565b9050919050565b7f546f6b656e206973206e6f74206f776e65642062792073656e64657221000000600082015250565b60006138d6601d83612b3e565b91506138e1826138a0565b602082019050919050565b60006020820190508181036000830152613905816138c9565b9050919050565b7f4552433732314d657461646174613a2055524920717565727920666f72206e6f60008201527f6e6578697374656e7420746f6b656e0000000000000000000000000000000000602082015250565b6000613968602f83612b3e565b91506139738261390c565b604082019050919050565b600060208201905081810360008301526139978161395b565b9050919050565b600081905092915050565b60006139b482612b33565b6139be818561399e565b93506139ce818560208601612b4f565b80840191505092915050565b60006139e682856139a9565b91506139f282846139a9565b91508190509392505050565b6000613a0982612bee565b9150613a1483612bee565b9250817fffffffffffffffffffffffffffffffffffffffffffffffffffffffffffffffff0483118215151615613a4d57613a4c613447565b5b828202905092915050565b6000604082019050613a6d6000830185612c83565b613a7a6020830184612d19565b9392505050565b7f417070726f76616c206661696c65640000000000000000000000000000000000600082015250565b6000613ab7600f83612b3e565b9150613ac282613a81565b602082019050919050565b60006020820190508181036000830152613ae681613aaa565b9050919050565b7f4f776e61626c653a206e6577206f776e657220697320746865207a65726f206160008201527f6464726573730000000000000000000000000000000000000000000000000000602082015250565b6000613b49602683612b3e565b9150613b5482613aed565b604082019050919050565b60006020820190508181036000830152613b7881613b3c565b9050919050565b7f4552433732313a206d696e7420746f20746865207a65726f2061646472657373600082015250565b6000613bb5602083612b3e565b9150613bc082613b7f565b602082019050919050565b60006020820190508181036000830152613be481613ba8565b9050919050565b7f4552433732313a20746f6b656e20616c7265616479206d696e74656400000000600082015250565b6000613c21601c83612b3e565b9150613c2c82613beb565b602082019050919050565b60006020820190508181036000830152613c5081613c14565b9050919050565b6000613c6282612bee565b9150613c6d83612bee565b9250827fffffffffffffffffffffffffffffffffffffffffffffffffffffffffffffffff03821115613ca257613ca1613447565b5b828201905092915050565b7f4552433732313a206f70657261746f7220717565727920666f72206e6f6e657860008201527f697374656e7420746f6b656e0000000000000000000000000000000000000000602082015250565b6000613d09602c83612b3e565b9150613d1482613cad565b604082019050919050565b60006020820190508181036000830152613d3881613cfc565b9050919050565b7f4552433732313a207472616e736665722066726f6d20696e636f72726563742060008201527f6f776e6572000000000000000000000000000000000000000000000000000000602082015250565b6000613d9b602583612b3e565b9150613da682613d3f565b604082019050919050565b60006020820190508181036000830152613dca81613d8e565b9050919050565b7f4552433732313a207472616e7366657220746f20746865207a65726f2061646460008201527f7265737300000000000000000000000000000000000000000000000000000000602082015250565b6000613e2d602483612b3e565b9150613e3882613dd1565b604082019050919050565b60006020820190508181036000830152613e5c81613e20565b9050919050565b6000613e6e82612bee565b9150613e7983612bee565b925082821015613e8c57613e8b613447565b5b828203905092915050565b7f4e487b7100000000000000000000000000000000000000000000000000000000600052601260045260246000fd5b6000613ed182612bee565b9150613edc83612bee565b925082613eec57613eeb613e97565b5b828204905092915050565b600081905092915050565b50565b6000613f12600083613ef7565b9150613f1d82613f02565b600082019050919050565b6000613f3382613f05565b9150819050919050565b7f4552433732313a20617070726f766520746f2063616c6c657200000000000000600082015250565b6000613f73601983612b3e565b9150613f7e82613f3d565b602082019050919050565b60006020820190508181036000830152613fa281613f66565b9050919050565b7f4552433732313a207472616e7366657220746f206e6f6e20455243373231526560008201527f63656976657220696d706c656d656e7465720000000000000000000000000000602082015250565b6000614005603283612b3e565b915061401082613fa9565b604082019050919050565b6000602082019050818103600083015261403481613ff8565b9050919050565b600061404682612bee565b915061405183612bee565b92508261406157614060613e97565b5b828206905092915050565b600081519050919050565b600082825260208201905092915050565b60006140938261406c565b61409d8185614077565b93506140ad818560208601612b4f565b6140b681612b82565b840191505092915050565b60006080820190506140d66000830187612c83565b6140e36020830186612c83565b6140f06040830185612d19565b81810360608301526141028184614088565b905095945050505050565b60008151905061411c81612aa4565b92915050565b60006020828403121561413857614137612a6e565b5b60006141468482850161410d565b91505092915050565b7f4e487b7100000000000000000000000000000000000000000000000000000000600052603160045260246000fdfea264697066735822122002264d2ddb4a51d765021236e37b781c13723d77d72b63296e86e148a42cd7df64736f6c634300080a0033",
  "immutableReferences": {
    "2869": [
      {
        "length": 32,
        "start": 2094
      },
      {
        "length": 32,
        "start": 2625
      },
      {
        "length": 32,
        "start": 5200
      },
      {
        "length": 32,
        "start": 5434
      }
    ]
  },
  "source": "pragma solidity >=0.4.22 <0.9.0;\r\n\r\nimport './Windows.sol';\r\n\r\ncontract Staking is Windows {\r\n    mapping(address => mapping(uint256 => uint256)) lockedTokens;\r\n\r\n    mapping(address => uint256[]) lockedTokenIds;\r\n\r\n    constructor(address tokenAddress) Windows(tokenAddress) {}\r\n\r\n    modifier tokenIsLocked(uint256 tokenId) {\r\n        require(lockedTokens[msg.sender][tokenId] != 0, 'Token is not locked!');\r\n        _;\r\n    }\r\n\r\n    //Deposit a token by ID\r\n    function deposit(uint256 tokenId) public {\r\n        address senderAddress = msg.sender;\r\n        require(\r\n            ownerOf(tokenId) == senderAddress,\r\n            'Token is not owned by sender!'\r\n        );\r\n        lockedTokens[senderAddress][tokenId] = block.timestamp;\r\n        lockedTokenIds[senderAddress].push(tokenId);\r\n        _transfer(senderAddress, address(this), tokenId);\r\n    }\r\n\r\n    //Retrieve a token by ID\r\n    function retrieve(uint256 tokenId) public tokenIsLocked(tokenId) {\r\n        address senderAddress = msg.sender;\r\n        lockedTokens[senderAddress][tokenId] = 0;\r\n        removeByValue(tokenId, lockedTokenIds[senderAddress]);\r\n        _transfer(address(this), senderAddress, tokenId);\r\n        getRewards(tokenId);\r\n    }\r\n\r\n    //Get reward by token ID\r\n    function getRewards(uint256 tokenId) internal {\r\n        address senderAddress = msg.sender;\r\n        uint256 reward = (block.timestamp -\r\n            lockedTokens[senderAddress][tokenId]) / 60;\r\n        msg.sender.call{value: reward}('');\r\n    }\r\n\r\n    function depositAll() public {\r\n        address senderAddress = msg.sender;\r\n        uint senderBalance = balanceOf(senderAddress);\r\n        for (uint256 i = 0; i < senderBalance; i++) {\r\n            uint256 tokenId = tokenOfOwnerByIndex(senderAddress, i);\r\n\r\n            if (lockedTokens[msg.sender][tokenId] == 0) deposit(tokenId);\r\n        }\r\n    }\r\n\r\n    function retrieveAll() public {\r\n        address senderAddress = msg.sender;\r\n        for (uint256 i = 0; i < lockedTokenIds[senderAddress].length; i++) {\r\n            uint256 tokenId = lockedTokenIds[senderAddress][i];\r\n            if (lockedTokens[msg.sender][tokenId] != 0) {\r\n                retrieve(tokenId);\r\n                getRewards(tokenId);\r\n            }\r\n        }\r\n    }\r\n\r\n    function removeByValue(uint256 value, uint256[] memory values) public {\r\n        uint256 i = find(value, values);\r\n        delete values[i];\r\n    }\r\n\r\n    function find(uint256 value, uint256[] memory values)\r\n        public\r\n        returns (uint256)\r\n    {\r\n        uint256 i = 0;\r\n        while (values[i] != value) {\r\n            i++;\r\n        }\r\n        return i;\r\n    }\r\n}",
  "sourcePath": "C:\\Users\\PC\\Documents\\VSCode\\Solidity\\contracts\\WindowsStaking.sol",
  "compiler": {
    "name": "solc",
    "version": "0.8.10+commit.fc410830.Emscripten.clang"
  },
  "schemaVersion": "3.4.7",
  "updatedAt": "2022-06-08T22:47:34.626Z",
  "networkType": "ethereum",
  "devdoc": {
    "kind": "dev",
    "methods": {
      "approve(address,uint256)": {
        "details": "See {IERC721-approve}."
      },
      "balanceOf(address)": {
        "details": "See {IERC721-balanceOf}."
      },
      "getApproved(uint256)": {
        "details": "See {IERC721-getApproved}."
      },
      "isApprovedForAll(address,address)": {
        "details": "See {IERC721-isApprovedForAll}."
      },
      "name()": {
        "details": "See {IERC721Metadata-name}."
      },
      "owner()": {
        "details": "Returns the address of the current owner."
      },
      "ownerOf(uint256)": {
        "details": "See {IERC721-ownerOf}."
      },
      "renounceOwnership()": {
        "details": "Leaves the contract without owner. It will not be possible to call `onlyOwner` functions anymore. Can only be called by the current owner. NOTE: Renouncing ownership will leave the contract without an owner, thereby removing any functionality that is only available to the owner."
      },
      "safeTransferFrom(address,address,uint256)": {
        "details": "See {IERC721-safeTransferFrom}."
      },
      "safeTransferFrom(address,address,uint256,bytes)": {
        "details": "See {IERC721-safeTransferFrom}."
      },
      "setApprovalForAll(address,bool)": {
        "details": "See {IERC721-setApprovalForAll}."
      },
      "supportsInterface(bytes4)": {
        "details": "See {IERC165-supportsInterface}."
      },
      "symbol()": {
        "details": "See {IERC721Metadata-symbol}."
      },
      "tokenByIndex(uint256)": {
        "details": "See {IERC721Enumerable-tokenByIndex}."
      },
      "tokenOfOwnerByIndex(address,uint256)": {
        "details": "See {IERC721Enumerable-tokenOfOwnerByIndex}."
      },
      "tokenURI(uint256)": {
        "details": "See {IERC721Metadata-tokenURI}."
      },
      "totalSupply()": {
        "details": "See {IERC721Enumerable-totalSupply}."
      },
      "transferFrom(address,address,uint256)": {
        "details": "See {IERC721-transferFrom}."
      },
      "transferOwnership(address)": {
        "details": "Transfers ownership of the contract to a new account (`newOwner`). Can only be called by the current owner."
      }
    },
    "version": 1
  },
  "userdoc": {
    "kind": "user",
    "methods": {},
    "version": 1
  }
}