{
  "contractName": "WindowsXP",
  "abi": [
    {
      "inputs": [
        {
          "internalType": "address",
          "name": "tokenAddress",
          "type": "address"
        }
      ],
      "stateMutability": "nonpayable",
      "type": "constructor"
    },
    {
      "anonymous": false,
      "inputs": [
        {
          "indexed": true,
          "internalType": "address",
          "name": "owner",
          "type": "address"
        },
        {
          "indexed": true,
          "internalType": "address",
          "name": "approved",
          "type": "address"
        },
        {
          "indexed": true,
          "internalType": "uint256",
          "name": "tokenId",
          "type": "uint256"
        }
      ],
      "name": "Approval",
      "type": "event"
    },
    {
      "anonymous": false,
      "inputs": [
        {
          "indexed": true,
          "internalType": "address",
          "name": "owner",
          "type": "address"
        },
        {
          "indexed": true,
          "internalType": "address",
          "name": "operator",
          "type": "address"
        },
        {
          "indexed": false,
          "internalType": "bool",
          "name": "approved",
          "type": "bool"
        }
      ],
      "name": "ApprovalForAll",
      "type": "event"
    },
    {
      "anonymous": false,
      "inputs": [
        {
          "indexed": true,
          "internalType": "address",
          "name": "previousOwner",
          "type": "address"
        },
        {
          "indexed": true,
          "internalType": "address",
          "name": "newOwner",
          "type": "address"
        }
      ],
      "name": "OwnershipTransferred",
      "type": "event"
    },
    {
      "anonymous": false,
      "inputs": [
        {
          "indexed": true,
          "internalType": "address",
          "name": "from",
          "type": "address"
        },
        {
          "indexed": true,
          "internalType": "address",
          "name": "to",
          "type": "address"
        },
        {
          "indexed": true,
          "internalType": "uint256",
          "name": "tokenId",
          "type": "uint256"
        }
      ],
      "name": "Transfer",
      "type": "event"
    },
    {
      "inputs": [
        {
          "internalType": "address",
          "name": "to",
          "type": "address"
        },
        {
          "internalType": "uint256",
          "name": "tokenId",
          "type": "uint256"
        }
      ],
      "name": "approve",
      "outputs": [],
      "stateMutability": "nonpayable",
      "type": "function"
    },
    {
      "inputs": [
        {
          "internalType": "address",
          "name": "owner",
          "type": "address"
        }
      ],
      "name": "balanceOf",
      "outputs": [
        {
          "internalType": "uint256",
          "name": "",
          "type": "uint256"
        }
      ],
      "stateMutability": "view",
      "type": "function"
    },
    {
      "inputs": [
        {
          "internalType": "uint256",
          "name": "tokenId",
          "type": "uint256"
        }
      ],
      "name": "getApproved",
      "outputs": [
        {
          "internalType": "address",
          "name": "",
          "type": "address"
        }
      ],
      "stateMutability": "view",
      "type": "function"
    },
    {
      "inputs": [
        {
          "internalType": "address",
          "name": "owner",
          "type": "address"
        },
        {
          "internalType": "address",
          "name": "operator",
          "type": "address"
        }
      ],
      "name": "isApprovedForAll",
      "outputs": [
        {
          "internalType": "bool",
          "name": "",
          "type": "bool"
        }
      ],
      "stateMutability": "view",
      "type": "function"
    },
    {
      "inputs": [],
      "name": "name",
      "outputs": [
        {
          "internalType": "string",
          "name": "",
          "type": "string"
        }
      ],
      "stateMutability": "view",
      "type": "function"
    },
    {
      "inputs": [],
      "name": "owner",
      "outputs": [
        {
          "internalType": "address",
          "name": "",
          "type": "address"
        }
      ],
      "stateMutability": "view",
      "type": "function"
    },
    {
      "inputs": [
        {
          "internalType": "uint256",
          "name": "tokenId",
          "type": "uint256"
        }
      ],
      "name": "ownerOf",
      "outputs": [
        {
          "internalType": "address",
          "name": "",
          "type": "address"
        }
      ],
      "stateMutability": "view",
      "type": "function"
    },
    {
      "inputs": [],
      "name": "paymentToken",
      "outputs": [
        {
          "internalType": "address",
          "name": "",
          "type": "address"
        }
      ],
      "stateMutability": "view",
      "type": "function"
    },
    {
      "inputs": [],
      "name": "renounceOwnership",
      "outputs": [],
      "stateMutability": "nonpayable",
      "type": "function"
    },
    {
      "inputs": [
        {
          "internalType": "address",
          "name": "from",
          "type": "address"
        },
        {
          "internalType": "address",
          "name": "to",
          "type": "address"
        },
        {
          "internalType": "uint256",
          "name": "tokenId",
          "type": "uint256"
        }
      ],
      "name": "safeTransferFrom",
      "outputs": [],
      "stateMutability": "nonpayable",
      "type": "function"
    },
    {
      "inputs": [
        {
          "internalType": "address",
          "name": "from",
          "type": "address"
        },
        {
          "internalType": "address",
          "name": "to",
          "type": "address"
        },
        {
          "internalType": "uint256",
          "name": "tokenId",
          "type": "uint256"
        },
        {
          "internalType": "bytes",
          "name": "_data",
          "type": "bytes"
        }
      ],
      "name": "safeTransferFrom",
      "outputs": [],
      "stateMutability": "nonpayable",
      "type": "function"
    },
    {
      "inputs": [
        {
          "internalType": "address",
          "name": "operator",
          "type": "address"
        },
        {
          "internalType": "bool",
          "name": "approved",
          "type": "bool"
        }
      ],
      "name": "setApprovalForAll",
      "outputs": [],
      "stateMutability": "nonpayable",
      "type": "function"
    },
    {
      "inputs": [
        {
          "internalType": "bytes4",
          "name": "interfaceId",
          "type": "bytes4"
        }
      ],
      "name": "supportsInterface",
      "outputs": [
        {
          "internalType": "bool",
          "name": "",
          "type": "bool"
        }
      ],
      "stateMutability": "view",
      "type": "function"
    },
    {
      "inputs": [],
      "name": "symbol",
      "outputs": [
        {
          "internalType": "string",
          "name": "",
          "type": "string"
        }
      ],
      "stateMutability": "view",
      "type": "function"
    },
    {
      "inputs": [
        {
          "internalType": "uint256",
          "name": "index",
          "type": "uint256"
        }
      ],
      "name": "tokenByIndex",
      "outputs": [
        {
          "internalType": "uint256",
          "name": "",
          "type": "uint256"
        }
      ],
      "stateMutability": "view",
      "type": "function"
    },
    {
      "inputs": [
        {
          "internalType": "address",
          "name": "owner",
          "type": "address"
        },
        {
          "internalType": "uint256",
          "name": "index",
          "type": "uint256"
        }
      ],
      "name": "tokenOfOwnerByIndex",
      "outputs": [
        {
          "internalType": "uint256",
          "name": "",
          "type": "uint256"
        }
      ],
      "stateMutability": "view",
      "type": "function"
    },
    {
      "inputs": [
        {
          "internalType": "uint256",
          "name": "tokenId",
          "type": "uint256"
        }
      ],
      "name": "tokenURI",
      "outputs": [
        {
          "internalType": "string",
          "name": "",
          "type": "string"
        }
      ],
      "stateMutability": "view",
      "type": "function"
    },
    {
      "inputs": [],
      "name": "totalSupply",
      "outputs": [
        {
          "internalType": "uint256",
          "name": "",
          "type": "uint256"
        }
      ],
      "stateMutability": "view",
      "type": "function"
    },
    {
      "inputs": [
        {
          "internalType": "address",
          "name": "from",
          "type": "address"
        },
        {
          "internalType": "address",
          "name": "to",
          "type": "address"
        },
        {
          "internalType": "uint256",
          "name": "tokenId",
          "type": "uint256"
        }
      ],
      "name": "transferFrom",
      "outputs": [],
      "stateMutability": "nonpayable",
      "type": "function"
    },
    {
      "inputs": [
        {
          "internalType": "address",
          "name": "newOwner",
          "type": "address"
        }
      ],
      "name": "transferOwnership",
      "outputs": [],
      "stateMutability": "nonpayable",
      "type": "function"
    },
    {
      "inputs": [
        {
          "internalType": "uint256",
          "name": "newTokenPrice",
          "type": "uint256"
        }
      ],
      "name": "setTokenPrice",
      "outputs": [],
      "stateMutability": "nonpayable",
      "type": "function"
    },
    {
      "inputs": [
        {
          "internalType": "uint256",
          "name": "newTokenPriceRebate",
          "type": "uint256"
        }
      ],
      "name": "setTokenPriceRebate",
      "outputs": [],
      "stateMutability": "nonpayable",
      "type": "function"
    },
    {
      "inputs": [
        {
          "internalType": "bool",
          "name": "newMintLocked",
          "type": "bool"
        }
      ],
      "name": "setIsMintEnabled",
      "outputs": [],
      "stateMutability": "nonpayable",
      "type": "function"
    },
    {
      "inputs": [
        {
          "internalType": "address",
          "name": "buyer",
          "type": "address"
        },
        {
          "internalType": "uint256",
          "name": "amount",
          "type": "uint256"
        }
      ],
      "name": "mintMultipleTokens",
      "outputs": [],
      "stateMutability": "nonpayable",
      "type": "function"
    },
    {
      "inputs": [
        {
          "internalType": "address",
          "name": "buyer",
          "type": "address"
        }
      ],
      "name": "mintToken",
      "outputs": [],
      "stateMutability": "nonpayable",
      "type": "function"
    }
  ],
  "bytecode": "0x60a06040526000600b55600a600c556001600d556001600e60006101000a81548160ff0219169083151502179055503480156200003b57600080fd5b5060405162003e0838038062003e08833981810160405281019062000061919062000344565b6040518060400160405280600981526020017f57696e646f7773585000000000000000000000000000000000000000000000008152506040518060400160405280600381526020017f57585000000000000000000000000000000000000000000000000000000000008152508160009080519060200190620000e59291906200022a565b508060019080519060200190620000fe9291906200022a565b50505062000121620001156200015c60201b60201c565b6200016460201b60201c565b8073ffffffffffffffffffffffffffffffffffffffff1660808173ffffffffffffffffffffffffffffffffffffffff168152505050620003db565b600033905090565b6000600a60009054906101000a900473ffffffffffffffffffffffffffffffffffffffff16905081600a60006101000a81548173ffffffffffffffffffffffffffffffffffffffff021916908373ffffffffffffffffffffffffffffffffffffffff1602179055508173ffffffffffffffffffffffffffffffffffffffff168173ffffffffffffffffffffffffffffffffffffffff167f8be0079c531659141344cd1fd0a4f28419497f9722a3daafe3b4186f6b6457e060405160405180910390a35050565b8280546200023890620003a5565b90600052602060002090601f0160209004810192826200025c5760008555620002a8565b82601f106200027757805160ff1916838001178555620002a8565b82800160010185558215620002a8579182015b82811115620002a75782518255916020019190600101906200028a565b5b509050620002b79190620002bb565b5090565b5b80821115620002d6576000816000905550600101620002bc565b5090565b600080fd5b600073ffffffffffffffffffffffffffffffffffffffff82169050919050565b60006200030c82620002df565b9050919050565b6200031e81620002ff565b81146200032a57600080fd5b50565b6000815190506200033e8162000313565b92915050565b6000602082840312156200035d576200035c620002da565b5b60006200036d848285016200032d565b91505092915050565b7f4e487b7100000000000000000000000000000000000000000000000000000000600052602260045260246000fd5b60006002820490506001821680620003be57607f821691505b60208210811415620003d557620003d462000376565b5b50919050565b608051613a03620004056000396000818161051d015281816109cc0152610e910152613a036000f3fe608060405234801561001057600080fd5b50600436106101735760003560e01c8063573123a9116100de5780638e5bbff711610097578063b88d4fde11610071578063b88d4fde14610434578063c87b56dd14610450578063e985e9c514610480578063f2fde38b146104b057610173565b80638e5bbff7146103de57806395d89b41146103fa578063a22cb4651461041857610173565b8063573123a91461031e5780636352211e1461033a5780636a61e5fc1461036a57806370a0823114610386578063715018a6146103b65780638da5cb5b146103c057610173565b806323b872dd1161013057806323b872dd1461024c5780632f745c59146102685780633013ce291461029857806342842e0e146102b65780634de8bcfb146102d25780634f6ccce7146102ee57610173565b806301173a741461017857806301ffc9a71461019457806306fdde03146101c4578063081812fc146101e2578063095ea7b31461021257806318160ddd1461022e575b600080fd5b610192600480360381019061018d919061253d565b6104cc565b005b6101ae60048036038101906101a991906125c2565b61060f565b6040516101bb919061260a565b60405180910390f35b6101cc610689565b6040516101d991906126be565b60405180910390f35b6101fc60048036038101906101f79190612716565b61071b565b6040516102099190612752565b60405180910390f35b61022c6004803603810190610227919061276d565b6107a0565b005b6102366108b8565b60405161024391906127bc565b60405180910390f35b610266600480360381019061026191906127d7565b6108c5565b005b610282600480360381019061027d919061276d565b610925565b60405161028f91906127bc565b60405180910390f35b6102a06109ca565b6040516102ad9190612752565b60405180910390f35b6102d060048036038101906102cb91906127d7565b6109ee565b005b6102ec60048036038101906102e79190612856565b610a0e565b005b61030860048036038101906103039190612716565b610aa7565b60405161031591906127bc565b60405180910390f35b61033860048036038101906103339190612716565b610b18565b005b610354600480360381019061034f9190612716565b610b9e565b6040516103619190612752565b60405180910390f35b610384600480360381019061037f9190612716565b610c50565b005b6103a0600480360381019061039b919061253d565b610cd6565b6040516103ad91906127bc565b60405180910390f35b6103be610d8e565b005b6103c8610e16565b6040516103d59190612752565b60405180910390f35b6103f860048036038101906103f3919061276d565b610e40565b005b610402610fa9565b60405161040f91906126be565b60405180910390f35b610432600480360381019061042d9190612883565b61103b565b005b61044e600480360381019061044991906129f8565b611051565b005b61046a60048036038101906104659190612716565b6110b3565b60405161047791906126be565b60405180910390f35b61049a60048036038101906104959190612a7b565b61115a565b6040516104a7919061260a565b60405180910390f35b6104ca60048036038101906104c5919061253d565b6111ee565b005b600e60009054906101000a900460ff1661051b576040517f08c379a000000000000000000000000000000000000000000000000000000000815260040161051290612b2d565b60405180910390fd5b7f000000000000000000000000000000000000000000000000000000000000000073ffffffffffffffffffffffffffffffffffffffff166323b872dd82610560610e16565b600c546040518463ffffffff1660e01b815260040161058193929190612b4d565b6020604051808303816000875af11580156105a0573d6000803e3d6000fd5b505050506040513d601f19601f820116820180604052508101906105c49190612b99565b610603576040517f08c379a00000000000000000000000000000000000000000000000000000000081526004016105fa90612c12565b60405180910390fd5b61060c816112e6565b50565b60007f780e9d63000000000000000000000000000000000000000000000000000000007bffffffffffffffffffffffffffffffffffffffffffffffffffffffff1916827bffffffffffffffffffffffffffffffffffffffffffffffffffffffff1916148061068257506106818261130d565b5b9050919050565b60606000805461069890612c61565b80601f01602080910402602001604051908101604052809291908181526020018280546106c490612c61565b80156107115780601f106106e657610100808354040283529160200191610711565b820191906000526020600020905b8154815290600101906020018083116106f457829003601f168201915b5050505050905090565b6000610726826113ef565b610765576040517f08c379a000000000000000000000000000000000000000000000000000000000815260040161075c90612d05565b60405180910390fd5b6004600083815260200190815260200160002060009054906101000a900473ffffffffffffffffffffffffffffffffffffffff169050919050565b60006107ab82610b9e565b90508073ffffffffffffffffffffffffffffffffffffffff168373ffffffffffffffffffffffffffffffffffffffff16141561081c576040517f08c379a000000000000000000000000000000000000000000000000000000000815260040161081390612d97565b60405180910390fd5b8073ffffffffffffffffffffffffffffffffffffffff1661083b61145b565b73ffffffffffffffffffffffffffffffffffffffff16148061086a57506108698161086461145b565b61115a565b5b6108a9576040517f08c379a00000000000000000000000000000000000000000000000000000000081526004016108a090612e29565b60405180910390fd5b6108b38383611463565b505050565b6000600880549050905090565b6108d66108d061145b565b8261151c565b610915576040517f08c379a000000000000000000000000000000000000000000000000000000000815260040161090c90612ebb565b60405180910390fd5b6109208383836115fa565b505050565b600061093083610cd6565b8210610971576040517f08c379a000000000000000000000000000000000000000000000000000000000815260040161096890612f4d565b60405180910390fd5b600660008473ffffffffffffffffffffffffffffffffffffffff1673ffffffffffffffffffffffffffffffffffffffff168152602001908152602001600020600083815260200190815260200160002054905092915050565b7f000000000000000000000000000000000000000000000000000000000000000081565b610a0983838360405180602001604052806000815250611051565b505050565b610a1661145b565b73ffffffffffffffffffffffffffffffffffffffff16610a34610e16565b73ffffffffffffffffffffffffffffffffffffffff1614610a8a576040517f08c379a0000000000000000000000000000000000000000000000000000000008152600401610a8190612fb9565b60405180910390fd5b80600e60006101000a81548160ff02191690831515021790555050565b6000610ab16108b8565b8210610af2576040517f08c379a0000000000000000000000000000000000000000000000000000000008152600401610ae99061304b565b60405180910390fd5b60088281548110610b0657610b0561306b565b5b90600052602060002001549050919050565b610b2061145b565b73ffffffffffffffffffffffffffffffffffffffff16610b3e610e16565b73ffffffffffffffffffffffffffffffffffffffff1614610b94576040517f08c379a0000000000000000000000000000000000000000000000000000000008152600401610b8b90612fb9565b60405180910390fd5b80600d8190555050565b6000806002600084815260200190815260200160002060009054906101000a900473ffffffffffffffffffffffffffffffffffffffff169050600073ffffffffffffffffffffffffffffffffffffffff168173ffffffffffffffffffffffffffffffffffffffff161415610c47576040517f08c379a0000000000000000000000000000000000000000000000000000000008152600401610c3e9061310c565b60405180910390fd5b80915050919050565b610c5861145b565b73ffffffffffffffffffffffffffffffffffffffff16610c76610e16565b73ffffffffffffffffffffffffffffffffffffffff1614610ccc576040517f08c379a0000000000000000000000000000000000000000000000000000000008152600401610cc390612fb9565b60405180910390fd5b80600c8190555050565b60008073ffffffffffffffffffffffffffffffffffffffff168273ffffffffffffffffffffffffffffffffffffffff161415610d47576040517f08c379a0000000000000000000000000000000000000000000000000000000008152600401610d3e9061319e565b60405180910390fd5b600360008373ffffffffffffffffffffffffffffffffffffffff1673ffffffffffffffffffffffffffffffffffffffff168152602001908152602001600020549050919050565b610d9661145b565b73ffffffffffffffffffffffffffffffffffffffff16610db4610e16565b73ffffffffffffffffffffffffffffffffffffffff1614610e0a576040517f08c379a0000000000000000000000000000000000000000000000000000000008152600401610e0190612fb9565b60405180910390fd5b610e146000611861565b565b6000600a60009054906101000a900473ffffffffffffffffffffffffffffffffffffffff16905090565b600e60009054906101000a900460ff16610e8f576040517f08c379a0000000000000000000000000000000000000000000000000000000008152600401610e8690612b2d565b60405180910390fd5b7f000000000000000000000000000000000000000000000000000000000000000073ffffffffffffffffffffffffffffffffffffffff166323b872dd83610ed4610e16565b610edd85611927565b6040518463ffffffff1660e01b8152600401610efb93929190612b4d565b6020604051808303816000875af1158015610f1a573d6000803e3d6000fd5b505050506040513d601f19601f82011682018060405250810190610f3e9190612b99565b610f7d576040517f08c379a0000000000000000000000000000000000000000000000000000000008152600401610f7490612c12565b60405180910390fd5b60005b81811015610fa457610f91836112e6565b8080610f9c906131ed565b915050610f80565b505050565b606060018054610fb890612c61565b80601f0160208091040260200160405190810160405280929190818152602001828054610fe490612c61565b80156110315780601f1061100657610100808354040283529160200191611031565b820191906000526020600020905b81548152906001019060200180831161101457829003601f168201915b5050505050905090565b61104d61104661145b565b8383611977565b5050565b61106261105c61145b565b8361151c565b6110a1576040517f08c379a000000000000000000000000000000000000000000000000000000000815260040161109890612ebb565b60405180910390fd5b6110ad84848484611ae4565b50505050565b60606110be826113ef565b6110fd576040517f08c379a00000000000000000000000000000000000000000000000000000000081526004016110f4906132a8565b60405180910390fd5b6000611107611b40565b905060008151116111275760405180602001604052806000815250611152565b8061113184611b57565b604051602001611142929190613304565b6040516020818303038152906040525b915050919050565b6000600560008473ffffffffffffffffffffffffffffffffffffffff1673ffffffffffffffffffffffffffffffffffffffff16815260200190815260200160002060008373ffffffffffffffffffffffffffffffffffffffff1673ffffffffffffffffffffffffffffffffffffffff16815260200190815260200160002060009054906101000a900460ff16905092915050565b6111f661145b565b73ffffffffffffffffffffffffffffffffffffffff16611214610e16565b73ffffffffffffffffffffffffffffffffffffffff161461126a576040517f08c379a000000000000000000000000000000000000000000000000000000000815260040161126190612fb9565b60405180910390fd5b600073ffffffffffffffffffffffffffffffffffffffff168173ffffffffffffffffffffffffffffffffffffffff1614156112da576040517f08c379a00000000000000000000000000000000000000000000000000000000081526004016112d19061339a565b60405180910390fd5b6112e381611861565b50565b6112f281600b54611cb8565b600b6000815480929190611305906131ed565b919050555050565b60007f80ac58cd000000000000000000000000000000000000000000000000000000007bffffffffffffffffffffffffffffffffffffffffffffffffffffffff1916827bffffffffffffffffffffffffffffffffffffffffffffffffffffffff191614806113d857507f5b5e139f000000000000000000000000000000000000000000000000000000007bffffffffffffffffffffffffffffffffffffffffffffffffffffffff1916827bffffffffffffffffffffffffffffffffffffffffffffffffffffffff1916145b806113e857506113e782611e92565b5b9050919050565b60008073ffffffffffffffffffffffffffffffffffffffff166002600084815260200190815260200160002060009054906101000a900473ffffffffffffffffffffffffffffffffffffffff1673ffffffffffffffffffffffffffffffffffffffff1614159050919050565b600033905090565b816004600083815260200190815260200160002060006101000a81548173ffffffffffffffffffffffffffffffffffffffff021916908373ffffffffffffffffffffffffffffffffffffffff160217905550808273ffffffffffffffffffffffffffffffffffffffff166114d683610b9e565b73ffffffffffffffffffffffffffffffffffffffff167f8c5be1e5ebec7d5bd14f71427d1e84f3dd0314c0f7b2291e5b200ac8c7c3b92560405160405180910390a45050565b6000611527826113ef565b611566576040517f08c379a000000000000000000000000000000000000000000000000000000000815260040161155d9061342c565b60405180910390fd5b600061157183610b9e565b90508073ffffffffffffffffffffffffffffffffffffffff168473ffffffffffffffffffffffffffffffffffffffff1614806115b357506115b2818561115a565b5b806115f157508373ffffffffffffffffffffffffffffffffffffffff166115d98461071b565b73ffffffffffffffffffffffffffffffffffffffff16145b91505092915050565b8273ffffffffffffffffffffffffffffffffffffffff1661161a82610b9e565b73ffffffffffffffffffffffffffffffffffffffff1614611670576040517f08c379a0000000000000000000000000000000000000000000000000000000008152600401611667906134be565b60405180910390fd5b600073ffffffffffffffffffffffffffffffffffffffff168273ffffffffffffffffffffffffffffffffffffffff1614156116e0576040517f08c379a00000000000000000000000000000000000000000000000000000000081526004016116d790613550565b60405180910390fd5b6116eb838383611efc565b6116f6600082611463565b6001600360008573ffffffffffffffffffffffffffffffffffffffff1673ffffffffffffffffffffffffffffffffffffffff16815260200190815260200160002060008282546117469190613570565b925050819055506001600360008473ffffffffffffffffffffffffffffffffffffffff1673ffffffffffffffffffffffffffffffffffffffff168152602001908152602001600020600082825461179d91906135a4565b92505081905550816002600083815260200190815260200160002060006101000a81548173ffffffffffffffffffffffffffffffffffffffff021916908373ffffffffffffffffffffffffffffffffffffffff160217905550808273ffffffffffffffffffffffffffffffffffffffff168473ffffffffffffffffffffffffffffffffffffffff167fddf252ad1be2c89b69c2b068fc378daa952ba7f163c4a11628f55a4df523b3ef60405160405180910390a461185c838383612010565b505050565b6000600a60009054906101000a900473ffffffffffffffffffffffffffffffffffffffff16905081600a60006101000a81548173ffffffffffffffffffffffffffffffffffffffff021916908373ffffffffffffffffffffffffffffffffffffffff1602179055508173ffffffffffffffffffffffffffffffffffffffff168173ffffffffffffffffffffffffffffffffffffffff167f8be0079c531659141344cd1fd0a4f28419497f9722a3daafe3b4186f6b6457e060405160405180910390a35050565b6000600182141561193c57600c549050611972565b6064600d54606461194d9190613570565b83600c5461195b91906135fa565b61196591906135fa565b61196f9190613683565b90505b919050565b8173ffffffffffffffffffffffffffffffffffffffff168373ffffffffffffffffffffffffffffffffffffffff1614156119e6576040517f08c379a00000000000000000000000000000000000000000000000000000000081526004016119dd90613700565b60405180910390fd5b80600560008573ffffffffffffffffffffffffffffffffffffffff1673ffffffffffffffffffffffffffffffffffffffff16815260200190815260200160002060008473ffffffffffffffffffffffffffffffffffffffff1673ffffffffffffffffffffffffffffffffffffffff16815260200190815260200160002060006101000a81548160ff0219169083151502179055508173ffffffffffffffffffffffffffffffffffffffff168373ffffffffffffffffffffffffffffffffffffffff167f17307eab39ab6107e8899845ad3d59bd9653f200f220920489ca2b5937696c3183604051611ad7919061260a565b60405180910390a3505050565b611aef8484846115fa565b611afb84848484612015565b611b3a576040517f08c379a0000000000000000000000000000000000000000000000000000000008152600401611b3190613792565b60405180910390fd5b50505050565b606060405180602001604052806000815250905090565b60606000821415611b9f576040518060400160405280600181526020017f30000000000000000000000000000000000000000000000000000000000000008152509050611cb3565b600082905060005b60008214611bd1578080611bba906131ed565b915050600a82611bca9190613683565b9150611ba7565b60008167ffffffffffffffff811115611bed57611bec6128cd565b5b6040519080825280601f01601f191660200182016040528015611c1f5781602001600182028036833780820191505090505b5090505b60008514611cac57600182611c389190613570565b9150600a85611c4791906137b2565b6030611c5391906135a4565b60f81b818381518110611c6957611c6861306b565b5b60200101907effffffffffffffffffffffffffffffffffffffffffffffffffffffffffffff1916908160001a905350600a85611ca59190613683565b9450611c23565b8093505050505b919050565b600073ffffffffffffffffffffffffffffffffffffffff168273ffffffffffffffffffffffffffffffffffffffff161415611d28576040517f08c379a0000000000000000000000000000000000000000000000000000000008152600401611d1f9061382f565b60405180910390fd5b611d31816113ef565b15611d71576040517f08c379a0000000000000000000000000000000000000000000000000000000008152600401611d689061389b565b60405180910390fd5b611d7d60008383611efc565b6001600360008473ffffffffffffffffffffffffffffffffffffffff1673ffffffffffffffffffffffffffffffffffffffff1681526020019081526020016000206000828254611dcd91906135a4565b92505081905550816002600083815260200190815260200160002060006101000a81548173ffffffffffffffffffffffffffffffffffffffff021916908373ffffffffffffffffffffffffffffffffffffffff160217905550808273ffffffffffffffffffffffffffffffffffffffff16600073ffffffffffffffffffffffffffffffffffffffff167fddf252ad1be2c89b69c2b068fc378daa952ba7f163c4a11628f55a4df523b3ef60405160405180910390a4611e8e60008383612010565b5050565b60007f01ffc9a7000000000000000000000000000000000000000000000000000000007bffffffffffffffffffffffffffffffffffffffffffffffffffffffff1916827bffffffffffffffffffffffffffffffffffffffffffffffffffffffff1916149050919050565b611f0783838361219d565b600073ffffffffffffffffffffffffffffffffffffffff168373ffffffffffffffffffffffffffffffffffffffff161415611f4a57611f45816121a2565b611f89565b8173ffffffffffffffffffffffffffffffffffffffff168373ffffffffffffffffffffffffffffffffffffffff1614611f8857611f8783826121eb565b5b5b600073ffffffffffffffffffffffffffffffffffffffff168273ffffffffffffffffffffffffffffffffffffffff161415611fcc57611fc781612358565b61200b565b8273ffffffffffffffffffffffffffffffffffffffff168273ffffffffffffffffffffffffffffffffffffffff161461200a576120098282612429565b5b5b505050565b505050565b60006120368473ffffffffffffffffffffffffffffffffffffffff166124a8565b15612190578373ffffffffffffffffffffffffffffffffffffffff1663150b7a0261205f61145b565b8786866040518563ffffffff1660e01b81526004016120819493929190613910565b6020604051808303816000875af19250505080156120bd57506040513d601f19601f820116820180604052508101906120ba9190613971565b60015b612140573d80600081146120ed576040519150601f19603f3d011682016040523d82523d6000602084013e6120f2565b606091505b50600081511415612138576040517f08c379a000000000000000000000000000000000000000000000000000000000815260040161212f90613792565b60405180910390fd5b805181602001fd5b63150b7a0260e01b7bffffffffffffffffffffffffffffffffffffffffffffffffffffffff1916817bffffffffffffffffffffffffffffffffffffffffffffffffffffffff191614915050612195565b600190505b949350505050565b505050565b6008805490506009600083815260200190815260200160002081905550600881908060018154018082558091505060019003906000526020600020016000909190919091505550565b600060016121f884610cd6565b6122029190613570565b90506000600760008481526020019081526020016000205490508181146122e7576000600660008673ffffffffffffffffffffffffffffffffffffffff1673ffffffffffffffffffffffffffffffffffffffff168152602001908152602001600020600084815260200190815260200160002054905080600660008773ffffffffffffffffffffffffffffffffffffffff1673ffffffffffffffffffffffffffffffffffffffff168152602001908152602001600020600084815260200190815260200160002081905550816007600083815260200190815260200160002081905550505b6007600084815260200190815260200160002060009055600660008573ffffffffffffffffffffffffffffffffffffffff1673ffffffffffffffffffffffffffffffffffffffff16815260200190815260200160002060008381526020019081526020016000206000905550505050565b6000600160088054905061236c9190613570565b905060006009600084815260200190815260200160002054905060006008838154811061239c5761239b61306b565b5b9060005260206000200154905080600883815481106123be576123bd61306b565b5b90600052602060002001819055508160096000838152602001908152602001600020819055506009600085815260200190815260200160002060009055600880548061240d5761240c61399e565b5b6001900381819060005260206000200160009055905550505050565b600061243483610cd6565b905081600660008573ffffffffffffffffffffffffffffffffffffffff1673ffffffffffffffffffffffffffffffffffffffff168152602001908152602001600020600083815260200190815260200160002081905550806007600084815260200190815260200160002081905550505050565b6000808273ffffffffffffffffffffffffffffffffffffffff163b119050919050565b6000604051905090565b600080fd5b600080fd5b600073ffffffffffffffffffffffffffffffffffffffff82169050919050565b600061250a826124df565b9050919050565b61251a816124ff565b811461252557600080fd5b50565b60008135905061253781612511565b92915050565b600060208284031215612553576125526124d5565b5b600061256184828501612528565b91505092915050565b60007fffffffff0000000000000000000000000000000000000000000000000000000082169050919050565b61259f8161256a565b81146125aa57600080fd5b50565b6000813590506125bc81612596565b92915050565b6000602082840312156125d8576125d76124d5565b5b60006125e6848285016125ad565b91505092915050565b60008115159050919050565b612604816125ef565b82525050565b600060208201905061261f60008301846125fb565b92915050565b600081519050919050565b600082825260208201905092915050565b60005b8381101561265f578082015181840152602081019050612644565b8381111561266e576000848401525b50505050565b6000601f19601f8301169050919050565b600061269082612625565b61269a8185612630565b93506126aa818560208601612641565b6126b381612674565b840191505092915050565b600060208201905081810360008301526126d88184612685565b905092915050565b6000819050919050565b6126f3816126e0565b81146126fe57600080fd5b50565b600081359050612710816126ea565b92915050565b60006020828403121561272c5761272b6124d5565b5b600061273a84828501612701565b91505092915050565b61274c816124ff565b82525050565b60006020820190506127676000830184612743565b92915050565b60008060408385031215612784576127836124d5565b5b600061279285828601612528565b92505060206127a385828601612701565b9150509250929050565b6127b6816126e0565b82525050565b60006020820190506127d160008301846127ad565b92915050565b6000806000606084860312156127f0576127ef6124d5565b5b60006127fe86828701612528565b935050602061280f86828701612528565b925050604061282086828701612701565b9150509250925092565b612833816125ef565b811461283e57600080fd5b50565b6000813590506128508161282a565b92915050565b60006020828403121561286c5761286b6124d5565b5b600061287a84828501612841565b91505092915050565b6000806040838503121561289a576128996124d5565b5b60006128a885828601612528565b92505060206128b985828601612841565b9150509250929050565b600080fd5b600080fd5b7f4e487b7100000000000000000000000000000000000000000000000000000000600052604160045260246000fd5b61290582612674565b810181811067ffffffffffffffff82111715612924576129236128cd565b5b80604052505050565b60006129376124cb565b905061294382826128fc565b919050565b600067ffffffffffffffff821115612963576129626128cd565b5b61296c82612674565b9050602081019050919050565b82818337600083830152505050565b600061299b61299684612948565b61292d565b9050828152602081018484840111156129b7576129b66128c8565b5b6129c2848285612979565b509392505050565b600082601f8301126129df576129de6128c3565b5b81356129ef848260208601612988565b91505092915050565b60008060008060808587031215612a1257612a116124d5565b5b6000612a2087828801612528565b9450506020612a3187828801612528565b9350506040612a4287828801612701565b925050606085013567ffffffffffffffff811115612a6357612a626124da565b5b612a6f878288016129ca565b91505092959194509250565b60008060408385031215612a9257612a916124d5565b5b6000612aa085828601612528565b9250506020612ab185828601612528565b9150509250929050565b7f4d696e74206973206e6f20656e61626c65642061742074686973206d6f6d656e60008201527f7421000000000000000000000000000000000000000000000000000000000000602082015250565b6000612b17602283612630565b9150612b2282612abb565b604082019050919050565b60006020820190508181036000830152612b4681612b0a565b9050919050565b6000606082019050612b626000830186612743565b612b6f6020830185612743565b612b7c60408301846127ad565b949350505050565b600081519050612b938161282a565b92915050565b600060208284031215612baf57612bae6124d5565b5b6000612bbd84828501612b84565b91505092915050565b7f5472616e73666572206661696c65640000000000000000000000000000000000600082015250565b6000612bfc600f83612630565b9150612c0782612bc6565b602082019050919050565b60006020820190508181036000830152612c2b81612bef565b9050919050565b7f4e487b7100000000000000000000000000000000000000000000000000000000600052602260045260246000fd5b60006002820490506001821680612c7957607f821691505b60208210811415612c8d57612c8c612c32565b5b50919050565b7f4552433732313a20617070726f76656420717565727920666f72206e6f6e657860008201527f697374656e7420746f6b656e0000000000000000000000000000000000000000602082015250565b6000612cef602c83612630565b9150612cfa82612c93565b604082019050919050565b60006020820190508181036000830152612d1e81612ce2565b9050919050565b7f4552433732313a20617070726f76616c20746f2063757272656e74206f776e6560008201527f7200000000000000000000000000000000000000000000000000000000000000602082015250565b6000612d81602183612630565b9150612d8c82612d25565b604082019050919050565b60006020820190508181036000830152612db081612d74565b9050919050565b7f4552433732313a20617070726f76652063616c6c6572206973206e6f74206f7760008201527f6e6572206e6f7220617070726f76656420666f7220616c6c0000000000000000602082015250565b6000612e13603883612630565b9150612e1e82612db7565b604082019050919050565b60006020820190508181036000830152612e4281612e06565b9050919050565b7f4552433732313a207472616e736665722063616c6c6572206973206e6f74206f60008201527f776e6572206e6f7220617070726f766564000000000000000000000000000000602082015250565b6000612ea5603183612630565b9150612eb082612e49565b604082019050919050565b60006020820190508181036000830152612ed481612e98565b9050919050565b7f455243373231456e756d657261626c653a206f776e657220696e646578206f7560008201527f74206f6620626f756e6473000000000000000000000000000000000000000000602082015250565b6000612f37602b83612630565b9150612f4282612edb565b604082019050919050565b60006020820190508181036000830152612f6681612f2a565b9050919050565b7f4f776e61626c653a2063616c6c6572206973206e6f7420746865206f776e6572600082015250565b6000612fa3602083612630565b9150612fae82612f6d565b602082019050919050565b60006020820190508181036000830152612fd281612f96565b9050919050565b7f455243373231456e756d657261626c653a20676c6f62616c20696e646578206f60008201527f7574206f6620626f756e64730000000000000000000000000000000000000000602082015250565b6000613035602c83612630565b915061304082612fd9565b604082019050919050565b6000602082019050818103600083015261306481613028565b9050919050565b7f4e487b7100000000000000000000000000000000000000000000000000000000600052603260045260246000fd5b7f4552433732313a206f776e657220717565727920666f72206e6f6e657869737460008201527f656e7420746f6b656e0000000000000000000000000000000000000000000000602082015250565b60006130f6602983612630565b91506131018261309a565b604082019050919050565b60006020820190508181036000830152613125816130e9565b9050919050565b7f4552433732313a2062616c616e636520717565727920666f7220746865207a6560008201527f726f206164647265737300000000000000000000000000000000000000000000602082015250565b6000613188602a83612630565b91506131938261312c565b604082019050919050565b600060208201905081810360008301526131b78161317b565b9050919050565b7f4e487b7100000000000000000000000000000000000000000000000000000000600052601160045260246000fd5b60006131f8826126e0565b91507fffffffffffffffffffffffffffffffffffffffffffffffffffffffffffffffff82141561322b5761322a6131be565b5b600182019050919050565b7f4552433732314d657461646174613a2055524920717565727920666f72206e6f60008201527f6e6578697374656e7420746f6b656e0000000000000000000000000000000000602082015250565b6000613292602f83612630565b915061329d82613236565b604082019050919050565b600060208201905081810360008301526132c181613285565b9050919050565b600081905092915050565b60006132de82612625565b6132e881856132c8565b93506132f8818560208601612641565b80840191505092915050565b600061331082856132d3565b915061331c82846132d3565b91508190509392505050565b7f4f776e61626c653a206e6577206f776e657220697320746865207a65726f206160008201527f6464726573730000000000000000000000000000000000000000000000000000602082015250565b6000613384602683612630565b915061338f82613328565b604082019050919050565b600060208201905081810360008301526133b381613377565b9050919050565b7f4552433732313a206f70657261746f7220717565727920666f72206e6f6e657860008201527f697374656e7420746f6b656e0000000000000000000000000000000000000000602082015250565b6000613416602c83612630565b9150613421826133ba565b604082019050919050565b6000602082019050818103600083015261344581613409565b9050919050565b7f4552433732313a207472616e736665722066726f6d20696e636f72726563742060008201527f6f776e6572000000000000000000000000000000000000000000000000000000602082015250565b60006134a8602583612630565b91506134b38261344c565b604082019050919050565b600060208201905081810360008301526134d78161349b565b9050919050565b7f4552433732313a207472616e7366657220746f20746865207a65726f2061646460008201527f7265737300000000000000000000000000000000000000000000000000000000602082015250565b600061353a602483612630565b9150613545826134de565b604082019050919050565b600060208201905081810360008301526135698161352d565b9050919050565b600061357b826126e0565b9150613586836126e0565b925082821015613599576135986131be565b5b828203905092915050565b60006135af826126e0565b91506135ba836126e0565b9250827fffffffffffffffffffffffffffffffffffffffffffffffffffffffffffffffff038211156135ef576135ee6131be565b5b828201905092915050565b6000613605826126e0565b9150613610836126e0565b9250817fffffffffffffffffffffffffffffffffffffffffffffffffffffffffffffffff0483118215151615613649576136486131be565b5b828202905092915050565b7f4e487b7100000000000000000000000000000000000000000000000000000000600052601260045260246000fd5b600061368e826126e0565b9150613699836126e0565b9250826136a9576136a8613654565b5b828204905092915050565b7f4552433732313a20617070726f766520746f2063616c6c657200000000000000600082015250565b60006136ea601983612630565b91506136f5826136b4565b602082019050919050565b60006020820190508181036000830152613719816136dd565b9050919050565b7f4552433732313a207472616e7366657220746f206e6f6e20455243373231526560008201527f63656976657220696d706c656d656e7465720000000000000000000000000000602082015250565b600061377c603283612630565b915061378782613720565b604082019050919050565b600060208201905081810360008301526137ab8161376f565b9050919050565b60006137bd826126e0565b91506137c8836126e0565b9250826137d8576137d7613654565b5b828206905092915050565b7f4552433732313a206d696e7420746f20746865207a65726f2061646472657373600082015250565b6000613819602083612630565b9150613824826137e3565b602082019050919050565b600060208201905081810360008301526138488161380c565b9050919050565b7f4552433732313a20746f6b656e20616c7265616479206d696e74656400000000600082015250565b6000613885601c83612630565b91506138908261384f565b602082019050919050565b600060208201905081810360008301526138b481613878565b9050919050565b600081519050919050565b600082825260208201905092915050565b60006138e2826138bb565b6138ec81856138c6565b93506138fc818560208601612641565b61390581612674565b840191505092915050565b60006080820190506139256000830187612743565b6139326020830186612743565b61393f60408301856127ad565b818103606083015261395181846138d7565b905095945050505050565b60008151905061396b81612596565b92915050565b600060208284031215613987576139866124d5565b5b60006139958482850161395c565b91505092915050565b7f4e487b7100000000000000000000000000000000000000000000000000000000600052603160045260246000fdfea2646970667358221220c7581f6443f23469095e90e2021b33fd4905672da0bfd4802ffa8134d3c26d6564736f6c634300080a0033",
  "immutableReferences": {
    "3486": [
      {
        "length": 32,
        "start": 1309
      },
      {
        "length": 32,
        "start": 2508
      },
      {
        "length": 32,
        "start": 3729
      }
    ]
  },
  "source": "pragma solidity 0.8.10;\r\nimport '@openzeppelin/contracts/token/ERC20/IERC20.sol';\r\nimport '@openzeppelin/contracts/token/ERC721/extensions/ERC721Enumerable.sol';\r\nimport '@openzeppelin/contracts/access/Ownable.sol';\r\n\r\ncontract WindowsXP is ERC721Enumerable, Ownable {\r\n    //Stores the next available unique token Id\r\n    uint256 uniqueIdCounter = 0;\r\n\r\n    //Stores the token price\r\n    uint256 tokenPrice = 10;\r\n\r\n    //Stores a rebate in token amount to discount on mint\r\n    uint256 tokenPriceRebate = 1;\r\n\r\n    //Stores whether minting is enabled\r\n    bool isMintEnabled = true;\r\n\r\n    //Stores the ERC20 contract's address used to pay\r\n    address public immutable paymentToken;\r\n\r\n    //Percent const to make percentage operations\r\n    uint256 private constant PERCENT = 100;\r\n\r\n    //Checks whether the mint is enabled\r\n    modifier mintEnabled() {\r\n        require(isMintEnabled, 'Mint is no enabled at this moment!');\r\n        _;\r\n    }\r\n\r\n    /**@dev Contructs an ERC721 token, name, symbol\r\n     *      and defines the token contract's address\r\n     *      used to pay\r\n     */\r\n    constructor(address tokenAddress) public ERC721('WindowsXP', 'WXP') {\r\n        paymentToken = tokenAddress;\r\n    }\r\n\r\n    /**@dev Sets a given token price\r\n     *\r\n     * Calling conditions:\r\n     *\r\n     * - Only contract's owner can call this function\r\n     */\r\n    function setTokenPrice(uint256 newTokenPrice) public onlyOwner {\r\n        tokenPrice = newTokenPrice;\r\n    }\r\n\r\n    /**@dev Sets a given price rebate\r\n     *\r\n     * Calling conditions:\r\n     *\r\n     * - Only contract's owner can call this function\r\n     */\r\n    function setTokenPriceRebate(uint256 newTokenPriceRebate) public onlyOwner {\r\n        tokenPriceRebate = newTokenPriceRebate;\r\n    }\r\n\r\n    /**@dev Sets whether this ERC721 mint is enabled\r\n     *\r\n     * Calling conditions:\r\n     *\r\n     * - Only contract's owner can call this function\r\n     */\r\n    function setIsMintEnabled(bool newMintLocked) public onlyOwner {\r\n        isMintEnabled = newMintLocked;\r\n    }\r\n\r\n    /**@dev Mints a token to given address with unique token id\r\n     */\r\n    function _windowsMint(address addresToMint) internal {\r\n        _mint(addresToMint, uniqueIdCounter);\r\n        uniqueIdCounter++;\r\n    }\r\n\r\n    /**@dev Calculates price to pay for given amount of tokens\r\n     */\r\n    function _calculatePrice(uint256 amount) internal view returns (uint256) {\r\n        if (amount == 1) return tokenPrice;\r\n        return (tokenPrice * amount * (PERCENT - tokenPriceRebate)) / PERCENT;\r\n    }\r\n\r\n    /**@notice Mints given amount of tokens to sender address\r\n     *\r\n     * Calling conditions:\r\n     *\r\n     * - Mint has to be enabled\r\n     * - The address of this contract needs to be allowed\r\n     *   to transfer from sender 'tokenPrice * amount' amount\r\n     * - Tokens total price has to be transferred to the address\r\n     *   of this contract\r\n     */\r\n    function mintMultipleTokens(address buyer, uint256 amount)\r\n        public\r\n        mintEnabled\r\n    {\r\n        require(\r\n            IERC20(paymentToken).transferFrom(\r\n                buyer,\r\n                owner(),\r\n                _calculatePrice(amount)\r\n            ),\r\n            'Transfer failed'\r\n        );\r\n\r\n        for (uint256 i = 0; i < amount; i++) {\r\n            _windowsMint(buyer);\r\n        }\r\n    }\r\n\r\n    /**@notice Mints given amount of tokens to sender address}\r\n     *\r\n     * Calling conditions:\r\n     *\r\n     * - Mint has to be enabled\r\n     * - The address of this contract needs to be allowed\r\n     *   to transfer from sender 'tokenPrice * amount' amount\r\n     * - Tokens price has to be transferred to the address\r\n     *   of this contract\r\n     */\r\n    function mintToken(address buyer) public mintEnabled {\r\n        require(\r\n            IERC20(paymentToken).transferFrom(buyer, owner(), tokenPrice),\r\n            'Transfer failed'\r\n        );\r\n        _windowsMint(buyer);\r\n    }\r\n}\r\n",
  "sourcePath": "C:\\Users\\PC\\Documents\\VSCode\\Solidity\\contracts\\WindowsXP.sol",
  "compiler": {
    "name": "solc",
    "version": "0.8.10+commit.fc410830.Emscripten.clang"
  },
  "schemaVersion": "3.4.7",
  "updatedAt": "2022-06-14T20:01:25.923Z",
  "devdoc": {
    "kind": "dev",
    "methods": {
      "approve(address,uint256)": {
        "details": "See {IERC721-approve}."
      },
      "balanceOf(address)": {
        "details": "See {IERC721-balanceOf}."
      },
      "constructor": {
        "details": "Contructs an ERC721 token, name, symbol      and defines the token contract's address      used to pay"
      },
      "getApproved(uint256)": {
        "details": "See {IERC721-getApproved}."
      },
      "isApprovedForAll(address,address)": {
        "details": "See {IERC721-isApprovedForAll}."
      },
      "name()": {
        "details": "See {IERC721Metadata-name}."
      },
      "owner()": {
        "details": "Returns the address of the current owner."
      },
      "ownerOf(uint256)": {
        "details": "See {IERC721-ownerOf}."
      },
      "renounceOwnership()": {
        "details": "Leaves the contract without owner. It will not be possible to call `onlyOwner` functions anymore. Can only be called by the current owner. NOTE: Renouncing ownership will leave the contract without an owner, thereby removing any functionality that is only available to the owner."
      },
      "safeTransferFrom(address,address,uint256)": {
        "details": "See {IERC721-safeTransferFrom}."
      },
      "safeTransferFrom(address,address,uint256,bytes)": {
        "details": "See {IERC721-safeTransferFrom}."
      },
      "setApprovalForAll(address,bool)": {
        "details": "See {IERC721-setApprovalForAll}."
      },
      "setIsMintEnabled(bool)": {
        "details": "Sets whether this ERC721 mint is enabled Calling conditions: - Only contract's owner can call this function"
      },
      "setTokenPrice(uint256)": {
        "details": "Sets a given token price Calling conditions: - Only contract's owner can call this function"
      },
      "setTokenPriceRebate(uint256)": {
        "details": "Sets a given price rebate Calling conditions: - Only contract's owner can call this function"
      },
      "supportsInterface(bytes4)": {
        "details": "See {IERC165-supportsInterface}."
      },
      "symbol()": {
        "details": "See {IERC721Metadata-symbol}."
      },
      "tokenByIndex(uint256)": {
        "details": "See {IERC721Enumerable-tokenByIndex}."
      },
      "tokenOfOwnerByIndex(address,uint256)": {
        "details": "See {IERC721Enumerable-tokenOfOwnerByIndex}."
      },
      "tokenURI(uint256)": {
        "details": "See {IERC721Metadata-tokenURI}."
      },
      "totalSupply()": {
        "details": "See {IERC721Enumerable-totalSupply}."
      },
      "transferFrom(address,address,uint256)": {
        "details": "See {IERC721-transferFrom}."
      },
      "transferOwnership(address)": {
        "details": "Transfers ownership of the contract to a new account (`newOwner`). Can only be called by the current owner."
      }
    },
    "version": 1
  },
  "userdoc": {
    "kind": "user",
    "methods": {
      "mintMultipleTokens(address,uint256)": {
        "notice": "Mints given amount of tokens to sender address Calling conditions: - Mint has to be enabled - The address of this contract needs to be allowed   to transfer from sender 'tokenPrice * amount' amount - Tokens total price has to be transferred to the address   of this contract"
      },
      "mintToken(address)": {
        "notice": "Mints given amount of tokens to sender address} Calling conditions: - Mint has to be enabled - The address of this contract needs to be allowed   to transfer from sender 'tokenPrice * amount' amount - Tokens price has to be transferred to the address   of this contract"
      }
    },
    "version": 1
  }
}