{
  "contractName": "Windows",
  "abi": [
    {
      "inputs": [
        {
          "internalType": "address",
          "name": "tokenAddress",
          "type": "address"
        }
      ],
      "stateMutability": "nonpayable",
      "type": "constructor"
    },
    {
      "anonymous": false,
      "inputs": [
        {
          "indexed": true,
          "internalType": "address",
          "name": "owner",
          "type": "address"
        },
        {
          "indexed": true,
          "internalType": "address",
          "name": "approved",
          "type": "address"
        },
        {
          "indexed": true,
          "internalType": "uint256",
          "name": "tokenId",
          "type": "uint256"
        }
      ],
      "name": "Approval",
      "type": "event"
    },
    {
      "anonymous": false,
      "inputs": [
        {
          "indexed": true,
          "internalType": "address",
          "name": "owner",
          "type": "address"
        },
        {
          "indexed": true,
          "internalType": "address",
          "name": "operator",
          "type": "address"
        },
        {
          "indexed": false,
          "internalType": "bool",
          "name": "approved",
          "type": "bool"
        }
      ],
      "name": "ApprovalForAll",
      "type": "event"
    },
    {
      "anonymous": false,
      "inputs": [
        {
          "indexed": true,
          "internalType": "address",
          "name": "previousOwner",
          "type": "address"
        },
        {
          "indexed": true,
          "internalType": "address",
          "name": "newOwner",
          "type": "address"
        }
      ],
      "name": "OwnershipTransferred",
      "type": "event"
    },
    {
      "anonymous": false,
      "inputs": [
        {
          "indexed": true,
          "internalType": "address",
          "name": "from",
          "type": "address"
        },
        {
          "indexed": true,
          "internalType": "address",
          "name": "to",
          "type": "address"
        },
        {
          "indexed": true,
          "internalType": "uint256",
          "name": "tokenId",
          "type": "uint256"
        }
      ],
      "name": "Transfer",
      "type": "event"
    },
    {
      "inputs": [
        {
          "internalType": "address",
          "name": "to",
          "type": "address"
        },
        {
          "internalType": "uint256",
          "name": "tokenId",
          "type": "uint256"
        }
      ],
      "name": "approve",
      "outputs": [],
      "stateMutability": "nonpayable",
      "type": "function"
    },
    {
      "inputs": [
        {
          "internalType": "address",
          "name": "owner",
          "type": "address"
        }
      ],
      "name": "balanceOf",
      "outputs": [
        {
          "internalType": "uint256",
          "name": "",
          "type": "uint256"
        }
      ],
      "stateMutability": "view",
      "type": "function"
    },
    {
      "inputs": [
        {
          "internalType": "uint256",
          "name": "tokenId",
          "type": "uint256"
        }
      ],
      "name": "getApproved",
      "outputs": [
        {
          "internalType": "address",
          "name": "",
          "type": "address"
        }
      ],
      "stateMutability": "view",
      "type": "function"
    },
    {
      "inputs": [
        {
          "internalType": "address",
          "name": "owner",
          "type": "address"
        },
        {
          "internalType": "address",
          "name": "operator",
          "type": "address"
        }
      ],
      "name": "isApprovedForAll",
      "outputs": [
        {
          "internalType": "bool",
          "name": "",
          "type": "bool"
        }
      ],
      "stateMutability": "view",
      "type": "function"
    },
    {
      "inputs": [],
      "name": "name",
      "outputs": [
        {
          "internalType": "string",
          "name": "",
          "type": "string"
        }
      ],
      "stateMutability": "view",
      "type": "function"
    },
    {
      "inputs": [],
      "name": "owner",
      "outputs": [
        {
          "internalType": "address",
          "name": "",
          "type": "address"
        }
      ],
      "stateMutability": "view",
      "type": "function"
    },
    {
      "inputs": [
        {
          "internalType": "uint256",
          "name": "tokenId",
          "type": "uint256"
        }
      ],
      "name": "ownerOf",
      "outputs": [
        {
          "internalType": "address",
          "name": "",
          "type": "address"
        }
      ],
      "stateMutability": "view",
      "type": "function"
    },
    {
      "inputs": [],
      "name": "paymentToken",
      "outputs": [
        {
          "internalType": "address",
          "name": "",
          "type": "address"
        }
      ],
      "stateMutability": "view",
      "type": "function"
    },
    {
      "inputs": [],
      "name": "renounceOwnership",
      "outputs": [],
      "stateMutability": "nonpayable",
      "type": "function"
    },
    {
      "inputs": [
        {
          "internalType": "address",
          "name": "from",
          "type": "address"
        },
        {
          "internalType": "address",
          "name": "to",
          "type": "address"
        },
        {
          "internalType": "uint256",
          "name": "tokenId",
          "type": "uint256"
        }
      ],
      "name": "safeTransferFrom",
      "outputs": [],
      "stateMutability": "nonpayable",
      "type": "function"
    },
    {
      "inputs": [
        {
          "internalType": "address",
          "name": "from",
          "type": "address"
        },
        {
          "internalType": "address",
          "name": "to",
          "type": "address"
        },
        {
          "internalType": "uint256",
          "name": "tokenId",
          "type": "uint256"
        },
        {
          "internalType": "bytes",
          "name": "_data",
          "type": "bytes"
        }
      ],
      "name": "safeTransferFrom",
      "outputs": [],
      "stateMutability": "nonpayable",
      "type": "function"
    },
    {
      "inputs": [
        {
          "internalType": "address",
          "name": "operator",
          "type": "address"
        },
        {
          "internalType": "bool",
          "name": "approved",
          "type": "bool"
        }
      ],
      "name": "setApprovalForAll",
      "outputs": [],
      "stateMutability": "nonpayable",
      "type": "function"
    },
    {
      "inputs": [
        {
          "internalType": "bytes4",
          "name": "interfaceId",
          "type": "bytes4"
        }
      ],
      "name": "supportsInterface",
      "outputs": [
        {
          "internalType": "bool",
          "name": "",
          "type": "bool"
        }
      ],
      "stateMutability": "view",
      "type": "function"
    },
    {
      "inputs": [],
      "name": "symbol",
      "outputs": [
        {
          "internalType": "string",
          "name": "",
          "type": "string"
        }
      ],
      "stateMutability": "view",
      "type": "function"
    },
    {
      "inputs": [
        {
          "internalType": "uint256",
          "name": "index",
          "type": "uint256"
        }
      ],
      "name": "tokenByIndex",
      "outputs": [
        {
          "internalType": "uint256",
          "name": "",
          "type": "uint256"
        }
      ],
      "stateMutability": "view",
      "type": "function"
    },
    {
      "inputs": [
        {
          "internalType": "address",
          "name": "owner",
          "type": "address"
        },
        {
          "internalType": "uint256",
          "name": "index",
          "type": "uint256"
        }
      ],
      "name": "tokenOfOwnerByIndex",
      "outputs": [
        {
          "internalType": "uint256",
          "name": "",
          "type": "uint256"
        }
      ],
      "stateMutability": "view",
      "type": "function"
    },
    {
      "inputs": [
        {
          "internalType": "uint256",
          "name": "tokenId",
          "type": "uint256"
        }
      ],
      "name": "tokenURI",
      "outputs": [
        {
          "internalType": "string",
          "name": "",
          "type": "string"
        }
      ],
      "stateMutability": "view",
      "type": "function"
    },
    {
      "inputs": [],
      "name": "totalSupply",
      "outputs": [
        {
          "internalType": "uint256",
          "name": "",
          "type": "uint256"
        }
      ],
      "stateMutability": "view",
      "type": "function"
    },
    {
      "inputs": [
        {
          "internalType": "address",
          "name": "from",
          "type": "address"
        },
        {
          "internalType": "address",
          "name": "to",
          "type": "address"
        },
        {
          "internalType": "uint256",
          "name": "tokenId",
          "type": "uint256"
        }
      ],
      "name": "transferFrom",
      "outputs": [],
      "stateMutability": "nonpayable",
      "type": "function"
    },
    {
      "inputs": [
        {
          "internalType": "address",
          "name": "newOwner",
          "type": "address"
        }
      ],
      "name": "transferOwnership",
      "outputs": [],
      "stateMutability": "nonpayable",
      "type": "function"
    },
    {
      "stateMutability": "payable",
      "type": "receive"
    },
    {
      "inputs": [
        {
          "internalType": "uint256",
          "name": "newTokenPrice",
          "type": "uint256"
        }
      ],
      "name": "setTokenPrice",
      "outputs": [],
      "stateMutability": "nonpayable",
      "type": "function"
    },
    {
      "inputs": [],
      "name": "mintToken",
      "outputs": [],
      "stateMutability": "nonpayable",
      "type": "function"
    }
  ],
  "bytecode": "0x60a06040526000600b55600a600c553480156200001b57600080fd5b5060405162003aed38038062003aed833981810160405281019062000041919062000324565b6040518060400160405280600781526020017f57696e646f7773000000000000000000000000000000000000000000000000008152506040518060400160405280600381526020017f574e4400000000000000000000000000000000000000000000000000000000008152508160009080519060200190620000c59291906200020a565b508060019080519060200190620000de9291906200020a565b50505062000101620000f56200013c60201b60201c565b6200014460201b60201c565b8073ffffffffffffffffffffffffffffffffffffffff1660808173ffffffffffffffffffffffffffffffffffffffff168152505050620003bb565b600033905090565b6000600a60009054906101000a900473ffffffffffffffffffffffffffffffffffffffff16905081600a60006101000a81548173ffffffffffffffffffffffffffffffffffffffff021916908373ffffffffffffffffffffffffffffffffffffffff1602179055508173ffffffffffffffffffffffffffffffffffffffff168173ffffffffffffffffffffffffffffffffffffffff167f8be0079c531659141344cd1fd0a4f28419497f9722a3daafe3b4186f6b6457e060405160405180910390a35050565b828054620002189062000385565b90600052602060002090601f0160209004810192826200023c576000855562000288565b82601f106200025757805160ff191683800117855562000288565b8280016001018555821562000288579182015b82811115620002875782518255916020019190600101906200026a565b5b5090506200029791906200029b565b5090565b5b80821115620002b65760008160009055506001016200029c565b5090565b600080fd5b600073ffffffffffffffffffffffffffffffffffffffff82169050919050565b6000620002ec82620002bf565b9050919050565b620002fe81620002df565b81146200030a57600080fd5b50565b6000815190506200031e81620002f3565b92915050565b6000602082840312156200033d576200033c620002ba565b5b60006200034d848285016200030d565b91505092915050565b7f4e487b7100000000000000000000000000000000000000000000000000000000600052602260045260246000fd5b600060028204905060018216806200039e57607f821691505b60208210811415620003b557620003b462000356565b5b50919050565b60805161370f620003de60003960008181610a4b0152610c5e015261370f6000f3fe6080604052600436106101395760003560e01c80636352211e116100ab57806395d89b411161006f57806395d89b4114610499578063a22cb465146104c4578063b88d4fde146104ed578063c87b56dd14610516578063e985e9c514610553578063f2fde38b14610590576101a8565b80636352211e146103b45780636a61e5fc146103f157806370a082311461041a578063715018a6146104575780638da5cb5b1461046e576101a8565b80632004ffd9116100fd5780632004ffd9146102a657806323b872dd146102bd5780632f745c59146102e65780633013ce291461032357806342842e0e1461034e5780634f6ccce714610377576101a8565b806301ffc9a7146101ad57806306fdde03146101ea578063081812fc14610215578063095ea7b31461025257806318160ddd1461027b576101a8565b366101a857600c543411610182576040517f08c379a0000000000000000000000000000000000000000000000000000000008152600401610179906122e1565b60405180910390fd5b61018e33600b546105b9565b600b60008154809291906101a19061233a565b9190505550005b600080fd5b3480156101b957600080fd5b506101d460048036038101906101cf91906123ef565b610793565b6040516101e19190612437565b60405180910390f35b3480156101f657600080fd5b506101ff61080d565b60405161020c91906124da565b60405180910390f35b34801561022157600080fd5b5061023c60048036038101906102379190612528565b61089f565b6040516102499190612596565b60405180910390f35b34801561025e57600080fd5b50610279600480360381019061027491906125dd565b610924565b005b34801561028757600080fd5b50610290610a3c565b60405161029d919061262c565b60405180910390f35b3480156102b257600080fd5b506102bb610a49565b005b3480156102c957600080fd5b506102e460048036038101906102df9190612647565b610b57565b005b3480156102f257600080fd5b5061030d600480360381019061030891906125dd565b610bb7565b60405161031a919061262c565b60405180910390f35b34801561032f57600080fd5b50610338610c5c565b6040516103459190612596565b60405180910390f35b34801561035a57600080fd5b5061037560048036038101906103709190612647565b610c80565b005b34801561038357600080fd5b5061039e60048036038101906103999190612528565b610ca0565b6040516103ab919061262c565b60405180910390f35b3480156103c057600080fd5b506103db60048036038101906103d69190612528565b610d11565b6040516103e89190612596565b60405180910390f35b3480156103fd57600080fd5b5061041860048036038101906104139190612528565b610dc3565b005b34801561042657600080fd5b50610441600480360381019061043c919061269a565b610e49565b60405161044e919061262c565b60405180910390f35b34801561046357600080fd5b5061046c610f01565b005b34801561047a57600080fd5b50610483610f89565b6040516104909190612596565b60405180910390f35b3480156104a557600080fd5b506104ae610fb3565b6040516104bb91906124da565b60405180910390f35b3480156104d057600080fd5b506104eb60048036038101906104e691906126f3565b611045565b005b3480156104f957600080fd5b50610514600480360381019061050f9190612868565b61105b565b005b34801561052257600080fd5b5061053d60048036038101906105389190612528565b6110bd565b60405161054a91906124da565b60405180910390f35b34801561055f57600080fd5b5061057a600480360381019061057591906128eb565b611164565b6040516105879190612437565b60405180910390f35b34801561059c57600080fd5b506105b760048036038101906105b2919061269a565b6111f8565b005b600073ffffffffffffffffffffffffffffffffffffffff168273ffffffffffffffffffffffffffffffffffffffff161415610629576040517f08c379a000000000000000000000000000000000000000000000000000000000815260040161062090612977565b60405180910390fd5b610632816112f0565b15610672576040517f08c379a0000000000000000000000000000000000000000000000000000000008152600401610669906129e3565b60405180910390fd5b61067e6000838361135c565b6001600360008473ffffffffffffffffffffffffffffffffffffffff1673ffffffffffffffffffffffffffffffffffffffff16815260200190815260200160002060008282546106ce9190612a03565b92505081905550816002600083815260200190815260200160002060006101000a81548173ffffffffffffffffffffffffffffffffffffffff021916908373ffffffffffffffffffffffffffffffffffffffff160217905550808273ffffffffffffffffffffffffffffffffffffffff16600073ffffffffffffffffffffffffffffffffffffffff167fddf252ad1be2c89b69c2b068fc378daa952ba7f163c4a11628f55a4df523b3ef60405160405180910390a461078f60008383611470565b5050565b60007f780e9d63000000000000000000000000000000000000000000000000000000007bffffffffffffffffffffffffffffffffffffffffffffffffffffffff1916827bffffffffffffffffffffffffffffffffffffffffffffffffffffffff19161480610806575061080582611475565b5b9050919050565b60606000805461081c90612a88565b80601f016020809104026020016040519081016040528092919081815260200182805461084890612a88565b80156108955780601f1061086a57610100808354040283529160200191610895565b820191906000526020600020905b81548152906001019060200180831161087857829003601f168201915b5050505050905090565b60006108aa826112f0565b6108e9576040517f08c379a00000000000000000000000000000000000000000000000000000000081526004016108e090612b2c565b60405180910390fd5b6004600083815260200190815260200160002060009054906101000a900473ffffffffffffffffffffffffffffffffffffffff169050919050565b600061092f82610d11565b90508073ffffffffffffffffffffffffffffffffffffffff168373ffffffffffffffffffffffffffffffffffffffff1614156109a0576040517f08c379a000000000000000000000000000000000000000000000000000000000815260040161099790612bbe565b60405180910390fd5b8073ffffffffffffffffffffffffffffffffffffffff166109bf611557565b73ffffffffffffffffffffffffffffffffffffffff1614806109ee57506109ed816109e8611557565b611164565b5b610a2d576040517f08c379a0000000000000000000000000000000000000000000000000000000008152600401610a2490612c50565b60405180910390fd5b610a37838361155f565b505050565b6000600880549050905090565b7f000000000000000000000000000000000000000000000000000000000000000073ffffffffffffffffffffffffffffffffffffffff166323b872dd33610a8e610f89565b600c546040518463ffffffff1660e01b8152600401610aaf93929190612c70565b6020604051808303816000875af1158015610ace573d6000803e3d6000fd5b505050506040513d601f19601f82011682018060405250810190610af29190612cbc565b610b31576040517f08c379a0000000000000000000000000000000000000000000000000000000008152600401610b2890612d35565b60405180910390fd5b610b3d33600b546105b9565b600b6000815480929190610b509061233a565b9190505550565b610b68610b62611557565b82611618565b610ba7576040517f08c379a0000000000000000000000000000000000000000000000000000000008152600401610b9e90612dc7565b60405180910390fd5b610bb28383836116f6565b505050565b6000610bc283610e49565b8210610c03576040517f08c379a0000000000000000000000000000000000000000000000000000000008152600401610bfa90612e59565b60405180910390fd5b600660008473ffffffffffffffffffffffffffffffffffffffff1673ffffffffffffffffffffffffffffffffffffffff168152602001908152602001600020600083815260200190815260200160002054905092915050565b7f000000000000000000000000000000000000000000000000000000000000000081565b610c9b8383836040518060200160405280600081525061105b565b505050565b6000610caa610a3c565b8210610ceb576040517f08c379a0000000000000000000000000000000000000000000000000000000008152600401610ce290612eeb565b60405180910390fd5b60088281548110610cff57610cfe612f0b565b5b90600052602060002001549050919050565b6000806002600084815260200190815260200160002060009054906101000a900473ffffffffffffffffffffffffffffffffffffffff169050600073ffffffffffffffffffffffffffffffffffffffff168173ffffffffffffffffffffffffffffffffffffffff161415610dba576040517f08c379a0000000000000000000000000000000000000000000000000000000008152600401610db190612fac565b60405180910390fd5b80915050919050565b610dcb611557565b73ffffffffffffffffffffffffffffffffffffffff16610de9610f89565b73ffffffffffffffffffffffffffffffffffffffff1614610e3f576040517f08c379a0000000000000000000000000000000000000000000000000000000008152600401610e3690613018565b60405180910390fd5b80600c8190555050565b60008073ffffffffffffffffffffffffffffffffffffffff168273ffffffffffffffffffffffffffffffffffffffff161415610eba576040517f08c379a0000000000000000000000000000000000000000000000000000000008152600401610eb1906130aa565b60405180910390fd5b600360008373ffffffffffffffffffffffffffffffffffffffff1673ffffffffffffffffffffffffffffffffffffffff168152602001908152602001600020549050919050565b610f09611557565b73ffffffffffffffffffffffffffffffffffffffff16610f27610f89565b73ffffffffffffffffffffffffffffffffffffffff1614610f7d576040517f08c379a0000000000000000000000000000000000000000000000000000000008152600401610f7490613018565b60405180910390fd5b610f87600061195d565b565b6000600a60009054906101000a900473ffffffffffffffffffffffffffffffffffffffff16905090565b606060018054610fc290612a88565b80601f0160208091040260200160405190810160405280929190818152602001828054610fee90612a88565b801561103b5780601f106110105761010080835404028352916020019161103b565b820191906000526020600020905b81548152906001019060200180831161101e57829003601f168201915b5050505050905090565b611057611050611557565b8383611a23565b5050565b61106c611066611557565b83611618565b6110ab576040517f08c379a00000000000000000000000000000000000000000000000000000000081526004016110a290612dc7565b60405180910390fd5b6110b784848484611b90565b50505050565b60606110c8826112f0565b611107576040517f08c379a00000000000000000000000000000000000000000000000000000000081526004016110fe9061313c565b60405180910390fd5b6000611111611bec565b90506000815111611131576040518060200160405280600081525061115c565b8061113b84611c03565b60405160200161114c929190613198565b6040516020818303038152906040525b915050919050565b6000600560008473ffffffffffffffffffffffffffffffffffffffff1673ffffffffffffffffffffffffffffffffffffffff16815260200190815260200160002060008373ffffffffffffffffffffffffffffffffffffffff1673ffffffffffffffffffffffffffffffffffffffff16815260200190815260200160002060009054906101000a900460ff16905092915050565b611200611557565b73ffffffffffffffffffffffffffffffffffffffff1661121e610f89565b73ffffffffffffffffffffffffffffffffffffffff1614611274576040517f08c379a000000000000000000000000000000000000000000000000000000000815260040161126b90613018565b60405180910390fd5b600073ffffffffffffffffffffffffffffffffffffffff168173ffffffffffffffffffffffffffffffffffffffff1614156112e4576040517f08c379a00000000000000000000000000000000000000000000000000000000081526004016112db9061322e565b60405180910390fd5b6112ed8161195d565b50565b60008073ffffffffffffffffffffffffffffffffffffffff166002600084815260200190815260200160002060009054906101000a900473ffffffffffffffffffffffffffffffffffffffff1673ffffffffffffffffffffffffffffffffffffffff1614159050919050565b611367838383611d64565b600073ffffffffffffffffffffffffffffffffffffffff168373ffffffffffffffffffffffffffffffffffffffff1614156113aa576113a581611d69565b6113e9565b8173ffffffffffffffffffffffffffffffffffffffff168373ffffffffffffffffffffffffffffffffffffffff16146113e8576113e78382611db2565b5b5b600073ffffffffffffffffffffffffffffffffffffffff168273ffffffffffffffffffffffffffffffffffffffff16141561142c5761142781611f1f565b61146b565b8273ffffffffffffffffffffffffffffffffffffffff168273ffffffffffffffffffffffffffffffffffffffff161461146a576114698282611ff0565b5b5b505050565b505050565b60007f80ac58cd000000000000000000000000000000000000000000000000000000007bffffffffffffffffffffffffffffffffffffffffffffffffffffffff1916827bffffffffffffffffffffffffffffffffffffffffffffffffffffffff1916148061154057507f5b5e139f000000000000000000000000000000000000000000000000000000007bffffffffffffffffffffffffffffffffffffffffffffffffffffffff1916827bffffffffffffffffffffffffffffffffffffffffffffffffffffffff1916145b80611550575061154f8261206f565b5b9050919050565b600033905090565b816004600083815260200190815260200160002060006101000a81548173ffffffffffffffffffffffffffffffffffffffff021916908373ffffffffffffffffffffffffffffffffffffffff160217905550808273ffffffffffffffffffffffffffffffffffffffff166115d283610d11565b73ffffffffffffffffffffffffffffffffffffffff167f8c5be1e5ebec7d5bd14f71427d1e84f3dd0314c0f7b2291e5b200ac8c7c3b92560405160405180910390a45050565b6000611623826112f0565b611662576040517f08c379a0000000000000000000000000000000000000000000000000000000008152600401611659906132c0565b60405180910390fd5b600061166d83610d11565b90508073ffffffffffffffffffffffffffffffffffffffff168473ffffffffffffffffffffffffffffffffffffffff1614806116af57506116ae8185611164565b5b806116ed57508373ffffffffffffffffffffffffffffffffffffffff166116d58461089f565b73ffffffffffffffffffffffffffffffffffffffff16145b91505092915050565b8273ffffffffffffffffffffffffffffffffffffffff1661171682610d11565b73ffffffffffffffffffffffffffffffffffffffff161461176c576040517f08c379a000000000000000000000000000000000000000000000000000000000815260040161176390613352565b60405180910390fd5b600073ffffffffffffffffffffffffffffffffffffffff168273ffffffffffffffffffffffffffffffffffffffff1614156117dc576040517f08c379a00000000000000000000000000000000000000000000000000000000081526004016117d3906133e4565b60405180910390fd5b6117e783838361135c565b6117f260008261155f565b6001600360008573ffffffffffffffffffffffffffffffffffffffff1673ffffffffffffffffffffffffffffffffffffffff16815260200190815260200160002060008282546118429190613404565b925050819055506001600360008473ffffffffffffffffffffffffffffffffffffffff1673ffffffffffffffffffffffffffffffffffffffff16815260200190815260200160002060008282546118999190612a03565b92505081905550816002600083815260200190815260200160002060006101000a81548173ffffffffffffffffffffffffffffffffffffffff021916908373ffffffffffffffffffffffffffffffffffffffff160217905550808273ffffffffffffffffffffffffffffffffffffffff168473ffffffffffffffffffffffffffffffffffffffff167fddf252ad1be2c89b69c2b068fc378daa952ba7f163c4a11628f55a4df523b3ef60405160405180910390a4611958838383611470565b505050565b6000600a60009054906101000a900473ffffffffffffffffffffffffffffffffffffffff16905081600a60006101000a81548173ffffffffffffffffffffffffffffffffffffffff021916908373ffffffffffffffffffffffffffffffffffffffff1602179055508173ffffffffffffffffffffffffffffffffffffffff168173ffffffffffffffffffffffffffffffffffffffff167f8be0079c531659141344cd1fd0a4f28419497f9722a3daafe3b4186f6b6457e060405160405180910390a35050565b8173ffffffffffffffffffffffffffffffffffffffff168373ffffffffffffffffffffffffffffffffffffffff161415611a92576040517f08c379a0000000000000000000000000000000000000000000000000000000008152600401611a8990613484565b60405180910390fd5b80600560008573ffffffffffffffffffffffffffffffffffffffff1673ffffffffffffffffffffffffffffffffffffffff16815260200190815260200160002060008473ffffffffffffffffffffffffffffffffffffffff1673ffffffffffffffffffffffffffffffffffffffff16815260200190815260200160002060006101000a81548160ff0219169083151502179055508173ffffffffffffffffffffffffffffffffffffffff168373ffffffffffffffffffffffffffffffffffffffff167f17307eab39ab6107e8899845ad3d59bd9653f200f220920489ca2b5937696c3183604051611b839190612437565b60405180910390a3505050565b611b9b8484846116f6565b611ba7848484846120d9565b611be6576040517f08c379a0000000000000000000000000000000000000000000000000000000008152600401611bdd90613516565b60405180910390fd5b50505050565b606060405180602001604052806000815250905090565b60606000821415611c4b576040518060400160405280600181526020017f30000000000000000000000000000000000000000000000000000000000000008152509050611d5f565b600082905060005b60008214611c7d578080611c669061233a565b915050600a82611c769190613565565b9150611c53565b60008167ffffffffffffffff811115611c9957611c9861273d565b5b6040519080825280601f01601f191660200182016040528015611ccb5781602001600182028036833780820191505090505b5090505b60008514611d5857600182611ce49190613404565b9150600a85611cf39190613596565b6030611cff9190612a03565b60f81b818381518110611d1557611d14612f0b565b5b60200101907effffffffffffffffffffffffffffffffffffffffffffffffffffffffffffff1916908160001a905350600a85611d519190613565565b9450611ccf565b8093505050505b919050565b505050565b6008805490506009600083815260200190815260200160002081905550600881908060018154018082558091505060019003906000526020600020016000909190919091505550565b60006001611dbf84610e49565b611dc99190613404565b9050600060076000848152602001908152602001600020549050818114611eae576000600660008673ffffffffffffffffffffffffffffffffffffffff1673ffffffffffffffffffffffffffffffffffffffff168152602001908152602001600020600084815260200190815260200160002054905080600660008773ffffffffffffffffffffffffffffffffffffffff1673ffffffffffffffffffffffffffffffffffffffff168152602001908152602001600020600084815260200190815260200160002081905550816007600083815260200190815260200160002081905550505b6007600084815260200190815260200160002060009055600660008573ffffffffffffffffffffffffffffffffffffffff1673ffffffffffffffffffffffffffffffffffffffff16815260200190815260200160002060008381526020019081526020016000206000905550505050565b60006001600880549050611f339190613404565b9050600060096000848152602001908152602001600020549050600060088381548110611f6357611f62612f0b565b5b906000526020600020015490508060088381548110611f8557611f84612f0b565b5b906000526020600020018190555081600960008381526020019081526020016000208190555060096000858152602001908152602001600020600090556008805480611fd457611fd36135c7565b5b6001900381819060005260206000200160009055905550505050565b6000611ffb83610e49565b905081600660008573ffffffffffffffffffffffffffffffffffffffff1673ffffffffffffffffffffffffffffffffffffffff168152602001908152602001600020600083815260200190815260200160002081905550806007600084815260200190815260200160002081905550505050565b60007f01ffc9a7000000000000000000000000000000000000000000000000000000007bffffffffffffffffffffffffffffffffffffffffffffffffffffffff1916827bffffffffffffffffffffffffffffffffffffffffffffffffffffffff1916149050919050565b60006120fa8473ffffffffffffffffffffffffffffffffffffffff16612261565b15612254578373ffffffffffffffffffffffffffffffffffffffff1663150b7a02612123611557565b8786866040518563ffffffff1660e01b8152600401612145949392919061364b565b6020604051808303816000875af192505050801561218157506040513d601f19601f8201168201806040525081019061217e91906136ac565b60015b612204573d80600081146121b1576040519150601f19603f3d011682016040523d82523d6000602084013e6121b6565b606091505b506000815114156121fc576040517f08c379a00000000000000000000000000000000000000000000000000000000081526004016121f390613516565b60405180910390fd5b805181602001fd5b63150b7a0260e01b7bffffffffffffffffffffffffffffffffffffffffffffffffffffffff1916817bffffffffffffffffffffffffffffffffffffffffffffffffffffffff191614915050612259565b600190505b949350505050565b6000808273ffffffffffffffffffffffffffffffffffffffff163b119050919050565b600082825260208201905092915050565b7f457468206973206e6f7420656e6f756768000000000000000000000000000000600082015250565b60006122cb601183612284565b91506122d682612295565b602082019050919050565b600060208201905081810360008301526122fa816122be565b9050919050565b7f4e487b7100000000000000000000000000000000000000000000000000000000600052601160045260246000fd5b6000819050919050565b600061234582612330565b91507fffffffffffffffffffffffffffffffffffffffffffffffffffffffffffffffff82141561237857612377612301565b5b600182019050919050565b6000604051905090565b600080fd5b600080fd5b60007fffffffff0000000000000000000000000000000000000000000000000000000082169050919050565b6123cc81612397565b81146123d757600080fd5b50565b6000813590506123e9816123c3565b92915050565b6000602082840312156124055761240461238d565b5b6000612413848285016123da565b91505092915050565b60008115159050919050565b6124318161241c565b82525050565b600060208201905061244c6000830184612428565b92915050565b600081519050919050565b60005b8381101561247b578082015181840152602081019050612460565b8381111561248a576000848401525b50505050565b6000601f19601f8301169050919050565b60006124ac82612452565b6124b68185612284565b93506124c681856020860161245d565b6124cf81612490565b840191505092915050565b600060208201905081810360008301526124f481846124a1565b905092915050565b61250581612330565b811461251057600080fd5b50565b600081359050612522816124fc565b92915050565b60006020828403121561253e5761253d61238d565b5b600061254c84828501612513565b91505092915050565b600073ffffffffffffffffffffffffffffffffffffffff82169050919050565b600061258082612555565b9050919050565b61259081612575565b82525050565b60006020820190506125ab6000830184612587565b92915050565b6125ba81612575565b81146125c557600080fd5b50565b6000813590506125d7816125b1565b92915050565b600080604083850312156125f4576125f361238d565b5b6000612602858286016125c8565b925050602061261385828601612513565b9150509250929050565b61262681612330565b82525050565b6000602082019050612641600083018461261d565b92915050565b6000806000606084860312156126605761265f61238d565b5b600061266e868287016125c8565b935050602061267f868287016125c8565b925050604061269086828701612513565b9150509250925092565b6000602082840312156126b0576126af61238d565b5b60006126be848285016125c8565b91505092915050565b6126d08161241c565b81146126db57600080fd5b50565b6000813590506126ed816126c7565b92915050565b6000806040838503121561270a5761270961238d565b5b6000612718858286016125c8565b9250506020612729858286016126de565b9150509250929050565b600080fd5b600080fd5b7f4e487b7100000000000000000000000000000000000000000000000000000000600052604160045260246000fd5b61277582612490565b810181811067ffffffffffffffff821117156127945761279361273d565b5b80604052505050565b60006127a7612383565b90506127b3828261276c565b919050565b600067ffffffffffffffff8211156127d3576127d261273d565b5b6127dc82612490565b9050602081019050919050565b82818337600083830152505050565b600061280b612806846127b8565b61279d565b90508281526020810184848401111561282757612826612738565b5b6128328482856127e9565b509392505050565b600082601f83011261284f5761284e612733565b5b813561285f8482602086016127f8565b91505092915050565b600080600080608085870312156128825761288161238d565b5b6000612890878288016125c8565b94505060206128a1878288016125c8565b93505060406128b287828801612513565b925050606085013567ffffffffffffffff8111156128d3576128d2612392565b5b6128df8782880161283a565b91505092959194509250565b600080604083850312156129025761290161238d565b5b6000612910858286016125c8565b9250506020612921858286016125c8565b9150509250929050565b7f4552433732313a206d696e7420746f20746865207a65726f2061646472657373600082015250565b6000612961602083612284565b915061296c8261292b565b602082019050919050565b6000602082019050818103600083015261299081612954565b9050919050565b7f4552433732313a20746f6b656e20616c7265616479206d696e74656400000000600082015250565b60006129cd601c83612284565b91506129d882612997565b602082019050919050565b600060208201905081810360008301526129fc816129c0565b9050919050565b6000612a0e82612330565b9150612a1983612330565b9250827fffffffffffffffffffffffffffffffffffffffffffffffffffffffffffffffff03821115612a4e57612a4d612301565b5b828201905092915050565b7f4e487b7100000000000000000000000000000000000000000000000000000000600052602260045260246000fd5b60006002820490506001821680612aa057607f821691505b60208210811415612ab457612ab3612a59565b5b50919050565b7f4552433732313a20617070726f76656420717565727920666f72206e6f6e657860008201527f697374656e7420746f6b656e0000000000000000000000000000000000000000602082015250565b6000612b16602c83612284565b9150612b2182612aba565b604082019050919050565b60006020820190508181036000830152612b4581612b09565b9050919050565b7f4552433732313a20617070726f76616c20746f2063757272656e74206f776e6560008201527f7200000000000000000000000000000000000000000000000000000000000000602082015250565b6000612ba8602183612284565b9150612bb382612b4c565b604082019050919050565b60006020820190508181036000830152612bd781612b9b565b9050919050565b7f4552433732313a20617070726f76652063616c6c6572206973206e6f74206f7760008201527f6e6572206e6f7220617070726f76656420666f7220616c6c0000000000000000602082015250565b6000612c3a603883612284565b9150612c4582612bde565b604082019050919050565b60006020820190508181036000830152612c6981612c2d565b9050919050565b6000606082019050612c856000830186612587565b612c926020830185612587565b612c9f604083018461261d565b949350505050565b600081519050612cb6816126c7565b92915050565b600060208284031215612cd257612cd161238d565b5b6000612ce084828501612ca7565b91505092915050565b7f5472616e73666572206661696c65640000000000000000000000000000000000600082015250565b6000612d1f600f83612284565b9150612d2a82612ce9565b602082019050919050565b60006020820190508181036000830152612d4e81612d12565b9050919050565b7f4552433732313a207472616e736665722063616c6c6572206973206e6f74206f60008201527f776e6572206e6f7220617070726f766564000000000000000000000000000000602082015250565b6000612db1603183612284565b9150612dbc82612d55565b604082019050919050565b60006020820190508181036000830152612de081612da4565b9050919050565b7f455243373231456e756d657261626c653a206f776e657220696e646578206f7560008201527f74206f6620626f756e6473000000000000000000000000000000000000000000602082015250565b6000612e43602b83612284565b9150612e4e82612de7565b604082019050919050565b60006020820190508181036000830152612e7281612e36565b9050919050565b7f455243373231456e756d657261626c653a20676c6f62616c20696e646578206f60008201527f7574206f6620626f756e64730000000000000000000000000000000000000000602082015250565b6000612ed5602c83612284565b9150612ee082612e79565b604082019050919050565b60006020820190508181036000830152612f0481612ec8565b9050919050565b7f4e487b7100000000000000000000000000000000000000000000000000000000600052603260045260246000fd5b7f4552433732313a206f776e657220717565727920666f72206e6f6e657869737460008201527f656e7420746f6b656e0000000000000000000000000000000000000000000000602082015250565b6000612f96602983612284565b9150612fa182612f3a565b604082019050919050565b60006020820190508181036000830152612fc581612f89565b9050919050565b7f4f776e61626c653a2063616c6c6572206973206e6f7420746865206f776e6572600082015250565b6000613002602083612284565b915061300d82612fcc565b602082019050919050565b6000602082019050818103600083015261303181612ff5565b9050919050565b7f4552433732313a2062616c616e636520717565727920666f7220746865207a6560008201527f726f206164647265737300000000000000000000000000000000000000000000602082015250565b6000613094602a83612284565b915061309f82613038565b604082019050919050565b600060208201905081810360008301526130c381613087565b9050919050565b7f4552433732314d657461646174613a2055524920717565727920666f72206e6f60008201527f6e6578697374656e7420746f6b656e0000000000000000000000000000000000602082015250565b6000613126602f83612284565b9150613131826130ca565b604082019050919050565b6000602082019050818103600083015261315581613119565b9050919050565b600081905092915050565b600061317282612452565b61317c818561315c565b935061318c81856020860161245d565b80840191505092915050565b60006131a48285613167565b91506131b08284613167565b91508190509392505050565b7f4f776e61626c653a206e6577206f776e657220697320746865207a65726f206160008201527f6464726573730000000000000000000000000000000000000000000000000000602082015250565b6000613218602683612284565b9150613223826131bc565b604082019050919050565b600060208201905081810360008301526132478161320b565b9050919050565b7f4552433732313a206f70657261746f7220717565727920666f72206e6f6e657860008201527f697374656e7420746f6b656e0000000000000000000000000000000000000000602082015250565b60006132aa602c83612284565b91506132b58261324e565b604082019050919050565b600060208201905081810360008301526132d98161329d565b9050919050565b7f4552433732313a207472616e736665722066726f6d20696e636f72726563742060008201527f6f776e6572000000000000000000000000000000000000000000000000000000602082015250565b600061333c602583612284565b9150613347826132e0565b604082019050919050565b6000602082019050818103600083015261336b8161332f565b9050919050565b7f4552433732313a207472616e7366657220746f20746865207a65726f2061646460008201527f7265737300000000000000000000000000000000000000000000000000000000602082015250565b60006133ce602483612284565b91506133d982613372565b604082019050919050565b600060208201905081810360008301526133fd816133c1565b9050919050565b600061340f82612330565b915061341a83612330565b92508282101561342d5761342c612301565b5b828203905092915050565b7f4552433732313a20617070726f766520746f2063616c6c657200000000000000600082015250565b600061346e601983612284565b915061347982613438565b602082019050919050565b6000602082019050818103600083015261349d81613461565b9050919050565b7f4552433732313a207472616e7366657220746f206e6f6e20455243373231526560008201527f63656976657220696d706c656d656e7465720000000000000000000000000000602082015250565b6000613500603283612284565b915061350b826134a4565b604082019050919050565b6000602082019050818103600083015261352f816134f3565b9050919050565b7f4e487b7100000000000000000000000000000000000000000000000000000000600052601260045260246000fd5b600061357082612330565b915061357b83612330565b92508261358b5761358a613536565b5b828204905092915050565b60006135a182612330565b91506135ac83612330565b9250826135bc576135bb613536565b5b828206905092915050565b7f4e487b7100000000000000000000000000000000000000000000000000000000600052603160045260246000fd5b600081519050919050565b600082825260208201905092915050565b600061361d826135f6565b6136278185613601565b935061363781856020860161245d565b61364081612490565b840191505092915050565b60006080820190506136606000830187612587565b61366d6020830186612587565b61367a604083018561261d565b818103606083015261368c8184613612565b905095945050505050565b6000815190506136a6816123c3565b92915050565b6000602082840312156136c2576136c161238d565b5b60006136d084828501613697565b9150509291505056fea264697066735822122066f08f01dd8038a542121b096dde013c33330477686e9147e7278b391b42c0f764736f6c634300080a0033",
  "immutableReferences": {
    "2880": [
      {
        "length": 32,
        "start": 2635
      },
      {
        "length": 32,
        "start": 3166
      }
    ]
  },
  "source": "pragma solidity >=0.4.22 <0.9.0;\r\nimport '@openzeppelin/contracts/token/ERC20/IERC20.sol';\r\nimport '@openzeppelin/contracts/token/ERC721/extensions/ERC721Enumerable.sol';\r\nimport '@openzeppelin/contracts/access/Ownable.sol';\r\n\r\ncontract Windows is ERC721Enumerable, Ownable {\r\n    uint256 uniqueIdCounter = 0;\r\n\r\n    uint256 tokenPrice = 10;\r\n\r\n    address public immutable paymentToken;\r\n\r\n    constructor(address tokenAddress) public ERC721('Windows', 'WND') {\r\n        paymentToken = tokenAddress;\r\n    }\r\n\r\n    function setTokenPrice(uint256 newTokenPrice) public onlyOwner {\r\n        tokenPrice = newTokenPrice;\r\n    }\r\n\r\n    function mintToken() public {\r\n        require(\r\n            IERC20(paymentToken).transferFrom(msg.sender, owner(), tokenPrice),\r\n            'Transfer failed'\r\n        );\r\n        _mint(msg.sender, uniqueIdCounter);\r\n        uniqueIdCounter++;\r\n    }\r\n\r\n    receive() external payable {\r\n        require(msg.value > tokenPrice, 'Eth is not enough');\r\n        _mint(msg.sender, uniqueIdCounter);\r\n        uniqueIdCounter++;\r\n    }\r\n}\r\n",
  "sourcePath": "C:\\Users\\PC\\Documents\\VSCode\\Solidity\\contracts\\Windows.sol",
  "compiler": {
    "name": "solc",
    "version": "0.8.10+commit.fc410830.Emscripten.clang"
  },
  "schemaVersion": "3.4.7",
  "updatedAt": "2022-06-08T18:28:07.753Z",
  "devdoc": {
    "kind": "dev",
    "methods": {
      "approve(address,uint256)": {
        "details": "See {IERC721-approve}."
      },
      "balanceOf(address)": {
        "details": "See {IERC721-balanceOf}."
      },
      "getApproved(uint256)": {
        "details": "See {IERC721-getApproved}."
      },
      "isApprovedForAll(address,address)": {
        "details": "See {IERC721-isApprovedForAll}."
      },
      "name()": {
        "details": "See {IERC721Metadata-name}."
      },
      "owner()": {
        "details": "Returns the address of the current owner."
      },
      "ownerOf(uint256)": {
        "details": "See {IERC721-ownerOf}."
      },
      "renounceOwnership()": {
        "details": "Leaves the contract without owner. It will not be possible to call `onlyOwner` functions anymore. Can only be called by the current owner. NOTE: Renouncing ownership will leave the contract without an owner, thereby removing any functionality that is only available to the owner."
      },
      "safeTransferFrom(address,address,uint256)": {
        "details": "See {IERC721-safeTransferFrom}."
      },
      "safeTransferFrom(address,address,uint256,bytes)": {
        "details": "See {IERC721-safeTransferFrom}."
      },
      "setApprovalForAll(address,bool)": {
        "details": "See {IERC721-setApprovalForAll}."
      },
      "supportsInterface(bytes4)": {
        "details": "See {IERC165-supportsInterface}."
      },
      "symbol()": {
        "details": "See {IERC721Metadata-symbol}."
      },
      "tokenByIndex(uint256)": {
        "details": "See {IERC721Enumerable-tokenByIndex}."
      },
      "tokenOfOwnerByIndex(address,uint256)": {
        "details": "See {IERC721Enumerable-tokenOfOwnerByIndex}."
      },
      "tokenURI(uint256)": {
        "details": "See {IERC721Metadata-tokenURI}."
      },
      "totalSupply()": {
        "details": "See {IERC721Enumerable-totalSupply}."
      },
      "transferFrom(address,address,uint256)": {
        "details": "See {IERC721-transferFrom}."
      },
      "transferOwnership(address)": {
        "details": "Transfers ownership of the contract to a new account (`newOwner`). Can only be called by the current owner."
      }
    },
    "version": 1
  },
  "userdoc": {
    "kind": "user",
    "methods": {},
    "version": 1
  }
}