{
  "contractName": "Windows",
  "abi": [
    {
      "inputs": [
        {
          "internalType": "address",
          "name": "tokenAddress",
          "type": "address"
        }
      ],
      "stateMutability": "nonpayable",
      "type": "constructor"
    },
    {
      "anonymous": false,
      "inputs": [
        {
          "indexed": true,
          "internalType": "address",
          "name": "owner",
          "type": "address"
        },
        {
          "indexed": true,
          "internalType": "address",
          "name": "approved",
          "type": "address"
        },
        {
          "indexed": true,
          "internalType": "uint256",
          "name": "tokenId",
          "type": "uint256"
        }
      ],
      "name": "Approval",
      "type": "event"
    },
    {
      "anonymous": false,
      "inputs": [
        {
          "indexed": true,
          "internalType": "address",
          "name": "owner",
          "type": "address"
        },
        {
          "indexed": true,
          "internalType": "address",
          "name": "operator",
          "type": "address"
        },
        {
          "indexed": false,
          "internalType": "bool",
          "name": "approved",
          "type": "bool"
        }
      ],
      "name": "ApprovalForAll",
      "type": "event"
    },
    {
      "anonymous": false,
      "inputs": [
        {
          "indexed": true,
          "internalType": "address",
          "name": "previousOwner",
          "type": "address"
        },
        {
          "indexed": true,
          "internalType": "address",
          "name": "newOwner",
          "type": "address"
        }
      ],
      "name": "OwnershipTransferred",
      "type": "event"
    },
    {
      "anonymous": false,
      "inputs": [
        {
          "indexed": true,
          "internalType": "address",
          "name": "from",
          "type": "address"
        },
        {
          "indexed": true,
          "internalType": "address",
          "name": "to",
          "type": "address"
        },
        {
          "indexed": true,
          "internalType": "uint256",
          "name": "tokenId",
          "type": "uint256"
        }
      ],
      "name": "Transfer",
      "type": "event"
    },
    {
      "anonymous": false,
      "inputs": [
        {
          "indexed": false,
          "internalType": "address",
          "name": "from",
          "type": "address"
        },
        {
          "indexed": false,
          "internalType": "uint256",
          "name": "tokensPaid",
          "type": "uint256"
        },
        {
          "indexed": false,
          "internalType": "uint256",
          "name": "tokenAmout",
          "type": "uint256"
        }
      ],
      "name": "WindowsTransfer",
      "type": "event"
    },
    {
      "inputs": [
        {
          "internalType": "address",
          "name": "to",
          "type": "address"
        },
        {
          "internalType": "uint256",
          "name": "tokenId",
          "type": "uint256"
        }
      ],
      "name": "approve",
      "outputs": [],
      "stateMutability": "nonpayable",
      "type": "function"
    },
    {
      "inputs": [
        {
          "internalType": "address",
          "name": "owner",
          "type": "address"
        }
      ],
      "name": "balanceOf",
      "outputs": [
        {
          "internalType": "uint256",
          "name": "",
          "type": "uint256"
        }
      ],
      "stateMutability": "view",
      "type": "function",
      "constant": true
    },
    {
      "inputs": [
        {
          "internalType": "uint256",
          "name": "tokenId",
          "type": "uint256"
        }
      ],
      "name": "getApproved",
      "outputs": [
        {
          "internalType": "address",
          "name": "",
          "type": "address"
        }
      ],
      "stateMutability": "view",
      "type": "function",
      "constant": true
    },
    {
      "inputs": [
        {
          "internalType": "address",
          "name": "owner",
          "type": "address"
        },
        {
          "internalType": "address",
          "name": "operator",
          "type": "address"
        }
      ],
      "name": "isApprovedForAll",
      "outputs": [
        {
          "internalType": "bool",
          "name": "",
          "type": "bool"
        }
      ],
      "stateMutability": "view",
      "type": "function",
      "constant": true
    },
    {
      "inputs": [],
      "name": "name",
      "outputs": [
        {
          "internalType": "string",
          "name": "",
          "type": "string"
        }
      ],
      "stateMutability": "view",
      "type": "function",
      "constant": true
    },
    {
      "inputs": [],
      "name": "owner",
      "outputs": [
        {
          "internalType": "address",
          "name": "",
          "type": "address"
        }
      ],
      "stateMutability": "view",
      "type": "function",
      "constant": true
    },
    {
      "inputs": [
        {
          "internalType": "uint256",
          "name": "tokenId",
          "type": "uint256"
        }
      ],
      "name": "ownerOf",
      "outputs": [
        {
          "internalType": "address",
          "name": "",
          "type": "address"
        }
      ],
      "stateMutability": "view",
      "type": "function",
      "constant": true
    },
    {
      "inputs": [],
      "name": "paymentToken",
      "outputs": [
        {
          "internalType": "address",
          "name": "",
          "type": "address"
        }
      ],
      "stateMutability": "view",
      "type": "function",
      "constant": true
    },
    {
      "inputs": [],
      "name": "renounceOwnership",
      "outputs": [],
      "stateMutability": "nonpayable",
      "type": "function"
    },
    {
      "inputs": [
        {
          "internalType": "address",
          "name": "from",
          "type": "address"
        },
        {
          "internalType": "address",
          "name": "to",
          "type": "address"
        },
        {
          "internalType": "uint256",
          "name": "tokenId",
          "type": "uint256"
        }
      ],
      "name": "safeTransferFrom",
      "outputs": [],
      "stateMutability": "nonpayable",
      "type": "function"
    },
    {
      "inputs": [
        {
          "internalType": "address",
          "name": "from",
          "type": "address"
        },
        {
          "internalType": "address",
          "name": "to",
          "type": "address"
        },
        {
          "internalType": "uint256",
          "name": "tokenId",
          "type": "uint256"
        },
        {
          "internalType": "bytes",
          "name": "_data",
          "type": "bytes"
        }
      ],
      "name": "safeTransferFrom",
      "outputs": [],
      "stateMutability": "nonpayable",
      "type": "function"
    },
    {
      "inputs": [
        {
          "internalType": "address",
          "name": "operator",
          "type": "address"
        },
        {
          "internalType": "bool",
          "name": "approved",
          "type": "bool"
        }
      ],
      "name": "setApprovalForAll",
      "outputs": [],
      "stateMutability": "nonpayable",
      "type": "function"
    },
    {
      "inputs": [
        {
          "internalType": "bytes4",
          "name": "interfaceId",
          "type": "bytes4"
        }
      ],
      "name": "supportsInterface",
      "outputs": [
        {
          "internalType": "bool",
          "name": "",
          "type": "bool"
        }
      ],
      "stateMutability": "view",
      "type": "function",
      "constant": true
    },
    {
      "inputs": [],
      "name": "symbol",
      "outputs": [
        {
          "internalType": "string",
          "name": "",
          "type": "string"
        }
      ],
      "stateMutability": "view",
      "type": "function",
      "constant": true
    },
    {
      "inputs": [
        {
          "internalType": "uint256",
          "name": "index",
          "type": "uint256"
        }
      ],
      "name": "tokenByIndex",
      "outputs": [
        {
          "internalType": "uint256",
          "name": "",
          "type": "uint256"
        }
      ],
      "stateMutability": "view",
      "type": "function",
      "constant": true
    },
    {
      "inputs": [
        {
          "internalType": "address",
          "name": "owner",
          "type": "address"
        },
        {
          "internalType": "uint256",
          "name": "index",
          "type": "uint256"
        }
      ],
      "name": "tokenOfOwnerByIndex",
      "outputs": [
        {
          "internalType": "uint256",
          "name": "",
          "type": "uint256"
        }
      ],
      "stateMutability": "view",
      "type": "function",
      "constant": true
    },
    {
      "inputs": [
        {
          "internalType": "uint256",
          "name": "tokenId",
          "type": "uint256"
        }
      ],
      "name": "tokenURI",
      "outputs": [
        {
          "internalType": "string",
          "name": "",
          "type": "string"
        }
      ],
      "stateMutability": "view",
      "type": "function",
      "constant": true
    },
    {
      "inputs": [],
      "name": "totalSupply",
      "outputs": [
        {
          "internalType": "uint256",
          "name": "",
          "type": "uint256"
        }
      ],
      "stateMutability": "view",
      "type": "function",
      "constant": true
    },
    {
      "inputs": [
        {
          "internalType": "address",
          "name": "from",
          "type": "address"
        },
        {
          "internalType": "address",
          "name": "to",
          "type": "address"
        },
        {
          "internalType": "uint256",
          "name": "tokenId",
          "type": "uint256"
        }
      ],
      "name": "transferFrom",
      "outputs": [],
      "stateMutability": "nonpayable",
      "type": "function"
    },
    {
      "inputs": [
        {
          "internalType": "address",
          "name": "newOwner",
          "type": "address"
        }
      ],
      "name": "transferOwnership",
      "outputs": [],
      "stateMutability": "nonpayable",
      "type": "function"
    },
    {
      "inputs": [
        {
          "internalType": "uint256",
          "name": "newTokenPrice",
          "type": "uint256"
        }
      ],
      "name": "setTokenPrice",
      "outputs": [],
      "stateMutability": "nonpayable",
      "type": "function"
    },
    {
      "inputs": [
        {
          "internalType": "uint256",
          "name": "newTokenPriceRebate",
          "type": "uint256"
        }
      ],
      "name": "setTokenPriceRebate",
      "outputs": [],
      "stateMutability": "nonpayable",
      "type": "function"
    },
    {
      "inputs": [
        {
          "internalType": "bool",
          "name": "newMintLocked",
          "type": "bool"
        }
      ],
      "name": "setIsMintEnabled",
      "outputs": [],
      "stateMutability": "nonpayable",
      "type": "function"
    },
    {
      "inputs": [
        {
          "internalType": "uint256",
          "name": "amount",
          "type": "uint256"
        }
      ],
      "name": "mintMultipleTokens",
      "outputs": [],
      "stateMutability": "nonpayable",
      "type": "function"
    },
    {
      "inputs": [],
      "name": "mintToken",
      "outputs": [],
      "stateMutability": "nonpayable",
      "type": "function"
    }
  ],
  "bytecode": "0x60a06040526000600b55600a600c556001600d556001600e60006101000a81548160ff0219169083151502179055503480156200003b57600080fd5b5060405162003df738038062003df7833981810160405281019062000061919062000344565b6040518060400160405280600781526020017f57696e646f7773000000000000000000000000000000000000000000000000008152506040518060400160405280600381526020017f574e4400000000000000000000000000000000000000000000000000000000008152508160009080519060200190620000e59291906200022a565b508060019080519060200190620000fe9291906200022a565b50505062000121620001156200015c60201b60201c565b6200016460201b60201c565b8073ffffffffffffffffffffffffffffffffffffffff1660808173ffffffffffffffffffffffffffffffffffffffff168152505050620003db565b600033905090565b6000600a60009054906101000a900473ffffffffffffffffffffffffffffffffffffffff16905081600a60006101000a81548173ffffffffffffffffffffffffffffffffffffffff021916908373ffffffffffffffffffffffffffffffffffffffff1602179055508173ffffffffffffffffffffffffffffffffffffffff168173ffffffffffffffffffffffffffffffffffffffff167f8be0079c531659141344cd1fd0a4f28419497f9722a3daafe3b4186f6b6457e060405160405180910390a35050565b8280546200023890620003a5565b90600052602060002090601f0160209004810192826200025c5760008555620002a8565b82601f106200027757805160ff1916838001178555620002a8565b82800160010185558215620002a8579182015b82811115620002a75782518255916020019190600101906200028a565b5b509050620002b79190620002bb565b5090565b5b80821115620002d6576000816000905550600101620002bc565b5090565b600080fd5b600073ffffffffffffffffffffffffffffffffffffffff82169050919050565b60006200030c82620002df565b9050919050565b6200031e81620002ff565b81146200032a57600080fd5b50565b6000815190506200033e8162000313565b92915050565b6000602082840312156200035d576200035c620002da565b5b60006200036d848285016200032d565b91505092915050565b7f4e487b7100000000000000000000000000000000000000000000000000000000600052602260045260246000fd5b60006002820490506001821680620003be57607f821691505b60208210811415620003d557620003d462000376565b5b50919050565b6080516139f262000405600039600081816107720152818161096a015261100301526139f26000f3fe608060405234801561001057600080fd5b50600436106101735760003560e01c8063573123a9116100de57806395d89b4111610097578063c87b56dd11610071578063c87b56dd14610422578063e1dffcb914610452578063e985e9c51461046e578063f2fde38b1461049e57610173565b806395d89b41146103cc578063a22cb465146103ea578063b88d4fde1461040657610173565b8063573123a91461030c5780636352211e146103285780636a61e5fc1461035857806370a0823114610374578063715018a6146103a45780638da5cb5b146103ae57610173565b806323b872dd1161013057806323b872dd1461023a5780632f745c59146102565780633013ce291461028657806342842e0e146102a45780634de8bcfb146102c05780634f6ccce7146102dc57610173565b806301ffc9a71461017857806306fdde03146101a8578063081812fc146101c6578063095ea7b3146101f657806318160ddd146102125780632004ffd914610230575b600080fd5b610192600480360381019061018d91906124ef565b6104ba565b60405161019f9190612537565b60405180910390f35b6101b0610534565b6040516101bd91906125eb565b60405180910390f35b6101e060048036038101906101db9190612643565b6105c6565b6040516101ed91906126b1565b60405180910390f35b610210600480360381019061020b91906126f8565b61064b565b005b61021a610763565b6040516102279190612747565b60405180910390f35b610238610770565b005b610254600480360381019061024f9190612762565b610863565b005b610270600480360381019061026b91906126f8565b6108c3565b60405161027d9190612747565b60405180910390f35b61028e610968565b60405161029b91906126b1565b60405180910390f35b6102be60048036038101906102b99190612762565b61098c565b005b6102da60048036038101906102d591906127e1565b6109ac565b005b6102f660048036038101906102f19190612643565b610a45565b6040516103039190612747565b60405180910390f35b61032660048036038101906103219190612643565b610ab6565b005b610342600480360381019061033d9190612643565b610b3c565b60405161034f91906126b1565b60405180910390f35b610372600480360381019061036d9190612643565b610bee565b005b61038e6004803603810190610389919061280e565b610c74565b60405161039b9190612747565b60405180910390f35b6103ac610d2c565b005b6103b6610db4565b6040516103c391906126b1565b60405180910390f35b6103d4610dde565b6040516103e191906125eb565b60405180910390f35b61040460048036038101906103ff919061283b565b610e70565b005b610420600480360381019061041b91906129b0565b610e86565b005b61043c60048036038101906104379190612643565b610ee8565b60405161044991906125eb565b60405180910390f35b61046c60048036038101906104679190612643565b610f8f565b005b61048860048036038101906104839190612a33565b611113565b6040516104959190612537565b60405180910390f35b6104b860048036038101906104b3919061280e565b6111a7565b005b60007f780e9d63000000000000000000000000000000000000000000000000000000007bffffffffffffffffffffffffffffffffffffffffffffffffffffffff1916827bffffffffffffffffffffffffffffffffffffffffffffffffffffffff1916148061052d575061052c8261129f565b5b9050919050565b60606000805461054390612aa2565b80601f016020809104026020016040519081016040528092919081815260200182805461056f90612aa2565b80156105bc5780601f10610591576101008083540402835291602001916105bc565b820191906000526020600020905b81548152906001019060200180831161059f57829003601f168201915b5050505050905090565b60006105d182611381565b610610576040517f08c379a000000000000000000000000000000000000000000000000000000000815260040161060790612b46565b60405180910390fd5b6004600083815260200190815260200160002060009054906101000a900473ffffffffffffffffffffffffffffffffffffffff169050919050565b600061065682610b3c565b90508073ffffffffffffffffffffffffffffffffffffffff168373ffffffffffffffffffffffffffffffffffffffff1614156106c7576040517f08c379a00000000000000000000000000000000000000000000000000000000081526004016106be90612bd8565b60405180910390fd5b8073ffffffffffffffffffffffffffffffffffffffff166106e66113ed565b73ffffffffffffffffffffffffffffffffffffffff16148061071557506107148161070f6113ed565b611113565b5b610754576040517f08c379a000000000000000000000000000000000000000000000000000000000815260040161074b90612c6a565b60405180910390fd5b61075e83836113f5565b505050565b6000600880549050905090565b7f000000000000000000000000000000000000000000000000000000000000000073ffffffffffffffffffffffffffffffffffffffff166323b872dd336107b5610db4565b600c546040518463ffffffff1660e01b81526004016107d693929190612c8a565b6020604051808303816000875af11580156107f5573d6000803e3d6000fd5b505050506040513d601f19601f820116820180604052508101906108199190612cd6565b610858576040517f08c379a000000000000000000000000000000000000000000000000000000000815260040161084f90612d4f565b60405180910390fd5b610861336114ae565b565b61087461086e6113ed565b82611524565b6108b3576040517f08c379a00000000000000000000000000000000000000000000000000000000081526004016108aa90612de1565b60405180910390fd5b6108be838383611602565b505050565b60006108ce83610c74565b821061090f576040517f08c379a000000000000000000000000000000000000000000000000000000000815260040161090690612e73565b60405180910390fd5b600660008473ffffffffffffffffffffffffffffffffffffffff1673ffffffffffffffffffffffffffffffffffffffff168152602001908152602001600020600083815260200190815260200160002054905092915050565b7f000000000000000000000000000000000000000000000000000000000000000081565b6109a783838360405180602001604052806000815250610e86565b505050565b6109b46113ed565b73ffffffffffffffffffffffffffffffffffffffff166109d2610db4565b73ffffffffffffffffffffffffffffffffffffffff1614610a28576040517f08c379a0000000000000000000000000000000000000000000000000000000008152600401610a1f90612edf565b60405180910390fd5b80600e60006101000a81548160ff02191690831515021790555050565b6000610a4f610763565b8210610a90576040517f08c379a0000000000000000000000000000000000000000000000000000000008152600401610a8790612f71565b60405180910390fd5b60088281548110610aa457610aa3612f91565b5b90600052602060002001549050919050565b610abe6113ed565b73ffffffffffffffffffffffffffffffffffffffff16610adc610db4565b73ffffffffffffffffffffffffffffffffffffffff1614610b32576040517f08c379a0000000000000000000000000000000000000000000000000000000008152600401610b2990612edf565b60405180910390fd5b80600d8190555050565b6000806002600084815260200190815260200160002060009054906101000a900473ffffffffffffffffffffffffffffffffffffffff169050600073ffffffffffffffffffffffffffffffffffffffff168173ffffffffffffffffffffffffffffffffffffffff161415610be5576040517f08c379a0000000000000000000000000000000000000000000000000000000008152600401610bdc90613032565b60405180910390fd5b80915050919050565b610bf66113ed565b73ffffffffffffffffffffffffffffffffffffffff16610c14610db4565b73ffffffffffffffffffffffffffffffffffffffff1614610c6a576040517f08c379a0000000000000000000000000000000000000000000000000000000008152600401610c6190612edf565b60405180910390fd5b80600c8190555050565b60008073ffffffffffffffffffffffffffffffffffffffff168273ffffffffffffffffffffffffffffffffffffffff161415610ce5576040517f08c379a0000000000000000000000000000000000000000000000000000000008152600401610cdc906130c4565b60405180910390fd5b600360008373ffffffffffffffffffffffffffffffffffffffff1673ffffffffffffffffffffffffffffffffffffffff168152602001908152602001600020549050919050565b610d346113ed565b73ffffffffffffffffffffffffffffffffffffffff16610d52610db4565b73ffffffffffffffffffffffffffffffffffffffff1614610da8576040517f08c379a0000000000000000000000000000000000000000000000000000000008152600401610d9f90612edf565b60405180910390fd5b610db26000611869565b565b6000600a60009054906101000a900473ffffffffffffffffffffffffffffffffffffffff16905090565b606060018054610ded90612aa2565b80601f0160208091040260200160405190810160405280929190818152602001828054610e1990612aa2565b8015610e665780601f10610e3b57610100808354040283529160200191610e66565b820191906000526020600020905b815481529060010190602001808311610e4957829003601f168201915b5050505050905090565b610e82610e7b6113ed565b838361192f565b5050565b610e97610e916113ed565b83611524565b610ed6576040517f08c379a0000000000000000000000000000000000000000000000000000000008152600401610ecd90612de1565b60405180910390fd5b610ee284848484611a9c565b50505050565b6060610ef382611381565b610f32576040517f08c379a0000000000000000000000000000000000000000000000000000000008152600401610f2990613156565b60405180910390fd5b6000610f3c611af8565b90506000815111610f5c5760405180602001604052806000815250610f87565b80610f6684611b0f565b604051602001610f779291906131b2565b6040516020818303038152906040525b915050919050565b600081600c54610f9f9190613205565b905060018211156110015781600d54610fb89190613205565b81610fc3919061325f565b90507fc3cc39c86897fb7a4ac1f7ba92c3d74ae297500954266ed38695733f254ae6e4338284604051610ff893929190613293565b60405180910390a15b7f000000000000000000000000000000000000000000000000000000000000000073ffffffffffffffffffffffffffffffffffffffff166323b872dd33611046610db4565b846040518463ffffffff1660e01b815260040161106593929190612c8a565b6020604051808303816000875af1158015611084573d6000803e3d6000fd5b505050506040513d601f19601f820116820180604052508101906110a89190612cd6565b6110e7576040517f08c379a00000000000000000000000000000000000000000000000000000000081526004016110de90612d4f565b60405180910390fd5b60005b8281101561110e576110fb336114ae565b8080611106906132ca565b9150506110ea565b505050565b6000600560008473ffffffffffffffffffffffffffffffffffffffff1673ffffffffffffffffffffffffffffffffffffffff16815260200190815260200160002060008373ffffffffffffffffffffffffffffffffffffffff1673ffffffffffffffffffffffffffffffffffffffff16815260200190815260200160002060009054906101000a900460ff16905092915050565b6111af6113ed565b73ffffffffffffffffffffffffffffffffffffffff166111cd610db4565b73ffffffffffffffffffffffffffffffffffffffff1614611223576040517f08c379a000000000000000000000000000000000000000000000000000000000815260040161121a90612edf565b60405180910390fd5b600073ffffffffffffffffffffffffffffffffffffffff168173ffffffffffffffffffffffffffffffffffffffff161415611293576040517f08c379a000000000000000000000000000000000000000000000000000000000815260040161128a90613385565b60405180910390fd5b61129c81611869565b50565b60007f80ac58cd000000000000000000000000000000000000000000000000000000007bffffffffffffffffffffffffffffffffffffffffffffffffffffffff1916827bffffffffffffffffffffffffffffffffffffffffffffffffffffffff1916148061136a57507f5b5e139f000000000000000000000000000000000000000000000000000000007bffffffffffffffffffffffffffffffffffffffffffffffffffffffff1916827bffffffffffffffffffffffffffffffffffffffffffffffffffffffff1916145b8061137a575061137982611c70565b5b9050919050565b60008073ffffffffffffffffffffffffffffffffffffffff166002600084815260200190815260200160002060009054906101000a900473ffffffffffffffffffffffffffffffffffffffff1673ffffffffffffffffffffffffffffffffffffffff1614159050919050565b600033905090565b816004600083815260200190815260200160002060006101000a81548173ffffffffffffffffffffffffffffffffffffffff021916908373ffffffffffffffffffffffffffffffffffffffff160217905550808273ffffffffffffffffffffffffffffffffffffffff1661146883610b3c565b73ffffffffffffffffffffffffffffffffffffffff167f8c5be1e5ebec7d5bd14f71427d1e84f3dd0314c0f7b2291e5b200ac8c7c3b92560405160405180910390a45050565b600e60009054906101000a900460ff166114fd576040517f08c379a00000000000000000000000000000000000000000000000000000000081526004016114f490613417565b60405180910390fd5b61150981600b54611cda565b600b600081548092919061151c906132ca565b919050555050565b600061152f82611381565b61156e576040517f08c379a0000000000000000000000000000000000000000000000000000000008152600401611565906134a9565b60405180910390fd5b600061157983610b3c565b90508073ffffffffffffffffffffffffffffffffffffffff168473ffffffffffffffffffffffffffffffffffffffff1614806115bb57506115ba8185611113565b5b806115f957508373ffffffffffffffffffffffffffffffffffffffff166115e1846105c6565b73ffffffffffffffffffffffffffffffffffffffff16145b91505092915050565b8273ffffffffffffffffffffffffffffffffffffffff1661162282610b3c565b73ffffffffffffffffffffffffffffffffffffffff1614611678576040517f08c379a000000000000000000000000000000000000000000000000000000000815260040161166f9061353b565b60405180910390fd5b600073ffffffffffffffffffffffffffffffffffffffff168273ffffffffffffffffffffffffffffffffffffffff1614156116e8576040517f08c379a00000000000000000000000000000000000000000000000000000000081526004016116df906135cd565b60405180910390fd5b6116f3838383611eb4565b6116fe6000826113f5565b6001600360008573ffffffffffffffffffffffffffffffffffffffff1673ffffffffffffffffffffffffffffffffffffffff168152602001908152602001600020600082825461174e919061325f565b925050819055506001600360008473ffffffffffffffffffffffffffffffffffffffff1673ffffffffffffffffffffffffffffffffffffffff16815260200190815260200160002060008282546117a591906135ed565b92505081905550816002600083815260200190815260200160002060006101000a81548173ffffffffffffffffffffffffffffffffffffffff021916908373ffffffffffffffffffffffffffffffffffffffff160217905550808273ffffffffffffffffffffffffffffffffffffffff168473ffffffffffffffffffffffffffffffffffffffff167fddf252ad1be2c89b69c2b068fc378daa952ba7f163c4a11628f55a4df523b3ef60405160405180910390a4611864838383611fc8565b505050565b6000600a60009054906101000a900473ffffffffffffffffffffffffffffffffffffffff16905081600a60006101000a81548173ffffffffffffffffffffffffffffffffffffffff021916908373ffffffffffffffffffffffffffffffffffffffff1602179055508173ffffffffffffffffffffffffffffffffffffffff168173ffffffffffffffffffffffffffffffffffffffff167f8be0079c531659141344cd1fd0a4f28419497f9722a3daafe3b4186f6b6457e060405160405180910390a35050565b8173ffffffffffffffffffffffffffffffffffffffff168373ffffffffffffffffffffffffffffffffffffffff16141561199e576040517f08c379a00000000000000000000000000000000000000000000000000000000081526004016119959061368f565b60405180910390fd5b80600560008573ffffffffffffffffffffffffffffffffffffffff1673ffffffffffffffffffffffffffffffffffffffff16815260200190815260200160002060008473ffffffffffffffffffffffffffffffffffffffff1673ffffffffffffffffffffffffffffffffffffffff16815260200190815260200160002060006101000a81548160ff0219169083151502179055508173ffffffffffffffffffffffffffffffffffffffff168373ffffffffffffffffffffffffffffffffffffffff167f17307eab39ab6107e8899845ad3d59bd9653f200f220920489ca2b5937696c3183604051611a8f9190612537565b60405180910390a3505050565b611aa7848484611602565b611ab384848484611fcd565b611af2576040517f08c379a0000000000000000000000000000000000000000000000000000000008152600401611ae990613721565b60405180910390fd5b50505050565b606060405180602001604052806000815250905090565b60606000821415611b57576040518060400160405280600181526020017f30000000000000000000000000000000000000000000000000000000000000008152509050611c6b565b600082905060005b60008214611b89578080611b72906132ca565b915050600a82611b829190613770565b9150611b5f565b60008167ffffffffffffffff811115611ba557611ba4612885565b5b6040519080825280601f01601f191660200182016040528015611bd75781602001600182028036833780820191505090505b5090505b60008514611c6457600182611bf0919061325f565b9150600a85611bff91906137a1565b6030611c0b91906135ed565b60f81b818381518110611c2157611c20612f91565b5b60200101907effffffffffffffffffffffffffffffffffffffffffffffffffffffffffffff1916908160001a905350600a85611c5d9190613770565b9450611bdb565b8093505050505b919050565b60007f01ffc9a7000000000000000000000000000000000000000000000000000000007bffffffffffffffffffffffffffffffffffffffffffffffffffffffff1916827bffffffffffffffffffffffffffffffffffffffffffffffffffffffff1916149050919050565b600073ffffffffffffffffffffffffffffffffffffffff168273ffffffffffffffffffffffffffffffffffffffff161415611d4a576040517f08c379a0000000000000000000000000000000000000000000000000000000008152600401611d419061381e565b60405180910390fd5b611d5381611381565b15611d93576040517f08c379a0000000000000000000000000000000000000000000000000000000008152600401611d8a9061388a565b60405180910390fd5b611d9f60008383611eb4565b6001600360008473ffffffffffffffffffffffffffffffffffffffff1673ffffffffffffffffffffffffffffffffffffffff1681526020019081526020016000206000828254611def91906135ed565b92505081905550816002600083815260200190815260200160002060006101000a81548173ffffffffffffffffffffffffffffffffffffffff021916908373ffffffffffffffffffffffffffffffffffffffff160217905550808273ffffffffffffffffffffffffffffffffffffffff16600073ffffffffffffffffffffffffffffffffffffffff167fddf252ad1be2c89b69c2b068fc378daa952ba7f163c4a11628f55a4df523b3ef60405160405180910390a4611eb060008383611fc8565b5050565b611ebf838383612155565b600073ffffffffffffffffffffffffffffffffffffffff168373ffffffffffffffffffffffffffffffffffffffff161415611f0257611efd8161215a565b611f41565b8173ffffffffffffffffffffffffffffffffffffffff168373ffffffffffffffffffffffffffffffffffffffff1614611f4057611f3f83826121a3565b5b5b600073ffffffffffffffffffffffffffffffffffffffff168273ffffffffffffffffffffffffffffffffffffffff161415611f8457611f7f81612310565b611fc3565b8273ffffffffffffffffffffffffffffffffffffffff168273ffffffffffffffffffffffffffffffffffffffff1614611fc257611fc182826123e1565b5b5b505050565b505050565b6000611fee8473ffffffffffffffffffffffffffffffffffffffff16612460565b15612148578373ffffffffffffffffffffffffffffffffffffffff1663150b7a026120176113ed565b8786866040518563ffffffff1660e01b815260040161203994939291906138ff565b6020604051808303816000875af192505050801561207557506040513d601f19601f820116820180604052508101906120729190613960565b60015b6120f8573d80600081146120a5576040519150601f19603f3d011682016040523d82523d6000602084013e6120aa565b606091505b506000815114156120f0576040517f08c379a00000000000000000000000000000000000000000000000000000000081526004016120e790613721565b60405180910390fd5b805181602001fd5b63150b7a0260e01b7bffffffffffffffffffffffffffffffffffffffffffffffffffffffff1916817bffffffffffffffffffffffffffffffffffffffffffffffffffffffff19161491505061214d565b600190505b949350505050565b505050565b6008805490506009600083815260200190815260200160002081905550600881908060018154018082558091505060019003906000526020600020016000909190919091505550565b600060016121b084610c74565b6121ba919061325f565b905060006007600084815260200190815260200160002054905081811461229f576000600660008673ffffffffffffffffffffffffffffffffffffffff1673ffffffffffffffffffffffffffffffffffffffff168152602001908152602001600020600084815260200190815260200160002054905080600660008773ffffffffffffffffffffffffffffffffffffffff1673ffffffffffffffffffffffffffffffffffffffff168152602001908152602001600020600084815260200190815260200160002081905550816007600083815260200190815260200160002081905550505b6007600084815260200190815260200160002060009055600660008573ffffffffffffffffffffffffffffffffffffffff1673ffffffffffffffffffffffffffffffffffffffff16815260200190815260200160002060008381526020019081526020016000206000905550505050565b60006001600880549050612324919061325f565b905060006009600084815260200190815260200160002054905060006008838154811061235457612353612f91565b5b90600052602060002001549050806008838154811061237657612375612f91565b5b9060005260206000200181905550816009600083815260200190815260200160002081905550600960008581526020019081526020016000206000905560088054806123c5576123c461398d565b5b6001900381819060005260206000200160009055905550505050565b60006123ec83610c74565b905081600660008573ffffffffffffffffffffffffffffffffffffffff1673ffffffffffffffffffffffffffffffffffffffff168152602001908152602001600020600083815260200190815260200160002081905550806007600084815260200190815260200160002081905550505050565b6000808273ffffffffffffffffffffffffffffffffffffffff163b119050919050565b6000604051905090565b600080fd5b600080fd5b60007fffffffff0000000000000000000000000000000000000000000000000000000082169050919050565b6124cc81612497565b81146124d757600080fd5b50565b6000813590506124e9816124c3565b92915050565b6000602082840312156125055761250461248d565b5b6000612513848285016124da565b91505092915050565b60008115159050919050565b6125318161251c565b82525050565b600060208201905061254c6000830184612528565b92915050565b600081519050919050565b600082825260208201905092915050565b60005b8381101561258c578082015181840152602081019050612571565b8381111561259b576000848401525b50505050565b6000601f19601f8301169050919050565b60006125bd82612552565b6125c7818561255d565b93506125d781856020860161256e565b6125e0816125a1565b840191505092915050565b6000602082019050818103600083015261260581846125b2565b905092915050565b6000819050919050565b6126208161260d565b811461262b57600080fd5b50565b60008135905061263d81612617565b92915050565b6000602082840312156126595761265861248d565b5b60006126678482850161262e565b91505092915050565b600073ffffffffffffffffffffffffffffffffffffffff82169050919050565b600061269b82612670565b9050919050565b6126ab81612690565b82525050565b60006020820190506126c660008301846126a2565b92915050565b6126d581612690565b81146126e057600080fd5b50565b6000813590506126f2816126cc565b92915050565b6000806040838503121561270f5761270e61248d565b5b600061271d858286016126e3565b925050602061272e8582860161262e565b9150509250929050565b6127418161260d565b82525050565b600060208201905061275c6000830184612738565b92915050565b60008060006060848603121561277b5761277a61248d565b5b6000612789868287016126e3565b935050602061279a868287016126e3565b92505060406127ab8682870161262e565b9150509250925092565b6127be8161251c565b81146127c957600080fd5b50565b6000813590506127db816127b5565b92915050565b6000602082840312156127f7576127f661248d565b5b6000612805848285016127cc565b91505092915050565b6000602082840312156128245761282361248d565b5b6000612832848285016126e3565b91505092915050565b600080604083850312156128525761285161248d565b5b6000612860858286016126e3565b9250506020612871858286016127cc565b9150509250929050565b600080fd5b600080fd5b7f4e487b7100000000000000000000000000000000000000000000000000000000600052604160045260246000fd5b6128bd826125a1565b810181811067ffffffffffffffff821117156128dc576128db612885565b5b80604052505050565b60006128ef612483565b90506128fb82826128b4565b919050565b600067ffffffffffffffff82111561291b5761291a612885565b5b612924826125a1565b9050602081019050919050565b82818337600083830152505050565b600061295361294e84612900565b6128e5565b90508281526020810184848401111561296f5761296e612880565b5b61297a848285612931565b509392505050565b600082601f8301126129975761299661287b565b5b81356129a7848260208601612940565b91505092915050565b600080600080608085870312156129ca576129c961248d565b5b60006129d8878288016126e3565b94505060206129e9878288016126e3565b93505060406129fa8782880161262e565b925050606085013567ffffffffffffffff811115612a1b57612a1a612492565b5b612a2787828801612982565b91505092959194509250565b60008060408385031215612a4a57612a4961248d565b5b6000612a58858286016126e3565b9250506020612a69858286016126e3565b9150509250929050565b7f4e487b7100000000000000000000000000000000000000000000000000000000600052602260045260246000fd5b60006002820490506001821680612aba57607f821691505b60208210811415612ace57612acd612a73565b5b50919050565b7f4552433732313a20617070726f76656420717565727920666f72206e6f6e657860008201527f697374656e7420746f6b656e0000000000000000000000000000000000000000602082015250565b6000612b30602c8361255d565b9150612b3b82612ad4565b604082019050919050565b60006020820190508181036000830152612b5f81612b23565b9050919050565b7f4552433732313a20617070726f76616c20746f2063757272656e74206f776e6560008201527f7200000000000000000000000000000000000000000000000000000000000000602082015250565b6000612bc260218361255d565b9150612bcd82612b66565b604082019050919050565b60006020820190508181036000830152612bf181612bb5565b9050919050565b7f4552433732313a20617070726f76652063616c6c6572206973206e6f74206f7760008201527f6e6572206e6f7220617070726f76656420666f7220616c6c0000000000000000602082015250565b6000612c5460388361255d565b9150612c5f82612bf8565b604082019050919050565b60006020820190508181036000830152612c8381612c47565b9050919050565b6000606082019050612c9f60008301866126a2565b612cac60208301856126a2565b612cb96040830184612738565b949350505050565b600081519050612cd0816127b5565b92915050565b600060208284031215612cec57612ceb61248d565b5b6000612cfa84828501612cc1565b91505092915050565b7f5472616e73666572206661696c65640000000000000000000000000000000000600082015250565b6000612d39600f8361255d565b9150612d4482612d03565b602082019050919050565b60006020820190508181036000830152612d6881612d2c565b9050919050565b7f4552433732313a207472616e736665722063616c6c6572206973206e6f74206f60008201527f776e6572206e6f7220617070726f766564000000000000000000000000000000602082015250565b6000612dcb60318361255d565b9150612dd682612d6f565b604082019050919050565b60006020820190508181036000830152612dfa81612dbe565b9050919050565b7f455243373231456e756d657261626c653a206f776e657220696e646578206f7560008201527f74206f6620626f756e6473000000000000000000000000000000000000000000602082015250565b6000612e5d602b8361255d565b9150612e6882612e01565b604082019050919050565b60006020820190508181036000830152612e8c81612e50565b9050919050565b7f4f776e61626c653a2063616c6c6572206973206e6f7420746865206f776e6572600082015250565b6000612ec960208361255d565b9150612ed482612e93565b602082019050919050565b60006020820190508181036000830152612ef881612ebc565b9050919050565b7f455243373231456e756d657261626c653a20676c6f62616c20696e646578206f60008201527f7574206f6620626f756e64730000000000000000000000000000000000000000602082015250565b6000612f5b602c8361255d565b9150612f6682612eff565b604082019050919050565b60006020820190508181036000830152612f8a81612f4e565b9050919050565b7f4e487b7100000000000000000000000000000000000000000000000000000000600052603260045260246000fd5b7f4552433732313a206f776e657220717565727920666f72206e6f6e657869737460008201527f656e7420746f6b656e0000000000000000000000000000000000000000000000602082015250565b600061301c60298361255d565b915061302782612fc0565b604082019050919050565b6000602082019050818103600083015261304b8161300f565b9050919050565b7f4552433732313a2062616c616e636520717565727920666f7220746865207a6560008201527f726f206164647265737300000000000000000000000000000000000000000000602082015250565b60006130ae602a8361255d565b91506130b982613052565b604082019050919050565b600060208201905081810360008301526130dd816130a1565b9050919050565b7f4552433732314d657461646174613a2055524920717565727920666f72206e6f60008201527f6e6578697374656e7420746f6b656e0000000000000000000000000000000000602082015250565b6000613140602f8361255d565b915061314b826130e4565b604082019050919050565b6000602082019050818103600083015261316f81613133565b9050919050565b600081905092915050565b600061318c82612552565b6131968185613176565b93506131a681856020860161256e565b80840191505092915050565b60006131be8285613181565b91506131ca8284613181565b91508190509392505050565b7f4e487b7100000000000000000000000000000000000000000000000000000000600052601160045260246000fd5b60006132108261260d565b915061321b8361260d565b9250817fffffffffffffffffffffffffffffffffffffffffffffffffffffffffffffffff0483118215151615613254576132536131d6565b5b828202905092915050565b600061326a8261260d565b91506132758361260d565b925082821015613288576132876131d6565b5b828203905092915050565b60006060820190506132a860008301866126a2565b6132b56020830185612738565b6132c26040830184612738565b949350505050565b60006132d58261260d565b91507fffffffffffffffffffffffffffffffffffffffffffffffffffffffffffffffff821415613308576133076131d6565b5b600182019050919050565b7f4f776e61626c653a206e6577206f776e657220697320746865207a65726f206160008201527f6464726573730000000000000000000000000000000000000000000000000000602082015250565b600061336f60268361255d565b915061337a82613313565b604082019050919050565b6000602082019050818103600083015261339e81613362565b9050919050565b7f4d696e74206973206e6f20656e61626c652061742074686973206d6f6d656e7460008201527f2100000000000000000000000000000000000000000000000000000000000000602082015250565b600061340160218361255d565b915061340c826133a5565b604082019050919050565b60006020820190508181036000830152613430816133f4565b9050919050565b7f4552433732313a206f70657261746f7220717565727920666f72206e6f6e657860008201527f697374656e7420746f6b656e0000000000000000000000000000000000000000602082015250565b6000613493602c8361255d565b915061349e82613437565b604082019050919050565b600060208201905081810360008301526134c281613486565b9050919050565b7f4552433732313a207472616e736665722066726f6d20696e636f72726563742060008201527f6f776e6572000000000000000000000000000000000000000000000000000000602082015250565b600061352560258361255d565b9150613530826134c9565b604082019050919050565b6000602082019050818103600083015261355481613518565b9050919050565b7f4552433732313a207472616e7366657220746f20746865207a65726f2061646460008201527f7265737300000000000000000000000000000000000000000000000000000000602082015250565b60006135b760248361255d565b91506135c28261355b565b604082019050919050565b600060208201905081810360008301526135e6816135aa565b9050919050565b60006135f88261260d565b91506136038361260d565b9250827fffffffffffffffffffffffffffffffffffffffffffffffffffffffffffffffff03821115613638576136376131d6565b5b828201905092915050565b7f4552433732313a20617070726f766520746f2063616c6c657200000000000000600082015250565b600061367960198361255d565b915061368482613643565b602082019050919050565b600060208201905081810360008301526136a88161366c565b9050919050565b7f4552433732313a207472616e7366657220746f206e6f6e20455243373231526560008201527f63656976657220696d706c656d656e7465720000000000000000000000000000602082015250565b600061370b60328361255d565b9150613716826136af565b604082019050919050565b6000602082019050818103600083015261373a816136fe565b9050919050565b7f4e487b7100000000000000000000000000000000000000000000000000000000600052601260045260246000fd5b600061377b8261260d565b91506137868361260d565b92508261379657613795613741565b5b828204905092915050565b60006137ac8261260d565b91506137b78361260d565b9250826137c7576137c6613741565b5b828206905092915050565b7f4552433732313a206d696e7420746f20746865207a65726f2061646472657373600082015250565b600061380860208361255d565b9150613813826137d2565b602082019050919050565b60006020820190508181036000830152613837816137fb565b9050919050565b7f4552433732313a20746f6b656e20616c7265616479206d696e74656400000000600082015250565b6000613874601c8361255d565b915061387f8261383e565b602082019050919050565b600060208201905081810360008301526138a381613867565b9050919050565b600081519050919050565b600082825260208201905092915050565b60006138d1826138aa565b6138db81856138b5565b93506138eb81856020860161256e565b6138f4816125a1565b840191505092915050565b600060808201905061391460008301876126a2565b61392160208301866126a2565b61392e6040830185612738565b818103606083015261394081846138c6565b905095945050505050565b60008151905061395a816124c3565b92915050565b6000602082840312156139765761397561248d565b5b60006139848482850161394b565b91505092915050565b7f4e487b7100000000000000000000000000000000000000000000000000000000600052603160045260246000fdfea26469706673582212208ad68c0889abda260cea280f19572804ae7668ee0747f69a34d1d4f65c78720464736f6c634300080a0033",
  "immutableReferences": {
    "3041": [
      {
        "length": 32,
        "start": 1906
      },
      {
        "length": 32,
        "start": 2410
      },
      {
        "length": 32,
        "start": 4099
      }
    ]
  },
  "source": "pragma solidity >=0.4.22 <0.9.0;\r\nimport '@openzeppelin/contracts/token/ERC20/IERC20.sol';\r\nimport '@openzeppelin/contracts/token/ERC721/extensions/ERC721Enumerable.sol';\r\nimport '@openzeppelin/contracts/access/Ownable.sol';\r\n\r\ncontract Windows is ERC721Enumerable, Ownable {\r\n    uint256 uniqueIdCounter = 0;\r\n\r\n    uint256 tokenPrice = 10;\r\n\r\n    uint256 tokenPriceRebate = 1;\r\n\r\n    bool isMintEnabled = true;\r\n\r\n    address public immutable paymentToken;\r\n\r\n    event WindowsTransfer(address from, uint256 tokensPaid, uint256 tokenAmout);\r\n\r\n    constructor(address tokenAddress) public ERC721('Windows', 'WND') {\r\n        paymentToken = tokenAddress;\r\n    }\r\n\r\n    function setTokenPrice(uint256 newTokenPrice) public onlyOwner {\r\n        tokenPrice = newTokenPrice;\r\n    }\r\n\r\n    function setTokenPriceRebate(uint256 newTokenPriceRebate) public onlyOwner {\r\n        tokenPriceRebate = newTokenPriceRebate;\r\n    }\r\n\r\n    function setIsMintEnabled(bool newMintLocked) public onlyOwner {\r\n        isMintEnabled = newMintLocked;\r\n    }\r\n\r\n    function _windowsMint(address addresToMint) internal {\r\n        require(isMintEnabled, 'Mint is no enable at this moment!');\r\n        _mint(addresToMint, uniqueIdCounter);\r\n        uniqueIdCounter++;\r\n    }\r\n\r\n    function mintMultipleTokens(uint256 amount) public {\r\n        uint256 price = tokenPrice * amount;\r\n        if (amount > 1) {\r\n            price -= tokenPriceRebate * amount;\r\n            emit WindowsTransfer(msg.sender, price, amount);\r\n        }\r\n\r\n        require(\r\n            IERC20(paymentToken).transferFrom(msg.sender, owner(), price),\r\n            'Transfer failed'\r\n        );\r\n        for (uint256 i = 0; i < amount; i++) {\r\n            _windowsMint(msg.sender);\r\n        }\r\n    }\r\n\r\n    function mintToken() public {\r\n        require(\r\n            IERC20(paymentToken).transferFrom(msg.sender, owner(), tokenPrice),\r\n            'Transfer failed'\r\n        );\r\n        _windowsMint(msg.sender);\r\n    }\r\n}\r\n",
  "sourcePath": "C:\\Users\\itrmi\\OneDrive\\Documentos\\Gabriel\\VSCode\\Truffle-Project\\contracts\\Windows.sol",
  "compiler": {
    "name": "solc",
    "version": "0.8.10+commit.fc410830.Emscripten.clang"
  },
  "schemaVersion": "3.4.7",
  "updatedAt": "2022-06-10T17:34:07.369Z",
  "networkType": "ethereum",
  "devdoc": {
    "kind": "dev",
    "methods": {
      "approve(address,uint256)": {
        "details": "See {IERC721-approve}."
      },
      "balanceOf(address)": {
        "details": "See {IERC721-balanceOf}."
      },
      "getApproved(uint256)": {
        "details": "See {IERC721-getApproved}."
      },
      "isApprovedForAll(address,address)": {
        "details": "See {IERC721-isApprovedForAll}."
      },
      "name()": {
        "details": "See {IERC721Metadata-name}."
      },
      "owner()": {
        "details": "Returns the address of the current owner."
      },
      "ownerOf(uint256)": {
        "details": "See {IERC721-ownerOf}."
      },
      "renounceOwnership()": {
        "details": "Leaves the contract without owner. It will not be possible to call `onlyOwner` functions anymore. Can only be called by the current owner. NOTE: Renouncing ownership will leave the contract without an owner, thereby removing any functionality that is only available to the owner."
      },
      "safeTransferFrom(address,address,uint256)": {
        "details": "See {IERC721-safeTransferFrom}."
      },
      "safeTransferFrom(address,address,uint256,bytes)": {
        "details": "See {IERC721-safeTransferFrom}."
      },
      "setApprovalForAll(address,bool)": {
        "details": "See {IERC721-setApprovalForAll}."
      },
      "supportsInterface(bytes4)": {
        "details": "See {IERC165-supportsInterface}."
      },
      "symbol()": {
        "details": "See {IERC721Metadata-symbol}."
      },
      "tokenByIndex(uint256)": {
        "details": "See {IERC721Enumerable-tokenByIndex}."
      },
      "tokenOfOwnerByIndex(address,uint256)": {
        "details": "See {IERC721Enumerable-tokenOfOwnerByIndex}."
      },
      "tokenURI(uint256)": {
        "details": "See {IERC721Metadata-tokenURI}."
      },
      "totalSupply()": {
        "details": "See {IERC721Enumerable-totalSupply}."
      },
      "transferFrom(address,address,uint256)": {
        "details": "See {IERC721-transferFrom}."
      },
      "transferOwnership(address)": {
        "details": "Transfers ownership of the contract to a new account (`newOwner`). Can only be called by the current owner."
      }
    },
    "version": 1
  },
  "userdoc": {
    "kind": "user",
    "methods": {},
    "version": 1
  }
}