{
  "contractName": "WindowsXP",
  "abi": [
    {
      "inputs": [
        {
          "internalType": "address",
          "name": "tokenAddress",
          "type": "address"
        }
      ],
      "stateMutability": "nonpayable",
      "type": "constructor"
    },
    {
      "anonymous": false,
      "inputs": [
        {
          "indexed": true,
          "internalType": "address",
          "name": "owner",
          "type": "address"
        },
        {
          "indexed": true,
          "internalType": "address",
          "name": "approved",
          "type": "address"
        },
        {
          "indexed": true,
          "internalType": "uint256",
          "name": "tokenId",
          "type": "uint256"
        }
      ],
      "name": "Approval",
      "type": "event"
    },
    {
      "anonymous": false,
      "inputs": [
        {
          "indexed": true,
          "internalType": "address",
          "name": "owner",
          "type": "address"
        },
        {
          "indexed": true,
          "internalType": "address",
          "name": "operator",
          "type": "address"
        },
        {
          "indexed": false,
          "internalType": "bool",
          "name": "approved",
          "type": "bool"
        }
      ],
      "name": "ApprovalForAll",
      "type": "event"
    },
    {
      "anonymous": false,
      "inputs": [
        {
          "indexed": true,
          "internalType": "address",
          "name": "previousOwner",
          "type": "address"
        },
        {
          "indexed": true,
          "internalType": "address",
          "name": "newOwner",
          "type": "address"
        }
      ],
      "name": "OwnershipTransferred",
      "type": "event"
    },
    {
      "anonymous": false,
      "inputs": [
        {
          "indexed": true,
          "internalType": "address",
          "name": "from",
          "type": "address"
        },
        {
          "indexed": true,
          "internalType": "address",
          "name": "to",
          "type": "address"
        },
        {
          "indexed": true,
          "internalType": "uint256",
          "name": "tokenId",
          "type": "uint256"
        }
      ],
      "name": "Transfer",
      "type": "event"
    },
    {
      "inputs": [
        {
          "internalType": "address",
          "name": "to",
          "type": "address"
        },
        {
          "internalType": "uint256",
          "name": "tokenId",
          "type": "uint256"
        }
      ],
      "name": "approve",
      "outputs": [],
      "stateMutability": "nonpayable",
      "type": "function"
    },
    {
      "inputs": [
        {
          "internalType": "address",
          "name": "owner",
          "type": "address"
        }
      ],
      "name": "balanceOf",
      "outputs": [
        {
          "internalType": "uint256",
          "name": "",
          "type": "uint256"
        }
      ],
      "stateMutability": "view",
      "type": "function"
    },
    {
      "inputs": [
        {
          "internalType": "uint256",
          "name": "tokenId",
          "type": "uint256"
        }
      ],
      "name": "getApproved",
      "outputs": [
        {
          "internalType": "address",
          "name": "",
          "type": "address"
        }
      ],
      "stateMutability": "view",
      "type": "function"
    },
    {
      "inputs": [
        {
          "internalType": "address",
          "name": "owner",
          "type": "address"
        },
        {
          "internalType": "address",
          "name": "operator",
          "type": "address"
        }
      ],
      "name": "isApprovedForAll",
      "outputs": [
        {
          "internalType": "bool",
          "name": "",
          "type": "bool"
        }
      ],
      "stateMutability": "view",
      "type": "function"
    },
    {
      "inputs": [],
      "name": "name",
      "outputs": [
        {
          "internalType": "string",
          "name": "",
          "type": "string"
        }
      ],
      "stateMutability": "view",
      "type": "function"
    },
    {
      "inputs": [],
      "name": "owner",
      "outputs": [
        {
          "internalType": "address",
          "name": "",
          "type": "address"
        }
      ],
      "stateMutability": "view",
      "type": "function"
    },
    {
      "inputs": [
        {
          "internalType": "uint256",
          "name": "tokenId",
          "type": "uint256"
        }
      ],
      "name": "ownerOf",
      "outputs": [
        {
          "internalType": "address",
          "name": "",
          "type": "address"
        }
      ],
      "stateMutability": "view",
      "type": "function"
    },
    {
      "inputs": [],
      "name": "paymentToken",
      "outputs": [
        {
          "internalType": "address",
          "name": "",
          "type": "address"
        }
      ],
      "stateMutability": "view",
      "type": "function"
    },
    {
      "inputs": [],
      "name": "renounceOwnership",
      "outputs": [],
      "stateMutability": "nonpayable",
      "type": "function"
    },
    {
      "inputs": [
        {
          "internalType": "address",
          "name": "from",
          "type": "address"
        },
        {
          "internalType": "address",
          "name": "to",
          "type": "address"
        },
        {
          "internalType": "uint256",
          "name": "tokenId",
          "type": "uint256"
        }
      ],
      "name": "safeTransferFrom",
      "outputs": [],
      "stateMutability": "nonpayable",
      "type": "function"
    },
    {
      "inputs": [
        {
          "internalType": "address",
          "name": "from",
          "type": "address"
        },
        {
          "internalType": "address",
          "name": "to",
          "type": "address"
        },
        {
          "internalType": "uint256",
          "name": "tokenId",
          "type": "uint256"
        },
        {
          "internalType": "bytes",
          "name": "_data",
          "type": "bytes"
        }
      ],
      "name": "safeTransferFrom",
      "outputs": [],
      "stateMutability": "nonpayable",
      "type": "function"
    },
    {
      "inputs": [
        {
          "internalType": "address",
          "name": "operator",
          "type": "address"
        },
        {
          "internalType": "bool",
          "name": "approved",
          "type": "bool"
        }
      ],
      "name": "setApprovalForAll",
      "outputs": [],
      "stateMutability": "nonpayable",
      "type": "function"
    },
    {
      "inputs": [
        {
          "internalType": "bytes4",
          "name": "interfaceId",
          "type": "bytes4"
        }
      ],
      "name": "supportsInterface",
      "outputs": [
        {
          "internalType": "bool",
          "name": "",
          "type": "bool"
        }
      ],
      "stateMutability": "view",
      "type": "function"
    },
    {
      "inputs": [],
      "name": "symbol",
      "outputs": [
        {
          "internalType": "string",
          "name": "",
          "type": "string"
        }
      ],
      "stateMutability": "view",
      "type": "function"
    },
    {
      "inputs": [
        {
          "internalType": "uint256",
          "name": "index",
          "type": "uint256"
        }
      ],
      "name": "tokenByIndex",
      "outputs": [
        {
          "internalType": "uint256",
          "name": "",
          "type": "uint256"
        }
      ],
      "stateMutability": "view",
      "type": "function"
    },
    {
      "inputs": [
        {
          "internalType": "address",
          "name": "owner",
          "type": "address"
        },
        {
          "internalType": "uint256",
          "name": "index",
          "type": "uint256"
        }
      ],
      "name": "tokenOfOwnerByIndex",
      "outputs": [
        {
          "internalType": "uint256",
          "name": "",
          "type": "uint256"
        }
      ],
      "stateMutability": "view",
      "type": "function"
    },
    {
      "inputs": [
        {
          "internalType": "uint256",
          "name": "tokenId",
          "type": "uint256"
        }
      ],
      "name": "tokenURI",
      "outputs": [
        {
          "internalType": "string",
          "name": "",
          "type": "string"
        }
      ],
      "stateMutability": "view",
      "type": "function"
    },
    {
      "inputs": [],
      "name": "totalSupply",
      "outputs": [
        {
          "internalType": "uint256",
          "name": "",
          "type": "uint256"
        }
      ],
      "stateMutability": "view",
      "type": "function"
    },
    {
      "inputs": [
        {
          "internalType": "address",
          "name": "from",
          "type": "address"
        },
        {
          "internalType": "address",
          "name": "to",
          "type": "address"
        },
        {
          "internalType": "uint256",
          "name": "tokenId",
          "type": "uint256"
        }
      ],
      "name": "transferFrom",
      "outputs": [],
      "stateMutability": "nonpayable",
      "type": "function"
    },
    {
      "inputs": [
        {
          "internalType": "address",
          "name": "newOwner",
          "type": "address"
        }
      ],
      "name": "transferOwnership",
      "outputs": [],
      "stateMutability": "nonpayable",
      "type": "function"
    },
    {
      "inputs": [
        {
          "internalType": "uint256",
          "name": "newTokenPrice",
          "type": "uint256"
        }
      ],
      "name": "setTokenPrice",
      "outputs": [],
      "stateMutability": "nonpayable",
      "type": "function"
    },
    {
      "inputs": [
        {
          "internalType": "uint256",
          "name": "newTokenPriceRebate",
          "type": "uint256"
        }
      ],
      "name": "setTokenPriceRebate",
      "outputs": [],
      "stateMutability": "nonpayable",
      "type": "function"
    },
    {
      "inputs": [
        {
          "internalType": "bool",
          "name": "newMintLocked",
          "type": "bool"
        }
      ],
      "name": "setIsMintEnabled",
      "outputs": [],
      "stateMutability": "nonpayable",
      "type": "function"
    },
    {
      "inputs": [
        {
          "internalType": "address",
          "name": "buyer",
          "type": "address"
        },
        {
          "internalType": "uint256",
          "name": "amount",
          "type": "uint256"
        }
      ],
      "name": "mintMultipleTokens",
      "outputs": [],
      "stateMutability": "nonpayable",
      "type": "function"
    },
    {
      "inputs": [
        {
          "internalType": "address",
          "name": "buyer",
          "type": "address"
        }
      ],
      "name": "mintToken",
      "outputs": [],
      "stateMutability": "nonpayable",
      "type": "function"
    }
  ],
  "bytecode": "0x60a06040526000600b55600a600c556001600d556001600e60006101000a81548160ff0219169083151502179055503480156200003b57600080fd5b5060405162003de838038062003de8833981810160405281019062000061919062000344565b6040518060400160405280600981526020017f57696e646f7773585000000000000000000000000000000000000000000000008152506040518060400160405280600381526020017f57585000000000000000000000000000000000000000000000000000000000008152508160009080519060200190620000e59291906200022a565b508060019080519060200190620000fe9291906200022a565b50505062000121620001156200015c60201b60201c565b6200016460201b60201c565b8073ffffffffffffffffffffffffffffffffffffffff1660808173ffffffffffffffffffffffffffffffffffffffff168152505050620003db565b600033905090565b6000600a60009054906101000a900473ffffffffffffffffffffffffffffffffffffffff16905081600a60006101000a81548173ffffffffffffffffffffffffffffffffffffffff021916908373ffffffffffffffffffffffffffffffffffffffff1602179055508173ffffffffffffffffffffffffffffffffffffffff168173ffffffffffffffffffffffffffffffffffffffff167f8be0079c531659141344cd1fd0a4f28419497f9722a3daafe3b4186f6b6457e060405160405180910390a35050565b8280546200023890620003a5565b90600052602060002090601f0160209004810192826200025c5760008555620002a8565b82601f106200027757805160ff1916838001178555620002a8565b82800160010185558215620002a8579182015b82811115620002a75782518255916020019190600101906200028a565b5b509050620002b79190620002bb565b5090565b5b80821115620002d6576000816000905550600101620002bc565b5090565b600080fd5b600073ffffffffffffffffffffffffffffffffffffffff82169050919050565b60006200030c82620002df565b9050919050565b6200031e81620002ff565b81146200032a57600080fd5b50565b6000815190506200033e8162000313565b92915050565b6000602082840312156200035d576200035c620002da565b5b60006200036d848285016200032d565b91505092915050565b7f4e487b7100000000000000000000000000000000000000000000000000000000600052602260045260246000fd5b60006002820490506001821680620003be57607f821691505b60208210811415620003d557620003d462000376565b5b50919050565b6080516139e3620004056000396000818161051d015281816109cc0152610ec801526139e36000f3fe608060405234801561001057600080fd5b50600436106101735760003560e01c8063573123a9116100de5780638e5bbff711610097578063b88d4fde11610071578063b88d4fde14610434578063c87b56dd14610450578063e985e9c514610480578063f2fde38b146104b057610173565b80638e5bbff7146103de57806395d89b41146103fa578063a22cb4651461041857610173565b8063573123a91461031e5780636352211e1461033a5780636a61e5fc1461036a57806370a0823114610386578063715018a6146103b65780638da5cb5b146103c057610173565b806323b872dd1161013057806323b872dd1461024c5780632f745c59146102685780633013ce291461029857806342842e0e146102b65780634de8bcfb146102d25780634f6ccce7146102ee57610173565b806301173a741461017857806301ffc9a71461019457806306fdde03146101c4578063081812fc146101e2578063095ea7b31461021257806318160ddd1461022e575b600080fd5b610192600480360381019061018d919061251d565b6104cc565b005b6101ae60048036038101906101a991906125a2565b61060f565b6040516101bb91906125ea565b60405180910390f35b6101cc610689565b6040516101d9919061269e565b60405180910390f35b6101fc60048036038101906101f791906126f6565b61071b565b6040516102099190612732565b60405180910390f35b61022c6004803603810190610227919061274d565b6107a0565b005b6102366108b8565b604051610243919061279c565b60405180910390f35b610266600480360381019061026191906127b7565b6108c5565b005b610282600480360381019061027d919061274d565b610925565b60405161028f919061279c565b60405180910390f35b6102a06109ca565b6040516102ad9190612732565b60405180910390f35b6102d060048036038101906102cb91906127b7565b6109ee565b005b6102ec60048036038101906102e79190612836565b610a0e565b005b610308600480360381019061030391906126f6565b610aa7565b604051610315919061279c565b60405180910390f35b610338600480360381019061033391906126f6565b610b18565b005b610354600480360381019061034f91906126f6565b610b9e565b6040516103619190612732565b60405180910390f35b610384600480360381019061037f91906126f6565b610c50565b005b6103a0600480360381019061039b919061251d565b610cd6565b6040516103ad919061279c565b60405180910390f35b6103be610d8e565b005b6103c8610e16565b6040516103d59190612732565b60405180910390f35b6103f860048036038101906103f3919061274d565b610e40565b005b610402610fd9565b60405161040f919061269e565b60405180910390f35b610432600480360381019061042d9190612863565b61106b565b005b61044e600480360381019061044991906129d8565b611081565b005b61046a600480360381019061046591906126f6565b6110e3565b604051610477919061269e565b60405180910390f35b61049a60048036038101906104959190612a5b565b61118a565b6040516104a791906125ea565b60405180910390f35b6104ca60048036038101906104c5919061251d565b61121e565b005b600e60009054906101000a900460ff1661051b576040517f08c379a000000000000000000000000000000000000000000000000000000000815260040161051290612b0d565b60405180910390fd5b7f000000000000000000000000000000000000000000000000000000000000000073ffffffffffffffffffffffffffffffffffffffff166323b872dd82610560610e16565b600c546040518463ffffffff1660e01b815260040161058193929190612b2d565b6020604051808303816000875af11580156105a0573d6000803e3d6000fd5b505050506040513d601f19601f820116820180604052508101906105c49190612b79565b610603576040517f08c379a00000000000000000000000000000000000000000000000000000000081526004016105fa90612bf2565b60405180910390fd5b61060c81611316565b50565b60007f780e9d63000000000000000000000000000000000000000000000000000000007bffffffffffffffffffffffffffffffffffffffffffffffffffffffff1916827bffffffffffffffffffffffffffffffffffffffffffffffffffffffff1916148061068257506106818261133d565b5b9050919050565b60606000805461069890612c41565b80601f01602080910402602001604051908101604052809291908181526020018280546106c490612c41565b80156107115780601f106106e657610100808354040283529160200191610711565b820191906000526020600020905b8154815290600101906020018083116106f457829003601f168201915b5050505050905090565b60006107268261141f565b610765576040517f08c379a000000000000000000000000000000000000000000000000000000000815260040161075c90612ce5565b60405180910390fd5b6004600083815260200190815260200160002060009054906101000a900473ffffffffffffffffffffffffffffffffffffffff169050919050565b60006107ab82610b9e565b90508073ffffffffffffffffffffffffffffffffffffffff168373ffffffffffffffffffffffffffffffffffffffff16141561081c576040517f08c379a000000000000000000000000000000000000000000000000000000000815260040161081390612d77565b60405180910390fd5b8073ffffffffffffffffffffffffffffffffffffffff1661083b61148b565b73ffffffffffffffffffffffffffffffffffffffff16148061086a57506108698161086461148b565b61118a565b5b6108a9576040517f08c379a00000000000000000000000000000000000000000000000000000000081526004016108a090612e09565b60405180910390fd5b6108b38383611493565b505050565b6000600880549050905090565b6108d66108d061148b565b8261154c565b610915576040517f08c379a000000000000000000000000000000000000000000000000000000000815260040161090c90612e9b565b60405180910390fd5b61092083838361162a565b505050565b600061093083610cd6565b8210610971576040517f08c379a000000000000000000000000000000000000000000000000000000000815260040161096890612f2d565b60405180910390fd5b600660008473ffffffffffffffffffffffffffffffffffffffff1673ffffffffffffffffffffffffffffffffffffffff168152602001908152602001600020600083815260200190815260200160002054905092915050565b7f000000000000000000000000000000000000000000000000000000000000000081565b610a0983838360405180602001604052806000815250611081565b505050565b610a1661148b565b73ffffffffffffffffffffffffffffffffffffffff16610a34610e16565b73ffffffffffffffffffffffffffffffffffffffff1614610a8a576040517f08c379a0000000000000000000000000000000000000000000000000000000008152600401610a8190612f99565b60405180910390fd5b80600e60006101000a81548160ff02191690831515021790555050565b6000610ab16108b8565b8210610af2576040517f08c379a0000000000000000000000000000000000000000000000000000000008152600401610ae99061302b565b60405180910390fd5b60088281548110610b0657610b0561304b565b5b90600052602060002001549050919050565b610b2061148b565b73ffffffffffffffffffffffffffffffffffffffff16610b3e610e16565b73ffffffffffffffffffffffffffffffffffffffff1614610b94576040517f08c379a0000000000000000000000000000000000000000000000000000000008152600401610b8b90612f99565b60405180910390fd5b80600d8190555050565b6000806002600084815260200190815260200160002060009054906101000a900473ffffffffffffffffffffffffffffffffffffffff169050600073ffffffffffffffffffffffffffffffffffffffff168173ffffffffffffffffffffffffffffffffffffffff161415610c47576040517f08c379a0000000000000000000000000000000000000000000000000000000008152600401610c3e906130ec565b60405180910390fd5b80915050919050565b610c5861148b565b73ffffffffffffffffffffffffffffffffffffffff16610c76610e16565b73ffffffffffffffffffffffffffffffffffffffff1614610ccc576040517f08c379a0000000000000000000000000000000000000000000000000000000008152600401610cc390612f99565b60405180910390fd5b80600c8190555050565b60008073ffffffffffffffffffffffffffffffffffffffff168273ffffffffffffffffffffffffffffffffffffffff161415610d47576040517f08c379a0000000000000000000000000000000000000000000000000000000008152600401610d3e9061317e565b60405180910390fd5b600360008373ffffffffffffffffffffffffffffffffffffffff1673ffffffffffffffffffffffffffffffffffffffff168152602001908152602001600020549050919050565b610d9661148b565b73ffffffffffffffffffffffffffffffffffffffff16610db4610e16565b73ffffffffffffffffffffffffffffffffffffffff1614610e0a576040517f08c379a0000000000000000000000000000000000000000000000000000000008152600401610e0190612f99565b60405180910390fd5b610e146000611891565b565b6000600a60009054906101000a900473ffffffffffffffffffffffffffffffffffffffff16905090565b600e60009054906101000a900460ff16610e8f576040517f08c379a0000000000000000000000000000000000000000000000000000000008152600401610e8690612b0d565b60405180910390fd5b600081600c54610e9f91906131cd565b90506001821115610ec65781600d54610eb891906131cd565b81610ec39190613227565b90505b7f000000000000000000000000000000000000000000000000000000000000000073ffffffffffffffffffffffffffffffffffffffff166323b872dd84610f0b610e16565b846040518463ffffffff1660e01b8152600401610f2a93929190612b2d565b6020604051808303816000875af1158015610f49573d6000803e3d6000fd5b505050506040513d601f19601f82011682018060405250810190610f6d9190612b79565b610fac576040517f08c379a0000000000000000000000000000000000000000000000000000000008152600401610fa390612bf2565b60405180910390fd5b60005b82811015610fd357610fc084611316565b8080610fcb9061325b565b915050610faf565b50505050565b606060018054610fe890612c41565b80601f016020809104026020016040519081016040528092919081815260200182805461101490612c41565b80156110615780601f1061103657610100808354040283529160200191611061565b820191906000526020600020905b81548152906001019060200180831161104457829003601f168201915b5050505050905090565b61107d61107661148b565b8383611957565b5050565b61109261108c61148b565b8361154c565b6110d1576040517f08c379a00000000000000000000000000000000000000000000000000000000081526004016110c890612e9b565b60405180910390fd5b6110dd84848484611ac4565b50505050565b60606110ee8261141f565b61112d576040517f08c379a000000000000000000000000000000000000000000000000000000000815260040161112490613316565b60405180910390fd5b6000611137611b20565b905060008151116111575760405180602001604052806000815250611182565b8061116184611b37565b604051602001611172929190613372565b6040516020818303038152906040525b915050919050565b6000600560008473ffffffffffffffffffffffffffffffffffffffff1673ffffffffffffffffffffffffffffffffffffffff16815260200190815260200160002060008373ffffffffffffffffffffffffffffffffffffffff1673ffffffffffffffffffffffffffffffffffffffff16815260200190815260200160002060009054906101000a900460ff16905092915050565b61122661148b565b73ffffffffffffffffffffffffffffffffffffffff16611244610e16565b73ffffffffffffffffffffffffffffffffffffffff161461129a576040517f08c379a000000000000000000000000000000000000000000000000000000000815260040161129190612f99565b60405180910390fd5b600073ffffffffffffffffffffffffffffffffffffffff168173ffffffffffffffffffffffffffffffffffffffff16141561130a576040517f08c379a000000000000000000000000000000000000000000000000000000000815260040161130190613408565b60405180910390fd5b61131381611891565b50565b61132281600b54611c98565b600b60008154809291906113359061325b565b919050555050565b60007f80ac58cd000000000000000000000000000000000000000000000000000000007bffffffffffffffffffffffffffffffffffffffffffffffffffffffff1916827bffffffffffffffffffffffffffffffffffffffffffffffffffffffff1916148061140857507f5b5e139f000000000000000000000000000000000000000000000000000000007bffffffffffffffffffffffffffffffffffffffffffffffffffffffff1916827bffffffffffffffffffffffffffffffffffffffffffffffffffffffff1916145b80611418575061141782611e72565b5b9050919050565b60008073ffffffffffffffffffffffffffffffffffffffff166002600084815260200190815260200160002060009054906101000a900473ffffffffffffffffffffffffffffffffffffffff1673ffffffffffffffffffffffffffffffffffffffff1614159050919050565b600033905090565b816004600083815260200190815260200160002060006101000a81548173ffffffffffffffffffffffffffffffffffffffff021916908373ffffffffffffffffffffffffffffffffffffffff160217905550808273ffffffffffffffffffffffffffffffffffffffff1661150683610b9e565b73ffffffffffffffffffffffffffffffffffffffff167f8c5be1e5ebec7d5bd14f71427d1e84f3dd0314c0f7b2291e5b200ac8c7c3b92560405160405180910390a45050565b60006115578261141f565b611596576040517f08c379a000000000000000000000000000000000000000000000000000000000815260040161158d9061349a565b60405180910390fd5b60006115a183610b9e565b90508073ffffffffffffffffffffffffffffffffffffffff168473ffffffffffffffffffffffffffffffffffffffff1614806115e357506115e2818561118a565b5b8061162157508373ffffffffffffffffffffffffffffffffffffffff166116098461071b565b73ffffffffffffffffffffffffffffffffffffffff16145b91505092915050565b8273ffffffffffffffffffffffffffffffffffffffff1661164a82610b9e565b73ffffffffffffffffffffffffffffffffffffffff16146116a0576040517f08c379a00000000000000000000000000000000000000000000000000000000081526004016116979061352c565b60405180910390fd5b600073ffffffffffffffffffffffffffffffffffffffff168273ffffffffffffffffffffffffffffffffffffffff161415611710576040517f08c379a0000000000000000000000000000000000000000000000000000000008152600401611707906135be565b60405180910390fd5b61171b838383611edc565b611726600082611493565b6001600360008573ffffffffffffffffffffffffffffffffffffffff1673ffffffffffffffffffffffffffffffffffffffff16815260200190815260200160002060008282546117769190613227565b925050819055506001600360008473ffffffffffffffffffffffffffffffffffffffff1673ffffffffffffffffffffffffffffffffffffffff16815260200190815260200160002060008282546117cd91906135de565b92505081905550816002600083815260200190815260200160002060006101000a81548173ffffffffffffffffffffffffffffffffffffffff021916908373ffffffffffffffffffffffffffffffffffffffff160217905550808273ffffffffffffffffffffffffffffffffffffffff168473ffffffffffffffffffffffffffffffffffffffff167fddf252ad1be2c89b69c2b068fc378daa952ba7f163c4a11628f55a4df523b3ef60405160405180910390a461188c838383611ff0565b505050565b6000600a60009054906101000a900473ffffffffffffffffffffffffffffffffffffffff16905081600a60006101000a81548173ffffffffffffffffffffffffffffffffffffffff021916908373ffffffffffffffffffffffffffffffffffffffff1602179055508173ffffffffffffffffffffffffffffffffffffffff168173ffffffffffffffffffffffffffffffffffffffff167f8be0079c531659141344cd1fd0a4f28419497f9722a3daafe3b4186f6b6457e060405160405180910390a35050565b8173ffffffffffffffffffffffffffffffffffffffff168373ffffffffffffffffffffffffffffffffffffffff1614156119c6576040517f08c379a00000000000000000000000000000000000000000000000000000000081526004016119bd90613680565b60405180910390fd5b80600560008573ffffffffffffffffffffffffffffffffffffffff1673ffffffffffffffffffffffffffffffffffffffff16815260200190815260200160002060008473ffffffffffffffffffffffffffffffffffffffff1673ffffffffffffffffffffffffffffffffffffffff16815260200190815260200160002060006101000a81548160ff0219169083151502179055508173ffffffffffffffffffffffffffffffffffffffff168373ffffffffffffffffffffffffffffffffffffffff167f17307eab39ab6107e8899845ad3d59bd9653f200f220920489ca2b5937696c3183604051611ab791906125ea565b60405180910390a3505050565b611acf84848461162a565b611adb84848484611ff5565b611b1a576040517f08c379a0000000000000000000000000000000000000000000000000000000008152600401611b1190613712565b60405180910390fd5b50505050565b606060405180602001604052806000815250905090565b60606000821415611b7f576040518060400160405280600181526020017f30000000000000000000000000000000000000000000000000000000000000008152509050611c93565b600082905060005b60008214611bb1578080611b9a9061325b565b915050600a82611baa9190613761565b9150611b87565b60008167ffffffffffffffff811115611bcd57611bcc6128ad565b5b6040519080825280601f01601f191660200182016040528015611bff5781602001600182028036833780820191505090505b5090505b60008514611c8c57600182611c189190613227565b9150600a85611c279190613792565b6030611c3391906135de565b60f81b818381518110611c4957611c4861304b565b5b60200101907effffffffffffffffffffffffffffffffffffffffffffffffffffffffffffff1916908160001a905350600a85611c859190613761565b9450611c03565b8093505050505b919050565b600073ffffffffffffffffffffffffffffffffffffffff168273ffffffffffffffffffffffffffffffffffffffff161415611d08576040517f08c379a0000000000000000000000000000000000000000000000000000000008152600401611cff9061380f565b60405180910390fd5b611d118161141f565b15611d51576040517f08c379a0000000000000000000000000000000000000000000000000000000008152600401611d489061387b565b60405180910390fd5b611d5d60008383611edc565b6001600360008473ffffffffffffffffffffffffffffffffffffffff1673ffffffffffffffffffffffffffffffffffffffff1681526020019081526020016000206000828254611dad91906135de565b92505081905550816002600083815260200190815260200160002060006101000a81548173ffffffffffffffffffffffffffffffffffffffff021916908373ffffffffffffffffffffffffffffffffffffffff160217905550808273ffffffffffffffffffffffffffffffffffffffff16600073ffffffffffffffffffffffffffffffffffffffff167fddf252ad1be2c89b69c2b068fc378daa952ba7f163c4a11628f55a4df523b3ef60405160405180910390a4611e6e60008383611ff0565b5050565b60007f01ffc9a7000000000000000000000000000000000000000000000000000000007bffffffffffffffffffffffffffffffffffffffffffffffffffffffff1916827bffffffffffffffffffffffffffffffffffffffffffffffffffffffff1916149050919050565b611ee783838361217d565b600073ffffffffffffffffffffffffffffffffffffffff168373ffffffffffffffffffffffffffffffffffffffff161415611f2a57611f2581612182565b611f69565b8173ffffffffffffffffffffffffffffffffffffffff168373ffffffffffffffffffffffffffffffffffffffff1614611f6857611f6783826121cb565b5b5b600073ffffffffffffffffffffffffffffffffffffffff168273ffffffffffffffffffffffffffffffffffffffff161415611fac57611fa781612338565b611feb565b8273ffffffffffffffffffffffffffffffffffffffff168273ffffffffffffffffffffffffffffffffffffffff1614611fea57611fe98282612409565b5b5b505050565b505050565b60006120168473ffffffffffffffffffffffffffffffffffffffff16612488565b15612170578373ffffffffffffffffffffffffffffffffffffffff1663150b7a0261203f61148b565b8786866040518563ffffffff1660e01b815260040161206194939291906138f0565b6020604051808303816000875af192505050801561209d57506040513d601f19601f8201168201806040525081019061209a9190613951565b60015b612120573d80600081146120cd576040519150601f19603f3d011682016040523d82523d6000602084013e6120d2565b606091505b50600081511415612118576040517f08c379a000000000000000000000000000000000000000000000000000000000815260040161210f90613712565b60405180910390fd5b805181602001fd5b63150b7a0260e01b7bffffffffffffffffffffffffffffffffffffffffffffffffffffffff1916817bffffffffffffffffffffffffffffffffffffffffffffffffffffffff191614915050612175565b600190505b949350505050565b505050565b6008805490506009600083815260200190815260200160002081905550600881908060018154018082558091505060019003906000526020600020016000909190919091505550565b600060016121d884610cd6565b6121e29190613227565b90506000600760008481526020019081526020016000205490508181146122c7576000600660008673ffffffffffffffffffffffffffffffffffffffff1673ffffffffffffffffffffffffffffffffffffffff168152602001908152602001600020600084815260200190815260200160002054905080600660008773ffffffffffffffffffffffffffffffffffffffff1673ffffffffffffffffffffffffffffffffffffffff168152602001908152602001600020600084815260200190815260200160002081905550816007600083815260200190815260200160002081905550505b6007600084815260200190815260200160002060009055600660008573ffffffffffffffffffffffffffffffffffffffff1673ffffffffffffffffffffffffffffffffffffffff16815260200190815260200160002060008381526020019081526020016000206000905550505050565b6000600160088054905061234c9190613227565b905060006009600084815260200190815260200160002054905060006008838154811061237c5761237b61304b565b5b90600052602060002001549050806008838154811061239e5761239d61304b565b5b9060005260206000200181905550816009600083815260200190815260200160002081905550600960008581526020019081526020016000206000905560088054806123ed576123ec61397e565b5b6001900381819060005260206000200160009055905550505050565b600061241483610cd6565b905081600660008573ffffffffffffffffffffffffffffffffffffffff1673ffffffffffffffffffffffffffffffffffffffff168152602001908152602001600020600083815260200190815260200160002081905550806007600084815260200190815260200160002081905550505050565b6000808273ffffffffffffffffffffffffffffffffffffffff163b119050919050565b6000604051905090565b600080fd5b600080fd5b600073ffffffffffffffffffffffffffffffffffffffff82169050919050565b60006124ea826124bf565b9050919050565b6124fa816124df565b811461250557600080fd5b50565b600081359050612517816124f1565b92915050565b600060208284031215612533576125326124b5565b5b600061254184828501612508565b91505092915050565b60007fffffffff0000000000000000000000000000000000000000000000000000000082169050919050565b61257f8161254a565b811461258a57600080fd5b50565b60008135905061259c81612576565b92915050565b6000602082840312156125b8576125b76124b5565b5b60006125c68482850161258d565b91505092915050565b60008115159050919050565b6125e4816125cf565b82525050565b60006020820190506125ff60008301846125db565b92915050565b600081519050919050565b600082825260208201905092915050565b60005b8381101561263f578082015181840152602081019050612624565b8381111561264e576000848401525b50505050565b6000601f19601f8301169050919050565b600061267082612605565b61267a8185612610565b935061268a818560208601612621565b61269381612654565b840191505092915050565b600060208201905081810360008301526126b88184612665565b905092915050565b6000819050919050565b6126d3816126c0565b81146126de57600080fd5b50565b6000813590506126f0816126ca565b92915050565b60006020828403121561270c5761270b6124b5565b5b600061271a848285016126e1565b91505092915050565b61272c816124df565b82525050565b60006020820190506127476000830184612723565b92915050565b60008060408385031215612764576127636124b5565b5b600061277285828601612508565b9250506020612783858286016126e1565b9150509250929050565b612796816126c0565b82525050565b60006020820190506127b1600083018461278d565b92915050565b6000806000606084860312156127d0576127cf6124b5565b5b60006127de86828701612508565b93505060206127ef86828701612508565b9250506040612800868287016126e1565b9150509250925092565b612813816125cf565b811461281e57600080fd5b50565b6000813590506128308161280a565b92915050565b60006020828403121561284c5761284b6124b5565b5b600061285a84828501612821565b91505092915050565b6000806040838503121561287a576128796124b5565b5b600061288885828601612508565b925050602061289985828601612821565b9150509250929050565b600080fd5b600080fd5b7f4e487b7100000000000000000000000000000000000000000000000000000000600052604160045260246000fd5b6128e582612654565b810181811067ffffffffffffffff82111715612904576129036128ad565b5b80604052505050565b60006129176124ab565b905061292382826128dc565b919050565b600067ffffffffffffffff821115612943576129426128ad565b5b61294c82612654565b9050602081019050919050565b82818337600083830152505050565b600061297b61297684612928565b61290d565b905082815260208101848484011115612997576129966128a8565b5b6129a2848285612959565b509392505050565b600082601f8301126129bf576129be6128a3565b5b81356129cf848260208601612968565b91505092915050565b600080600080608085870312156129f2576129f16124b5565b5b6000612a0087828801612508565b9450506020612a1187828801612508565b9350506040612a22878288016126e1565b925050606085013567ffffffffffffffff811115612a4357612a426124ba565b5b612a4f878288016129aa565b91505092959194509250565b60008060408385031215612a7257612a716124b5565b5b6000612a8085828601612508565b9250506020612a9185828601612508565b9150509250929050565b7f4d696e74206973206e6f20656e61626c65642061742074686973206d6f6d656e60008201527f7421000000000000000000000000000000000000000000000000000000000000602082015250565b6000612af7602283612610565b9150612b0282612a9b565b604082019050919050565b60006020820190508181036000830152612b2681612aea565b9050919050565b6000606082019050612b426000830186612723565b612b4f6020830185612723565b612b5c604083018461278d565b949350505050565b600081519050612b738161280a565b92915050565b600060208284031215612b8f57612b8e6124b5565b5b6000612b9d84828501612b64565b91505092915050565b7f5472616e73666572206661696c65640000000000000000000000000000000000600082015250565b6000612bdc600f83612610565b9150612be782612ba6565b602082019050919050565b60006020820190508181036000830152612c0b81612bcf565b9050919050565b7f4e487b7100000000000000000000000000000000000000000000000000000000600052602260045260246000fd5b60006002820490506001821680612c5957607f821691505b60208210811415612c6d57612c6c612c12565b5b50919050565b7f4552433732313a20617070726f76656420717565727920666f72206e6f6e657860008201527f697374656e7420746f6b656e0000000000000000000000000000000000000000602082015250565b6000612ccf602c83612610565b9150612cda82612c73565b604082019050919050565b60006020820190508181036000830152612cfe81612cc2565b9050919050565b7f4552433732313a20617070726f76616c20746f2063757272656e74206f776e6560008201527f7200000000000000000000000000000000000000000000000000000000000000602082015250565b6000612d61602183612610565b9150612d6c82612d05565b604082019050919050565b60006020820190508181036000830152612d9081612d54565b9050919050565b7f4552433732313a20617070726f76652063616c6c6572206973206e6f74206f7760008201527f6e6572206e6f7220617070726f76656420666f7220616c6c0000000000000000602082015250565b6000612df3603883612610565b9150612dfe82612d97565b604082019050919050565b60006020820190508181036000830152612e2281612de6565b9050919050565b7f4552433732313a207472616e736665722063616c6c6572206973206e6f74206f60008201527f776e6572206e6f7220617070726f766564000000000000000000000000000000602082015250565b6000612e85603183612610565b9150612e9082612e29565b604082019050919050565b60006020820190508181036000830152612eb481612e78565b9050919050565b7f455243373231456e756d657261626c653a206f776e657220696e646578206f7560008201527f74206f6620626f756e6473000000000000000000000000000000000000000000602082015250565b6000612f17602b83612610565b9150612f2282612ebb565b604082019050919050565b60006020820190508181036000830152612f4681612f0a565b9050919050565b7f4f776e61626c653a2063616c6c6572206973206e6f7420746865206f776e6572600082015250565b6000612f83602083612610565b9150612f8e82612f4d565b602082019050919050565b60006020820190508181036000830152612fb281612f76565b9050919050565b7f455243373231456e756d657261626c653a20676c6f62616c20696e646578206f60008201527f7574206f6620626f756e64730000000000000000000000000000000000000000602082015250565b6000613015602c83612610565b915061302082612fb9565b604082019050919050565b6000602082019050818103600083015261304481613008565b9050919050565b7f4e487b7100000000000000000000000000000000000000000000000000000000600052603260045260246000fd5b7f4552433732313a206f776e657220717565727920666f72206e6f6e657869737460008201527f656e7420746f6b656e0000000000000000000000000000000000000000000000602082015250565b60006130d6602983612610565b91506130e18261307a565b604082019050919050565b60006020820190508181036000830152613105816130c9565b9050919050565b7f4552433732313a2062616c616e636520717565727920666f7220746865207a6560008201527f726f206164647265737300000000000000000000000000000000000000000000602082015250565b6000613168602a83612610565b91506131738261310c565b604082019050919050565b600060208201905081810360008301526131978161315b565b9050919050565b7f4e487b7100000000000000000000000000000000000000000000000000000000600052601160045260246000fd5b60006131d8826126c0565b91506131e3836126c0565b9250817fffffffffffffffffffffffffffffffffffffffffffffffffffffffffffffffff048311821515161561321c5761321b61319e565b5b828202905092915050565b6000613232826126c0565b915061323d836126c0565b9250828210156132505761324f61319e565b5b828203905092915050565b6000613266826126c0565b91507fffffffffffffffffffffffffffffffffffffffffffffffffffffffffffffffff8214156132995761329861319e565b5b600182019050919050565b7f4552433732314d657461646174613a2055524920717565727920666f72206e6f60008201527f6e6578697374656e7420746f6b656e0000000000000000000000000000000000602082015250565b6000613300602f83612610565b915061330b826132a4565b604082019050919050565b6000602082019050818103600083015261332f816132f3565b9050919050565b600081905092915050565b600061334c82612605565b6133568185613336565b9350613366818560208601612621565b80840191505092915050565b600061337e8285613341565b915061338a8284613341565b91508190509392505050565b7f4f776e61626c653a206e6577206f776e657220697320746865207a65726f206160008201527f6464726573730000000000000000000000000000000000000000000000000000602082015250565b60006133f2602683612610565b91506133fd82613396565b604082019050919050565b60006020820190508181036000830152613421816133e5565b9050919050565b7f4552433732313a206f70657261746f7220717565727920666f72206e6f6e657860008201527f697374656e7420746f6b656e0000000000000000000000000000000000000000602082015250565b6000613484602c83612610565b915061348f82613428565b604082019050919050565b600060208201905081810360008301526134b381613477565b9050919050565b7f4552433732313a207472616e736665722066726f6d20696e636f72726563742060008201527f6f776e6572000000000000000000000000000000000000000000000000000000602082015250565b6000613516602583612610565b9150613521826134ba565b604082019050919050565b6000602082019050818103600083015261354581613509565b9050919050565b7f4552433732313a207472616e7366657220746f20746865207a65726f2061646460008201527f7265737300000000000000000000000000000000000000000000000000000000602082015250565b60006135a8602483612610565b91506135b38261354c565b604082019050919050565b600060208201905081810360008301526135d78161359b565b9050919050565b60006135e9826126c0565b91506135f4836126c0565b9250827fffffffffffffffffffffffffffffffffffffffffffffffffffffffffffffffff038211156136295761362861319e565b5b828201905092915050565b7f4552433732313a20617070726f766520746f2063616c6c657200000000000000600082015250565b600061366a601983612610565b915061367582613634565b602082019050919050565b600060208201905081810360008301526136998161365d565b9050919050565b7f4552433732313a207472616e7366657220746f206e6f6e20455243373231526560008201527f63656976657220696d706c656d656e7465720000000000000000000000000000602082015250565b60006136fc603283612610565b9150613707826136a0565b604082019050919050565b6000602082019050818103600083015261372b816136ef565b9050919050565b7f4e487b7100000000000000000000000000000000000000000000000000000000600052601260045260246000fd5b600061376c826126c0565b9150613777836126c0565b92508261378757613786613732565b5b828204905092915050565b600061379d826126c0565b91506137a8836126c0565b9250826137b8576137b7613732565b5b828206905092915050565b7f4552433732313a206d696e7420746f20746865207a65726f2061646472657373600082015250565b60006137f9602083612610565b9150613804826137c3565b602082019050919050565b60006020820190508181036000830152613828816137ec565b9050919050565b7f4552433732313a20746f6b656e20616c7265616479206d696e74656400000000600082015250565b6000613865601c83612610565b91506138708261382f565b602082019050919050565b6000602082019050818103600083015261389481613858565b9050919050565b600081519050919050565b600082825260208201905092915050565b60006138c28261389b565b6138cc81856138a6565b93506138dc818560208601612621565b6138e581612654565b840191505092915050565b60006080820190506139056000830187612723565b6139126020830186612723565b61391f604083018561278d565b818103606083015261393181846138b7565b905095945050505050565b60008151905061394b81612576565b92915050565b600060208284031215613967576139666124b5565b5b60006139758482850161393c565b91505092915050565b7f4e487b7100000000000000000000000000000000000000000000000000000000600052603160045260246000fdfea2646970667358221220176e06e430ceffc6bbfde0ddba8e5a18f059e9beb3647c59ade7d66d1d51cf9d64736f6c634300080a0033",
  "immutableReferences": {
    "3483": [
      {
        "length": 32,
        "start": 1309
      },
      {
        "length": 32,
        "start": 2508
      },
      {
        "length": 32,
        "start": 3784
      }
    ]
  },
  "source": "pragma solidity 0.8.10;\r\nimport '@openzeppelin/contracts/token/ERC20/IERC20.sol';\r\nimport '@openzeppelin/contracts/token/ERC721/extensions/ERC721Enumerable.sol';\r\nimport '@openzeppelin/contracts/access/Ownable.sol';\r\n\r\ncontract WindowsXP is ERC721Enumerable, Ownable {\r\n    //Stores the next available unique token Id\r\n    uint256 uniqueIdCounter = 0;\r\n\r\n    //Stores the token price\r\n    uint256 tokenPrice = 10;\r\n\r\n    //Stores a rebate in token amount to discount on mint\r\n    uint256 tokenPriceRebate = 1;\r\n\r\n    //Stores whether minting is enabled\r\n    bool isMintEnabled = true;\r\n\r\n    //Stores the ERC20 contract's address used to pay\r\n    address public immutable paymentToken;\r\n\r\n    //Checks whether the mint is enabled\r\n    modifier mintEnabled() {\r\n        require(isMintEnabled, 'Mint is no enabled at this moment!');\r\n        _;\r\n    }\r\n\r\n    /**@dev Contructs an ERC721 token, name, symbol\r\n     *      and defines the token contract's address\r\n     *      used to pay\r\n     */\r\n    constructor(address tokenAddress) public ERC721('WindowsXP', 'WXP') {\r\n        paymentToken = tokenAddress;\r\n    }\r\n\r\n    /**@dev Sets a given token price\r\n     *\r\n     * Calling conditions:\r\n     *\r\n     * - Only contract's owner can call this function\r\n     */\r\n    function setTokenPrice(uint256 newTokenPrice) public onlyOwner {\r\n        tokenPrice = newTokenPrice;\r\n    }\r\n\r\n    /**@dev Sets a given price rebate\r\n     *\r\n     * Calling conditions:\r\n     *\r\n     * - Only contract's owner can call this function\r\n     */\r\n    function setTokenPriceRebate(uint256 newTokenPriceRebate) public onlyOwner {\r\n        tokenPriceRebate = newTokenPriceRebate;\r\n    }\r\n\r\n    /**@dev Sets whether this ERC721 mint is enabled\r\n     *\r\n     * Calling conditions:\r\n     *\r\n     * - Only contract's owner can call this function\r\n     */\r\n    function setIsMintEnabled(bool newMintLocked) public onlyOwner {\r\n        isMintEnabled = newMintLocked;\r\n    }\r\n\r\n    /**@dev Mints a token to given address with unique token id\r\n     */\r\n    function _windowsMint(address addresToMint) internal {\r\n        _mint(addresToMint, uniqueIdCounter);\r\n        uniqueIdCounter++;\r\n    }\r\n\r\n    /**@dev Mints given amount of tokens to sender address\r\n     *\r\n     * Calling conditions:\r\n     *\r\n     * - Mint has to be enabled\r\n     * - The address of this contract needs to be allowed\r\n     *   to transfer from sender 'tokenPrice * amount' amount\r\n     * - Tokens total price has to be transferred to the address\r\n     *   of this contract\r\n     */\r\n    function mintMultipleTokens(address buyer,uint256 amount) public mintEnabled {\r\n        uint256 price = tokenPrice * amount;\r\n        if (amount > 1) {\r\n            price -= tokenPriceRebate * amount;\r\n        }\r\n\r\n        require(\r\n            IERC20(paymentToken).transferFrom(buyer, owner(), price),\r\n            'Transfer failed'\r\n        );\r\n\r\n        for (uint256 i = 0; i < amount; i++) {\r\n            _windowsMint(buyer);\r\n        }\r\n    }\r\n\r\n    /**@dev Mints given amount of tokens to sender address}\r\n     *\r\n     * Calling conditions:\r\n     *\r\n     * - Mint has to be enabled\r\n     * - The address of this contract needs to be allowed\r\n     *   to transfer from sender 'tokenPrice * amount' amount\r\n     * - Tokens price has to be transferred to the address\r\n     *   of this contract\r\n     */\r\n    function mintToken(address buyer) public mintEnabled {\r\n        require(\r\n            IERC20(paymentToken).transferFrom(buyer, owner(), tokenPrice),\r\n            'Transfer failed'\r\n        );\r\n        _windowsMint(buyer);\r\n    }\r\n    \r\n}\r\n",
  "sourcePath": "C:\\Users\\PC\\Documents\\VSCode\\Solidity\\contracts\\WindowsXP.sol",
  "compiler": {
    "name": "solc",
    "version": "0.8.10+commit.fc410830.Emscripten.clang"
  },
  "schemaVersion": "3.4.7",
  "updatedAt": "2022-06-12T19:08:28.097Z",
  "devdoc": {
    "kind": "dev",
    "methods": {
      "approve(address,uint256)": {
        "details": "See {IERC721-approve}."
      },
      "balanceOf(address)": {
        "details": "See {IERC721-balanceOf}."
      },
      "constructor": {
        "details": "Contructs an ERC721 token, name, symbol      and defines the token contract's address      used to pay"
      },
      "getApproved(uint256)": {
        "details": "See {IERC721-getApproved}."
      },
      "isApprovedForAll(address,address)": {
        "details": "See {IERC721-isApprovedForAll}."
      },
      "mintMultipleTokens(address,uint256)": {
        "details": "Mints given amount of tokens to sender address Calling conditions: - Mint has to be enabled - The address of this contract needs to be allowed   to transfer from sender 'tokenPrice * amount' amount - Tokens total price has to be transferred to the address   of this contract"
      },
      "mintToken(address)": {
        "details": "Mints given amount of tokens to sender address} Calling conditions: - Mint has to be enabled - The address of this contract needs to be allowed   to transfer from sender 'tokenPrice * amount' amount - Tokens price has to be transferred to the address   of this contract"
      },
      "name()": {
        "details": "See {IERC721Metadata-name}."
      },
      "owner()": {
        "details": "Returns the address of the current owner."
      },
      "ownerOf(uint256)": {
        "details": "See {IERC721-ownerOf}."
      },
      "renounceOwnership()": {
        "details": "Leaves the contract without owner. It will not be possible to call `onlyOwner` functions anymore. Can only be called by the current owner. NOTE: Renouncing ownership will leave the contract without an owner, thereby removing any functionality that is only available to the owner."
      },
      "safeTransferFrom(address,address,uint256)": {
        "details": "See {IERC721-safeTransferFrom}."
      },
      "safeTransferFrom(address,address,uint256,bytes)": {
        "details": "See {IERC721-safeTransferFrom}."
      },
      "setApprovalForAll(address,bool)": {
        "details": "See {IERC721-setApprovalForAll}."
      },
      "setIsMintEnabled(bool)": {
        "details": "Sets whether this ERC721 mint is enabled Calling conditions: - Only contract's owner can call this function"
      },
      "setTokenPrice(uint256)": {
        "details": "Sets a given token price Calling conditions: - Only contract's owner can call this function"
      },
      "setTokenPriceRebate(uint256)": {
        "details": "Sets a given price rebate Calling conditions: - Only contract's owner can call this function"
      },
      "supportsInterface(bytes4)": {
        "details": "See {IERC165-supportsInterface}."
      },
      "symbol()": {
        "details": "See {IERC721Metadata-symbol}."
      },
      "tokenByIndex(uint256)": {
        "details": "See {IERC721Enumerable-tokenByIndex}."
      },
      "tokenOfOwnerByIndex(address,uint256)": {
        "details": "See {IERC721Enumerable-tokenOfOwnerByIndex}."
      },
      "tokenURI(uint256)": {
        "details": "See {IERC721Metadata-tokenURI}."
      },
      "totalSupply()": {
        "details": "See {IERC721Enumerable-totalSupply}."
      },
      "transferFrom(address,address,uint256)": {
        "details": "See {IERC721-transferFrom}."
      },
      "transferOwnership(address)": {
        "details": "Transfers ownership of the contract to a new account (`newOwner`). Can only be called by the current owner."
      }
    },
    "version": 1
  },
  "userdoc": {
    "kind": "user",
    "methods": {},
    "version": 1
  }
}