{
  "contractName": "Windows",
  "abi": [
    {
      "inputs": [
        {
          "internalType": "address",
          "name": "tokenAddress",
          "type": "address"
        }
      ],
      "stateMutability": "nonpayable",
      "type": "constructor"
    },
    {
      "anonymous": false,
      "inputs": [
        {
          "indexed": true,
          "internalType": "address",
          "name": "owner",
          "type": "address"
        },
        {
          "indexed": true,
          "internalType": "address",
          "name": "approved",
          "type": "address"
        },
        {
          "indexed": true,
          "internalType": "uint256",
          "name": "tokenId",
          "type": "uint256"
        }
      ],
      "name": "Approval",
      "type": "event"
    },
    {
      "anonymous": false,
      "inputs": [
        {
          "indexed": true,
          "internalType": "address",
          "name": "owner",
          "type": "address"
        },
        {
          "indexed": true,
          "internalType": "address",
          "name": "operator",
          "type": "address"
        },
        {
          "indexed": false,
          "internalType": "bool",
          "name": "approved",
          "type": "bool"
        }
      ],
      "name": "ApprovalForAll",
      "type": "event"
    },
    {
      "anonymous": false,
      "inputs": [
        {
          "indexed": true,
          "internalType": "address",
          "name": "previousOwner",
          "type": "address"
        },
        {
          "indexed": true,
          "internalType": "address",
          "name": "newOwner",
          "type": "address"
        }
      ],
      "name": "OwnershipTransferred",
      "type": "event"
    },
    {
      "anonymous": false,
      "inputs": [
        {
          "indexed": true,
          "internalType": "address",
          "name": "from",
          "type": "address"
        },
        {
          "indexed": true,
          "internalType": "address",
          "name": "to",
          "type": "address"
        },
        {
          "indexed": true,
          "internalType": "uint256",
          "name": "tokenId",
          "type": "uint256"
        }
      ],
      "name": "Transfer",
      "type": "event"
    },
    {
      "inputs": [
        {
          "internalType": "address",
          "name": "to",
          "type": "address"
        },
        {
          "internalType": "uint256",
          "name": "tokenId",
          "type": "uint256"
        }
      ],
      "name": "approve",
      "outputs": [],
      "stateMutability": "nonpayable",
      "type": "function"
    },
    {
      "inputs": [
        {
          "internalType": "address",
          "name": "owner",
          "type": "address"
        }
      ],
      "name": "balanceOf",
      "outputs": [
        {
          "internalType": "uint256",
          "name": "",
          "type": "uint256"
        }
      ],
      "stateMutability": "view",
      "type": "function",
      "constant": true
    },
    {
      "inputs": [
        {
          "internalType": "uint256",
          "name": "tokenId",
          "type": "uint256"
        }
      ],
      "name": "getApproved",
      "outputs": [
        {
          "internalType": "address",
          "name": "",
          "type": "address"
        }
      ],
      "stateMutability": "view",
      "type": "function",
      "constant": true
    },
    {
      "inputs": [
        {
          "internalType": "address",
          "name": "owner",
          "type": "address"
        },
        {
          "internalType": "address",
          "name": "operator",
          "type": "address"
        }
      ],
      "name": "isApprovedForAll",
      "outputs": [
        {
          "internalType": "bool",
          "name": "",
          "type": "bool"
        }
      ],
      "stateMutability": "view",
      "type": "function",
      "constant": true
    },
    {
      "inputs": [],
      "name": "name",
      "outputs": [
        {
          "internalType": "string",
          "name": "",
          "type": "string"
        }
      ],
      "stateMutability": "view",
      "type": "function",
      "constant": true
    },
    {
      "inputs": [],
      "name": "owner",
      "outputs": [
        {
          "internalType": "address",
          "name": "",
          "type": "address"
        }
      ],
      "stateMutability": "view",
      "type": "function",
      "constant": true
    },
    {
      "inputs": [
        {
          "internalType": "uint256",
          "name": "tokenId",
          "type": "uint256"
        }
      ],
      "name": "ownerOf",
      "outputs": [
        {
          "internalType": "address",
          "name": "",
          "type": "address"
        }
      ],
      "stateMutability": "view",
      "type": "function",
      "constant": true
    },
    {
      "inputs": [],
      "name": "paymentToken",
      "outputs": [
        {
          "internalType": "address",
          "name": "",
          "type": "address"
        }
      ],
      "stateMutability": "view",
      "type": "function",
      "constant": true
    },
    {
      "inputs": [],
      "name": "renounceOwnership",
      "outputs": [],
      "stateMutability": "nonpayable",
      "type": "function"
    },
    {
      "inputs": [
        {
          "internalType": "address",
          "name": "from",
          "type": "address"
        },
        {
          "internalType": "address",
          "name": "to",
          "type": "address"
        },
        {
          "internalType": "uint256",
          "name": "tokenId",
          "type": "uint256"
        }
      ],
      "name": "safeTransferFrom",
      "outputs": [],
      "stateMutability": "nonpayable",
      "type": "function"
    },
    {
      "inputs": [
        {
          "internalType": "address",
          "name": "from",
          "type": "address"
        },
        {
          "internalType": "address",
          "name": "to",
          "type": "address"
        },
        {
          "internalType": "uint256",
          "name": "tokenId",
          "type": "uint256"
        },
        {
          "internalType": "bytes",
          "name": "_data",
          "type": "bytes"
        }
      ],
      "name": "safeTransferFrom",
      "outputs": [],
      "stateMutability": "nonpayable",
      "type": "function"
    },
    {
      "inputs": [
        {
          "internalType": "address",
          "name": "operator",
          "type": "address"
        },
        {
          "internalType": "bool",
          "name": "approved",
          "type": "bool"
        }
      ],
      "name": "setApprovalForAll",
      "outputs": [],
      "stateMutability": "nonpayable",
      "type": "function"
    },
    {
      "inputs": [
        {
          "internalType": "bytes4",
          "name": "interfaceId",
          "type": "bytes4"
        }
      ],
      "name": "supportsInterface",
      "outputs": [
        {
          "internalType": "bool",
          "name": "",
          "type": "bool"
        }
      ],
      "stateMutability": "view",
      "type": "function",
      "constant": true
    },
    {
      "inputs": [],
      "name": "symbol",
      "outputs": [
        {
          "internalType": "string",
          "name": "",
          "type": "string"
        }
      ],
      "stateMutability": "view",
      "type": "function",
      "constant": true
    },
    {
      "inputs": [
        {
          "internalType": "uint256",
          "name": "index",
          "type": "uint256"
        }
      ],
      "name": "tokenByIndex",
      "outputs": [
        {
          "internalType": "uint256",
          "name": "",
          "type": "uint256"
        }
      ],
      "stateMutability": "view",
      "type": "function",
      "constant": true
    },
    {
      "inputs": [
        {
          "internalType": "address",
          "name": "owner",
          "type": "address"
        },
        {
          "internalType": "uint256",
          "name": "index",
          "type": "uint256"
        }
      ],
      "name": "tokenOfOwnerByIndex",
      "outputs": [
        {
          "internalType": "uint256",
          "name": "",
          "type": "uint256"
        }
      ],
      "stateMutability": "view",
      "type": "function",
      "constant": true
    },
    {
      "inputs": [
        {
          "internalType": "uint256",
          "name": "tokenId",
          "type": "uint256"
        }
      ],
      "name": "tokenURI",
      "outputs": [
        {
          "internalType": "string",
          "name": "",
          "type": "string"
        }
      ],
      "stateMutability": "view",
      "type": "function",
      "constant": true
    },
    {
      "inputs": [],
      "name": "totalSupply",
      "outputs": [
        {
          "internalType": "uint256",
          "name": "",
          "type": "uint256"
        }
      ],
      "stateMutability": "view",
      "type": "function",
      "constant": true
    },
    {
      "inputs": [
        {
          "internalType": "address",
          "name": "from",
          "type": "address"
        },
        {
          "internalType": "address",
          "name": "to",
          "type": "address"
        },
        {
          "internalType": "uint256",
          "name": "tokenId",
          "type": "uint256"
        }
      ],
      "name": "transferFrom",
      "outputs": [],
      "stateMutability": "nonpayable",
      "type": "function"
    },
    {
      "inputs": [
        {
          "internalType": "address",
          "name": "newOwner",
          "type": "address"
        }
      ],
      "name": "transferOwnership",
      "outputs": [],
      "stateMutability": "nonpayable",
      "type": "function"
    },
    {
      "inputs": [
        {
          "internalType": "uint256",
          "name": "newTokenPrice",
          "type": "uint256"
        }
      ],
      "name": "setTokenPrice",
      "outputs": [],
      "stateMutability": "nonpayable",
      "type": "function"
    },
    {
      "inputs": [
        {
          "internalType": "uint256",
          "name": "newTokenPriceRebate",
          "type": "uint256"
        }
      ],
      "name": "setTokenPriceRebate",
      "outputs": [],
      "stateMutability": "nonpayable",
      "type": "function"
    },
    {
      "inputs": [
        {
          "internalType": "uint256",
          "name": "amount",
          "type": "uint256"
        }
      ],
      "name": "mintMultipleTokens",
      "outputs": [],
      "stateMutability": "nonpayable",
      "type": "function"
    },
    {
      "inputs": [],
      "name": "mintToken",
      "outputs": [],
      "stateMutability": "nonpayable",
      "type": "function"
    }
  ],
  "bytecode": "0x60a06040526000600b55600a600c556002600d553480156200002057600080fd5b5060405162003b7238038062003b72833981810160405281019062000046919062000329565b6040518060400160405280600781526020017f57696e646f7773000000000000000000000000000000000000000000000000008152506040518060400160405280600381526020017f574e4400000000000000000000000000000000000000000000000000000000008152508160009080519060200190620000ca9291906200020f565b508060019080519060200190620000e39291906200020f565b50505062000106620000fa6200014160201b60201c565b6200014960201b60201c565b8073ffffffffffffffffffffffffffffffffffffffff1660808173ffffffffffffffffffffffffffffffffffffffff168152505050620003c0565b600033905090565b6000600a60009054906101000a900473ffffffffffffffffffffffffffffffffffffffff16905081600a60006101000a81548173ffffffffffffffffffffffffffffffffffffffff021916908373ffffffffffffffffffffffffffffffffffffffff1602179055508173ffffffffffffffffffffffffffffffffffffffff168173ffffffffffffffffffffffffffffffffffffffff167f8be0079c531659141344cd1fd0a4f28419497f9722a3daafe3b4186f6b6457e060405160405180910390a35050565b8280546200021d906200038a565b90600052602060002090601f0160209004810192826200024157600085556200028d565b82601f106200025c57805160ff19168380011785556200028d565b828001600101855582156200028d579182015b828111156200028c5782518255916020019190600101906200026f565b5b5090506200029c9190620002a0565b5090565b5b80821115620002bb576000816000905550600101620002a1565b5090565b600080fd5b600073ffffffffffffffffffffffffffffffffffffffff82169050919050565b6000620002f182620002c4565b9050919050565b6200030381620002e4565b81146200030f57600080fd5b50565b6000815190506200032381620002f8565b92915050565b600060208284031215620003425762000341620002bf565b5b6000620003528482850162000312565b91505092915050565b7f4e487b7100000000000000000000000000000000000000000000000000000000600052602260045260246000fd5b60006002820490506001821680620003a357607f821691505b60208210811415620003ba57620003b96200035b565b5b50919050565b608051613788620003ea6000396000818161073b0152818161094e0152610ede01526137886000f3fe608060405234801561001057600080fd5b50600436106101585760003560e01c80636352211e116100c3578063a22cb4651161007c578063a22cb465146103b3578063b88d4fde146103cf578063c87b56dd146103eb578063e1dffcb91461041b578063e985e9c514610437578063f2fde38b1461046757610158565b80636352211e146102f15780636a61e5fc1461032157806370a082311461033d578063715018a61461036d5780638da5cb5b1461037757806395d89b411461039557610158565b806323b872dd1161011557806323b872dd1461021f5780632f745c591461023b5780633013ce291461026b57806342842e0e146102895780634f6ccce7146102a5578063573123a9146102d557610158565b806301ffc9a71461015d57806306fdde031461018d578063081812fc146101ab578063095ea7b3146101db57806318160ddd146101f75780632004ffd914610215575b600080fd5b6101776004803603810190610172919061237b565b610483565b60405161018491906123c3565b60405180910390f35b6101956104fd565b6040516101a29190612477565b60405180910390f35b6101c560048036038101906101c091906124cf565b61058f565b6040516101d2919061253d565b60405180910390f35b6101f560048036038101906101f09190612584565b610614565b005b6101ff61072c565b60405161020c91906125d3565b60405180910390f35b61021d610739565b005b610239600480360381019061023491906125ee565b610847565b005b61025560048036038101906102509190612584565b6108a7565b60405161026291906125d3565b60405180910390f35b61027361094c565b604051610280919061253d565b60405180910390f35b6102a3600480360381019061029e91906125ee565b610970565b005b6102bf60048036038101906102ba91906124cf565b610990565b6040516102cc91906125d3565b60405180910390f35b6102ef60048036038101906102ea91906124cf565b610a01565b005b61030b600480360381019061030691906124cf565b610a89565b604051610318919061253d565b60405180910390f35b61033b600480360381019061033691906124cf565b610b3b565b005b61035760048036038101906103529190612641565b610bc1565b60405161036491906125d3565b60405180910390f35b610375610c79565b005b61037f610d01565b60405161038c919061253d565b60405180910390f35b61039d610d2b565b6040516103aa9190612477565b60405180910390f35b6103cd60048036038101906103c8919061269a565b610dbd565b005b6103e960048036038101906103e4919061280f565b610dd3565b005b610405600480360381019061040091906124cf565b610e35565b6040516104129190612477565b60405180910390f35b610435600480360381019061043091906124cf565b610edc565b005b610451600480360381019061044c9190612892565b611015565b60405161045e91906123c3565b60405180910390f35b610481600480360381019061047c9190612641565b6110a9565b005b60007f780e9d63000000000000000000000000000000000000000000000000000000007bffffffffffffffffffffffffffffffffffffffffffffffffffffffff1916827bffffffffffffffffffffffffffffffffffffffffffffffffffffffff191614806104f657506104f5826111a1565b5b9050919050565b60606000805461050c90612901565b80601f016020809104026020016040519081016040528092919081815260200182805461053890612901565b80156105855780601f1061055a57610100808354040283529160200191610585565b820191906000526020600020905b81548152906001019060200180831161056857829003601f168201915b5050505050905090565b600061059a82611283565b6105d9576040517f08c379a00000000000000000000000000000000000000000000000000000000081526004016105d0906129a5565b60405180910390fd5b6004600083815260200190815260200160002060009054906101000a900473ffffffffffffffffffffffffffffffffffffffff169050919050565b600061061f82610a89565b90508073ffffffffffffffffffffffffffffffffffffffff168373ffffffffffffffffffffffffffffffffffffffff161415610690576040517f08c379a000000000000000000000000000000000000000000000000000000000815260040161068790612a37565b60405180910390fd5b8073ffffffffffffffffffffffffffffffffffffffff166106af6112ef565b73ffffffffffffffffffffffffffffffffffffffff1614806106de57506106dd816106d86112ef565b611015565b5b61071d576040517f08c379a000000000000000000000000000000000000000000000000000000000815260040161071490612ac9565b60405180910390fd5b61072783836112f7565b505050565b6000600880549050905090565b7f000000000000000000000000000000000000000000000000000000000000000073ffffffffffffffffffffffffffffffffffffffff166323b872dd3361077e610d01565b600c546040518463ffffffff1660e01b815260040161079f93929190612ae9565b6020604051808303816000875af11580156107be573d6000803e3d6000fd5b505050506040513d601f19601f820116820180604052508101906107e29190612b35565b610821576040517f08c379a000000000000000000000000000000000000000000000000000000000815260040161081890612bae565b60405180910390fd5b61082d33600b546113b0565b600b600081548092919061084090612bfd565b9190505550565b6108586108526112ef565b8261158a565b610897576040517f08c379a000000000000000000000000000000000000000000000000000000000815260040161088e90612cb8565b60405180910390fd5b6108a2838383611668565b505050565b60006108b283610bc1565b82106108f3576040517f08c379a00000000000000000000000000000000000000000000000000000000081526004016108ea90612d4a565b60405180910390fd5b600660008473ffffffffffffffffffffffffffffffffffffffff1673ffffffffffffffffffffffffffffffffffffffff168152602001908152602001600020600083815260200190815260200160002054905092915050565b7f000000000000000000000000000000000000000000000000000000000000000081565b61098b83838360405180602001604052806000815250610dd3565b505050565b600061099a61072c565b82106109db576040517f08c379a00000000000000000000000000000000000000000000000000000000081526004016109d290612ddc565b60405180910390fd5b600882815481106109ef576109ee612dfc565b5b90600052602060002001549050919050565b610a096112ef565b73ffffffffffffffffffffffffffffffffffffffff16610a27610d01565b73ffffffffffffffffffffffffffffffffffffffff1614610a7d576040517f08c379a0000000000000000000000000000000000000000000000000000000008152600401610a7490612e77565b60405180910390fd5b600d54600d8190555050565b6000806002600084815260200190815260200160002060009054906101000a900473ffffffffffffffffffffffffffffffffffffffff169050600073ffffffffffffffffffffffffffffffffffffffff168173ffffffffffffffffffffffffffffffffffffffff161415610b32576040517f08c379a0000000000000000000000000000000000000000000000000000000008152600401610b2990612f09565b60405180910390fd5b80915050919050565b610b436112ef565b73ffffffffffffffffffffffffffffffffffffffff16610b61610d01565b73ffffffffffffffffffffffffffffffffffffffff1614610bb7576040517f08c379a0000000000000000000000000000000000000000000000000000000008152600401610bae90612e77565b60405180910390fd5b80600c8190555050565b60008073ffffffffffffffffffffffffffffffffffffffff168273ffffffffffffffffffffffffffffffffffffffff161415610c32576040517f08c379a0000000000000000000000000000000000000000000000000000000008152600401610c2990612f9b565b60405180910390fd5b600360008373ffffffffffffffffffffffffffffffffffffffff1673ffffffffffffffffffffffffffffffffffffffff168152602001908152602001600020549050919050565b610c816112ef565b73ffffffffffffffffffffffffffffffffffffffff16610c9f610d01565b73ffffffffffffffffffffffffffffffffffffffff1614610cf5576040517f08c379a0000000000000000000000000000000000000000000000000000000008152600401610cec90612e77565b60405180910390fd5b610cff60006118cf565b565b6000600a60009054906101000a900473ffffffffffffffffffffffffffffffffffffffff16905090565b606060018054610d3a90612901565b80601f0160208091040260200160405190810160405280929190818152602001828054610d6690612901565b8015610db35780601f10610d8857610100808354040283529160200191610db3565b820191906000526020600020905b815481529060010190602001808311610d9657829003601f168201915b5050505050905090565b610dcf610dc86112ef565b8383611995565b5050565b610de4610dde6112ef565b8361158a565b610e23576040517f08c379a0000000000000000000000000000000000000000000000000000000008152600401610e1a90612cb8565b60405180910390fd5b610e2f84848484611b02565b50505050565b6060610e4082611283565b610e7f576040517f08c379a0000000000000000000000000000000000000000000000000000000008152600401610e769061302d565b60405180910390fd5b6000610e89611b5e565b90506000815111610ea95760405180602001604052806000815250610ed4565b80610eb384611b75565b604051602001610ec4929190613089565b6040516020818303038152906040525b915050919050565b7f000000000000000000000000000000000000000000000000000000000000000073ffffffffffffffffffffffffffffffffffffffff166323b872dd33610f21610d01565b84600c54610f2f91906130ad565b6040518463ffffffff1660e01b8152600401610f4d93929190612ae9565b6020604051808303816000875af1158015610f6c573d6000803e3d6000fd5b505050506040513d601f19601f82011682018060405250810190610f909190612b35565b610fcf576040517f08c379a0000000000000000000000000000000000000000000000000000000008152600401610fc690612bae565b60405180910390fd5b60005b8181101561101157610fe633600b546113b0565b600b6000815480929190610ff990612bfd565b9190505550808061100990612bfd565b915050610fd2565b5050565b6000600560008473ffffffffffffffffffffffffffffffffffffffff1673ffffffffffffffffffffffffffffffffffffffff16815260200190815260200160002060008373ffffffffffffffffffffffffffffffffffffffff1673ffffffffffffffffffffffffffffffffffffffff16815260200190815260200160002060009054906101000a900460ff16905092915050565b6110b16112ef565b73ffffffffffffffffffffffffffffffffffffffff166110cf610d01565b73ffffffffffffffffffffffffffffffffffffffff1614611125576040517f08c379a000000000000000000000000000000000000000000000000000000000815260040161111c90612e77565b60405180910390fd5b600073ffffffffffffffffffffffffffffffffffffffff168173ffffffffffffffffffffffffffffffffffffffff161415611195576040517f08c379a000000000000000000000000000000000000000000000000000000000815260040161118c90613179565b60405180910390fd5b61119e816118cf565b50565b60007f80ac58cd000000000000000000000000000000000000000000000000000000007bffffffffffffffffffffffffffffffffffffffffffffffffffffffff1916827bffffffffffffffffffffffffffffffffffffffffffffffffffffffff1916148061126c57507f5b5e139f000000000000000000000000000000000000000000000000000000007bffffffffffffffffffffffffffffffffffffffffffffffffffffffff1916827bffffffffffffffffffffffffffffffffffffffffffffffffffffffff1916145b8061127c575061127b82611cd6565b5b9050919050565b60008073ffffffffffffffffffffffffffffffffffffffff166002600084815260200190815260200160002060009054906101000a900473ffffffffffffffffffffffffffffffffffffffff1673ffffffffffffffffffffffffffffffffffffffff1614159050919050565b600033905090565b816004600083815260200190815260200160002060006101000a81548173ffffffffffffffffffffffffffffffffffffffff021916908373ffffffffffffffffffffffffffffffffffffffff160217905550808273ffffffffffffffffffffffffffffffffffffffff1661136a83610a89565b73ffffffffffffffffffffffffffffffffffffffff167f8c5be1e5ebec7d5bd14f71427d1e84f3dd0314c0f7b2291e5b200ac8c7c3b92560405160405180910390a45050565b600073ffffffffffffffffffffffffffffffffffffffff168273ffffffffffffffffffffffffffffffffffffffff161415611420576040517f08c379a0000000000000000000000000000000000000000000000000000000008152600401611417906131e5565b60405180910390fd5b61142981611283565b15611469576040517f08c379a000000000000000000000000000000000000000000000000000000000815260040161146090613251565b60405180910390fd5b61147560008383611d40565b6001600360008473ffffffffffffffffffffffffffffffffffffffff1673ffffffffffffffffffffffffffffffffffffffff16815260200190815260200160002060008282546114c59190613271565b92505081905550816002600083815260200190815260200160002060006101000a81548173ffffffffffffffffffffffffffffffffffffffff021916908373ffffffffffffffffffffffffffffffffffffffff160217905550808273ffffffffffffffffffffffffffffffffffffffff16600073ffffffffffffffffffffffffffffffffffffffff167fddf252ad1be2c89b69c2b068fc378daa952ba7f163c4a11628f55a4df523b3ef60405160405180910390a461158660008383611e54565b5050565b600061159582611283565b6115d4576040517f08c379a00000000000000000000000000000000000000000000000000000000081526004016115cb90613339565b60405180910390fd5b60006115df83610a89565b90508073ffffffffffffffffffffffffffffffffffffffff168473ffffffffffffffffffffffffffffffffffffffff16148061162157506116208185611015565b5b8061165f57508373ffffffffffffffffffffffffffffffffffffffff166116478461058f565b73ffffffffffffffffffffffffffffffffffffffff16145b91505092915050565b8273ffffffffffffffffffffffffffffffffffffffff1661168882610a89565b73ffffffffffffffffffffffffffffffffffffffff16146116de576040517f08c379a00000000000000000000000000000000000000000000000000000000081526004016116d5906133cb565b60405180910390fd5b600073ffffffffffffffffffffffffffffffffffffffff168273ffffffffffffffffffffffffffffffffffffffff16141561174e576040517f08c379a00000000000000000000000000000000000000000000000000000000081526004016117459061345d565b60405180910390fd5b611759838383611d40565b6117646000826112f7565b6001600360008573ffffffffffffffffffffffffffffffffffffffff1673ffffffffffffffffffffffffffffffffffffffff16815260200190815260200160002060008282546117b4919061347d565b925050819055506001600360008473ffffffffffffffffffffffffffffffffffffffff1673ffffffffffffffffffffffffffffffffffffffff168152602001908152602001600020600082825461180b9190613271565b92505081905550816002600083815260200190815260200160002060006101000a81548173ffffffffffffffffffffffffffffffffffffffff021916908373ffffffffffffffffffffffffffffffffffffffff160217905550808273ffffffffffffffffffffffffffffffffffffffff168473ffffffffffffffffffffffffffffffffffffffff167fddf252ad1be2c89b69c2b068fc378daa952ba7f163c4a11628f55a4df523b3ef60405160405180910390a46118ca838383611e54565b505050565b6000600a60009054906101000a900473ffffffffffffffffffffffffffffffffffffffff16905081600a60006101000a81548173ffffffffffffffffffffffffffffffffffffffff021916908373ffffffffffffffffffffffffffffffffffffffff1602179055508173ffffffffffffffffffffffffffffffffffffffff168173ffffffffffffffffffffffffffffffffffffffff167f8be0079c531659141344cd1fd0a4f28419497f9722a3daafe3b4186f6b6457e060405160405180910390a35050565b8173ffffffffffffffffffffffffffffffffffffffff168373ffffffffffffffffffffffffffffffffffffffff161415611a04576040517f08c379a00000000000000000000000000000000000000000000000000000000081526004016119fb906134fd565b60405180910390fd5b80600560008573ffffffffffffffffffffffffffffffffffffffff1673ffffffffffffffffffffffffffffffffffffffff16815260200190815260200160002060008473ffffffffffffffffffffffffffffffffffffffff1673ffffffffffffffffffffffffffffffffffffffff16815260200190815260200160002060006101000a81548160ff0219169083151502179055508173ffffffffffffffffffffffffffffffffffffffff168373ffffffffffffffffffffffffffffffffffffffff167f17307eab39ab6107e8899845ad3d59bd9653f200f220920489ca2b5937696c3183604051611af591906123c3565b60405180910390a3505050565b611b0d848484611668565b611b1984848484611e59565b611b58576040517f08c379a0000000000000000000000000000000000000000000000000000000008152600401611b4f9061358f565b60405180910390fd5b50505050565b606060405180602001604052806000815250905090565b60606000821415611bbd576040518060400160405280600181526020017f30000000000000000000000000000000000000000000000000000000000000008152509050611cd1565b600082905060005b60008214611bef578080611bd890612bfd565b915050600a82611be891906135de565b9150611bc5565b60008167ffffffffffffffff811115611c0b57611c0a6126e4565b5b6040519080825280601f01601f191660200182016040528015611c3d5781602001600182028036833780820191505090505b5090505b60008514611cca57600182611c56919061347d565b9150600a85611c65919061360f565b6030611c719190613271565b60f81b818381518110611c8757611c86612dfc565b5b60200101907effffffffffffffffffffffffffffffffffffffffffffffffffffffffffffff1916908160001a905350600a85611cc391906135de565b9450611c41565b8093505050505b919050565b60007f01ffc9a7000000000000000000000000000000000000000000000000000000007bffffffffffffffffffffffffffffffffffffffffffffffffffffffff1916827bffffffffffffffffffffffffffffffffffffffffffffffffffffffff1916149050919050565b611d4b838383611fe1565b600073ffffffffffffffffffffffffffffffffffffffff168373ffffffffffffffffffffffffffffffffffffffff161415611d8e57611d8981611fe6565b611dcd565b8173ffffffffffffffffffffffffffffffffffffffff168373ffffffffffffffffffffffffffffffffffffffff1614611dcc57611dcb838261202f565b5b5b600073ffffffffffffffffffffffffffffffffffffffff168273ffffffffffffffffffffffffffffffffffffffff161415611e1057611e0b8161219c565b611e4f565b8273ffffffffffffffffffffffffffffffffffffffff168273ffffffffffffffffffffffffffffffffffffffff1614611e4e57611e4d828261226d565b5b5b505050565b505050565b6000611e7a8473ffffffffffffffffffffffffffffffffffffffff166122ec565b15611fd4578373ffffffffffffffffffffffffffffffffffffffff1663150b7a02611ea36112ef565b8786866040518563ffffffff1660e01b8152600401611ec59493929190613695565b6020604051808303816000875af1925050508015611f0157506040513d601f19601f82011682018060405250810190611efe91906136f6565b60015b611f84573d8060008114611f31576040519150601f19603f3d011682016040523d82523d6000602084013e611f36565b606091505b50600081511415611f7c576040517f08c379a0000000000000000000000000000000000000000000000000000000008152600401611f739061358f565b60405180910390fd5b805181602001fd5b63150b7a0260e01b7bffffffffffffffffffffffffffffffffffffffffffffffffffffffff1916817bffffffffffffffffffffffffffffffffffffffffffffffffffffffff191614915050611fd9565b600190505b949350505050565b505050565b6008805490506009600083815260200190815260200160002081905550600881908060018154018082558091505060019003906000526020600020016000909190919091505550565b6000600161203c84610bc1565b612046919061347d565b905060006007600084815260200190815260200160002054905081811461212b576000600660008673ffffffffffffffffffffffffffffffffffffffff1673ffffffffffffffffffffffffffffffffffffffff168152602001908152602001600020600084815260200190815260200160002054905080600660008773ffffffffffffffffffffffffffffffffffffffff1673ffffffffffffffffffffffffffffffffffffffff168152602001908152602001600020600084815260200190815260200160002081905550816007600083815260200190815260200160002081905550505b6007600084815260200190815260200160002060009055600660008573ffffffffffffffffffffffffffffffffffffffff1673ffffffffffffffffffffffffffffffffffffffff16815260200190815260200160002060008381526020019081526020016000206000905550505050565b600060016008805490506121b0919061347d565b90506000600960008481526020019081526020016000205490506000600883815481106121e0576121df612dfc565b5b90600052602060002001549050806008838154811061220257612201612dfc565b5b90600052602060002001819055508160096000838152602001908152602001600020819055506009600085815260200190815260200160002060009055600880548061225157612250613723565b5b6001900381819060005260206000200160009055905550505050565b600061227883610bc1565b905081600660008573ffffffffffffffffffffffffffffffffffffffff1673ffffffffffffffffffffffffffffffffffffffff168152602001908152602001600020600083815260200190815260200160002081905550806007600084815260200190815260200160002081905550505050565b6000808273ffffffffffffffffffffffffffffffffffffffff163b119050919050565b6000604051905090565b600080fd5b600080fd5b60007fffffffff0000000000000000000000000000000000000000000000000000000082169050919050565b61235881612323565b811461236357600080fd5b50565b6000813590506123758161234f565b92915050565b60006020828403121561239157612390612319565b5b600061239f84828501612366565b91505092915050565b60008115159050919050565b6123bd816123a8565b82525050565b60006020820190506123d860008301846123b4565b92915050565b600081519050919050565b600082825260208201905092915050565b60005b838110156124185780820151818401526020810190506123fd565b83811115612427576000848401525b50505050565b6000601f19601f8301169050919050565b6000612449826123de565b61245381856123e9565b93506124638185602086016123fa565b61246c8161242d565b840191505092915050565b60006020820190508181036000830152612491818461243e565b905092915050565b6000819050919050565b6124ac81612499565b81146124b757600080fd5b50565b6000813590506124c9816124a3565b92915050565b6000602082840312156124e5576124e4612319565b5b60006124f3848285016124ba565b91505092915050565b600073ffffffffffffffffffffffffffffffffffffffff82169050919050565b6000612527826124fc565b9050919050565b6125378161251c565b82525050565b6000602082019050612552600083018461252e565b92915050565b6125618161251c565b811461256c57600080fd5b50565b60008135905061257e81612558565b92915050565b6000806040838503121561259b5761259a612319565b5b60006125a98582860161256f565b92505060206125ba858286016124ba565b9150509250929050565b6125cd81612499565b82525050565b60006020820190506125e860008301846125c4565b92915050565b60008060006060848603121561260757612606612319565b5b60006126158682870161256f565b93505060206126268682870161256f565b9250506040612637868287016124ba565b9150509250925092565b60006020828403121561265757612656612319565b5b60006126658482850161256f565b91505092915050565b612677816123a8565b811461268257600080fd5b50565b6000813590506126948161266e565b92915050565b600080604083850312156126b1576126b0612319565b5b60006126bf8582860161256f565b92505060206126d085828601612685565b9150509250929050565b600080fd5b600080fd5b7f4e487b7100000000000000000000000000000000000000000000000000000000600052604160045260246000fd5b61271c8261242d565b810181811067ffffffffffffffff8211171561273b5761273a6126e4565b5b80604052505050565b600061274e61230f565b905061275a8282612713565b919050565b600067ffffffffffffffff82111561277a576127796126e4565b5b6127838261242d565b9050602081019050919050565b82818337600083830152505050565b60006127b26127ad8461275f565b612744565b9050828152602081018484840111156127ce576127cd6126df565b5b6127d9848285612790565b509392505050565b600082601f8301126127f6576127f56126da565b5b813561280684826020860161279f565b91505092915050565b6000806000806080858703121561282957612828612319565b5b60006128378782880161256f565b94505060206128488782880161256f565b9350506040612859878288016124ba565b925050606085013567ffffffffffffffff81111561287a5761287961231e565b5b612886878288016127e1565b91505092959194509250565b600080604083850312156128a9576128a8612319565b5b60006128b78582860161256f565b92505060206128c88582860161256f565b9150509250929050565b7f4e487b7100000000000000000000000000000000000000000000000000000000600052602260045260246000fd5b6000600282049050600182168061291957607f821691505b6020821081141561292d5761292c6128d2565b5b50919050565b7f4552433732313a20617070726f76656420717565727920666f72206e6f6e657860008201527f697374656e7420746f6b656e0000000000000000000000000000000000000000602082015250565b600061298f602c836123e9565b915061299a82612933565b604082019050919050565b600060208201905081810360008301526129be81612982565b9050919050565b7f4552433732313a20617070726f76616c20746f2063757272656e74206f776e6560008201527f7200000000000000000000000000000000000000000000000000000000000000602082015250565b6000612a216021836123e9565b9150612a2c826129c5565b604082019050919050565b60006020820190508181036000830152612a5081612a14565b9050919050565b7f4552433732313a20617070726f76652063616c6c6572206973206e6f74206f7760008201527f6e6572206e6f7220617070726f76656420666f7220616c6c0000000000000000602082015250565b6000612ab36038836123e9565b9150612abe82612a57565b604082019050919050565b60006020820190508181036000830152612ae281612aa6565b9050919050565b6000606082019050612afe600083018661252e565b612b0b602083018561252e565b612b1860408301846125c4565b949350505050565b600081519050612b2f8161266e565b92915050565b600060208284031215612b4b57612b4a612319565b5b6000612b5984828501612b20565b91505092915050565b7f5472616e73666572206661696c65640000000000000000000000000000000000600082015250565b6000612b98600f836123e9565b9150612ba382612b62565b602082019050919050565b60006020820190508181036000830152612bc781612b8b565b9050919050565b7f4e487b7100000000000000000000000000000000000000000000000000000000600052601160045260246000fd5b6000612c0882612499565b91507fffffffffffffffffffffffffffffffffffffffffffffffffffffffffffffffff821415612c3b57612c3a612bce565b5b600182019050919050565b7f4552433732313a207472616e736665722063616c6c6572206973206e6f74206f60008201527f776e6572206e6f7220617070726f766564000000000000000000000000000000602082015250565b6000612ca26031836123e9565b9150612cad82612c46565b604082019050919050565b60006020820190508181036000830152612cd181612c95565b9050919050565b7f455243373231456e756d657261626c653a206f776e657220696e646578206f7560008201527f74206f6620626f756e6473000000000000000000000000000000000000000000602082015250565b6000612d34602b836123e9565b9150612d3f82612cd8565b604082019050919050565b60006020820190508181036000830152612d6381612d27565b9050919050565b7f455243373231456e756d657261626c653a20676c6f62616c20696e646578206f60008201527f7574206f6620626f756e64730000000000000000000000000000000000000000602082015250565b6000612dc6602c836123e9565b9150612dd182612d6a565b604082019050919050565b60006020820190508181036000830152612df581612db9565b9050919050565b7f4e487b7100000000000000000000000000000000000000000000000000000000600052603260045260246000fd5b7f4f776e61626c653a2063616c6c6572206973206e6f7420746865206f776e6572600082015250565b6000612e616020836123e9565b9150612e6c82612e2b565b602082019050919050565b60006020820190508181036000830152612e9081612e54565b9050919050565b7f4552433732313a206f776e657220717565727920666f72206e6f6e657869737460008201527f656e7420746f6b656e0000000000000000000000000000000000000000000000602082015250565b6000612ef36029836123e9565b9150612efe82612e97565b604082019050919050565b60006020820190508181036000830152612f2281612ee6565b9050919050565b7f4552433732313a2062616c616e636520717565727920666f7220746865207a6560008201527f726f206164647265737300000000000000000000000000000000000000000000602082015250565b6000612f85602a836123e9565b9150612f9082612f29565b604082019050919050565b60006020820190508181036000830152612fb481612f78565b9050919050565b7f4552433732314d657461646174613a2055524920717565727920666f72206e6f60008201527f6e6578697374656e7420746f6b656e0000000000000000000000000000000000602082015250565b6000613017602f836123e9565b915061302282612fbb565b604082019050919050565b600060208201905081810360008301526130468161300a565b9050919050565b600081905092915050565b6000613063826123de565b61306d818561304d565b935061307d8185602086016123fa565b80840191505092915050565b60006130958285613058565b91506130a18284613058565b91508190509392505050565b60006130b882612499565b91506130c383612499565b9250817fffffffffffffffffffffffffffffffffffffffffffffffffffffffffffffffff04831182151516156130fc576130fb612bce565b5b828202905092915050565b7f4f776e61626c653a206e6577206f776e657220697320746865207a65726f206160008201527f6464726573730000000000000000000000000000000000000000000000000000602082015250565b60006131636026836123e9565b915061316e82613107565b604082019050919050565b6000602082019050818103600083015261319281613156565b9050919050565b7f4552433732313a206d696e7420746f20746865207a65726f2061646472657373600082015250565b60006131cf6020836123e9565b91506131da82613199565b602082019050919050565b600060208201905081810360008301526131fe816131c2565b9050919050565b7f4552433732313a20746f6b656e20616c7265616479206d696e74656400000000600082015250565b600061323b601c836123e9565b915061324682613205565b602082019050919050565b6000602082019050818103600083015261326a8161322e565b9050919050565b600061327c82612499565b915061328783612499565b9250827fffffffffffffffffffffffffffffffffffffffffffffffffffffffffffffffff038211156132bc576132bb612bce565b5b828201905092915050565b7f4552433732313a206f70657261746f7220717565727920666f72206e6f6e657860008201527f697374656e7420746f6b656e0000000000000000000000000000000000000000602082015250565b6000613323602c836123e9565b915061332e826132c7565b604082019050919050565b6000602082019050818103600083015261335281613316565b9050919050565b7f4552433732313a207472616e736665722066726f6d20696e636f72726563742060008201527f6f776e6572000000000000000000000000000000000000000000000000000000602082015250565b60006133b56025836123e9565b91506133c082613359565b604082019050919050565b600060208201905081810360008301526133e4816133a8565b9050919050565b7f4552433732313a207472616e7366657220746f20746865207a65726f2061646460008201527f7265737300000000000000000000000000000000000000000000000000000000602082015250565b60006134476024836123e9565b9150613452826133eb565b604082019050919050565b600060208201905081810360008301526134768161343a565b9050919050565b600061348882612499565b915061349383612499565b9250828210156134a6576134a5612bce565b5b828203905092915050565b7f4552433732313a20617070726f766520746f2063616c6c657200000000000000600082015250565b60006134e76019836123e9565b91506134f2826134b1565b602082019050919050565b60006020820190508181036000830152613516816134da565b9050919050565b7f4552433732313a207472616e7366657220746f206e6f6e20455243373231526560008201527f63656976657220696d706c656d656e7465720000000000000000000000000000602082015250565b60006135796032836123e9565b91506135848261351d565b604082019050919050565b600060208201905081810360008301526135a88161356c565b9050919050565b7f4e487b7100000000000000000000000000000000000000000000000000000000600052601260045260246000fd5b60006135e982612499565b91506135f483612499565b925082613604576136036135af565b5b828204905092915050565b600061361a82612499565b915061362583612499565b925082613635576136346135af565b5b828206905092915050565b600081519050919050565b600082825260208201905092915050565b600061366782613640565b613671818561364b565b93506136818185602086016123fa565b61368a8161242d565b840191505092915050565b60006080820190506136aa600083018761252e565b6136b7602083018661252e565b6136c460408301856125c4565b81810360608301526136d6818461365c565b905095945050505050565b6000815190506136f08161234f565b92915050565b60006020828403121561370c5761370b612319565b5b600061371a848285016136e1565b91505092915050565b7f4e487b7100000000000000000000000000000000000000000000000000000000600052603160045260246000fdfea26469706673582212203d6680ab4249467d179636cbe789cae59e465e2aa3b0ec9503f1ed5c7186a34964736f6c634300080a0033",
  "immutableReferences": {
    "2829": [
      {
        "length": 32,
        "start": 1851
      },
      {
        "length": 32,
        "start": 2382
      },
      {
        "length": 32,
        "start": 3806
      }
    ]
  },
  "source": "pragma solidity >=0.4.22 <0.9.0;\r\nimport '@openzeppelin/contracts/token/ERC20/IERC20.sol';\r\nimport '@openzeppelin/contracts/token/ERC721/extensions/ERC721Enumerable.sol';\r\nimport '@openzeppelin/contracts/access/Ownable.sol';\r\n\r\ncontract Windows is ERC721Enumerable, Ownable {\r\n    uint256 uniqueIdCounter = 0;\r\n\r\n    uint256 tokenPrice = 10;\r\n\r\n    uint256 tokenPriceRebate = 2;\r\n\r\n    address public immutable paymentToken;\r\n\r\n    constructor(address tokenAddress) public ERC721('Windows', 'WND') {\r\n        paymentToken = tokenAddress;\r\n    }\r\n\r\n    function setTokenPrice(uint256 newTokenPrice) public onlyOwner {\r\n        tokenPrice = newTokenPrice;\r\n    }\r\n\r\n    function setTokenPriceRebate(uint256 newTokenPriceRebate) public onlyOwner {\r\n        tokenPriceRebate = tokenPriceRebate;\r\n    }\r\n\r\n    function mintMultipleTokens(uint256 amount) public {\r\n        require(\r\n            IERC20(paymentToken).transferFrom(\r\n                msg.sender,\r\n                owner(),\r\n                tokenPrice * amount\r\n            ),\r\n            'Transfer failed'\r\n        );\r\n        for (uint256 i = 0; i < amount; i++) {\r\n            _mint(msg.sender, uniqueIdCounter);\r\n            uniqueIdCounter++;\r\n        }\r\n    }\r\n\r\n    function mintToken() public {\r\n        require(\r\n            IERC20(paymentToken).transferFrom(msg.sender, owner(), tokenPrice),\r\n            'Transfer failed'\r\n        );\r\n        _mint(msg.sender, uniqueIdCounter);\r\n        uniqueIdCounter++;\r\n    }\r\n}\r\n",
  "sourcePath": "C:\\Users\\PC\\Documents\\VSCode\\Solidity\\contracts\\Windows.sol",
  "compiler": {
    "name": "solc",
    "version": "0.8.10+commit.fc410830.Emscripten.clang"
  },
  "schemaVersion": "3.4.7",
  "updatedAt": "2022-06-09T14:40:14.361Z",
  "networkType": "ethereum",
  "devdoc": {
    "kind": "dev",
    "methods": {
      "approve(address,uint256)": {
        "details": "See {IERC721-approve}."
      },
      "balanceOf(address)": {
        "details": "See {IERC721-balanceOf}."
      },
      "getApproved(uint256)": {
        "details": "See {IERC721-getApproved}."
      },
      "isApprovedForAll(address,address)": {
        "details": "See {IERC721-isApprovedForAll}."
      },
      "name()": {
        "details": "See {IERC721Metadata-name}."
      },
      "owner()": {
        "details": "Returns the address of the current owner."
      },
      "ownerOf(uint256)": {
        "details": "See {IERC721-ownerOf}."
      },
      "renounceOwnership()": {
        "details": "Leaves the contract without owner. It will not be possible to call `onlyOwner` functions anymore. Can only be called by the current owner. NOTE: Renouncing ownership will leave the contract without an owner, thereby removing any functionality that is only available to the owner."
      },
      "safeTransferFrom(address,address,uint256)": {
        "details": "See {IERC721-safeTransferFrom}."
      },
      "safeTransferFrom(address,address,uint256,bytes)": {
        "details": "See {IERC721-safeTransferFrom}."
      },
      "setApprovalForAll(address,bool)": {
        "details": "See {IERC721-setApprovalForAll}."
      },
      "supportsInterface(bytes4)": {
        "details": "See {IERC165-supportsInterface}."
      },
      "symbol()": {
        "details": "See {IERC721Metadata-symbol}."
      },
      "tokenByIndex(uint256)": {
        "details": "See {IERC721Enumerable-tokenByIndex}."
      },
      "tokenOfOwnerByIndex(address,uint256)": {
        "details": "See {IERC721Enumerable-tokenOfOwnerByIndex}."
      },
      "tokenURI(uint256)": {
        "details": "See {IERC721Metadata-tokenURI}."
      },
      "totalSupply()": {
        "details": "See {IERC721Enumerable-totalSupply}."
      },
      "transferFrom(address,address,uint256)": {
        "details": "See {IERC721-transferFrom}."
      },
      "transferOwnership(address)": {
        "details": "Transfers ownership of the contract to a new account (`newOwner`). Can only be called by the current owner."
      }
    },
    "version": 1
  },
  "userdoc": {
    "kind": "user",
    "methods": {},
    "version": 1
  }
}