{
  "contractName": "Windows",
  "abi": [
    {
      "inputs": [
        {
          "internalType": "address",
          "name": "tokenAddress",
          "type": "address"
        }
      ],
      "stateMutability": "nonpayable",
      "type": "constructor"
    },
    {
      "anonymous": false,
      "inputs": [
        {
          "indexed": true,
          "internalType": "address",
          "name": "owner",
          "type": "address"
        },
        {
          "indexed": true,
          "internalType": "address",
          "name": "approved",
          "type": "address"
        },
        {
          "indexed": true,
          "internalType": "uint256",
          "name": "tokenId",
          "type": "uint256"
        }
      ],
      "name": "Approval",
      "type": "event"
    },
    {
      "anonymous": false,
      "inputs": [
        {
          "indexed": true,
          "internalType": "address",
          "name": "owner",
          "type": "address"
        },
        {
          "indexed": true,
          "internalType": "address",
          "name": "operator",
          "type": "address"
        },
        {
          "indexed": false,
          "internalType": "bool",
          "name": "approved",
          "type": "bool"
        }
      ],
      "name": "ApprovalForAll",
      "type": "event"
    },
    {
      "anonymous": false,
      "inputs": [
        {
          "indexed": true,
          "internalType": "address",
          "name": "previousOwner",
          "type": "address"
        },
        {
          "indexed": true,
          "internalType": "address",
          "name": "newOwner",
          "type": "address"
        }
      ],
      "name": "OwnershipTransferred",
      "type": "event"
    },
    {
      "anonymous": false,
      "inputs": [
        {
          "indexed": true,
          "internalType": "address",
          "name": "from",
          "type": "address"
        },
        {
          "indexed": true,
          "internalType": "address",
          "name": "to",
          "type": "address"
        },
        {
          "indexed": true,
          "internalType": "uint256",
          "name": "tokenId",
          "type": "uint256"
        }
      ],
      "name": "Transfer",
      "type": "event"
    },
    {
      "inputs": [
        {
          "internalType": "address",
          "name": "to",
          "type": "address"
        },
        {
          "internalType": "uint256",
          "name": "tokenId",
          "type": "uint256"
        }
      ],
      "name": "approve",
      "outputs": [],
      "stateMutability": "nonpayable",
      "type": "function"
    },
    {
      "inputs": [
        {
          "internalType": "address",
          "name": "owner",
          "type": "address"
        }
      ],
      "name": "balanceOf",
      "outputs": [
        {
          "internalType": "uint256",
          "name": "",
          "type": "uint256"
        }
      ],
      "stateMutability": "view",
      "type": "function"
    },
    {
      "inputs": [
        {
          "internalType": "uint256",
          "name": "tokenId",
          "type": "uint256"
        }
      ],
      "name": "getApproved",
      "outputs": [
        {
          "internalType": "address",
          "name": "",
          "type": "address"
        }
      ],
      "stateMutability": "view",
      "type": "function"
    },
    {
      "inputs": [
        {
          "internalType": "address",
          "name": "owner",
          "type": "address"
        },
        {
          "internalType": "address",
          "name": "operator",
          "type": "address"
        }
      ],
      "name": "isApprovedForAll",
      "outputs": [
        {
          "internalType": "bool",
          "name": "",
          "type": "bool"
        }
      ],
      "stateMutability": "view",
      "type": "function"
    },
    {
      "inputs": [],
      "name": "name",
      "outputs": [
        {
          "internalType": "string",
          "name": "",
          "type": "string"
        }
      ],
      "stateMutability": "view",
      "type": "function"
    },
    {
      "inputs": [],
      "name": "owner",
      "outputs": [
        {
          "internalType": "address",
          "name": "",
          "type": "address"
        }
      ],
      "stateMutability": "view",
      "type": "function"
    },
    {
      "inputs": [
        {
          "internalType": "uint256",
          "name": "tokenId",
          "type": "uint256"
        }
      ],
      "name": "ownerOf",
      "outputs": [
        {
          "internalType": "address",
          "name": "",
          "type": "address"
        }
      ],
      "stateMutability": "view",
      "type": "function"
    },
    {
      "inputs": [],
      "name": "paymentToken",
      "outputs": [
        {
          "internalType": "address",
          "name": "",
          "type": "address"
        }
      ],
      "stateMutability": "view",
      "type": "function"
    },
    {
      "inputs": [],
      "name": "renounceOwnership",
      "outputs": [],
      "stateMutability": "nonpayable",
      "type": "function"
    },
    {
      "inputs": [
        {
          "internalType": "address",
          "name": "from",
          "type": "address"
        },
        {
          "internalType": "address",
          "name": "to",
          "type": "address"
        },
        {
          "internalType": "uint256",
          "name": "tokenId",
          "type": "uint256"
        }
      ],
      "name": "safeTransferFrom",
      "outputs": [],
      "stateMutability": "nonpayable",
      "type": "function"
    },
    {
      "inputs": [
        {
          "internalType": "address",
          "name": "from",
          "type": "address"
        },
        {
          "internalType": "address",
          "name": "to",
          "type": "address"
        },
        {
          "internalType": "uint256",
          "name": "tokenId",
          "type": "uint256"
        },
        {
          "internalType": "bytes",
          "name": "_data",
          "type": "bytes"
        }
      ],
      "name": "safeTransferFrom",
      "outputs": [],
      "stateMutability": "nonpayable",
      "type": "function"
    },
    {
      "inputs": [
        {
          "internalType": "address",
          "name": "operator",
          "type": "address"
        },
        {
          "internalType": "bool",
          "name": "approved",
          "type": "bool"
        }
      ],
      "name": "setApprovalForAll",
      "outputs": [],
      "stateMutability": "nonpayable",
      "type": "function"
    },
    {
      "inputs": [
        {
          "internalType": "bytes4",
          "name": "interfaceId",
          "type": "bytes4"
        }
      ],
      "name": "supportsInterface",
      "outputs": [
        {
          "internalType": "bool",
          "name": "",
          "type": "bool"
        }
      ],
      "stateMutability": "view",
      "type": "function"
    },
    {
      "inputs": [],
      "name": "symbol",
      "outputs": [
        {
          "internalType": "string",
          "name": "",
          "type": "string"
        }
      ],
      "stateMutability": "view",
      "type": "function"
    },
    {
      "inputs": [
        {
          "internalType": "uint256",
          "name": "index",
          "type": "uint256"
        }
      ],
      "name": "tokenByIndex",
      "outputs": [
        {
          "internalType": "uint256",
          "name": "",
          "type": "uint256"
        }
      ],
      "stateMutability": "view",
      "type": "function"
    },
    {
      "inputs": [
        {
          "internalType": "address",
          "name": "owner",
          "type": "address"
        },
        {
          "internalType": "uint256",
          "name": "index",
          "type": "uint256"
        }
      ],
      "name": "tokenOfOwnerByIndex",
      "outputs": [
        {
          "internalType": "uint256",
          "name": "",
          "type": "uint256"
        }
      ],
      "stateMutability": "view",
      "type": "function"
    },
    {
      "inputs": [
        {
          "internalType": "uint256",
          "name": "tokenId",
          "type": "uint256"
        }
      ],
      "name": "tokenURI",
      "outputs": [
        {
          "internalType": "string",
          "name": "",
          "type": "string"
        }
      ],
      "stateMutability": "view",
      "type": "function"
    },
    {
      "inputs": [],
      "name": "totalSupply",
      "outputs": [
        {
          "internalType": "uint256",
          "name": "",
          "type": "uint256"
        }
      ],
      "stateMutability": "view",
      "type": "function"
    },
    {
      "inputs": [
        {
          "internalType": "address",
          "name": "from",
          "type": "address"
        },
        {
          "internalType": "address",
          "name": "to",
          "type": "address"
        },
        {
          "internalType": "uint256",
          "name": "tokenId",
          "type": "uint256"
        }
      ],
      "name": "transferFrom",
      "outputs": [],
      "stateMutability": "nonpayable",
      "type": "function"
    },
    {
      "inputs": [
        {
          "internalType": "address",
          "name": "newOwner",
          "type": "address"
        }
      ],
      "name": "transferOwnership",
      "outputs": [],
      "stateMutability": "nonpayable",
      "type": "function"
    },
    {
      "inputs": [
        {
          "internalType": "uint256",
          "name": "newTokenPrice",
          "type": "uint256"
        }
      ],
      "name": "setTokenPrice",
      "outputs": [],
      "stateMutability": "nonpayable",
      "type": "function"
    },
    {
      "inputs": [
        {
          "internalType": "uint256",
          "name": "newTokenPriceRebate",
          "type": "uint256"
        }
      ],
      "name": "setTokenPriceRebate",
      "outputs": [],
      "stateMutability": "nonpayable",
      "type": "function"
    },
    {
      "inputs": [
        {
          "internalType": "bool",
          "name": "newMintLocked",
          "type": "bool"
        }
      ],
      "name": "setIsMintEnabled",
      "outputs": [],
      "stateMutability": "nonpayable",
      "type": "function"
    },
    {
      "inputs": [
        {
          "internalType": "uint256",
          "name": "amount",
          "type": "uint256"
        }
      ],
      "name": "mintMultipleTokens",
      "outputs": [],
      "stateMutability": "nonpayable",
      "type": "function"
    },
    {
      "inputs": [],
      "name": "mintToken",
      "outputs": [],
      "stateMutability": "nonpayable",
      "type": "function"
    }
  ],
  "bytecode": "0x60a06040526000600b55600a600c556001600d556001600e60006101000a81548160ff0219169083151502179055503480156200003b57600080fd5b5060405162003df438038062003df4833981810160405281019062000061919062000344565b6040518060400160405280600781526020017f57696e646f7773000000000000000000000000000000000000000000000000008152506040518060400160405280600381526020017f574e4400000000000000000000000000000000000000000000000000000000008152508160009080519060200190620000e59291906200022a565b508060019080519060200190620000fe9291906200022a565b50505062000121620001156200015c60201b60201c565b6200016460201b60201c565b8073ffffffffffffffffffffffffffffffffffffffff1660808173ffffffffffffffffffffffffffffffffffffffff168152505050620003db565b600033905090565b6000600a60009054906101000a900473ffffffffffffffffffffffffffffffffffffffff16905081600a60006101000a81548173ffffffffffffffffffffffffffffffffffffffff021916908373ffffffffffffffffffffffffffffffffffffffff1602179055508173ffffffffffffffffffffffffffffffffffffffff168173ffffffffffffffffffffffffffffffffffffffff167f8be0079c531659141344cd1fd0a4f28419497f9722a3daafe3b4186f6b6457e060405160405180910390a35050565b8280546200023890620003a5565b90600052602060002090601f0160209004810192826200025c5760008555620002a8565b82601f106200027757805160ff1916838001178555620002a8565b82800160010185558215620002a8579182015b82811115620002a75782518255916020019190600101906200028a565b5b509050620002b79190620002bb565b5090565b5b80821115620002d6576000816000905550600101620002bc565b5090565b600080fd5b600073ffffffffffffffffffffffffffffffffffffffff82169050919050565b60006200030c82620002df565b9050919050565b6200031e81620002ff565b81146200032a57600080fd5b50565b6000815190506200033e8162000313565b92915050565b6000602082840312156200035d576200035c620002da565b5b60006200036d848285016200032d565b91505092915050565b7f4e487b7100000000000000000000000000000000000000000000000000000000600052602260045260246000fd5b60006002820490506001821680620003be57607f821691505b60208210811415620003d557620003d462000376565b5b50919050565b6080516139ef62000405600039600081816107c1015281816109b9015261102f01526139ef6000f3fe608060405234801561001057600080fd5b50600436106101735760003560e01c8063573123a9116100de57806395d89b4111610097578063c87b56dd11610071578063c87b56dd14610422578063e1dffcb914610452578063e985e9c51461046e578063f2fde38b1461049e57610173565b806395d89b41146103cc578063a22cb465146103ea578063b88d4fde1461040657610173565b8063573123a91461030c5780636352211e146103285780636a61e5fc1461035857806370a0823114610374578063715018a6146103a45780638da5cb5b146103ae57610173565b806323b872dd1161013057806323b872dd1461023a5780632f745c59146102565780633013ce291461028657806342842e0e146102a45780634de8bcfb146102c05780634f6ccce7146102dc57610173565b806301ffc9a71461017857806306fdde03146101a8578063081812fc146101c6578063095ea7b3146101f657806318160ddd146102125780632004ffd914610230575b600080fd5b610192600480360381019061018d9190612523565b6104ba565b60405161019f919061256b565b60405180910390f35b6101b0610534565b6040516101bd919061261f565b60405180910390f35b6101e060048036038101906101db9190612677565b6105c6565b6040516101ed91906126e5565b60405180910390f35b610210600480360381019061020b919061272c565b61064b565b005b61021a610763565b604051610227919061277b565b60405180910390f35b610238610770565b005b610254600480360381019061024f9190612796565b6108b2565b005b610270600480360381019061026b919061272c565b610912565b60405161027d919061277b565b60405180910390f35b61028e6109b7565b60405161029b91906126e5565b60405180910390f35b6102be60048036038101906102b99190612796565b6109db565b005b6102da60048036038101906102d59190612815565b6109fb565b005b6102f660048036038101906102f19190612677565b610a94565b604051610303919061277b565b60405180910390f35b61032660048036038101906103219190612677565b610b05565b005b610342600480360381019061033d9190612677565b610b8b565b60405161034f91906126e5565b60405180910390f35b610372600480360381019061036d9190612677565b610c3d565b005b61038e60048036038101906103899190612842565b610cc3565b60405161039b919061277b565b60405180910390f35b6103ac610d7b565b005b6103b6610e03565b6040516103c391906126e5565b60405180910390f35b6103d4610e2d565b6040516103e1919061261f565b60405180910390f35b61040460048036038101906103ff919061286f565b610ebf565b005b610420600480360381019061041b91906129e4565b610ed5565b005b61043c60048036038101906104379190612677565b610f37565b604051610449919061261f565b60405180910390f35b61046c60048036038101906104679190612677565b610fde565b005b61048860048036038101906104839190612a67565b611146565b604051610495919061256b565b60405180910390f35b6104b860048036038101906104b39190612842565b6111da565b005b60007f780e9d63000000000000000000000000000000000000000000000000000000007bffffffffffffffffffffffffffffffffffffffffffffffffffffffff1916827bffffffffffffffffffffffffffffffffffffffffffffffffffffffff1916148061052d575061052c826112d2565b5b9050919050565b60606000805461054390612ad6565b80601f016020809104026020016040519081016040528092919081815260200182805461056f90612ad6565b80156105bc5780601f10610591576101008083540402835291602001916105bc565b820191906000526020600020905b81548152906001019060200180831161059f57829003601f168201915b5050505050905090565b60006105d1826113b4565b610610576040517f08c379a000000000000000000000000000000000000000000000000000000000815260040161060790612b7a565b60405180910390fd5b6004600083815260200190815260200160002060009054906101000a900473ffffffffffffffffffffffffffffffffffffffff169050919050565b600061065682610b8b565b90508073ffffffffffffffffffffffffffffffffffffffff168373ffffffffffffffffffffffffffffffffffffffff1614156106c7576040517f08c379a00000000000000000000000000000000000000000000000000000000081526004016106be90612c0c565b60405180910390fd5b8073ffffffffffffffffffffffffffffffffffffffff166106e6611420565b73ffffffffffffffffffffffffffffffffffffffff16148061071557506107148161070f611420565b611146565b5b610754576040517f08c379a000000000000000000000000000000000000000000000000000000000815260040161074b90612c9e565b60405180910390fd5b61075e8383611428565b505050565b6000600880549050905090565b600e60009054906101000a900460ff166107bf576040517f08c379a00000000000000000000000000000000000000000000000000000000081526004016107b690612d30565b60405180910390fd5b7f000000000000000000000000000000000000000000000000000000000000000073ffffffffffffffffffffffffffffffffffffffff166323b872dd33610804610e03565b600c546040518463ffffffff1660e01b815260040161082593929190612d50565b6020604051808303816000875af1158015610844573d6000803e3d6000fd5b505050506040513d601f19601f820116820180604052508101906108689190612d9c565b6108a7576040517f08c379a000000000000000000000000000000000000000000000000000000000815260040161089e90612e15565b60405180910390fd5b6108b0336114e1565b565b6108c36108bd611420565b82611508565b610902576040517f08c379a00000000000000000000000000000000000000000000000000000000081526004016108f990612ea7565b60405180910390fd5b61090d8383836115e6565b505050565b600061091d83610cc3565b821061095e576040517f08c379a000000000000000000000000000000000000000000000000000000000815260040161095590612f39565b60405180910390fd5b600660008473ffffffffffffffffffffffffffffffffffffffff1673ffffffffffffffffffffffffffffffffffffffff168152602001908152602001600020600083815260200190815260200160002054905092915050565b7f000000000000000000000000000000000000000000000000000000000000000081565b6109f683838360405180602001604052806000815250610ed5565b505050565b610a03611420565b73ffffffffffffffffffffffffffffffffffffffff16610a21610e03565b73ffffffffffffffffffffffffffffffffffffffff1614610a77576040517f08c379a0000000000000000000000000000000000000000000000000000000008152600401610a6e90612fa5565b60405180910390fd5b80600e60006101000a81548160ff02191690831515021790555050565b6000610a9e610763565b8210610adf576040517f08c379a0000000000000000000000000000000000000000000000000000000008152600401610ad690613037565b60405180910390fd5b60088281548110610af357610af2613057565b5b90600052602060002001549050919050565b610b0d611420565b73ffffffffffffffffffffffffffffffffffffffff16610b2b610e03565b73ffffffffffffffffffffffffffffffffffffffff1614610b81576040517f08c379a0000000000000000000000000000000000000000000000000000000008152600401610b7890612fa5565b60405180910390fd5b80600d8190555050565b6000806002600084815260200190815260200160002060009054906101000a900473ffffffffffffffffffffffffffffffffffffffff169050600073ffffffffffffffffffffffffffffffffffffffff168173ffffffffffffffffffffffffffffffffffffffff161415610c34576040517f08c379a0000000000000000000000000000000000000000000000000000000008152600401610c2b906130f8565b60405180910390fd5b80915050919050565b610c45611420565b73ffffffffffffffffffffffffffffffffffffffff16610c63610e03565b73ffffffffffffffffffffffffffffffffffffffff1614610cb9576040517f08c379a0000000000000000000000000000000000000000000000000000000008152600401610cb090612fa5565b60405180910390fd5b80600c8190555050565b60008073ffffffffffffffffffffffffffffffffffffffff168273ffffffffffffffffffffffffffffffffffffffff161415610d34576040517f08c379a0000000000000000000000000000000000000000000000000000000008152600401610d2b9061318a565b60405180910390fd5b600360008373ffffffffffffffffffffffffffffffffffffffff1673ffffffffffffffffffffffffffffffffffffffff168152602001908152602001600020549050919050565b610d83611420565b73ffffffffffffffffffffffffffffffffffffffff16610da1610e03565b73ffffffffffffffffffffffffffffffffffffffff1614610df7576040517f08c379a0000000000000000000000000000000000000000000000000000000008152600401610dee90612fa5565b60405180910390fd5b610e01600061184d565b565b6000600a60009054906101000a900473ffffffffffffffffffffffffffffffffffffffff16905090565b606060018054610e3c90612ad6565b80601f0160208091040260200160405190810160405280929190818152602001828054610e6890612ad6565b8015610eb55780601f10610e8a57610100808354040283529160200191610eb5565b820191906000526020600020905b815481529060010190602001808311610e9857829003601f168201915b5050505050905090565b610ed1610eca611420565b8383611913565b5050565b610ee6610ee0611420565b83611508565b610f25576040517f08c379a0000000000000000000000000000000000000000000000000000000008152600401610f1c90612ea7565b60405180910390fd5b610f3184848484611a80565b50505050565b6060610f42826113b4565b610f81576040517f08c379a0000000000000000000000000000000000000000000000000000000008152600401610f789061321c565b60405180910390fd5b6000610f8b611adc565b90506000815111610fab5760405180602001604052806000815250610fd6565b80610fb584611af3565b604051602001610fc6929190613278565b6040516020818303038152906040525b915050919050565b600e60009054906101000a900460ff1661102d576040517f08c379a000000000000000000000000000000000000000000000000000000000815260040161102490612d30565b60405180910390fd5b7f000000000000000000000000000000000000000000000000000000000000000073ffffffffffffffffffffffffffffffffffffffff166323b872dd33611072610e03565b61107b85611c54565b6040518463ffffffff1660e01b815260040161109993929190612d50565b6020604051808303816000875af11580156110b8573d6000803e3d6000fd5b505050506040513d601f19601f820116820180604052508101906110dc9190612d9c565b61111b576040517f08c379a000000000000000000000000000000000000000000000000000000000815260040161111290612e15565b60405180910390fd5b60005b818110156111425761112f336114e1565b808061113a906132cb565b91505061111e565b5050565b6000600560008473ffffffffffffffffffffffffffffffffffffffff1673ffffffffffffffffffffffffffffffffffffffff16815260200190815260200160002060008373ffffffffffffffffffffffffffffffffffffffff1673ffffffffffffffffffffffffffffffffffffffff16815260200190815260200160002060009054906101000a900460ff16905092915050565b6111e2611420565b73ffffffffffffffffffffffffffffffffffffffff16611200610e03565b73ffffffffffffffffffffffffffffffffffffffff1614611256576040517f08c379a000000000000000000000000000000000000000000000000000000000815260040161124d90612fa5565b60405180910390fd5b600073ffffffffffffffffffffffffffffffffffffffff168173ffffffffffffffffffffffffffffffffffffffff1614156112c6576040517f08c379a00000000000000000000000000000000000000000000000000000000081526004016112bd90613386565b60405180910390fd5b6112cf8161184d565b50565b60007f80ac58cd000000000000000000000000000000000000000000000000000000007bffffffffffffffffffffffffffffffffffffffffffffffffffffffff1916827bffffffffffffffffffffffffffffffffffffffffffffffffffffffff1916148061139d57507f5b5e139f000000000000000000000000000000000000000000000000000000007bffffffffffffffffffffffffffffffffffffffffffffffffffffffff1916827bffffffffffffffffffffffffffffffffffffffffffffffffffffffff1916145b806113ad57506113ac82611ca4565b5b9050919050565b60008073ffffffffffffffffffffffffffffffffffffffff166002600084815260200190815260200160002060009054906101000a900473ffffffffffffffffffffffffffffffffffffffff1673ffffffffffffffffffffffffffffffffffffffff1614159050919050565b600033905090565b816004600083815260200190815260200160002060006101000a81548173ffffffffffffffffffffffffffffffffffffffff021916908373ffffffffffffffffffffffffffffffffffffffff160217905550808273ffffffffffffffffffffffffffffffffffffffff1661149b83610b8b565b73ffffffffffffffffffffffffffffffffffffffff167f8c5be1e5ebec7d5bd14f71427d1e84f3dd0314c0f7b2291e5b200ac8c7c3b92560405160405180910390a45050565b6114ed81600b54611d0e565b600b6000815480929190611500906132cb565b919050555050565b6000611513826113b4565b611552576040517f08c379a000000000000000000000000000000000000000000000000000000000815260040161154990613418565b60405180910390fd5b600061155d83610b8b565b90508073ffffffffffffffffffffffffffffffffffffffff168473ffffffffffffffffffffffffffffffffffffffff16148061159f575061159e8185611146565b5b806115dd57508373ffffffffffffffffffffffffffffffffffffffff166115c5846105c6565b73ffffffffffffffffffffffffffffffffffffffff16145b91505092915050565b8273ffffffffffffffffffffffffffffffffffffffff1661160682610b8b565b73ffffffffffffffffffffffffffffffffffffffff161461165c576040517f08c379a0000000000000000000000000000000000000000000000000000000008152600401611653906134aa565b60405180910390fd5b600073ffffffffffffffffffffffffffffffffffffffff168273ffffffffffffffffffffffffffffffffffffffff1614156116cc576040517f08c379a00000000000000000000000000000000000000000000000000000000081526004016116c39061353c565b60405180910390fd5b6116d7838383611ee8565b6116e2600082611428565b6001600360008573ffffffffffffffffffffffffffffffffffffffff1673ffffffffffffffffffffffffffffffffffffffff1681526020019081526020016000206000828254611732919061355c565b925050819055506001600360008473ffffffffffffffffffffffffffffffffffffffff1673ffffffffffffffffffffffffffffffffffffffff16815260200190815260200160002060008282546117899190613590565b92505081905550816002600083815260200190815260200160002060006101000a81548173ffffffffffffffffffffffffffffffffffffffff021916908373ffffffffffffffffffffffffffffffffffffffff160217905550808273ffffffffffffffffffffffffffffffffffffffff168473ffffffffffffffffffffffffffffffffffffffff167fddf252ad1be2c89b69c2b068fc378daa952ba7f163c4a11628f55a4df523b3ef60405160405180910390a4611848838383611ffc565b505050565b6000600a60009054906101000a900473ffffffffffffffffffffffffffffffffffffffff16905081600a60006101000a81548173ffffffffffffffffffffffffffffffffffffffff021916908373ffffffffffffffffffffffffffffffffffffffff1602179055508173ffffffffffffffffffffffffffffffffffffffff168173ffffffffffffffffffffffffffffffffffffffff167f8be0079c531659141344cd1fd0a4f28419497f9722a3daafe3b4186f6b6457e060405160405180910390a35050565b8173ffffffffffffffffffffffffffffffffffffffff168373ffffffffffffffffffffffffffffffffffffffff161415611982576040517f08c379a000000000000000000000000000000000000000000000000000000000815260040161197990613632565b60405180910390fd5b80600560008573ffffffffffffffffffffffffffffffffffffffff1673ffffffffffffffffffffffffffffffffffffffff16815260200190815260200160002060008473ffffffffffffffffffffffffffffffffffffffff1673ffffffffffffffffffffffffffffffffffffffff16815260200190815260200160002060006101000a81548160ff0219169083151502179055508173ffffffffffffffffffffffffffffffffffffffff168373ffffffffffffffffffffffffffffffffffffffff167f17307eab39ab6107e8899845ad3d59bd9653f200f220920489ca2b5937696c3183604051611a73919061256b565b60405180910390a3505050565b611a8b8484846115e6565b611a9784848484612001565b611ad6576040517f08c379a0000000000000000000000000000000000000000000000000000000008152600401611acd906136c4565b60405180910390fd5b50505050565b606060405180602001604052806000815250905090565b60606000821415611b3b576040518060400160405280600181526020017f30000000000000000000000000000000000000000000000000000000000000008152509050611c4f565b600082905060005b60008214611b6d578080611b56906132cb565b915050600a82611b669190613713565b9150611b43565b60008167ffffffffffffffff811115611b8957611b886128b9565b5b6040519080825280601f01601f191660200182016040528015611bbb5781602001600182028036833780820191505090505b5090505b60008514611c4857600182611bd4919061355c565b9150600a85611be39190613744565b6030611bef9190613590565b60f81b818381518110611c0557611c04613057565b5b60200101907effffffffffffffffffffffffffffffffffffffffffffffffffffffffffffff1916908160001a905350600a85611c419190613713565b9450611bbf565b8093505050505b919050565b60006001821415611c6957600c549050611c9f565b6064600d546064611c7a919061355c565b83600c54611c889190613775565b611c929190613775565b611c9c9190613713565b90505b919050565b60007f01ffc9a7000000000000000000000000000000000000000000000000000000007bffffffffffffffffffffffffffffffffffffffffffffffffffffffff1916827bffffffffffffffffffffffffffffffffffffffffffffffffffffffff1916149050919050565b600073ffffffffffffffffffffffffffffffffffffffff168273ffffffffffffffffffffffffffffffffffffffff161415611d7e576040517f08c379a0000000000000000000000000000000000000000000000000000000008152600401611d759061381b565b60405180910390fd5b611d87816113b4565b15611dc7576040517f08c379a0000000000000000000000000000000000000000000000000000000008152600401611dbe90613887565b60405180910390fd5b611dd360008383611ee8565b6001600360008473ffffffffffffffffffffffffffffffffffffffff1673ffffffffffffffffffffffffffffffffffffffff1681526020019081526020016000206000828254611e239190613590565b92505081905550816002600083815260200190815260200160002060006101000a81548173ffffffffffffffffffffffffffffffffffffffff021916908373ffffffffffffffffffffffffffffffffffffffff160217905550808273ffffffffffffffffffffffffffffffffffffffff16600073ffffffffffffffffffffffffffffffffffffffff167fddf252ad1be2c89b69c2b068fc378daa952ba7f163c4a11628f55a4df523b3ef60405160405180910390a4611ee460008383611ffc565b5050565b611ef3838383612189565b600073ffffffffffffffffffffffffffffffffffffffff168373ffffffffffffffffffffffffffffffffffffffff161415611f3657611f318161218e565b611f75565b8173ffffffffffffffffffffffffffffffffffffffff168373ffffffffffffffffffffffffffffffffffffffff1614611f7457611f7383826121d7565b5b5b600073ffffffffffffffffffffffffffffffffffffffff168273ffffffffffffffffffffffffffffffffffffffff161415611fb857611fb381612344565b611ff7565b8273ffffffffffffffffffffffffffffffffffffffff168273ffffffffffffffffffffffffffffffffffffffff1614611ff657611ff58282612415565b5b5b505050565b505050565b60006120228473ffffffffffffffffffffffffffffffffffffffff16612494565b1561217c578373ffffffffffffffffffffffffffffffffffffffff1663150b7a0261204b611420565b8786866040518563ffffffff1660e01b815260040161206d94939291906138fc565b6020604051808303816000875af19250505080156120a957506040513d601f19601f820116820180604052508101906120a6919061395d565b60015b61212c573d80600081146120d9576040519150601f19603f3d011682016040523d82523d6000602084013e6120de565b606091505b50600081511415612124576040517f08c379a000000000000000000000000000000000000000000000000000000000815260040161211b906136c4565b60405180910390fd5b805181602001fd5b63150b7a0260e01b7bffffffffffffffffffffffffffffffffffffffffffffffffffffffff1916817bffffffffffffffffffffffffffffffffffffffffffffffffffffffff191614915050612181565b600190505b949350505050565b505050565b6008805490506009600083815260200190815260200160002081905550600881908060018154018082558091505060019003906000526020600020016000909190919091505550565b600060016121e484610cc3565b6121ee919061355c565b90506000600760008481526020019081526020016000205490508181146122d3576000600660008673ffffffffffffffffffffffffffffffffffffffff1673ffffffffffffffffffffffffffffffffffffffff168152602001908152602001600020600084815260200190815260200160002054905080600660008773ffffffffffffffffffffffffffffffffffffffff1673ffffffffffffffffffffffffffffffffffffffff168152602001908152602001600020600084815260200190815260200160002081905550816007600083815260200190815260200160002081905550505b6007600084815260200190815260200160002060009055600660008573ffffffffffffffffffffffffffffffffffffffff1673ffffffffffffffffffffffffffffffffffffffff16815260200190815260200160002060008381526020019081526020016000206000905550505050565b60006001600880549050612358919061355c565b905060006009600084815260200190815260200160002054905060006008838154811061238857612387613057565b5b9060005260206000200154905080600883815481106123aa576123a9613057565b5b9060005260206000200181905550816009600083815260200190815260200160002081905550600960008581526020019081526020016000206000905560088054806123f9576123f861398a565b5b6001900381819060005260206000200160009055905550505050565b600061242083610cc3565b905081600660008573ffffffffffffffffffffffffffffffffffffffff1673ffffffffffffffffffffffffffffffffffffffff168152602001908152602001600020600083815260200190815260200160002081905550806007600084815260200190815260200160002081905550505050565b6000808273ffffffffffffffffffffffffffffffffffffffff163b119050919050565b6000604051905090565b600080fd5b600080fd5b60007fffffffff0000000000000000000000000000000000000000000000000000000082169050919050565b612500816124cb565b811461250b57600080fd5b50565b60008135905061251d816124f7565b92915050565b600060208284031215612539576125386124c1565b5b60006125478482850161250e565b91505092915050565b60008115159050919050565b61256581612550565b82525050565b6000602082019050612580600083018461255c565b92915050565b600081519050919050565b600082825260208201905092915050565b60005b838110156125c05780820151818401526020810190506125a5565b838111156125cf576000848401525b50505050565b6000601f19601f8301169050919050565b60006125f182612586565b6125fb8185612591565b935061260b8185602086016125a2565b612614816125d5565b840191505092915050565b6000602082019050818103600083015261263981846125e6565b905092915050565b6000819050919050565b61265481612641565b811461265f57600080fd5b50565b6000813590506126718161264b565b92915050565b60006020828403121561268d5761268c6124c1565b5b600061269b84828501612662565b91505092915050565b600073ffffffffffffffffffffffffffffffffffffffff82169050919050565b60006126cf826126a4565b9050919050565b6126df816126c4565b82525050565b60006020820190506126fa60008301846126d6565b92915050565b612709816126c4565b811461271457600080fd5b50565b60008135905061272681612700565b92915050565b60008060408385031215612743576127426124c1565b5b600061275185828601612717565b925050602061276285828601612662565b9150509250929050565b61277581612641565b82525050565b6000602082019050612790600083018461276c565b92915050565b6000806000606084860312156127af576127ae6124c1565b5b60006127bd86828701612717565b93505060206127ce86828701612717565b92505060406127df86828701612662565b9150509250925092565b6127f281612550565b81146127fd57600080fd5b50565b60008135905061280f816127e9565b92915050565b60006020828403121561282b5761282a6124c1565b5b600061283984828501612800565b91505092915050565b600060208284031215612858576128576124c1565b5b600061286684828501612717565b91505092915050565b60008060408385031215612886576128856124c1565b5b600061289485828601612717565b92505060206128a585828601612800565b9150509250929050565b600080fd5b600080fd5b7f4e487b7100000000000000000000000000000000000000000000000000000000600052604160045260246000fd5b6128f1826125d5565b810181811067ffffffffffffffff821117156129105761290f6128b9565b5b80604052505050565b60006129236124b7565b905061292f82826128e8565b919050565b600067ffffffffffffffff82111561294f5761294e6128b9565b5b612958826125d5565b9050602081019050919050565b82818337600083830152505050565b600061298761298284612934565b612919565b9050828152602081018484840111156129a3576129a26128b4565b5b6129ae848285612965565b509392505050565b600082601f8301126129cb576129ca6128af565b5b81356129db848260208601612974565b91505092915050565b600080600080608085870312156129fe576129fd6124c1565b5b6000612a0c87828801612717565b9450506020612a1d87828801612717565b9350506040612a2e87828801612662565b925050606085013567ffffffffffffffff811115612a4f57612a4e6124c6565b5b612a5b878288016129b6565b91505092959194509250565b60008060408385031215612a7e57612a7d6124c1565b5b6000612a8c85828601612717565b9250506020612a9d85828601612717565b9150509250929050565b7f4e487b7100000000000000000000000000000000000000000000000000000000600052602260045260246000fd5b60006002820490506001821680612aee57607f821691505b60208210811415612b0257612b01612aa7565b5b50919050565b7f4552433732313a20617070726f76656420717565727920666f72206e6f6e657860008201527f697374656e7420746f6b656e0000000000000000000000000000000000000000602082015250565b6000612b64602c83612591565b9150612b6f82612b08565b604082019050919050565b60006020820190508181036000830152612b9381612b57565b9050919050565b7f4552433732313a20617070726f76616c20746f2063757272656e74206f776e6560008201527f7200000000000000000000000000000000000000000000000000000000000000602082015250565b6000612bf6602183612591565b9150612c0182612b9a565b604082019050919050565b60006020820190508181036000830152612c2581612be9565b9050919050565b7f4552433732313a20617070726f76652063616c6c6572206973206e6f74206f7760008201527f6e6572206e6f7220617070726f76656420666f7220616c6c0000000000000000602082015250565b6000612c88603883612591565b9150612c9382612c2c565b604082019050919050565b60006020820190508181036000830152612cb781612c7b565b9050919050565b7f4d696e74206973206e6f20656e61626c65642061742074686973206d6f6d656e60008201527f7421000000000000000000000000000000000000000000000000000000000000602082015250565b6000612d1a602283612591565b9150612d2582612cbe565b604082019050919050565b60006020820190508181036000830152612d4981612d0d565b9050919050565b6000606082019050612d6560008301866126d6565b612d7260208301856126d6565b612d7f604083018461276c565b949350505050565b600081519050612d96816127e9565b92915050565b600060208284031215612db257612db16124c1565b5b6000612dc084828501612d87565b91505092915050565b7f5472616e73666572206661696c65640000000000000000000000000000000000600082015250565b6000612dff600f83612591565b9150612e0a82612dc9565b602082019050919050565b60006020820190508181036000830152612e2e81612df2565b9050919050565b7f4552433732313a207472616e736665722063616c6c6572206973206e6f74206f60008201527f776e6572206e6f7220617070726f766564000000000000000000000000000000602082015250565b6000612e91603183612591565b9150612e9c82612e35565b604082019050919050565b60006020820190508181036000830152612ec081612e84565b9050919050565b7f455243373231456e756d657261626c653a206f776e657220696e646578206f7560008201527f74206f6620626f756e6473000000000000000000000000000000000000000000602082015250565b6000612f23602b83612591565b9150612f2e82612ec7565b604082019050919050565b60006020820190508181036000830152612f5281612f16565b9050919050565b7f4f776e61626c653a2063616c6c6572206973206e6f7420746865206f776e6572600082015250565b6000612f8f602083612591565b9150612f9a82612f59565b602082019050919050565b60006020820190508181036000830152612fbe81612f82565b9050919050565b7f455243373231456e756d657261626c653a20676c6f62616c20696e646578206f60008201527f7574206f6620626f756e64730000000000000000000000000000000000000000602082015250565b6000613021602c83612591565b915061302c82612fc5565b604082019050919050565b6000602082019050818103600083015261305081613014565b9050919050565b7f4e487b7100000000000000000000000000000000000000000000000000000000600052603260045260246000fd5b7f4552433732313a206f776e657220717565727920666f72206e6f6e657869737460008201527f656e7420746f6b656e0000000000000000000000000000000000000000000000602082015250565b60006130e2602983612591565b91506130ed82613086565b604082019050919050565b60006020820190508181036000830152613111816130d5565b9050919050565b7f4552433732313a2062616c616e636520717565727920666f7220746865207a6560008201527f726f206164647265737300000000000000000000000000000000000000000000602082015250565b6000613174602a83612591565b915061317f82613118565b604082019050919050565b600060208201905081810360008301526131a381613167565b9050919050565b7f4552433732314d657461646174613a2055524920717565727920666f72206e6f60008201527f6e6578697374656e7420746f6b656e0000000000000000000000000000000000602082015250565b6000613206602f83612591565b9150613211826131aa565b604082019050919050565b60006020820190508181036000830152613235816131f9565b9050919050565b600081905092915050565b600061325282612586565b61325c818561323c565b935061326c8185602086016125a2565b80840191505092915050565b60006132848285613247565b91506132908284613247565b91508190509392505050565b7f4e487b7100000000000000000000000000000000000000000000000000000000600052601160045260246000fd5b60006132d682612641565b91507fffffffffffffffffffffffffffffffffffffffffffffffffffffffffffffffff8214156133095761330861329c565b5b600182019050919050565b7f4f776e61626c653a206e6577206f776e657220697320746865207a65726f206160008201527f6464726573730000000000000000000000000000000000000000000000000000602082015250565b6000613370602683612591565b915061337b82613314565b604082019050919050565b6000602082019050818103600083015261339f81613363565b9050919050565b7f4552433732313a206f70657261746f7220717565727920666f72206e6f6e657860008201527f697374656e7420746f6b656e0000000000000000000000000000000000000000602082015250565b6000613402602c83612591565b915061340d826133a6565b604082019050919050565b60006020820190508181036000830152613431816133f5565b9050919050565b7f4552433732313a207472616e736665722066726f6d20696e636f72726563742060008201527f6f776e6572000000000000000000000000000000000000000000000000000000602082015250565b6000613494602583612591565b915061349f82613438565b604082019050919050565b600060208201905081810360008301526134c381613487565b9050919050565b7f4552433732313a207472616e7366657220746f20746865207a65726f2061646460008201527f7265737300000000000000000000000000000000000000000000000000000000602082015250565b6000613526602483612591565b9150613531826134ca565b604082019050919050565b6000602082019050818103600083015261355581613519565b9050919050565b600061356782612641565b915061357283612641565b9250828210156135855761358461329c565b5b828203905092915050565b600061359b82612641565b91506135a683612641565b9250827fffffffffffffffffffffffffffffffffffffffffffffffffffffffffffffffff038211156135db576135da61329c565b5b828201905092915050565b7f4552433732313a20617070726f766520746f2063616c6c657200000000000000600082015250565b600061361c601983612591565b9150613627826135e6565b602082019050919050565b6000602082019050818103600083015261364b8161360f565b9050919050565b7f4552433732313a207472616e7366657220746f206e6f6e20455243373231526560008201527f63656976657220696d706c656d656e7465720000000000000000000000000000602082015250565b60006136ae603283612591565b91506136b982613652565b604082019050919050565b600060208201905081810360008301526136dd816136a1565b9050919050565b7f4e487b7100000000000000000000000000000000000000000000000000000000600052601260045260246000fd5b600061371e82612641565b915061372983612641565b925082613739576137386136e4565b5b828204905092915050565b600061374f82612641565b915061375a83612641565b92508261376a576137696136e4565b5b828206905092915050565b600061378082612641565b915061378b83612641565b9250817fffffffffffffffffffffffffffffffffffffffffffffffffffffffffffffffff04831182151516156137c4576137c361329c565b5b828202905092915050565b7f4552433732313a206d696e7420746f20746865207a65726f2061646472657373600082015250565b6000613805602083612591565b9150613810826137cf565b602082019050919050565b60006020820190508181036000830152613834816137f8565b9050919050565b7f4552433732313a20746f6b656e20616c7265616479206d696e74656400000000600082015250565b6000613871601c83612591565b915061387c8261383b565b602082019050919050565b600060208201905081810360008301526138a081613864565b9050919050565b600081519050919050565b600082825260208201905092915050565b60006138ce826138a7565b6138d881856138b2565b93506138e88185602086016125a2565b6138f1816125d5565b840191505092915050565b600060808201905061391160008301876126d6565b61391e60208301866126d6565b61392b604083018561276c565b818103606083015261393d81846138c3565b905095945050505050565b600081519050613957816124f7565b92915050565b600060208284031215613973576139726124c1565b5b600061398184828501613948565b91505092915050565b7f4e487b7100000000000000000000000000000000000000000000000000000000600052603160045260246000fdfea26469706673582212202b4b41e0b5dec85ba2682ecc5ed39d8c44c9ce8061dfe4b9acff44a67b4a4a3664736f6c634300080a0033",
  "immutableReferences": {
    "3286": [
      {
        "length": 32,
        "start": 1985
      },
      {
        "length": 32,
        "start": 2489
      },
      {
        "length": 32,
        "start": 4143
      }
    ]
  },
  "source": "pragma solidity 0.8.10;\r\nimport '@openzeppelin/contracts/token/ERC20/IERC20.sol';\r\nimport '@openzeppelin/contracts/token/ERC721/extensions/ERC721Enumerable.sol';\r\nimport '@openzeppelin/contracts/access/Ownable.sol';\r\n\r\ncontract Windows is ERC721Enumerable, Ownable {\r\n    //Stores the next available unique token Id\r\n    uint256 uniqueIdCounter = 0;\r\n\r\n    //Stores the token price\r\n    uint256 tokenPrice = 10;\r\n\r\n    //Stores a rebate in token amount to discount on mint\r\n    uint256 tokenPriceRebate = 1;\r\n\r\n    //Stores whether minting is enabled\r\n    bool isMintEnabled = true;\r\n\r\n    //Stores the ERC20 contract's address used to pay\r\n    address public immutable paymentToken;\r\n\r\n    //Percent const to make percentage operations\r\n    uint256 private constant PERCENT = 100;\r\n\r\n    //Checks whether the mint is enabled\r\n    modifier mintEnabled() {\r\n        require(isMintEnabled, 'Mint is no enabled at this moment!');\r\n        _;\r\n    }\r\n\r\n    /**@dev Contructs an ERC721 token, name, symbol\r\n     *      and defines the token contract's address\r\n     *      used to pay\r\n     */\r\n    constructor(address tokenAddress) public ERC721('Windows', 'WND') {\r\n        paymentToken = tokenAddress;\r\n    }\r\n\r\n    /**@dev Sets a given token price\r\n     *\r\n     * Calling conditions:\r\n     *\r\n     * - Only contract's owner can call this function\r\n     */\r\n    function setTokenPrice(uint256 newTokenPrice) public onlyOwner {\r\n        tokenPrice = newTokenPrice;\r\n    }\r\n\r\n    /**@dev Sets a given price rebate\r\n     *\r\n     * Calling conditions:\r\n     *\r\n     * - Only contract's owner can call this function\r\n     */\r\n    function setTokenPriceRebate(uint256 newTokenPriceRebate) public onlyOwner {\r\n        tokenPriceRebate = newTokenPriceRebate;\r\n    }\r\n\r\n    /**@dev Sets whether this ERC721 mint is enabled\r\n     *\r\n     * Calling conditions:\r\n     *\r\n     * - Only contract's owner can call this function\r\n     */\r\n    function setIsMintEnabled(bool newMintLocked) public onlyOwner {\r\n        isMintEnabled = newMintLocked;\r\n    }\r\n\r\n    /**@dev Mints a token to given address with unique token id\r\n     */\r\n    function _windowsMint(address addresToMint) internal {\r\n        _mint(addresToMint, uniqueIdCounter);\r\n        uniqueIdCounter++;\r\n    }\r\n\r\n    /**@dev Calculates price to pay for given amount of tokens\r\n     */\r\n    function _calculatePrice(uint256 amount) internal view returns (uint256) {\r\n        if (amount == 1) return tokenPrice;\r\n        return (tokenPrice * amount * (PERCENT - tokenPriceRebate)) / PERCENT;\r\n    }\r\n\r\n    /**@notice Mints given amount of tokens to sender address\r\n     *\r\n     * Calling conditions:\r\n     *\r\n     * - Mint has to be enabled\r\n     * - The address of this contract needs to be allowed\r\n     *   to transfer from sender 'tokenPrice * amount' amount\r\n     * - Tokens total price has to be transferred to the address\r\n     *   of this contract\r\n     */\r\n    function mintMultipleTokens(uint256 amount) public mintEnabled {\r\n        require(\r\n            IERC20(paymentToken).transferFrom(\r\n                msg.sender,\r\n                owner(),\r\n                _calculatePrice(amount)\r\n            ),\r\n            'Transfer failed'\r\n        );\r\n\r\n        for (uint256 i = 0; i < amount; i++) {\r\n            _windowsMint(msg.sender);\r\n        }\r\n    }\r\n\r\n    /**@notice Mints given amount of tokens to sender address}\r\n     *\r\n     * Calling conditions:\r\n     *\r\n     * - Mint has to be enabled\r\n     * - The address of this contract needs to be allowed\r\n     *   to transfer from sender 'tokenPrice * amount' amount\r\n     * - Tokens price has to be transferred to the address\r\n     *   of this contract\r\n     */\r\n    function mintToken() public mintEnabled {\r\n        require(\r\n            IERC20(paymentToken).transferFrom(msg.sender, owner(), tokenPrice),\r\n            'Transfer failed'\r\n        );\r\n        _windowsMint(msg.sender);\r\n    }\r\n}\r\n",
  "sourcePath": "C:\\Users\\PC\\Documents\\VSCode\\Solidity\\contracts\\Windows.sol",
  "compiler": {
    "name": "solc",
    "version": "0.8.10+commit.fc410830.Emscripten.clang"
  },
  "schemaVersion": "3.4.7",
  "updatedAt": "2022-06-14T20:01:25.912Z",
  "devdoc": {
    "kind": "dev",
    "methods": {
      "approve(address,uint256)": {
        "details": "See {IERC721-approve}."
      },
      "balanceOf(address)": {
        "details": "See {IERC721-balanceOf}."
      },
      "constructor": {
        "details": "Contructs an ERC721 token, name, symbol      and defines the token contract's address      used to pay"
      },
      "getApproved(uint256)": {
        "details": "See {IERC721-getApproved}."
      },
      "isApprovedForAll(address,address)": {
        "details": "See {IERC721-isApprovedForAll}."
      },
      "name()": {
        "details": "See {IERC721Metadata-name}."
      },
      "owner()": {
        "details": "Returns the address of the current owner."
      },
      "ownerOf(uint256)": {
        "details": "See {IERC721-ownerOf}."
      },
      "renounceOwnership()": {
        "details": "Leaves the contract without owner. It will not be possible to call `onlyOwner` functions anymore. Can only be called by the current owner. NOTE: Renouncing ownership will leave the contract without an owner, thereby removing any functionality that is only available to the owner."
      },
      "safeTransferFrom(address,address,uint256)": {
        "details": "See {IERC721-safeTransferFrom}."
      },
      "safeTransferFrom(address,address,uint256,bytes)": {
        "details": "See {IERC721-safeTransferFrom}."
      },
      "setApprovalForAll(address,bool)": {
        "details": "See {IERC721-setApprovalForAll}."
      },
      "setIsMintEnabled(bool)": {
        "details": "Sets whether this ERC721 mint is enabled Calling conditions: - Only contract's owner can call this function"
      },
      "setTokenPrice(uint256)": {
        "details": "Sets a given token price Calling conditions: - Only contract's owner can call this function"
      },
      "setTokenPriceRebate(uint256)": {
        "details": "Sets a given price rebate Calling conditions: - Only contract's owner can call this function"
      },
      "supportsInterface(bytes4)": {
        "details": "See {IERC165-supportsInterface}."
      },
      "symbol()": {
        "details": "See {IERC721Metadata-symbol}."
      },
      "tokenByIndex(uint256)": {
        "details": "See {IERC721Enumerable-tokenByIndex}."
      },
      "tokenOfOwnerByIndex(address,uint256)": {
        "details": "See {IERC721Enumerable-tokenOfOwnerByIndex}."
      },
      "tokenURI(uint256)": {
        "details": "See {IERC721Metadata-tokenURI}."
      },
      "totalSupply()": {
        "details": "See {IERC721Enumerable-totalSupply}."
      },
      "transferFrom(address,address,uint256)": {
        "details": "See {IERC721-transferFrom}."
      },
      "transferOwnership(address)": {
        "details": "Transfers ownership of the contract to a new account (`newOwner`). Can only be called by the current owner."
      }
    },
    "version": 1
  },
  "userdoc": {
    "kind": "user",
    "methods": {
      "mintMultipleTokens(uint256)": {
        "notice": "Mints given amount of tokens to sender address Calling conditions: - Mint has to be enabled - The address of this contract needs to be allowed   to transfer from sender 'tokenPrice * amount' amount - Tokens total price has to be transferred to the address   of this contract"
      },
      "mintToken()": {
        "notice": "Mints given amount of tokens to sender address} Calling conditions: - Mint has to be enabled - The address of this contract needs to be allowed   to transfer from sender 'tokenPrice * amount' amount - Tokens price has to be transferred to the address   of this contract"
      }
    },
    "version": 1
  }
}